{
	"Remix/practice3.sol": {
		"RequireExample": {
			"abi": [
				{
					"inputs": [],
					"stateMutability": "nonpayable",
					"type": "constructor"
				},
				{
					"inputs": [],
					"name": "isPaused",
					"outputs": [
						{
							"internalType": "bool",
							"name": "",
							"type": "bool"
						}
					],
					"stateMutability": "view",
					"type": "function"
				},
				{
					"inputs": [],
					"name": "owner",
					"outputs": [
						{
							"internalType": "address",
							"name": "",
							"type": "address"
						}
					],
					"stateMutability": "view",
					"type": "function"
				},
				{
					"inputs": [],
					"name": "restrictedFunction",
					"outputs": [],
					"stateMutability": "view",
					"type": "function"
				},
				{
					"inputs": [
						{
							"internalType": "bool",
							"name": "_isPaused",
							"type": "bool"
						}
					],
					"name": "setState",
					"outputs": [],
					"stateMutability": "nonpayable",
					"type": "function"
				}
			],
			"devdoc": {
				"kind": "dev",
				"methods": {},
				"version": 1
			},
			"evm": {
				"assembly": "    /* \"Remix/practice3.sol\":59:470  contract RequireExample {... */\n  mstore(0x40, 0x80)\n    /* \"Remix/practice3.sol\":146:197  constructor() {... */\n  callvalue\n  dup1\n  iszero\n  tag_1\n  jumpi\n  revert(0x00, 0x00)\ntag_1:\n  pop\n    /* \"Remix/practice3.sol\":179:189  msg.sender */\n  caller\n    /* \"Remix/practice3.sol\":171:176  owner */\n  0x00\n  0x00\n    /* \"Remix/practice3.sol\":171:189  owner = msg.sender */\n  0x0100\n  exp\n  dup2\n  sload\n  dup2\n  0xffffffffffffffffffffffffffffffffffffffff\n  mul\n  not\n  and\n  swap1\n  dup4\n  0xffffffffffffffffffffffffffffffffffffffff\n  and\n  mul\n  or\n  swap1\n  sstore\n  pop\n    /* \"Remix/practice3.sol\":59:470  contract RequireExample {... */\n  dataSize(sub_0)\n  dup1\n  dataOffset(sub_0)\n  0x00\n  codecopy\n  0x00\n  return\nstop\n\nsub_0: assembly {\n        /* \"Remix/practice3.sol\":59:470  contract RequireExample {... */\n      mstore(0x40, 0x80)\n      callvalue\n      dup1\n      iszero\n      tag_1\n      jumpi\n      revert(0x00, 0x00)\n    tag_1:\n      pop\n      jumpi(tag_2, lt(calldatasize, 0x04))\n      shr(0xe0, calldataload(0x00))\n      dup1\n      0x777acf37\n      eq\n      tag_3\n      jumpi\n      dup1\n      0x8da5cb5b\n      eq\n      tag_4\n      jumpi\n      dup1\n      0xac9f0222\n      eq\n      tag_5\n      jumpi\n      dup1\n      0xb187bd26\n      eq\n      tag_6\n      jumpi\n    tag_2:\n      revert(0x00, 0x00)\n        /* \"Remix/practice3.sol\":289:467  function restrictedFunction() public view {... */\n    tag_3:\n      tag_7\n      tag_8\n      jump\t// in\n    tag_7:\n      stop\n        /* \"Remix/practice3.sol\":90:110  address public owner */\n    tag_4:\n      tag_9\n      tag_10\n      jump\t// in\n    tag_9:\n      mload(0x40)\n      tag_11\n      swap2\n      swap1\n      tag_12\n      jump\t// in\n    tag_11:\n      mload(0x40)\n      dup1\n      swap2\n      sub\n      swap1\n      return\n        /* \"Remix/practice3.sol\":203:283  function setState(bool  _isPaused) public{... */\n    tag_5:\n      tag_13\n      0x04\n      dup1\n      calldatasize\n      sub\n      dup2\n      add\n      swap1\n      tag_14\n      swap2\n      swap1\n      tag_15\n      jump\t// in\n    tag_14:\n      tag_16\n      jump\t// in\n    tag_13:\n      stop\n        /* \"Remix/practice3.sol\":117:137  bool public isPaused */\n    tag_6:\n      tag_17\n      tag_18\n      jump\t// in\n    tag_17:\n      mload(0x40)\n      tag_19\n      swap2\n      swap1\n      tag_20\n      jump\t// in\n    tag_19:\n      mload(0x40)\n      dup1\n      swap2\n      sub\n      swap1\n      return\n        /* \"Remix/practice3.sol\":289:467  function restrictedFunction() public view {... */\n    tag_8:\n        /* \"Remix/practice3.sol\":351:359  isPaused */\n      0x00\n      0x14\n      swap1\n      sload\n      swap1\n      0x0100\n      exp\n      swap1\n      div\n      0xff\n      and\n        /* \"Remix/practice3.sol\":350:359  !isPaused */\n      iszero\n        /* \"Remix/practice3.sol\":342:382  require(!isPaused, \"Contract is paused\") */\n      tag_22\n      jumpi\n      mload(0x40)\n      0x08c379a000000000000000000000000000000000000000000000000000000000\n      dup2\n      mstore\n      0x04\n      add\n      tag_23\n      swap1\n      tag_24\n      jump\t// in\n    tag_23:\n      mload(0x40)\n      dup1\n      swap2\n      sub\n      swap1\n      revert\n    tag_22:\n        /* \"Remix/practice3.sol\":415:420  owner */\n      0x00\n      0x00\n      swap1\n      sload\n      swap1\n      0x0100\n      exp\n      swap1\n      div\n      0xffffffffffffffffffffffffffffffffffffffff\n      and\n        /* \"Remix/practice3.sol\":401:420  msg.sender == owner */\n      0xffffffffffffffffffffffffffffffffffffffff\n      and\n        /* \"Remix/practice3.sol\":401:411  msg.sender */\n      caller\n        /* \"Remix/practice3.sol\":401:420  msg.sender == owner */\n      0xffffffffffffffffffffffffffffffffffffffff\n      and\n      eq\n        /* \"Remix/practice3.sol\":393:434  require(msg.sender == owner, \"Not owner\") */\n      tag_25\n      jumpi\n      mload(0x40)\n      0x08c379a000000000000000000000000000000000000000000000000000000000\n      dup2\n      mstore\n      0x04\n      add\n      tag_26\n      swap1\n      tag_27\n      jump\t// in\n    tag_26:\n      mload(0x40)\n      dup1\n      swap2\n      sub\n      swap1\n      revert\n    tag_25:\n        /* \"Remix/practice3.sol\":289:467  function restrictedFunction() public view {... */\n      jump\t// out\n        /* \"Remix/practice3.sol\":90:110  address public owner */\n    tag_10:\n      0x00\n      0x00\n      swap1\n      sload\n      swap1\n      0x0100\n      exp\n      swap1\n      div\n      0xffffffffffffffffffffffffffffffffffffffff\n      and\n      dup2\n      jump\t// out\n        /* \"Remix/practice3.sol\":203:283  function setState(bool  _isPaused) public{... */\n    tag_16:\n        /* \"Remix/practice3.sol\":266:275  _isPaused */\n      dup1\n        /* \"Remix/practice3.sol\":255:263  isPaused */\n      0x00\n      0x14\n        /* \"Remix/practice3.sol\":255:275  isPaused = _isPaused */\n      0x0100\n      exp\n      dup2\n      sload\n      dup2\n      0xff\n      mul\n      not\n      and\n      swap1\n      dup4\n      iszero\n      iszero\n      mul\n      or\n      swap1\n      sstore\n      pop\n        /* \"Remix/practice3.sol\":203:283  function setState(bool  _isPaused) public{... */\n      pop\n      jump\t// out\n        /* \"Remix/practice3.sol\":117:137  bool public isPaused */\n    tag_18:\n      0x00\n      0x14\n      swap1\n      sload\n      swap1\n      0x0100\n      exp\n      swap1\n      div\n      0xff\n      and\n      dup2\n      jump\t// out\n        /* \"#utility.yul\":7:133   */\n    tag_29:\n        /* \"#utility.yul\":44:51   */\n      0x00\n        /* \"#utility.yul\":84:126   */\n      0xffffffffffffffffffffffffffffffffffffffff\n        /* \"#utility.yul\":77:82   */\n      dup3\n        /* \"#utility.yul\":73:127   */\n      and\n        /* \"#utility.yul\":62:127   */\n      swap1\n      pop\n        /* \"#utility.yul\":7:133   */\n      swap2\n      swap1\n      pop\n      jump\t// out\n        /* \"#utility.yul\":139:235   */\n    tag_30:\n        /* \"#utility.yul\":176:183   */\n      0x00\n        /* \"#utility.yul\":205:229   */\n      tag_47\n        /* \"#utility.yul\":223:228   */\n      dup3\n        /* \"#utility.yul\":205:229   */\n      tag_29\n      jump\t// in\n    tag_47:\n        /* \"#utility.yul\":194:229   */\n      swap1\n      pop\n        /* \"#utility.yul\":139:235   */\n      swap2\n      swap1\n      pop\n      jump\t// out\n        /* \"#utility.yul\":241:359   */\n    tag_31:\n        /* \"#utility.yul\":328:352   */\n      tag_49\n        /* \"#utility.yul\":346:351   */\n      dup2\n        /* \"#utility.yul\":328:352   */\n      tag_30\n      jump\t// in\n    tag_49:\n        /* \"#utility.yul\":323:326   */\n      dup3\n        /* \"#utility.yul\":316:353   */\n      mstore\n        /* \"#utility.yul\":241:359   */\n      pop\n      pop\n      jump\t// out\n        /* \"#utility.yul\":365:587   */\n    tag_12:\n        /* \"#utility.yul\":458:462   */\n      0x00\n        /* \"#utility.yul\":496:498   */\n      0x20\n        /* \"#utility.yul\":485:494   */\n      dup3\n        /* \"#utility.yul\":481:499   */\n      add\n        /* \"#utility.yul\":473:499   */\n      swap1\n      pop\n        /* \"#utility.yul\":509:580   */\n      tag_51\n        /* \"#utility.yul\":577:578   */\n      0x00\n        /* \"#utility.yul\":566:575   */\n      dup4\n        /* \"#utility.yul\":562:579   */\n      add\n        /* \"#utility.yul\":553:559   */\n      dup5\n        /* \"#utility.yul\":509:580   */\n      tag_31\n      jump\t// in\n    tag_51:\n        /* \"#utility.yul\":365:587   */\n      swap3\n      swap2\n      pop\n      pop\n      jump\t// out\n        /* \"#utility.yul\":674:791   */\n    tag_33:\n        /* \"#utility.yul\":783:784   */\n      0x00\n        /* \"#utility.yul\":780:781   */\n      0x00\n        /* \"#utility.yul\":773:785   */\n      revert\n        /* \"#utility.yul\":920:1010   */\n    tag_35:\n        /* \"#utility.yul\":954:961   */\n      0x00\n        /* \"#utility.yul\":997:1002   */\n      dup2\n        /* \"#utility.yul\":990:1003   */\n      iszero\n        /* \"#utility.yul\":983:1004   */\n      iszero\n        /* \"#utility.yul\":972:1004   */\n      swap1\n      pop\n        /* \"#utility.yul\":920:1010   */\n      swap2\n      swap1\n      pop\n      jump\t// out\n        /* \"#utility.yul\":1016:1132   */\n    tag_36:\n        /* \"#utility.yul\":1086:1107   */\n      tag_57\n        /* \"#utility.yul\":1101:1106   */\n      dup2\n        /* \"#utility.yul\":1086:1107   */\n      tag_35\n      jump\t// in\n    tag_57:\n        /* \"#utility.yul\":1079:1084   */\n      dup2\n        /* \"#utility.yul\":1076:1108   */\n      eq\n        /* \"#utility.yul\":1066:1126   */\n      tag_58\n      jumpi\n        /* \"#utility.yul\":1122:1123   */\n      0x00\n        /* \"#utility.yul\":1119:1120   */\n      0x00\n        /* \"#utility.yul\":1112:1124   */\n      revert\n        /* \"#utility.yul\":1066:1126   */\n    tag_58:\n        /* \"#utility.yul\":1016:1132   */\n      pop\n      jump\t// out\n        /* \"#utility.yul\":1138:1271   */\n    tag_37:\n        /* \"#utility.yul\":1181:1186   */\n      0x00\n        /* \"#utility.yul\":1219:1225   */\n      dup2\n        /* \"#utility.yul\":1206:1226   */\n      calldataload\n        /* \"#utility.yul\":1197:1226   */\n      swap1\n      pop\n        /* \"#utility.yul\":1235:1265   */\n      tag_60\n        /* \"#utility.yul\":1259:1264   */\n      dup2\n        /* \"#utility.yul\":1235:1265   */\n      tag_36\n      jump\t// in\n    tag_60:\n        /* \"#utility.yul\":1138:1271   */\n      swap3\n      swap2\n      pop\n      pop\n      jump\t// out\n        /* \"#utility.yul\":1277:1600   */\n    tag_15:\n        /* \"#utility.yul\":1333:1339   */\n      0x00\n        /* \"#utility.yul\":1382:1384   */\n      0x20\n        /* \"#utility.yul\":1370:1379   */\n      dup3\n        /* \"#utility.yul\":1361:1368   */\n      dup5\n        /* \"#utility.yul\":1357:1380   */\n      sub\n        /* \"#utility.yul\":1353:1385   */\n      slt\n        /* \"#utility.yul\":1350:1469   */\n      iszero\n      tag_62\n      jumpi\n        /* \"#utility.yul\":1388:1467   */\n      tag_63\n      tag_33\n      jump\t// in\n    tag_63:\n        /* \"#utility.yul\":1350:1469   */\n    tag_62:\n        /* \"#utility.yul\":1508:1509   */\n      0x00\n        /* \"#utility.yul\":1533:1583   */\n      tag_64\n        /* \"#utility.yul\":1575:1582   */\n      dup5\n        /* \"#utility.yul\":1566:1572   */\n      dup3\n        /* \"#utility.yul\":1555:1564   */\n      dup6\n        /* \"#utility.yul\":1551:1573   */\n      add\n        /* \"#utility.yul\":1533:1583   */\n      tag_37\n      jump\t// in\n    tag_64:\n        /* \"#utility.yul\":1523:1583   */\n      swap2\n      pop\n        /* \"#utility.yul\":1479:1593   */\n      pop\n        /* \"#utility.yul\":1277:1600   */\n      swap3\n      swap2\n      pop\n      pop\n      jump\t// out\n        /* \"#utility.yul\":1606:1715   */\n    tag_38:\n        /* \"#utility.yul\":1687:1708   */\n      tag_66\n        /* \"#utility.yul\":1702:1707   */\n      dup2\n        /* \"#utility.yul\":1687:1708   */\n      tag_35\n      jump\t// in\n    tag_66:\n        /* \"#utility.yul\":1682:1685   */\n      dup3\n        /* \"#utility.yul\":1675:1709   */\n      mstore\n        /* \"#utility.yul\":1606:1715   */\n      pop\n      pop\n      jump\t// out\n        /* \"#utility.yul\":1721:1931   */\n    tag_20:\n        /* \"#utility.yul\":1808:1812   */\n      0x00\n        /* \"#utility.yul\":1846:1848   */\n      0x20\n        /* \"#utility.yul\":1835:1844   */\n      dup3\n        /* \"#utility.yul\":1831:1849   */\n      add\n        /* \"#utility.yul\":1823:1849   */\n      swap1\n      pop\n        /* \"#utility.yul\":1859:1924   */\n      tag_68\n        /* \"#utility.yul\":1921:1922   */\n      0x00\n        /* \"#utility.yul\":1910:1919   */\n      dup4\n        /* \"#utility.yul\":1906:1923   */\n      add\n        /* \"#utility.yul\":1897:1903   */\n      dup5\n        /* \"#utility.yul\":1859:1924   */\n      tag_38\n      jump\t// in\n    tag_68:\n        /* \"#utility.yul\":1721:1931   */\n      swap3\n      swap2\n      pop\n      pop\n      jump\t// out\n        /* \"#utility.yul\":1937:2106   */\n    tag_39:\n        /* \"#utility.yul\":2021:2032   */\n      0x00\n        /* \"#utility.yul\":2055:2061   */\n      dup3\n        /* \"#utility.yul\":2050:2053   */\n      dup3\n        /* \"#utility.yul\":2043:2062   */\n      mstore\n        /* \"#utility.yul\":2095:2099   */\n      0x20\n        /* \"#utility.yul\":2090:2093   */\n      dup3\n        /* \"#utility.yul\":2086:2100   */\n      add\n        /* \"#utility.yul\":2071:2100   */\n      swap1\n      pop\n        /* \"#utility.yul\":1937:2106   */\n      swap3\n      swap2\n      pop\n      pop\n      jump\t// out\n        /* \"#utility.yul\":2112:2280   */\n    tag_40:\n        /* \"#utility.yul\":2252:2272   */\n      0x436f6e7472616374206973207061757365640000000000000000000000000000\n        /* \"#utility.yul\":2248:2249   */\n      0x00\n        /* \"#utility.yul\":2240:2246   */\n      dup3\n        /* \"#utility.yul\":2236:2250   */\n      add\n        /* \"#utility.yul\":2229:2273   */\n      mstore\n        /* \"#utility.yul\":2112:2280   */\n      pop\n      jump\t// out\n        /* \"#utility.yul\":2286:2652   */\n    tag_41:\n        /* \"#utility.yul\":2428:2431   */\n      0x00\n        /* \"#utility.yul\":2449:2516   */\n      tag_72\n        /* \"#utility.yul\":2513:2515   */\n      0x12\n        /* \"#utility.yul\":2508:2511   */\n      dup4\n        /* \"#utility.yul\":2449:2516   */\n      tag_39\n      jump\t// in\n    tag_72:\n        /* \"#utility.yul\":2442:2516   */\n      swap2\n      pop\n        /* \"#utility.yul\":2525:2618   */\n      tag_73\n        /* \"#utility.yul\":2614:2617   */\n      dup3\n        /* \"#utility.yul\":2525:2618   */\n      tag_40\n      jump\t// in\n    tag_73:\n        /* \"#utility.yul\":2643:2645   */\n      0x20\n        /* \"#utility.yul\":2638:2641   */\n      dup3\n        /* \"#utility.yul\":2634:2646   */\n      add\n        /* \"#utility.yul\":2627:2646   */\n      swap1\n      pop\n        /* \"#utility.yul\":2286:2652   */\n      swap2\n      swap1\n      pop\n      jump\t// out\n        /* \"#utility.yul\":2658:3077   */\n    tag_24:\n        /* \"#utility.yul\":2824:2828   */\n      0x00\n        /* \"#utility.yul\":2862:2864   */\n      0x20\n        /* \"#utility.yul\":2851:2860   */\n      dup3\n        /* \"#utility.yul\":2847:2865   */\n      add\n        /* \"#utility.yul\":2839:2865   */\n      swap1\n      pop\n        /* \"#utility.yul\":2911:2920   */\n      dup2\n        /* \"#utility.yul\":2905:2909   */\n      dup2\n        /* \"#utility.yul\":2901:2921   */\n      sub\n        /* \"#utility.yul\":2897:2898   */\n      0x00\n        /* \"#utility.yul\":2886:2895   */\n      dup4\n        /* \"#utility.yul\":2882:2899   */\n      add\n        /* \"#utility.yul\":2875:2922   */\n      mstore\n        /* \"#utility.yul\":2939:3070   */\n      tag_75\n        /* \"#utility.yul\":3065:3069   */\n      dup2\n        /* \"#utility.yul\":2939:3070   */\n      tag_41\n      jump\t// in\n    tag_75:\n        /* \"#utility.yul\":2931:3070   */\n      swap1\n      pop\n        /* \"#utility.yul\":2658:3077   */\n      swap2\n      swap1\n      pop\n      jump\t// out\n        /* \"#utility.yul\":3083:3242   */\n    tag_42:\n        /* \"#utility.yul\":3223:3234   */\n      0x4e6f74206f776e65720000000000000000000000000000000000000000000000\n        /* \"#utility.yul\":3219:3220   */\n      0x00\n        /* \"#utility.yul\":3211:3217   */\n      dup3\n        /* \"#utility.yul\":3207:3221   */\n      add\n        /* \"#utility.yul\":3200:3235   */\n      mstore\n        /* \"#utility.yul\":3083:3242   */\n      pop\n      jump\t// out\n        /* \"#utility.yul\":3248:3613   */\n    tag_43:\n        /* \"#utility.yul\":3390:3393   */\n      0x00\n        /* \"#utility.yul\":3411:3477   */\n      tag_78\n        /* \"#utility.yul\":3475:3476   */\n      0x09\n        /* \"#utility.yul\":3470:3473   */\n      dup4\n        /* \"#utility.yul\":3411:3477   */\n      tag_39\n      jump\t// in\n    tag_78:\n        /* \"#utility.yul\":3404:3477   */\n      swap2\n      pop\n        /* \"#utility.yul\":3486:3579   */\n      tag_79\n        /* \"#utility.yul\":3575:3578   */\n      dup3\n        /* \"#utility.yul\":3486:3579   */\n      tag_42\n      jump\t// in\n    tag_79:\n        /* \"#utility.yul\":3604:3606   */\n      0x20\n        /* \"#utility.yul\":3599:3602   */\n      dup3\n        /* \"#utility.yul\":3595:3607   */\n      add\n        /* \"#utility.yul\":3588:3607   */\n      swap1\n      pop\n        /* \"#utility.yul\":3248:3613   */\n      swap2\n      swap1\n      pop\n      jump\t// out\n        /* \"#utility.yul\":3619:4038   */\n    tag_27:\n        /* \"#utility.yul\":3785:3789   */\n      0x00\n        /* \"#utility.yul\":3823:3825   */\n      0x20\n        /* \"#utility.yul\":3812:3821   */\n      dup3\n        /* \"#utility.yul\":3808:3826   */\n      add\n        /* \"#utility.yul\":3800:3826   */\n      swap1\n      pop\n        /* \"#utility.yul\":3872:3881   */\n      dup2\n        /* \"#utility.yul\":3866:3870   */\n      dup2\n        /* \"#utility.yul\":3862:3882   */\n      sub\n        /* \"#utility.yul\":3858:3859   */\n      0x00\n        /* \"#utility.yul\":3847:3856   */\n      dup4\n        /* \"#utility.yul\":3843:3860   */\n      add\n        /* \"#utility.yul\":3836:3883   */\n      mstore\n        /* \"#utility.yul\":3900:4031   */\n      tag_81\n        /* \"#utility.yul\":4026:4030   */\n      dup2\n        /* \"#utility.yul\":3900:4031   */\n      tag_43\n      jump\t// in\n    tag_81:\n        /* \"#utility.yul\":3892:4031   */\n      swap1\n      pop\n        /* \"#utility.yul\":3619:4038   */\n      swap2\n      swap1\n      pop\n      jump\t// out\n\n    auxdata: 0xa2646970667358221220d014bfd79a9775f013b43825869d009f46c83477b06a71495426c5c2bd0019c864736f6c634300081f0033\n}\n",
				"bytecode": {
					"linkReferences": {},
					"object": "6080604052348015600e575f5ffd5b50335f5f6101000a81548173ffffffffffffffffffffffffffffffffffffffff021916908373ffffffffffffffffffffffffffffffffffffffff1602179055506103db8061005b5f395ff3fe608060405234801561000f575f5ffd5b506004361061004a575f3560e01c8063777acf371461004e5780638da5cb5b14610058578063ac9f022214610076578063b187bd2614610092575b5f5ffd5b6100566100b0565b005b61006061018f565b60405161006d9190610220565b60405180910390f35b610090600480360381019061008b9190610272565b6101b3565b005b61009a6101cf565b6040516100a791906102ac565b60405180910390f35b5f60149054906101000a900460ff16156100ff576040517f08c379a00000000000000000000000000000000000000000000000000000000081526004016100f69061031f565b60405180910390fd5b5f5f9054906101000a900473ffffffffffffffffffffffffffffffffffffffff1673ffffffffffffffffffffffffffffffffffffffff163373ffffffffffffffffffffffffffffffffffffffff161461018d576040517f08c379a000000000000000000000000000000000000000000000000000000000815260040161018490610387565b60405180910390fd5b565b5f5f9054906101000a900473ffffffffffffffffffffffffffffffffffffffff1681565b805f60146101000a81548160ff02191690831515021790555050565b5f60149054906101000a900460ff1681565b5f73ffffffffffffffffffffffffffffffffffffffff82169050919050565b5f61020a826101e1565b9050919050565b61021a81610200565b82525050565b5f6020820190506102335f830184610211565b92915050565b5f5ffd5b5f8115159050919050565b6102518161023d565b811461025b575f5ffd5b50565b5f8135905061026c81610248565b92915050565b5f6020828403121561028757610286610239565b5b5f6102948482850161025e565b91505092915050565b6102a68161023d565b82525050565b5f6020820190506102bf5f83018461029d565b92915050565b5f82825260208201905092915050565b7f436f6e74726163742069732070617573656400000000000000000000000000005f82015250565b5f6103096012836102c5565b9150610314826102d5565b602082019050919050565b5f6020820190508181035f830152610336816102fd565b9050919050565b7f4e6f74206f776e657200000000000000000000000000000000000000000000005f82015250565b5f6103716009836102c5565b915061037c8261033d565b602082019050919050565b5f6020820190508181035f83015261039e81610365565b905091905056fea2646970667358221220d014bfd79a9775f013b43825869d009f46c83477b06a71495426c5c2bd0019c864736f6c634300081f0033",
					"opcodes": "PUSH1 0x80 PUSH1 0x40 MSTORE CALLVALUE DUP1 ISZERO PUSH1 0xE JUMPI PUSH0 PUSH0 REVERT JUMPDEST POP CALLER PUSH0 PUSH0 PUSH2 0x100 EXP DUP2 SLOAD DUP2 PUSH20 0xFFFFFFFFFFFFFFFFFFFFFFFFFFFFFFFFFFFFFFFF MUL NOT AND SWAP1 DUP4 PUSH20 0xFFFFFFFFFFFFFFFFFFFFFFFFFFFFFFFFFFFFFFFF AND MUL OR SWAP1 SSTORE POP PUSH2 0x3DB DUP1 PUSH2 0x5B PUSH0 CODECOPY PUSH0 RETURN INVALID PUSH1 0x80 PUSH1 0x40 MSTORE CALLVALUE DUP1 ISZERO PUSH2 0xF JUMPI PUSH0 PUSH0 REVERT JUMPDEST POP PUSH1 0x4 CALLDATASIZE LT PUSH2 0x4A JUMPI PUSH0 CALLDATALOAD PUSH1 0xE0 SHR DUP1 PUSH4 0x777ACF37 EQ PUSH2 0x4E JUMPI DUP1 PUSH4 0x8DA5CB5B EQ PUSH2 0x58 JUMPI DUP1 PUSH4 0xAC9F0222 EQ PUSH2 0x76 JUMPI DUP1 PUSH4 0xB187BD26 EQ PUSH2 0x92 JUMPI JUMPDEST PUSH0 PUSH0 REVERT JUMPDEST PUSH2 0x56 PUSH2 0xB0 JUMP JUMPDEST STOP JUMPDEST PUSH2 0x60 PUSH2 0x18F JUMP JUMPDEST PUSH1 0x40 MLOAD PUSH2 0x6D SWAP2 SWAP1 PUSH2 0x220 JUMP JUMPDEST PUSH1 0x40 MLOAD DUP1 SWAP2 SUB SWAP1 RETURN JUMPDEST PUSH2 0x90 PUSH1 0x4 DUP1 CALLDATASIZE SUB DUP2 ADD SWAP1 PUSH2 0x8B SWAP2 SWAP1 PUSH2 0x272 JUMP JUMPDEST PUSH2 0x1B3 JUMP JUMPDEST STOP JUMPDEST PUSH2 0x9A PUSH2 0x1CF JUMP JUMPDEST PUSH1 0x40 MLOAD PUSH2 0xA7 SWAP2 SWAP1 PUSH2 0x2AC JUMP JUMPDEST PUSH1 0x40 MLOAD DUP1 SWAP2 SUB SWAP1 RETURN JUMPDEST PUSH0 PUSH1 0x14 SWAP1 SLOAD SWAP1 PUSH2 0x100 EXP SWAP1 DIV PUSH1 0xFF AND ISZERO PUSH2 0xFF JUMPI PUSH1 0x40 MLOAD PUSH32 0x8C379A000000000000000000000000000000000000000000000000000000000 DUP2 MSTORE PUSH1 0x4 ADD PUSH2 0xF6 SWAP1 PUSH2 0x31F JUMP JUMPDEST PUSH1 0x40 MLOAD DUP1 SWAP2 SUB SWAP1 REVERT JUMPDEST PUSH0 PUSH0 SWAP1 SLOAD SWAP1 PUSH2 0x100 EXP SWAP1 DIV PUSH20 0xFFFFFFFFFFFFFFFFFFFFFFFFFFFFFFFFFFFFFFFF AND PUSH20 0xFFFFFFFFFFFFFFFFFFFFFFFFFFFFFFFFFFFFFFFF AND CALLER PUSH20 0xFFFFFFFFFFFFFFFFFFFFFFFFFFFFFFFFFFFFFFFF AND EQ PUSH2 0x18D JUMPI PUSH1 0x40 MLOAD PUSH32 0x8C379A000000000000000000000000000000000000000000000000000000000 DUP2 MSTORE PUSH1 0x4 ADD PUSH2 0x184 SWAP1 PUSH2 0x387 JUMP JUMPDEST PUSH1 0x40 MLOAD DUP1 SWAP2 SUB SWAP1 REVERT JUMPDEST JUMP JUMPDEST PUSH0 PUSH0 SWAP1 SLOAD SWAP1 PUSH2 0x100 EXP SWAP1 DIV PUSH20 0xFFFFFFFFFFFFFFFFFFFFFFFFFFFFFFFFFFFFFFFF AND DUP2 JUMP JUMPDEST DUP1 PUSH0 PUSH1 0x14 PUSH2 0x100 EXP DUP2 SLOAD DUP2 PUSH1 0xFF MUL NOT AND SWAP1 DUP4 ISZERO ISZERO MUL OR SWAP1 SSTORE POP POP JUMP JUMPDEST PUSH0 PUSH1 0x14 SWAP1 SLOAD SWAP1 PUSH2 0x100 EXP SWAP1 DIV PUSH1 0xFF AND DUP2 JUMP JUMPDEST PUSH0 PUSH20 0xFFFFFFFFFFFFFFFFFFFFFFFFFFFFFFFFFFFFFFFF DUP3 AND SWAP1 POP SWAP2 SWAP1 POP JUMP JUMPDEST PUSH0 PUSH2 0x20A DUP3 PUSH2 0x1E1 JUMP JUMPDEST SWAP1 POP SWAP2 SWAP1 POP JUMP JUMPDEST PUSH2 0x21A DUP2 PUSH2 0x200 JUMP JUMPDEST DUP3 MSTORE POP POP JUMP JUMPDEST PUSH0 PUSH1 0x20 DUP3 ADD SWAP1 POP PUSH2 0x233 PUSH0 DUP4 ADD DUP5 PUSH2 0x211 JUMP JUMPDEST SWAP3 SWAP2 POP POP JUMP JUMPDEST PUSH0 PUSH0 REVERT JUMPDEST PUSH0 DUP2 ISZERO ISZERO SWAP1 POP SWAP2 SWAP1 POP JUMP JUMPDEST PUSH2 0x251 DUP2 PUSH2 0x23D JUMP JUMPDEST DUP2 EQ PUSH2 0x25B JUMPI PUSH0 PUSH0 REVERT JUMPDEST POP JUMP JUMPDEST PUSH0 DUP2 CALLDATALOAD SWAP1 POP PUSH2 0x26C DUP2 PUSH2 0x248 JUMP JUMPDEST SWAP3 SWAP2 POP POP JUMP JUMPDEST PUSH0 PUSH1 0x20 DUP3 DUP5 SUB SLT ISZERO PUSH2 0x287 JUMPI PUSH2 0x286 PUSH2 0x239 JUMP JUMPDEST JUMPDEST PUSH0 PUSH2 0x294 DUP5 DUP3 DUP6 ADD PUSH2 0x25E JUMP JUMPDEST SWAP2 POP POP SWAP3 SWAP2 POP POP JUMP JUMPDEST PUSH2 0x2A6 DUP2 PUSH2 0x23D JUMP JUMPDEST DUP3 MSTORE POP POP JUMP JUMPDEST PUSH0 PUSH1 0x20 DUP3 ADD SWAP1 POP PUSH2 0x2BF PUSH0 DUP4 ADD DUP5 PUSH2 0x29D JUMP JUMPDEST SWAP3 SWAP2 POP POP JUMP JUMPDEST PUSH0 DUP3 DUP3 MSTORE PUSH1 0x20 DUP3 ADD SWAP1 POP SWAP3 SWAP2 POP POP JUMP JUMPDEST PUSH32 0x436F6E7472616374206973207061757365640000000000000000000000000000 PUSH0 DUP3 ADD MSTORE POP JUMP JUMPDEST PUSH0 PUSH2 0x309 PUSH1 0x12 DUP4 PUSH2 0x2C5 JUMP JUMPDEST SWAP2 POP PUSH2 0x314 DUP3 PUSH2 0x2D5 JUMP JUMPDEST PUSH1 0x20 DUP3 ADD SWAP1 POP SWAP2 SWAP1 POP JUMP JUMPDEST PUSH0 PUSH1 0x20 DUP3 ADD SWAP1 POP DUP2 DUP2 SUB PUSH0 DUP4 ADD MSTORE PUSH2 0x336 DUP2 PUSH2 0x2FD JUMP JUMPDEST SWAP1 POP SWAP2 SWAP1 POP JUMP JUMPDEST PUSH32 0x4E6F74206F776E65720000000000000000000000000000000000000000000000 PUSH0 DUP3 ADD MSTORE POP JUMP JUMPDEST PUSH0 PUSH2 0x371 PUSH1 0x9 DUP4 PUSH2 0x2C5 JUMP JUMPDEST SWAP2 POP PUSH2 0x37C DUP3 PUSH2 0x33D JUMP JUMPDEST PUSH1 0x20 DUP3 ADD SWAP1 POP SWAP2 SWAP1 POP JUMP JUMPDEST PUSH0 PUSH1 0x20 DUP3 ADD SWAP1 POP DUP2 DUP2 SUB PUSH0 DUP4 ADD MSTORE PUSH2 0x39E DUP2 PUSH2 0x365 JUMP JUMPDEST SWAP1 POP SWAP2 SWAP1 POP JUMP INVALID LOG2 PUSH5 0x6970667358 0x22 SLT KECCAK256 0xD0 EQ 0xBF 0xD7 SWAP11 SWAP8 PUSH22 0xF013B43825869D009F46C83477B06A71495426C5C2BD STOP NOT 0xC8 PUSH5 0x736F6C6343 STOP ADDMOD 0x1F STOP CALLER "
				},
				"gasEstimates": {
					"creation": {
						"codeDepositCost": "197400",
						"executionCost": "24500",
						"totalCost": "221900"
					},
					"external": {
						"isPaused()": "2560",
						"owner()": "2507",
						"restrictedFunction()": "4778",
						"setState(bool)": "24745"
					}
				},
				"methodIdentifiers": {
					"isPaused()": "b187bd26",
					"owner()": "8da5cb5b",
					"restrictedFunction()": "777acf37",
					"setState(bool)": "ac9f0222"
				}
			},
			"storageLayout": {
				"storage": [
					{
						"astId": 3,
						"contract": "Remix/practice3.sol:RequireExample",
						"label": "owner",
						"offset": 0,
						"slot": "0",
						"type": "t_address"
					},
					{
						"astId": 5,
						"contract": "Remix/practice3.sol:RequireExample",
						"label": "isPaused",
						"offset": 20,
						"slot": "0",
						"type": "t_bool"
					}
				],
				"types": {
					"t_address": {
						"encoding": "inplace",
						"label": "address",
						"numberOfBytes": "20"
					},
					"t_bool": {
						"encoding": "inplace",
						"label": "bool",
						"numberOfBytes": "1"
					}
				}
			},
			"userdoc": {
				"kind": "user",
				"methods": {},
				"version": 1
			}
		}
	}
}