{
	"Remix/Day16_Oracle.sol": {
		"SmartGreenhouse": {
			"abi": [
				{
					"inputs": [
						{
							"internalType": "address",
							"name": "_oracleAddress",
							"type": "address"
						}
					],
					"stateMutability": "nonpayable",
					"type": "constructor"
				},
				{
					"inputs": [
						{
							"internalType": "uint256",
							"name": "",
							"type": "uint256"
						},
						{
							"internalType": "uint256",
							"name": "_temp",
							"type": "uint256"
						}
					],
					"name": "fulfillWeather",
					"outputs": [],
					"stateMutability": "nonpayable",
					"type": "function"
				},
				{
					"inputs": [],
					"name": "oracle",
					"outputs": [
						{
							"internalType": "contract MockOracle",
							"name": "",
							"type": "address"
						}
					],
					"stateMutability": "view",
					"type": "function"
				},
				{
					"inputs": [],
					"name": "sprinklerOn",
					"outputs": [
						{
							"internalType": "bool",
							"name": "",
							"type": "bool"
						}
					],
					"stateMutability": "view",
					"type": "function"
				},
				{
					"inputs": [],
					"name": "temperature",
					"outputs": [
						{
							"internalType": "uint256",
							"name": "",
							"type": "uint256"
						}
					],
					"stateMutability": "view",
					"type": "function"
				},
				{
					"inputs": [],
					"name": "updateWeather",
					"outputs": [],
					"stateMutability": "nonpayable",
					"type": "function"
				}
			],
			"devdoc": {
				"kind": "dev",
				"methods": {},
				"version": 1
			},
			"evm": {
				"assembly": "    /* \"Remix/Day16_Oracle.sol\":1563:2571  contract SmartGreenhouse is IGreenhouse {... */\n  mstore(0x40, 0x80)\n    /* \"Remix/Day16_Oracle.sol\":1932:2022  constructor(address _oracleAddress) {... */\n  callvalue\n  dup1\n  iszero\n  tag_1\n  jumpi\n  revert(0x00, 0x00)\ntag_1:\n  pop\n  mload(0x40)\n  sub(codesize, bytecodeSize)\n  dup1\n  bytecodeSize\n  dup4\n  codecopy\n  dup2\n  dup2\n  add\n  0x40\n  mstore\n  dup2\n  add\n  swap1\n  tag_2\n  swap2\n  swap1\n  tag_3\n  jump\t// in\ntag_2:\n    /* \"Remix/Day16_Oracle.sol\":1999:2013  _oracleAddress */\n  dup1\n    /* \"Remix/Day16_Oracle.sol\":1979:1985  oracle */\n  0x00\n  0x00\n    /* \"Remix/Day16_Oracle.sol\":1979:2014  oracle = MockOracle(_oracleAddress) */\n  0x0100\n  exp\n  dup2\n  sload\n  dup2\n  0xffffffffffffffffffffffffffffffffffffffff\n  mul\n  not\n  and\n  swap1\n  dup4\n  0xffffffffffffffffffffffffffffffffffffffff\n  and\n  mul\n  or\n  swap1\n  sstore\n  pop\n    /* \"Remix/Day16_Oracle.sol\":1932:2022  constructor(address _oracleAddress) {... */\n  pop\n    /* \"Remix/Day16_Oracle.sol\":1563:2571  contract SmartGreenhouse is IGreenhouse {... */\n  jump(tag_6)\n    /* \"#utility.yul\":88:205   */\ntag_8:\n    /* \"#utility.yul\":197:198   */\n  0x00\n    /* \"#utility.yul\":194:195   */\n  0x00\n    /* \"#utility.yul\":187:199   */\n  revert\n    /* \"#utility.yul\":334:460   */\ntag_10:\n    /* \"#utility.yul\":371:378   */\n  0x00\n    /* \"#utility.yul\":411:453   */\n  0xffffffffffffffffffffffffffffffffffffffff\n    /* \"#utility.yul\":404:409   */\n  dup3\n    /* \"#utility.yul\":400:454   */\n  and\n    /* \"#utility.yul\":389:454   */\n  swap1\n  pop\n    /* \"#utility.yul\":334:460   */\n  swap2\n  swap1\n  pop\n  jump\t// out\n    /* \"#utility.yul\":466:562   */\ntag_11:\n    /* \"#utility.yul\":503:510   */\n  0x00\n    /* \"#utility.yul\":532:556   */\n  tag_20\n    /* \"#utility.yul\":550:555   */\n  dup3\n    /* \"#utility.yul\":532:556   */\n  tag_10\n  jump\t// in\ntag_20:\n    /* \"#utility.yul\":521:556   */\n  swap1\n  pop\n    /* \"#utility.yul\":466:562   */\n  swap2\n  swap1\n  pop\n  jump\t// out\n    /* \"#utility.yul\":568:690   */\ntag_12:\n    /* \"#utility.yul\":641:665   */\n  tag_22\n    /* \"#utility.yul\":659:664   */\n  dup2\n    /* \"#utility.yul\":641:665   */\n  tag_11\n  jump\t// in\ntag_22:\n    /* \"#utility.yul\":634:639   */\n  dup2\n    /* \"#utility.yul\":631:666   */\n  eq\n    /* \"#utility.yul\":621:684   */\n  tag_23\n  jumpi\n    /* \"#utility.yul\":680:681   */\n  0x00\n    /* \"#utility.yul\":677:678   */\n  0x00\n    /* \"#utility.yul\":670:682   */\n  revert\n    /* \"#utility.yul\":621:684   */\ntag_23:\n    /* \"#utility.yul\":568:690   */\n  pop\n  jump\t// out\n    /* \"#utility.yul\":696:839   */\ntag_13:\n    /* \"#utility.yul\":753:758   */\n  0x00\n    /* \"#utility.yul\":784:790   */\n  dup2\n    /* \"#utility.yul\":778:791   */\n  mload\n    /* \"#utility.yul\":769:791   */\n  swap1\n  pop\n    /* \"#utility.yul\":800:833   */\n  tag_25\n    /* \"#utility.yul\":827:832   */\n  dup2\n    /* \"#utility.yul\":800:833   */\n  tag_12\n  jump\t// in\ntag_25:\n    /* \"#utility.yul\":696:839   */\n  swap3\n  swap2\n  pop\n  pop\n  jump\t// out\n    /* \"#utility.yul\":845:1196   */\ntag_3:\n    /* \"#utility.yul\":915:921   */\n  0x00\n    /* \"#utility.yul\":964:966   */\n  0x20\n    /* \"#utility.yul\":952:961   */\n  dup3\n    /* \"#utility.yul\":943:950   */\n  dup5\n    /* \"#utility.yul\":939:962   */\n  sub\n    /* \"#utility.yul\":935:967   */\n  slt\n    /* \"#utility.yul\":932:1051   */\n  iszero\n  tag_27\n  jumpi\n    /* \"#utility.yul\":970:1049   */\n  tag_28\n  tag_8\n  jump\t// in\ntag_28:\n    /* \"#utility.yul\":932:1051   */\ntag_27:\n    /* \"#utility.yul\":1090:1091   */\n  0x00\n    /* \"#utility.yul\":1115:1179   */\n  tag_29\n    /* \"#utility.yul\":1171:1178   */\n  dup5\n    /* \"#utility.yul\":1162:1168   */\n  dup3\n    /* \"#utility.yul\":1151:1160   */\n  dup6\n    /* \"#utility.yul\":1147:1169   */\n  add\n    /* \"#utility.yul\":1115:1179   */\n  tag_13\n  jump\t// in\ntag_29:\n    /* \"#utility.yul\":1105:1179   */\n  swap2\n  pop\n    /* \"#utility.yul\":1061:1189   */\n  pop\n    /* \"#utility.yul\":845:1196   */\n  swap3\n  swap2\n  pop\n  pop\n  jump\t// out\n    /* \"Remix/Day16_Oracle.sol\":1563:2571  contract SmartGreenhouse is IGreenhouse {... */\ntag_6:\n  dataSize(sub_0)\n  dup1\n  dataOffset(sub_0)\n  0x00\n  codecopy\n  0x00\n  return\nstop\n\nsub_0: assembly {\n        /* \"Remix/Day16_Oracle.sol\":1563:2571  contract SmartGreenhouse is IGreenhouse {... */\n      mstore(0x40, 0x80)\n      callvalue\n      dup1\n      iszero\n      tag_1\n      jumpi\n      revert(0x00, 0x00)\n    tag_1:\n      pop\n      jumpi(tag_2, lt(calldatasize, 0x04))\n      shr(0xe0, calldataload(0x00))\n      dup1\n      0x5adf9e3b\n      eq\n      tag_3\n      jumpi\n      dup1\n      0x7dc0d1d0\n      eq\n      tag_4\n      jumpi\n      dup1\n      0xadccea12\n      eq\n      tag_5\n      jumpi\n      dup1\n      0xe65929f8\n      eq\n      tag_6\n      jumpi\n      dup1\n      0xecc52cb9\n      eq\n      tag_7\n      jumpi\n    tag_2:\n      revert(0x00, 0x00)\n        /* \"Remix/Day16_Oracle.sol\":2254:2568  function fulfillWeather(uint256, uint256 _temp) external override onlyOracle {... */\n    tag_3:\n      tag_8\n      0x04\n      dup1\n      calldatasize\n      sub\n      dup2\n      add\n      swap1\n      tag_9\n      swap2\n      swap1\n      tag_10\n      jump\t// in\n    tag_9:\n      tag_11\n      jump\t// in\n    tag_8:\n      stop\n        /* \"Remix/Day16_Oracle.sol\":1610:1634  MockOracle public oracle */\n    tag_4:\n      tag_12\n      tag_13\n      jump\t// in\n    tag_12:\n      mload(0x40)\n      tag_14\n      swap2\n      swap1\n      tag_15\n      jump\t// in\n    tag_14:\n      mload(0x40)\n      dup1\n      swap2\n      sub\n      swap1\n      return\n        /* \"Remix/Day16_Oracle.sol\":1647:1673  uint256 public temperature */\n    tag_5:\n      tag_16\n      tag_17\n      jump\t// in\n    tag_16:\n      mload(0x40)\n      tag_18\n      swap2\n      swap1\n      tag_19\n      jump\t// in\n    tag_18:\n      mload(0x40)\n      dup1\n      swap2\n      sub\n      swap1\n      return\n        /* \"Remix/Day16_Oracle.sol\":1696:1719  bool public sprinklerOn */\n    tag_6:\n      tag_20\n      tag_21\n      jump\t// in\n    tag_20:\n      mload(0x40)\n      tag_22\n      swap2\n      swap1\n      tag_23\n      jump\t// in\n    tag_22:\n      mload(0x40)\n      dup1\n      swap2\n      sub\n      swap1\n      return\n        /* \"Remix/Day16_Oracle.sol\":2054:2187  function updateWeather() public {... */\n    tag_7:\n      tag_24\n      tag_25\n      jump\t// in\n    tag_24:\n      stop\n        /* \"Remix/Day16_Oracle.sol\":2254:2568  function fulfillWeather(uint256, uint256 _temp) external override onlyOracle {... */\n    tag_11:\n        /* \"Remix/Day16_Oracle.sol\":1867:1873  oracle */\n      0x00\n      0x00\n      swap1\n      sload\n      swap1\n      0x0100\n      exp\n      swap1\n      div\n      0xffffffffffffffffffffffffffffffffffffffff\n      and\n        /* \"Remix/Day16_Oracle.sol\":1845:1874  msg.sender == address(oracle) */\n      0xffffffffffffffffffffffffffffffffffffffff\n      and\n        /* \"Remix/Day16_Oracle.sol\":1845:1855  msg.sender */\n      caller\n        /* \"Remix/Day16_Oracle.sol\":1845:1874  msg.sender == address(oracle) */\n      0xffffffffffffffffffffffffffffffffffffffff\n      and\n      eq\n        /* \"Remix/Day16_Oracle.sol\":1837:1904  require(msg.sender == address(oracle), \"Only Oracle can call this\") */\n      tag_27\n      jumpi\n      mload(0x40)\n      0x08c379a000000000000000000000000000000000000000000000000000000000\n      dup2\n      mstore\n      0x04\n      add\n      tag_28\n      swap1\n      tag_29\n      jump\t// in\n    tag_28:\n      mload(0x40)\n      dup1\n      swap2\n      sub\n      swap1\n      revert\n    tag_27:\n        /* \"Remix/Day16_Oracle.sol\":2356:2361  _temp */\n      dup1\n        /* \"Remix/Day16_Oracle.sol\":2342:2353  temperature */\n      0x01\n        /* \"Remix/Day16_Oracle.sol\":2342:2361  temperature = _temp */\n      dup2\n      swap1\n      sstore\n      pop\n        /* \"Remix/Day16_Oracle.sol\":2460:2462  30 */\n      0x1e\n        /* \"Remix/Day16_Oracle.sol\":2452:2457  _temp */\n      dup2\n        /* \"Remix/Day16_Oracle.sol\":2452:2462  _temp > 30 */\n      gt\n        /* \"Remix/Day16_Oracle.sol\":2448:2561  if (_temp > 30) {... */\n      iszero\n      tag_31\n      jumpi\n        /* \"Remix/Day16_Oracle.sol\":2493:2497  true */\n      0x01\n        /* \"Remix/Day16_Oracle.sol\":2479:2490  sprinklerOn */\n      0x02\n      0x00\n        /* \"Remix/Day16_Oracle.sol\":2479:2497  sprinklerOn = true */\n      0x0100\n      exp\n      dup2\n      sload\n      dup2\n      0xff\n      mul\n      not\n      and\n      swap1\n      dup4\n      iszero\n      iszero\n      mul\n      or\n      swap1\n      sstore\n      pop\n        /* \"Remix/Day16_Oracle.sol\":2448:2561  if (_temp > 30) {... */\n      jump(tag_32)\n    tag_31:\n        /* \"Remix/Day16_Oracle.sol\":2544:2549  false */\n      0x00\n        /* \"Remix/Day16_Oracle.sol\":2530:2541  sprinklerOn */\n      0x02\n      0x00\n        /* \"Remix/Day16_Oracle.sol\":2530:2549  sprinklerOn = false */\n      0x0100\n      exp\n      dup2\n      sload\n      dup2\n      0xff\n      mul\n      not\n      and\n      swap1\n      dup4\n      iszero\n      iszero\n      mul\n      or\n      swap1\n      sstore\n      pop\n        /* \"Remix/Day16_Oracle.sol\":2448:2561  if (_temp > 30) {... */\n    tag_32:\n        /* \"Remix/Day16_Oracle.sol\":2254:2568  function fulfillWeather(uint256, uint256 _temp) external override onlyOracle {... */\n      pop\n      pop\n      jump\t// out\n        /* \"Remix/Day16_Oracle.sol\":1610:1634  MockOracle public oracle */\n    tag_13:\n      0x00\n      0x00\n      swap1\n      sload\n      swap1\n      0x0100\n      exp\n      swap1\n      div\n      0xffffffffffffffffffffffffffffffffffffffff\n      and\n      dup2\n      jump\t// out\n        /* \"Remix/Day16_Oracle.sol\":1647:1673  uint256 public temperature */\n    tag_17:\n      sload(0x01)\n      dup2\n      jump\t// out\n        /* \"Remix/Day16_Oracle.sol\":1696:1719  bool public sprinklerOn */\n    tag_21:\n      0x02\n      0x00\n      swap1\n      sload\n      swap1\n      0x0100\n      exp\n      swap1\n      div\n      0xff\n      and\n      dup2\n      jump\t// out\n        /* \"Remix/Day16_Oracle.sol\":2054:2187  function updateWeather() public {... */\n    tag_25:\n        /* \"Remix/Day16_Oracle.sol\":2130:2136  oracle */\n      0x00\n      0x00\n      swap1\n      sload\n      swap1\n      0x0100\n      exp\n      swap1\n      div\n      0xffffffffffffffffffffffffffffffffffffffff\n      and\n        /* \"Remix/Day16_Oracle.sol\":2130:2151  oracle.requestWeather */\n      0xffffffffffffffffffffffffffffffffffffffff\n      and\n      0x1829ca52\n        /* \"Remix/Day16_Oracle.sol\":2130:2179  oracle.requestWeather(\"api.weather.com/shanghai\") */\n      mload(0x40)\n      dup2\n      0xffffffff\n      and\n      0xe0\n      shl\n      dup2\n      mstore\n      0x04\n      add\n      tag_34\n      swap1\n      tag_35\n      jump\t// in\n    tag_34:\n      0x20\n      mload(0x40)\n      dup1\n      dup4\n      sub\n      dup2\n      0x00\n      dup8\n      gas\n      call\n      iszero\n      dup1\n      iszero\n      tag_37\n      jumpi\n      returndatacopy(0x00, 0x00, returndatasize)\n      revert(0x00, returndatasize)\n    tag_37:\n      pop\n      pop\n      pop\n      pop\n      mload(0x40)\n      returndatasize\n      not(0x1f)\n      0x1f\n      dup3\n      add\n      and\n      dup3\n      add\n      dup1\n      0x40\n      mstore\n      pop\n      dup2\n      add\n      swap1\n      tag_38\n      swap2\n      swap1\n      tag_39\n      jump\t// in\n    tag_38:\n      pop\n        /* \"Remix/Day16_Oracle.sol\":2054:2187  function updateWeather() public {... */\n      jump\t// out\n        /* \"#utility.yul\":88:205   */\n    tag_41:\n        /* \"#utility.yul\":197:198   */\n      0x00\n        /* \"#utility.yul\":194:195   */\n      0x00\n        /* \"#utility.yul\":187:199   */\n      revert\n        /* \"#utility.yul\":334:411   */\n    tag_43:\n        /* \"#utility.yul\":371:378   */\n      0x00\n        /* \"#utility.yul\":400:405   */\n      dup2\n        /* \"#utility.yul\":389:405   */\n      swap1\n      pop\n        /* \"#utility.yul\":334:411   */\n      swap2\n      swap1\n      pop\n      jump\t// out\n        /* \"#utility.yul\":417:539   */\n    tag_44:\n        /* \"#utility.yul\":490:514   */\n      tag_67\n        /* \"#utility.yul\":508:513   */\n      dup2\n        /* \"#utility.yul\":490:514   */\n      tag_43\n      jump\t// in\n    tag_67:\n        /* \"#utility.yul\":483:488   */\n      dup2\n        /* \"#utility.yul\":480:515   */\n      eq\n        /* \"#utility.yul\":470:533   */\n      tag_68\n      jumpi\n        /* \"#utility.yul\":529:530   */\n      0x00\n        /* \"#utility.yul\":526:527   */\n      0x00\n        /* \"#utility.yul\":519:531   */\n      revert\n        /* \"#utility.yul\":470:533   */\n    tag_68:\n        /* \"#utility.yul\":417:539   */\n      pop\n      jump\t// out\n        /* \"#utility.yul\":545:684   */\n    tag_45:\n        /* \"#utility.yul\":591:596   */\n      0x00\n        /* \"#utility.yul\":629:635   */\n      dup2\n        /* \"#utility.yul\":616:636   */\n      calldataload\n        /* \"#utility.yul\":607:636   */\n      swap1\n      pop\n        /* \"#utility.yul\":645:678   */\n      tag_70\n        /* \"#utility.yul\":672:677   */\n      dup2\n        /* \"#utility.yul\":645:678   */\n      tag_44\n      jump\t// in\n    tag_70:\n        /* \"#utility.yul\":545:684   */\n      swap3\n      swap2\n      pop\n      pop\n      jump\t// out\n        /* \"#utility.yul\":690:1164   */\n    tag_10:\n        /* \"#utility.yul\":758:764   */\n      0x00\n        /* \"#utility.yul\":766:772   */\n      0x00\n        /* \"#utility.yul\":815:817   */\n      0x40\n        /* \"#utility.yul\":803:812   */\n      dup4\n        /* \"#utility.yul\":794:801   */\n      dup6\n        /* \"#utility.yul\":790:813   */\n      sub\n        /* \"#utility.yul\":786:818   */\n      slt\n        /* \"#utility.yul\":783:902   */\n      iszero\n      tag_72\n      jumpi\n        /* \"#utility.yul\":821:900   */\n      tag_73\n      tag_41\n      jump\t// in\n    tag_73:\n        /* \"#utility.yul\":783:902   */\n    tag_72:\n        /* \"#utility.yul\":941:942   */\n      0x00\n        /* \"#utility.yul\":966:1019   */\n      tag_74\n        /* \"#utility.yul\":1011:1018   */\n      dup6\n        /* \"#utility.yul\":1002:1008   */\n      dup3\n        /* \"#utility.yul\":991:1000   */\n      dup7\n        /* \"#utility.yul\":987:1009   */\n      add\n        /* \"#utility.yul\":966:1019   */\n      tag_45\n      jump\t// in\n    tag_74:\n        /* \"#utility.yul\":956:1019   */\n      swap3\n      pop\n        /* \"#utility.yul\":912:1029   */\n      pop\n        /* \"#utility.yul\":1068:1070   */\n      0x20\n        /* \"#utility.yul\":1094:1147   */\n      tag_75\n        /* \"#utility.yul\":1139:1146   */\n      dup6\n        /* \"#utility.yul\":1130:1136   */\n      dup3\n        /* \"#utility.yul\":1119:1128   */\n      dup7\n        /* \"#utility.yul\":1115:1137   */\n      add\n        /* \"#utility.yul\":1094:1147   */\n      tag_45\n      jump\t// in\n    tag_75:\n        /* \"#utility.yul\":1084:1147   */\n      swap2\n      pop\n        /* \"#utility.yul\":1039:1157   */\n      pop\n        /* \"#utility.yul\":690:1164   */\n      swap3\n      pop\n      swap3\n      swap1\n      pop\n      jump\t// out\n        /* \"#utility.yul\":1170:1296   */\n    tag_46:\n        /* \"#utility.yul\":1207:1214   */\n      0x00\n        /* \"#utility.yul\":1247:1289   */\n      0xffffffffffffffffffffffffffffffffffffffff\n        /* \"#utility.yul\":1240:1245   */\n      dup3\n        /* \"#utility.yul\":1236:1290   */\n      and\n        /* \"#utility.yul\":1225:1290   */\n      swap1\n      pop\n        /* \"#utility.yul\":1170:1296   */\n      swap2\n      swap1\n      pop\n      jump\t// out\n        /* \"#utility.yul\":1302:1362   */\n    tag_47:\n        /* \"#utility.yul\":1330:1333   */\n      0x00\n        /* \"#utility.yul\":1351:1356   */\n      dup2\n        /* \"#utility.yul\":1344:1356   */\n      swap1\n      pop\n        /* \"#utility.yul\":1302:1362   */\n      swap2\n      swap1\n      pop\n      jump\t// out\n        /* \"#utility.yul\":1368:1510   */\n    tag_48:\n        /* \"#utility.yul\":1418:1427   */\n      0x00\n        /* \"#utility.yul\":1451:1504   */\n      tag_79\n        /* \"#utility.yul\":1469:1503   */\n      tag_80\n        /* \"#utility.yul\":1478:1502   */\n      tag_81\n        /* \"#utility.yul\":1496:1501   */\n      dup5\n        /* \"#utility.yul\":1478:1502   */\n      tag_46\n      jump\t// in\n    tag_81:\n        /* \"#utility.yul\":1469:1503   */\n      tag_47\n      jump\t// in\n    tag_80:\n        /* \"#utility.yul\":1451:1504   */\n      tag_46\n      jump\t// in\n    tag_79:\n        /* \"#utility.yul\":1438:1504   */\n      swap1\n      pop\n        /* \"#utility.yul\":1368:1510   */\n      swap2\n      swap1\n      pop\n      jump\t// out\n        /* \"#utility.yul\":1516:1642   */\n    tag_49:\n        /* \"#utility.yul\":1566:1575   */\n      0x00\n        /* \"#utility.yul\":1599:1636   */\n      tag_83\n        /* \"#utility.yul\":1630:1635   */\n      dup3\n        /* \"#utility.yul\":1599:1636   */\n      tag_48\n      jump\t// in\n    tag_83:\n        /* \"#utility.yul\":1586:1636   */\n      swap1\n      pop\n        /* \"#utility.yul\":1516:1642   */\n      swap2\n      swap1\n      pop\n      jump\t// out\n        /* \"#utility.yul\":1648:1791   */\n    tag_50:\n        /* \"#utility.yul\":1715:1724   */\n      0x00\n        /* \"#utility.yul\":1748:1785   */\n      tag_85\n        /* \"#utility.yul\":1779:1784   */\n      dup3\n        /* \"#utility.yul\":1748:1785   */\n      tag_49\n      jump\t// in\n    tag_85:\n        /* \"#utility.yul\":1735:1785   */\n      swap1\n      pop\n        /* \"#utility.yul\":1648:1791   */\n      swap2\n      swap1\n      pop\n      jump\t// out\n        /* \"#utility.yul\":1797:1962   */\n    tag_51:\n        /* \"#utility.yul\":1901:1955   */\n      tag_87\n        /* \"#utility.yul\":1949:1954   */\n      dup2\n        /* \"#utility.yul\":1901:1955   */\n      tag_50\n      jump\t// in\n    tag_87:\n        /* \"#utility.yul\":1896:1899   */\n      dup3\n        /* \"#utility.yul\":1889:1956   */\n      mstore\n        /* \"#utility.yul\":1797:1962   */\n      pop\n      pop\n      jump\t// out\n        /* \"#utility.yul\":1968:2224   */\n    tag_15:\n        /* \"#utility.yul\":2078:2082   */\n      0x00\n        /* \"#utility.yul\":2116:2118   */\n      0x20\n        /* \"#utility.yul\":2105:2114   */\n      dup3\n        /* \"#utility.yul\":2101:2119   */\n      add\n        /* \"#utility.yul\":2093:2119   */\n      swap1\n      pop\n        /* \"#utility.yul\":2129:2217   */\n      tag_89\n        /* \"#utility.yul\":2214:2215   */\n      0x00\n        /* \"#utility.yul\":2203:2212   */\n      dup4\n        /* \"#utility.yul\":2199:2216   */\n      add\n        /* \"#utility.yul\":2190:2196   */\n      dup5\n        /* \"#utility.yul\":2129:2217   */\n      tag_51\n      jump\t// in\n    tag_89:\n        /* \"#utility.yul\":1968:2224   */\n      swap3\n      swap2\n      pop\n      pop\n      jump\t// out\n        /* \"#utility.yul\":2230:2348   */\n    tag_52:\n        /* \"#utility.yul\":2317:2341   */\n      tag_91\n        /* \"#utility.yul\":2335:2340   */\n      dup2\n        /* \"#utility.yul\":2317:2341   */\n      tag_43\n      jump\t// in\n    tag_91:\n        /* \"#utility.yul\":2312:2315   */\n      dup3\n        /* \"#utility.yul\":2305:2342   */\n      mstore\n        /* \"#utility.yul\":2230:2348   */\n      pop\n      pop\n      jump\t// out\n        /* \"#utility.yul\":2354:2576   */\n    tag_19:\n        /* \"#utility.yul\":2447:2451   */\n      0x00\n        /* \"#utility.yul\":2485:2487   */\n      0x20\n        /* \"#utility.yul\":2474:2483   */\n      dup3\n        /* \"#utility.yul\":2470:2488   */\n      add\n        /* \"#utility.yul\":2462:2488   */\n      swap1\n      pop\n        /* \"#utility.yul\":2498:2569   */\n      tag_93\n        /* \"#utility.yul\":2566:2567   */\n      0x00\n        /* \"#utility.yul\":2555:2564   */\n      dup4\n        /* \"#utility.yul\":2551:2568   */\n      add\n        /* \"#utility.yul\":2542:2548   */\n      dup5\n        /* \"#utility.yul\":2498:2569   */\n      tag_52\n      jump\t// in\n    tag_93:\n        /* \"#utility.yul\":2354:2576   */\n      swap3\n      swap2\n      pop\n      pop\n      jump\t// out\n        /* \"#utility.yul\":2582:2672   */\n    tag_53:\n        /* \"#utility.yul\":2616:2623   */\n      0x00\n        /* \"#utility.yul\":2659:2664   */\n      dup2\n        /* \"#utility.yul\":2652:2665   */\n      iszero\n        /* \"#utility.yul\":2645:2666   */\n      iszero\n        /* \"#utility.yul\":2634:2666   */\n      swap1\n      pop\n        /* \"#utility.yul\":2582:2672   */\n      swap2\n      swap1\n      pop\n      jump\t// out\n        /* \"#utility.yul\":2678:2787   */\n    tag_54:\n        /* \"#utility.yul\":2759:2780   */\n      tag_96\n        /* \"#utility.yul\":2774:2779   */\n      dup2\n        /* \"#utility.yul\":2759:2780   */\n      tag_53\n      jump\t// in\n    tag_96:\n        /* \"#utility.yul\":2754:2757   */\n      dup3\n        /* \"#utility.yul\":2747:2781   */\n      mstore\n        /* \"#utility.yul\":2678:2787   */\n      pop\n      pop\n      jump\t// out\n        /* \"#utility.yul\":2793:3003   */\n    tag_23:\n        /* \"#utility.yul\":2880:2884   */\n      0x00\n        /* \"#utility.yul\":2918:2920   */\n      0x20\n        /* \"#utility.yul\":2907:2916   */\n      dup3\n        /* \"#utility.yul\":2903:2921   */\n      add\n        /* \"#utility.yul\":2895:2921   */\n      swap1\n      pop\n        /* \"#utility.yul\":2931:2996   */\n      tag_98\n        /* \"#utility.yul\":2993:2994   */\n      0x00\n        /* \"#utility.yul\":2982:2991   */\n      dup4\n        /* \"#utility.yul\":2978:2995   */\n      add\n        /* \"#utility.yul\":2969:2975   */\n      dup5\n        /* \"#utility.yul\":2931:2996   */\n      tag_54\n      jump\t// in\n    tag_98:\n        /* \"#utility.yul\":2793:3003   */\n      swap3\n      swap2\n      pop\n      pop\n      jump\t// out\n        /* \"#utility.yul\":3009:3178   */\n    tag_55:\n        /* \"#utility.yul\":3093:3104   */\n      0x00\n        /* \"#utility.yul\":3127:3133   */\n      dup3\n        /* \"#utility.yul\":3122:3125   */\n      dup3\n        /* \"#utility.yul\":3115:3134   */\n      mstore\n        /* \"#utility.yul\":3167:3171   */\n      0x20\n        /* \"#utility.yul\":3162:3165   */\n      dup3\n        /* \"#utility.yul\":3158:3172   */\n      add\n        /* \"#utility.yul\":3143:3172   */\n      swap1\n      pop\n        /* \"#utility.yul\":3009:3178   */\n      swap3\n      swap2\n      pop\n      pop\n      jump\t// out\n        /* \"#utility.yul\":3184:3359   */\n    tag_56:\n        /* \"#utility.yul\":3324:3351   */\n      0x4f6e6c79204f7261636c652063616e2063616c6c207468697300000000000000\n        /* \"#utility.yul\":3320:3321   */\n      0x00\n        /* \"#utility.yul\":3312:3318   */\n      dup3\n        /* \"#utility.yul\":3308:3322   */\n      add\n        /* \"#utility.yul\":3301:3352   */\n      mstore\n        /* \"#utility.yul\":3184:3359   */\n      pop\n      jump\t// out\n        /* \"#utility.yul\":3365:3731   */\n    tag_57:\n        /* \"#utility.yul\":3507:3510   */\n      0x00\n        /* \"#utility.yul\":3528:3595   */\n      tag_102\n        /* \"#utility.yul\":3592:3594   */\n      0x19\n        /* \"#utility.yul\":3587:3590   */\n      dup4\n        /* \"#utility.yul\":3528:3595   */\n      tag_55\n      jump\t// in\n    tag_102:\n        /* \"#utility.yul\":3521:3595   */\n      swap2\n      pop\n        /* \"#utility.yul\":3604:3697   */\n      tag_103\n        /* \"#utility.yul\":3693:3696   */\n      dup3\n        /* \"#utility.yul\":3604:3697   */\n      tag_56\n      jump\t// in\n    tag_103:\n        /* \"#utility.yul\":3722:3724   */\n      0x20\n        /* \"#utility.yul\":3717:3720   */\n      dup3\n        /* \"#utility.yul\":3713:3725   */\n      add\n        /* \"#utility.yul\":3706:3725   */\n      swap1\n      pop\n        /* \"#utility.yul\":3365:3731   */\n      swap2\n      swap1\n      pop\n      jump\t// out\n        /* \"#utility.yul\":3737:4156   */\n    tag_29:\n        /* \"#utility.yul\":3903:3907   */\n      0x00\n        /* \"#utility.yul\":3941:3943   */\n      0x20\n        /* \"#utility.yul\":3930:3939   */\n      dup3\n        /* \"#utility.yul\":3926:3944   */\n      add\n        /* \"#utility.yul\":3918:3944   */\n      swap1\n      pop\n        /* \"#utility.yul\":3990:3999   */\n      dup2\n        /* \"#utility.yul\":3984:3988   */\n      dup2\n        /* \"#utility.yul\":3980:4000   */\n      sub\n        /* \"#utility.yul\":3976:3977   */\n      0x00\n        /* \"#utility.yul\":3965:3974   */\n      dup4\n        /* \"#utility.yul\":3961:3978   */\n      add\n        /* \"#utility.yul\":3954:4001   */\n      mstore\n        /* \"#utility.yul\":4018:4149   */\n      tag_105\n        /* \"#utility.yul\":4144:4148   */\n      dup2\n        /* \"#utility.yul\":4018:4149   */\n      tag_57\n      jump\t// in\n    tag_105:\n        /* \"#utility.yul\":4010:4149   */\n      swap1\n      pop\n        /* \"#utility.yul\":3737:4156   */\n      swap2\n      swap1\n      pop\n      jump\t// out\n        /* \"#utility.yul\":4162:4336   */\n    tag_58:\n        /* \"#utility.yul\":4302:4328   */\n      0x6170692e776561746865722e636f6d2f7368616e676861690000000000000000\n        /* \"#utility.yul\":4298:4299   */\n      0x00\n        /* \"#utility.yul\":4290:4296   */\n      dup3\n        /* \"#utility.yul\":4286:4300   */\n      add\n        /* \"#utility.yul\":4279:4329   */\n      mstore\n        /* \"#utility.yul\":4162:4336   */\n      pop\n      jump\t// out\n        /* \"#utility.yul\":4342:4708   */\n    tag_59:\n        /* \"#utility.yul\":4484:4487   */\n      0x00\n        /* \"#utility.yul\":4505:4572   */\n      tag_108\n        /* \"#utility.yul\":4569:4571   */\n      0x18\n        /* \"#utility.yul\":4564:4567   */\n      dup4\n        /* \"#utility.yul\":4505:4572   */\n      tag_55\n      jump\t// in\n    tag_108:\n        /* \"#utility.yul\":4498:4572   */\n      swap2\n      pop\n        /* \"#utility.yul\":4581:4674   */\n      tag_109\n        /* \"#utility.yul\":4670:4673   */\n      dup3\n        /* \"#utility.yul\":4581:4674   */\n      tag_58\n      jump\t// in\n    tag_109:\n        /* \"#utility.yul\":4699:4701   */\n      0x20\n        /* \"#utility.yul\":4694:4697   */\n      dup3\n        /* \"#utility.yul\":4690:4702   */\n      add\n        /* \"#utility.yul\":4683:4702   */\n      swap1\n      pop\n        /* \"#utility.yul\":4342:4708   */\n      swap2\n      swap1\n      pop\n      jump\t// out\n        /* \"#utility.yul\":4714:5133   */\n    tag_35:\n        /* \"#utility.yul\":4880:4884   */\n      0x00\n        /* \"#utility.yul\":4918:4920   */\n      0x20\n        /* \"#utility.yul\":4907:4916   */\n      dup3\n        /* \"#utility.yul\":4903:4921   */\n      add\n        /* \"#utility.yul\":4895:4921   */\n      swap1\n      pop\n        /* \"#utility.yul\":4967:4976   */\n      dup2\n        /* \"#utility.yul\":4961:4965   */\n      dup2\n        /* \"#utility.yul\":4957:4977   */\n      sub\n        /* \"#utility.yul\":4953:4954   */\n      0x00\n        /* \"#utility.yul\":4942:4951   */\n      dup4\n        /* \"#utility.yul\":4938:4955   */\n      add\n        /* \"#utility.yul\":4931:4978   */\n      mstore\n        /* \"#utility.yul\":4995:5126   */\n      tag_111\n        /* \"#utility.yul\":5121:5125   */\n      dup2\n        /* \"#utility.yul\":4995:5126   */\n      tag_59\n      jump\t// in\n    tag_111:\n        /* \"#utility.yul\":4987:5126   */\n      swap1\n      pop\n        /* \"#utility.yul\":4714:5133   */\n      swap2\n      swap1\n      pop\n      jump\t// out\n        /* \"#utility.yul\":5139:5282   */\n    tag_60:\n        /* \"#utility.yul\":5196:5201   */\n      0x00\n        /* \"#utility.yul\":5227:5233   */\n      dup2\n        /* \"#utility.yul\":5221:5234   */\n      mload\n        /* \"#utility.yul\":5212:5234   */\n      swap1\n      pop\n        /* \"#utility.yul\":5243:5276   */\n      tag_113\n        /* \"#utility.yul\":5270:5275   */\n      dup2\n        /* \"#utility.yul\":5243:5276   */\n      tag_44\n      jump\t// in\n    tag_113:\n        /* \"#utility.yul\":5139:5282   */\n      swap3\n      swap2\n      pop\n      pop\n      jump\t// out\n        /* \"#utility.yul\":5288:5639   */\n    tag_39:\n        /* \"#utility.yul\":5358:5364   */\n      0x00\n        /* \"#utility.yul\":5407:5409   */\n      0x20\n        /* \"#utility.yul\":5395:5404   */\n      dup3\n        /* \"#utility.yul\":5386:5393   */\n      dup5\n        /* \"#utility.yul\":5382:5405   */\n      sub\n        /* \"#utility.yul\":5378:5410   */\n      slt\n        /* \"#utility.yul\":5375:5494   */\n      iszero\n      tag_115\n      jumpi\n        /* \"#utility.yul\":5413:5492   */\n      tag_116\n      tag_41\n      jump\t// in\n    tag_116:\n        /* \"#utility.yul\":5375:5494   */\n    tag_115:\n        /* \"#utility.yul\":5533:5534   */\n      0x00\n        /* \"#utility.yul\":5558:5622   */\n      tag_117\n        /* \"#utility.yul\":5614:5621   */\n      dup5\n        /* \"#utility.yul\":5605:5611   */\n      dup3\n        /* \"#utility.yul\":5594:5603   */\n      dup6\n        /* \"#utility.yul\":5590:5612   */\n      add\n        /* \"#utility.yul\":5558:5622   */\n      tag_60\n      jump\t// in\n    tag_117:\n        /* \"#utility.yul\":5548:5622   */\n      swap2\n      pop\n        /* \"#utility.yul\":5504:5632   */\n      pop\n        /* \"#utility.yul\":5288:5639   */\n      swap3\n      swap2\n      pop\n      pop\n      jump\t// out\n\n    auxdata: 0xa26469706673582212200a777f179bdf9f18287390cb57bdf6017445126fe3c372db902aa734f498704c64736f6c634300081f0033\n}\n",
				"bytecode": {
					"linkReferences": {},
					"object": "608060405234801561000f575f5ffd5b5060405161064e38038061064e833981810160405281019061003191906100d4565b805f5f6101000a81548173ffffffffffffffffffffffffffffffffffffffff021916908373ffffffffffffffffffffffffffffffffffffffff160217905550506100ff565b5f5ffd5b5f73ffffffffffffffffffffffffffffffffffffffff82169050919050565b5f6100a38261007a565b9050919050565b6100b381610099565b81146100bd575f5ffd5b50565b5f815190506100ce816100aa565b92915050565b5f602082840312156100e9576100e8610076565b5b5f6100f6848285016100c0565b91505092915050565b6105428061010c5f395ff3fe608060405234801561000f575f5ffd5b5060043610610055575f3560e01c80635adf9e3b146100595780637dc0d1d014610075578063adccea1214610093578063e65929f8146100b1578063ecc52cb9146100cf575b5f5ffd5b610073600480360381019061006e91906102c1565b6100d9565b005b61007d6101b4565b60405161008a9190610379565b60405180910390f35b61009b6101d8565b6040516100a891906103a1565b60405180910390f35b6100b96101de565b6040516100c691906103d4565b60405180910390f35b6100d76101f0565b005b5f5f9054906101000a900473ffffffffffffffffffffffffffffffffffffffff1673ffffffffffffffffffffffffffffffffffffffff163373ffffffffffffffffffffffffffffffffffffffff1614610167576040517f08c379a000000000000000000000000000000000000000000000000000000000815260040161015e90610447565b60405180910390fd5b80600181905550601e81111561019657600160025f6101000a81548160ff0219169083151502179055506101b0565b5f60025f6101000a81548160ff0219169083151502179055505b5050565b5f5f9054906101000a900473ffffffffffffffffffffffffffffffffffffffff1681565b60015481565b60025f9054906101000a900460ff1681565b5f5f9054906101000a900473ffffffffffffffffffffffffffffffffffffffff1673ffffffffffffffffffffffffffffffffffffffff16631829ca526040518163ffffffff1660e01b8152600401610247906104af565b6020604051808303815f875af1158015610263573d5f5f3e3d5ffd5b505050506040513d601f19601f8201168201806040525081019061028791906104e1565b50565b5f5ffd5b5f819050919050565b6102a08161028e565b81146102aa575f5ffd5b50565b5f813590506102bb81610297565b92915050565b5f5f604083850312156102d7576102d661028a565b5b5f6102e4858286016102ad565b92505060206102f5858286016102ad565b9150509250929050565b5f73ffffffffffffffffffffffffffffffffffffffff82169050919050565b5f819050919050565b5f61034161033c610337846102ff565b61031e565b6102ff565b9050919050565b5f61035282610327565b9050919050565b5f61036382610348565b9050919050565b61037381610359565b82525050565b5f60208201905061038c5f83018461036a565b92915050565b61039b8161028e565b82525050565b5f6020820190506103b45f830184610392565b92915050565b5f8115159050919050565b6103ce816103ba565b82525050565b5f6020820190506103e75f8301846103c5565b92915050565b5f82825260208201905092915050565b7f4f6e6c79204f7261636c652063616e2063616c6c2074686973000000000000005f82015250565b5f6104316019836103ed565b915061043c826103fd565b602082019050919050565b5f6020820190508181035f83015261045e81610425565b9050919050565b7f6170692e776561746865722e636f6d2f7368616e6768616900000000000000005f82015250565b5f6104996018836103ed565b91506104a482610465565b602082019050919050565b5f6020820190508181035f8301526104c68161048d565b9050919050565b5f815190506104db81610297565b92915050565b5f602082840312156104f6576104f561028a565b5b5f610503848285016104cd565b9150509291505056fea26469706673582212200a777f179bdf9f18287390cb57bdf6017445126fe3c372db902aa734f498704c64736f6c634300081f0033",
					"opcodes": "PUSH1 0x80 PUSH1 0x40 MSTORE CALLVALUE DUP1 ISZERO PUSH2 0xF JUMPI PUSH0 PUSH0 REVERT JUMPDEST POP PUSH1 0x40 MLOAD PUSH2 0x64E CODESIZE SUB DUP1 PUSH2 0x64E DUP4 CODECOPY DUP2 DUP2 ADD PUSH1 0x40 MSTORE DUP2 ADD SWAP1 PUSH2 0x31 SWAP2 SWAP1 PUSH2 0xD4 JUMP JUMPDEST DUP1 PUSH0 PUSH0 PUSH2 0x100 EXP DUP2 SLOAD DUP2 PUSH20 0xFFFFFFFFFFFFFFFFFFFFFFFFFFFFFFFFFFFFFFFF MUL NOT AND SWAP1 DUP4 PUSH20 0xFFFFFFFFFFFFFFFFFFFFFFFFFFFFFFFFFFFFFFFF AND MUL OR SWAP1 SSTORE POP POP PUSH2 0xFF JUMP JUMPDEST PUSH0 PUSH0 REVERT JUMPDEST PUSH0 PUSH20 0xFFFFFFFFFFFFFFFFFFFFFFFFFFFFFFFFFFFFFFFF DUP3 AND SWAP1 POP SWAP2 SWAP1 POP JUMP JUMPDEST PUSH0 PUSH2 0xA3 DUP3 PUSH2 0x7A JUMP JUMPDEST SWAP1 POP SWAP2 SWAP1 POP JUMP JUMPDEST PUSH2 0xB3 DUP2 PUSH2 0x99 JUMP JUMPDEST DUP2 EQ PUSH2 0xBD JUMPI PUSH0 PUSH0 REVERT JUMPDEST POP JUMP JUMPDEST PUSH0 DUP2 MLOAD SWAP1 POP PUSH2 0xCE DUP2 PUSH2 0xAA JUMP JUMPDEST SWAP3 SWAP2 POP POP JUMP JUMPDEST PUSH0 PUSH1 0x20 DUP3 DUP5 SUB SLT ISZERO PUSH2 0xE9 JUMPI PUSH2 0xE8 PUSH2 0x76 JUMP JUMPDEST JUMPDEST PUSH0 PUSH2 0xF6 DUP5 DUP3 DUP6 ADD PUSH2 0xC0 JUMP JUMPDEST SWAP2 POP POP SWAP3 SWAP2 POP POP JUMP JUMPDEST PUSH2 0x542 DUP1 PUSH2 0x10C PUSH0 CODECOPY PUSH0 RETURN INVALID PUSH1 0x80 PUSH1 0x40 MSTORE CALLVALUE DUP1 ISZERO PUSH2 0xF JUMPI PUSH0 PUSH0 REVERT JUMPDEST POP PUSH1 0x4 CALLDATASIZE LT PUSH2 0x55 JUMPI PUSH0 CALLDATALOAD PUSH1 0xE0 SHR DUP1 PUSH4 0x5ADF9E3B EQ PUSH2 0x59 JUMPI DUP1 PUSH4 0x7DC0D1D0 EQ PUSH2 0x75 JUMPI DUP1 PUSH4 0xADCCEA12 EQ PUSH2 0x93 JUMPI DUP1 PUSH4 0xE65929F8 EQ PUSH2 0xB1 JUMPI DUP1 PUSH4 0xECC52CB9 EQ PUSH2 0xCF JUMPI JUMPDEST PUSH0 PUSH0 REVERT JUMPDEST PUSH2 0x73 PUSH1 0x4 DUP1 CALLDATASIZE SUB DUP2 ADD SWAP1 PUSH2 0x6E SWAP2 SWAP1 PUSH2 0x2C1 JUMP JUMPDEST PUSH2 0xD9 JUMP JUMPDEST STOP JUMPDEST PUSH2 0x7D PUSH2 0x1B4 JUMP JUMPDEST PUSH1 0x40 MLOAD PUSH2 0x8A SWAP2 SWAP1 PUSH2 0x379 JUMP JUMPDEST PUSH1 0x40 MLOAD DUP1 SWAP2 SUB SWAP1 RETURN JUMPDEST PUSH2 0x9B PUSH2 0x1D8 JUMP JUMPDEST PUSH1 0x40 MLOAD PUSH2 0xA8 SWAP2 SWAP1 PUSH2 0x3A1 JUMP JUMPDEST PUSH1 0x40 MLOAD DUP1 SWAP2 SUB SWAP1 RETURN JUMPDEST PUSH2 0xB9 PUSH2 0x1DE JUMP JUMPDEST PUSH1 0x40 MLOAD PUSH2 0xC6 SWAP2 SWAP1 PUSH2 0x3D4 JUMP JUMPDEST PUSH1 0x40 MLOAD DUP1 SWAP2 SUB SWAP1 RETURN JUMPDEST PUSH2 0xD7 PUSH2 0x1F0 JUMP JUMPDEST STOP JUMPDEST PUSH0 PUSH0 SWAP1 SLOAD SWAP1 PUSH2 0x100 EXP SWAP1 DIV PUSH20 0xFFFFFFFFFFFFFFFFFFFFFFFFFFFFFFFFFFFFFFFF AND PUSH20 0xFFFFFFFFFFFFFFFFFFFFFFFFFFFFFFFFFFFFFFFF AND CALLER PUSH20 0xFFFFFFFFFFFFFFFFFFFFFFFFFFFFFFFFFFFFFFFF AND EQ PUSH2 0x167 JUMPI PUSH1 0x40 MLOAD PUSH32 0x8C379A000000000000000000000000000000000000000000000000000000000 DUP2 MSTORE PUSH1 0x4 ADD PUSH2 0x15E SWAP1 PUSH2 0x447 JUMP JUMPDEST PUSH1 0x40 MLOAD DUP1 SWAP2 SUB SWAP1 REVERT JUMPDEST DUP1 PUSH1 0x1 DUP2 SWAP1 SSTORE POP PUSH1 0x1E DUP2 GT ISZERO PUSH2 0x196 JUMPI PUSH1 0x1 PUSH1 0x2 PUSH0 PUSH2 0x100 EXP DUP2 SLOAD DUP2 PUSH1 0xFF MUL NOT AND SWAP1 DUP4 ISZERO ISZERO MUL OR SWAP1 SSTORE POP PUSH2 0x1B0 JUMP JUMPDEST PUSH0 PUSH1 0x2 PUSH0 PUSH2 0x100 EXP DUP2 SLOAD DUP2 PUSH1 0xFF MUL NOT AND SWAP1 DUP4 ISZERO ISZERO MUL OR SWAP1 SSTORE POP JUMPDEST POP POP JUMP JUMPDEST PUSH0 PUSH0 SWAP1 SLOAD SWAP1 PUSH2 0x100 EXP SWAP1 DIV PUSH20 0xFFFFFFFFFFFFFFFFFFFFFFFFFFFFFFFFFFFFFFFF AND DUP2 JUMP JUMPDEST PUSH1 0x1 SLOAD DUP2 JUMP JUMPDEST PUSH1 0x2 PUSH0 SWAP1 SLOAD SWAP1 PUSH2 0x100 EXP SWAP1 DIV PUSH1 0xFF AND DUP2 JUMP JUMPDEST PUSH0 PUSH0 SWAP1 SLOAD SWAP1 PUSH2 0x100 EXP SWAP1 DIV PUSH20 0xFFFFFFFFFFFFFFFFFFFFFFFFFFFFFFFFFFFFFFFF AND PUSH20 0xFFFFFFFFFFFFFFFFFFFFFFFFFFFFFFFFFFFFFFFF AND PUSH4 0x1829CA52 PUSH1 0x40 MLOAD DUP2 PUSH4 0xFFFFFFFF AND PUSH1 0xE0 SHL DUP2 MSTORE PUSH1 0x4 ADD PUSH2 0x247 SWAP1 PUSH2 0x4AF JUMP JUMPDEST PUSH1 0x20 PUSH1 0x40 MLOAD DUP1 DUP4 SUB DUP2 PUSH0 DUP8 GAS CALL ISZERO DUP1 ISZERO PUSH2 0x263 JUMPI RETURNDATASIZE PUSH0 PUSH0 RETURNDATACOPY RETURNDATASIZE PUSH0 REVERT JUMPDEST POP POP POP POP PUSH1 0x40 MLOAD RETURNDATASIZE PUSH1 0x1F NOT PUSH1 0x1F DUP3 ADD AND DUP3 ADD DUP1 PUSH1 0x40 MSTORE POP DUP2 ADD SWAP1 PUSH2 0x287 SWAP2 SWAP1 PUSH2 0x4E1 JUMP JUMPDEST POP JUMP JUMPDEST PUSH0 PUSH0 REVERT JUMPDEST PUSH0 DUP2 SWAP1 POP SWAP2 SWAP1 POP JUMP JUMPDEST PUSH2 0x2A0 DUP2 PUSH2 0x28E JUMP JUMPDEST DUP2 EQ PUSH2 0x2AA JUMPI PUSH0 PUSH0 REVERT JUMPDEST POP JUMP JUMPDEST PUSH0 DUP2 CALLDATALOAD SWAP1 POP PUSH2 0x2BB DUP2 PUSH2 0x297 JUMP JUMPDEST SWAP3 SWAP2 POP POP JUMP JUMPDEST PUSH0 PUSH0 PUSH1 0x40 DUP4 DUP6 SUB SLT ISZERO PUSH2 0x2D7 JUMPI PUSH2 0x2D6 PUSH2 0x28A JUMP JUMPDEST JUMPDEST PUSH0 PUSH2 0x2E4 DUP6 DUP3 DUP7 ADD PUSH2 0x2AD JUMP JUMPDEST SWAP3 POP POP PUSH1 0x20 PUSH2 0x2F5 DUP6 DUP3 DUP7 ADD PUSH2 0x2AD JUMP JUMPDEST SWAP2 POP POP SWAP3 POP SWAP3 SWAP1 POP JUMP JUMPDEST PUSH0 PUSH20 0xFFFFFFFFFFFFFFFFFFFFFFFFFFFFFFFFFFFFFFFF DUP3 AND SWAP1 POP SWAP2 SWAP1 POP JUMP JUMPDEST PUSH0 DUP2 SWAP1 POP SWAP2 SWAP1 POP JUMP JUMPDEST PUSH0 PUSH2 0x341 PUSH2 0x33C PUSH2 0x337 DUP5 PUSH2 0x2FF JUMP JUMPDEST PUSH2 0x31E JUMP JUMPDEST PUSH2 0x2FF JUMP JUMPDEST SWAP1 POP SWAP2 SWAP1 POP JUMP JUMPDEST PUSH0 PUSH2 0x352 DUP3 PUSH2 0x327 JUMP JUMPDEST SWAP1 POP SWAP2 SWAP1 POP JUMP JUMPDEST PUSH0 PUSH2 0x363 DUP3 PUSH2 0x348 JUMP JUMPDEST SWAP1 POP SWAP2 SWAP1 POP JUMP JUMPDEST PUSH2 0x373 DUP2 PUSH2 0x359 JUMP JUMPDEST DUP3 MSTORE POP POP JUMP JUMPDEST PUSH0 PUSH1 0x20 DUP3 ADD SWAP1 POP PUSH2 0x38C PUSH0 DUP4 ADD DUP5 PUSH2 0x36A JUMP JUMPDEST SWAP3 SWAP2 POP POP JUMP JUMPDEST PUSH2 0x39B DUP2 PUSH2 0x28E JUMP JUMPDEST DUP3 MSTORE POP POP JUMP JUMPDEST PUSH0 PUSH1 0x20 DUP3 ADD SWAP1 POP PUSH2 0x3B4 PUSH0 DUP4 ADD DUP5 PUSH2 0x392 JUMP JUMPDEST SWAP3 SWAP2 POP POP JUMP JUMPDEST PUSH0 DUP2 ISZERO ISZERO SWAP1 POP SWAP2 SWAP1 POP JUMP JUMPDEST PUSH2 0x3CE DUP2 PUSH2 0x3BA JUMP JUMPDEST DUP3 MSTORE POP POP JUMP JUMPDEST PUSH0 PUSH1 0x20 DUP3 ADD SWAP1 POP PUSH2 0x3E7 PUSH0 DUP4 ADD DUP5 PUSH2 0x3C5 JUMP JUMPDEST SWAP3 SWAP2 POP POP JUMP JUMPDEST PUSH0 DUP3 DUP3 MSTORE PUSH1 0x20 DUP3 ADD SWAP1 POP SWAP3 SWAP2 POP POP JUMP JUMPDEST PUSH32 0x4F6E6C79204F7261636C652063616E2063616C6C207468697300000000000000 PUSH0 DUP3 ADD MSTORE POP JUMP JUMPDEST PUSH0 PUSH2 0x431 PUSH1 0x19 DUP4 PUSH2 0x3ED JUMP JUMPDEST SWAP2 POP PUSH2 0x43C DUP3 PUSH2 0x3FD JUMP JUMPDEST PUSH1 0x20 DUP3 ADD SWAP1 POP SWAP2 SWAP1 POP JUMP JUMPDEST PUSH0 PUSH1 0x20 DUP3 ADD SWAP1 POP DUP2 DUP2 SUB PUSH0 DUP4 ADD MSTORE PUSH2 0x45E DUP2 PUSH2 0x425 JUMP JUMPDEST SWAP1 POP SWAP2 SWAP1 POP JUMP JUMPDEST PUSH32 0x6170692E776561746865722E636F6D2F7368616E676861690000000000000000 PUSH0 DUP3 ADD MSTORE POP JUMP JUMPDEST PUSH0 PUSH2 0x499 PUSH1 0x18 DUP4 PUSH2 0x3ED JUMP JUMPDEST SWAP2 POP PUSH2 0x4A4 DUP3 PUSH2 0x465 JUMP JUMPDEST PUSH1 0x20 DUP3 ADD SWAP1 POP SWAP2 SWAP1 POP JUMP JUMPDEST PUSH0 PUSH1 0x20 DUP3 ADD SWAP1 POP DUP2 DUP2 SUB PUSH0 DUP4 ADD MSTORE PUSH2 0x4C6 DUP2 PUSH2 0x48D JUMP JUMPDEST SWAP1 POP SWAP2 SWAP1 POP JUMP JUMPDEST PUSH0 DUP2 MLOAD SWAP1 POP PUSH2 0x4DB DUP2 PUSH2 0x297 JUMP JUMPDEST SWAP3 SWAP2 POP POP JUMP JUMPDEST PUSH0 PUSH1 0x20 DUP3 DUP5 SUB SLT ISZERO PUSH2 0x4F6 JUMPI PUSH2 0x4F5 PUSH2 0x28A JUMP JUMPDEST JUMPDEST PUSH0 PUSH2 0x503 DUP5 DUP3 DUP6 ADD PUSH2 0x4CD JUMP JUMPDEST SWAP2 POP POP SWAP3 SWAP2 POP POP JUMP INVALID LOG2 PUSH5 0x6970667358 0x22 SLT KECCAK256 EXP PUSH24 0x7F179BDF9F18287390CB57BDF6017445126FE3C372DB902A 0xA7 CALLVALUE DELEGATECALL SWAP9 PUSH17 0x4C64736F6C634300081F00330000000000 "
				},
				"gasEstimates": {
					"creation": {
						"codeDepositCost": "269200",
						"executionCost": "infinite",
						"totalCost": "infinite"
					},
					"external": {
						"fulfillWeather(uint256,uint256)": "infinite",
						"oracle()": "infinite",
						"sprinklerOn()": "2510",
						"temperature()": "2447",
						"updateWeather()": "infinite"
					}
				},
				"methodIdentifiers": {
					"fulfillWeather(uint256,uint256)": "5adf9e3b",
					"oracle()": "7dc0d1d0",
					"sprinklerOn()": "e65929f8",
					"temperature()": "adccea12",
					"updateWeather()": "ecc52cb9"
				}
			},
			"storageLayout": {
				"storage": [
					{
						"astId": 90,
						"contract": "Remix/Day16_Oracle.sol:SmartGreenhouse",
						"label": "oracle",
						"offset": 0,
						"slot": "0",
						"type": "t_contract(MockOracle)77"
					},
					{
						"astId": 92,
						"contract": "Remix/Day16_Oracle.sol:SmartGreenhouse",
						"label": "temperature",
						"offset": 0,
						"slot": "1",
						"type": "t_uint256"
					},
					{
						"astId": 94,
						"contract": "Remix/Day16_Oracle.sol:SmartGreenhouse",
						"label": "sprinklerOn",
						"offset": 0,
						"slot": "2",
						"type": "t_bool"
					}
				],
				"types": {
					"t_bool": {
						"encoding": "inplace",
						"label": "bool",
						"numberOfBytes": "1"
					},
					"t_contract(MockOracle)77": {
						"encoding": "inplace",
						"label": "contract MockOracle",
						"numberOfBytes": "20"
					},
					"t_uint256": {
						"encoding": "inplace",
						"label": "uint256",
						"numberOfBytes": "32"
					}
				}
			},
			"userdoc": {
				"kind": "user",
				"methods": {},
				"version": 1
			}
		}
	}
}