{
	"Remix/Day14_FinalExam.sol": {
		"LogisticsSystem": {
			"abi": [
				{
					"inputs": [],
					"stateMutability": "nonpayable",
					"type": "constructor"
				},
				{
					"inputs": [],
					"name": "AccessControlBadConfirmation",
					"type": "error"
				},
				{
					"inputs": [
						{
							"internalType": "address",
							"name": "account",
							"type": "address"
						},
						{
							"internalType": "bytes32",
							"name": "neededRole",
							"type": "bytes32"
						}
					],
					"name": "AccessControlUnauthorizedAccount",
					"type": "error"
				},
				{
					"anonymous": false,
					"inputs": [
						{
							"indexed": true,
							"internalType": "uint256",
							"name": "orderId",
							"type": "uint256"
						},
						{
							"indexed": false,
							"internalType": "string",
							"name": "item",
							"type": "string"
						}
					],
					"name": "OrderCreated",
					"type": "event"
				},
				{
					"anonymous": false,
					"inputs": [
						{
							"indexed": true,
							"internalType": "bytes32",
							"name": "role",
							"type": "bytes32"
						},
						{
							"indexed": true,
							"internalType": "bytes32",
							"name": "previousAdminRole",
							"type": "bytes32"
						},
						{
							"indexed": true,
							"internalType": "bytes32",
							"name": "newAdminRole",
							"type": "bytes32"
						}
					],
					"name": "RoleAdminChanged",
					"type": "event"
				},
				{
					"anonymous": false,
					"inputs": [
						{
							"indexed": true,
							"internalType": "bytes32",
							"name": "role",
							"type": "bytes32"
						},
						{
							"indexed": true,
							"internalType": "address",
							"name": "account",
							"type": "address"
						},
						{
							"indexed": true,
							"internalType": "address",
							"name": "sender",
							"type": "address"
						}
					],
					"name": "RoleGranted",
					"type": "event"
				},
				{
					"anonymous": false,
					"inputs": [
						{
							"indexed": true,
							"internalType": "bytes32",
							"name": "role",
							"type": "bytes32"
						},
						{
							"indexed": true,
							"internalType": "address",
							"name": "account",
							"type": "address"
						},
						{
							"indexed": true,
							"internalType": "address",
							"name": "sender",
							"type": "address"
						}
					],
					"name": "RoleRevoked",
					"type": "event"
				},
				{
					"anonymous": false,
					"inputs": [
						{
							"indexed": true,
							"internalType": "uint256",
							"name": "orderId",
							"type": "uint256"
						},
						{
							"indexed": false,
							"internalType": "enum ILogistics.State",
							"name": "status",
							"type": "uint8"
						},
						{
							"indexed": false,
							"internalType": "string",
							"name": "location",
							"type": "string"
						}
					],
					"name": "StatusUpdated",
					"type": "event"
				},
				{
					"inputs": [],
					"name": "COURIER_ROLE",
					"outputs": [
						{
							"internalType": "bytes32",
							"name": "",
							"type": "bytes32"
						}
					],
					"stateMutability": "view",
					"type": "function"
				},
				{
					"inputs": [],
					"name": "DEFAULT_ADMIN_ROLE",
					"outputs": [
						{
							"internalType": "bytes32",
							"name": "",
							"type": "bytes32"
						}
					],
					"stateMutability": "view",
					"type": "function"
				},
				{
					"inputs": [],
					"name": "SUPPLIER_ROLE",
					"outputs": [
						{
							"internalType": "bytes32",
							"name": "",
							"type": "bytes32"
						}
					],
					"stateMutability": "view",
					"type": "function"
				},
				{
					"inputs": [
						{
							"internalType": "uint256",
							"name": "_id",
							"type": "uint256"
						}
					],
					"name": "confirmReceipt",
					"outputs": [],
					"stateMutability": "nonpayable",
					"type": "function"
				},
				{
					"inputs": [
						{
							"internalType": "uint256",
							"name": "_id",
							"type": "uint256"
						},
						{
							"internalType": "string",
							"name": "_item",
							"type": "string"
						}
					],
					"name": "createOrder",
					"outputs": [],
					"stateMutability": "nonpayable",
					"type": "function"
				},
				{
					"inputs": [
						{
							"internalType": "bytes32",
							"name": "role",
							"type": "bytes32"
						}
					],
					"name": "getRoleAdmin",
					"outputs": [
						{
							"internalType": "bytes32",
							"name": "",
							"type": "bytes32"
						}
					],
					"stateMutability": "view",
					"type": "function"
				},
				{
					"inputs": [
						{
							"internalType": "bytes32",
							"name": "role",
							"type": "bytes32"
						},
						{
							"internalType": "address",
							"name": "account",
							"type": "address"
						}
					],
					"name": "grantRole",
					"outputs": [],
					"stateMutability": "nonpayable",
					"type": "function"
				},
				{
					"inputs": [
						{
							"internalType": "bytes32",
							"name": "role",
							"type": "bytes32"
						},
						{
							"internalType": "address",
							"name": "account",
							"type": "address"
						}
					],
					"name": "hasRole",
					"outputs": [
						{
							"internalType": "bool",
							"name": "",
							"type": "bool"
						}
					],
					"stateMutability": "view",
					"type": "function"
				},
				{
					"inputs": [
						{
							"internalType": "uint256",
							"name": "",
							"type": "uint256"
						}
					],
					"name": "orders",
					"outputs": [
						{
							"internalType": "uint256",
							"name": "id",
							"type": "uint256"
						},
						{
							"internalType": "string",
							"name": "item",
							"type": "string"
						},
						{
							"internalType": "address",
							"name": "customer",
							"type": "address"
						},
						{
							"internalType": "enum ILogistics.State",
							"name": "state",
							"type": "uint8"
						},
						{
							"internalType": "string",
							"name": "location",
							"type": "string"
						},
						{
							"internalType": "uint256",
							"name": "timestamp",
							"type": "uint256"
						}
					],
					"stateMutability": "view",
					"type": "function"
				},
				{
					"inputs": [
						{
							"internalType": "bytes32",
							"name": "role",
							"type": "bytes32"
						},
						{
							"internalType": "address",
							"name": "callerConfirmation",
							"type": "address"
						}
					],
					"name": "renounceRole",
					"outputs": [],
					"stateMutability": "nonpayable",
					"type": "function"
				},
				{
					"inputs": [
						{
							"internalType": "bytes32",
							"name": "role",
							"type": "bytes32"
						},
						{
							"internalType": "address",
							"name": "account",
							"type": "address"
						}
					],
					"name": "revokeRole",
					"outputs": [],
					"stateMutability": "nonpayable",
					"type": "function"
				},
				{
					"inputs": [
						{
							"internalType": "uint256",
							"name": "_id",
							"type": "uint256"
						},
						{
							"internalType": "address",
							"name": "_customer",
							"type": "address"
						}
					],
					"name": "setCustomer",
					"outputs": [],
					"stateMutability": "nonpayable",
					"type": "function"
				},
				{
					"inputs": [
						{
							"internalType": "uint256",
							"name": "_id",
							"type": "uint256"
						},
						{
							"internalType": "string",
							"name": "_location",
							"type": "string"
						}
					],
					"name": "shipOrder",
					"outputs": [],
					"stateMutability": "nonpayable",
					"type": "function"
				},
				{
					"inputs": [
						{
							"internalType": "bytes4",
							"name": "interfaceId",
							"type": "bytes4"
						}
					],
					"name": "supportsInterface",
					"outputs": [
						{
							"internalType": "bool",
							"name": "",
							"type": "bool"
						}
					],
					"stateMutability": "view",
					"type": "function"
				}
			],
			"devdoc": {
				"errors": {
					"AccessControlBadConfirmation()": [
						{
							"details": "The caller of a function is not the expected one. NOTE: Don't confuse with {AccessControlUnauthorizedAccount}."
						}
					],
					"AccessControlUnauthorizedAccount(address,bytes32)": [
						{
							"details": "The `account` is missing a role."
						}
					]
				},
				"events": {
					"RoleAdminChanged(bytes32,bytes32,bytes32)": {
						"details": "Emitted when `newAdminRole` is set as ``role``'s admin role, replacing `previousAdminRole` `DEFAULT_ADMIN_ROLE` is the starting admin for all roles, despite {RoleAdminChanged} not being emitted to signal this."
					},
					"RoleGranted(bytes32,address,address)": {
						"details": "Emitted when `account` is granted `role`. `sender` is the account that originated the contract call. This account bears the admin role (for the granted role). Expected in cases where the role was granted using the internal {AccessControl-_grantRole}."
					},
					"RoleRevoked(bytes32,address,address)": {
						"details": "Emitted when `account` is revoked `role`. `sender` is the account that originated the contract call:   - if using `revokeRole`, it is the admin role bearer   - if using `renounceRole`, it is the role bearer (i.e. `account`)"
					}
				},
				"kind": "dev",
				"methods": {
					"getRoleAdmin(bytes32)": {
						"details": "Returns the admin role that controls `role`. See {grantRole} and {revokeRole}. To change a role's admin, use {_setRoleAdmin}."
					},
					"grantRole(bytes32,address)": {
						"details": "Grants `role` to `account`. If `account` had not been already granted `role`, emits a {RoleGranted} event. Requirements: - the caller must have ``role``'s admin role. May emit a {RoleGranted} event."
					},
					"hasRole(bytes32,address)": {
						"details": "Returns `true` if `account` has been granted `role`."
					},
					"renounceRole(bytes32,address)": {
						"details": "Revokes `role` from the calling account. Roles are often managed via {grantRole} and {revokeRole}: this function's purpose is to provide a mechanism for accounts to lose their privileges if they are compromised (such as when a trusted device is misplaced). If the calling account had been revoked `role`, emits a {RoleRevoked} event. Requirements: - the caller must be `callerConfirmation`. May emit a {RoleRevoked} event."
					},
					"revokeRole(bytes32,address)": {
						"details": "Revokes `role` from `account`. If `account` had been granted `role`, emits a {RoleRevoked} event. Requirements: - the caller must have ``role``'s admin role. May emit a {RoleRevoked} event."
					},
					"supportsInterface(bytes4)": {
						"details": "Returns true if this contract implements the interface defined by `interfaceId`. See the corresponding https://eips.ethereum.org/EIPS/eip-165#how-interfaces-are-identified[ERC section] to learn more about how these ids are created. This function call must use less than 30 000 gas."
					}
				},
				"version": 1
			},
			"evm": {
				"assembly": "    /* \"Remix/Day14_FinalExam.sol\":744:4081  contract LogisticsSystem is AccessControl, ILogistics {... */\n  mstore(0x40, 0x80)\n    /* \"Remix/Day14_FinalExam.sol\":1372:1577  constructor() {... */\n  callvalue\n  dup1\n  iszero\n  tag_1\n  jumpi\n  revert(0x00, 0x00)\ntag_1:\n  pop\n    /* \"Remix/Day14_FinalExam.sol\":1527:1569  _grantRole(DEFAULT_ADMIN_ROLE, msg.sender) */\n  tag_4\n    /* \"@openzeppelin/contracts/access/AccessControl.sol\":2241:2245  0x00 */\n  0x00\n    /* \"Remix/Day14_FinalExam.sol\":1538:1556  DEFAULT_ADMIN_ROLE */\n  0x00\n  shl\n    /* \"Remix/Day14_FinalExam.sol\":1558:1568  msg.sender */\n  caller\n    /* \"Remix/Day14_FinalExam.sol\":1527:1537  _grantRole */\n  shl(0x20, tag_5)\n    /* \"Remix/Day14_FinalExam.sol\":1527:1569  _grantRole(DEFAULT_ADMIN_ROLE, msg.sender) */\n  0x20\n  shr\n  jump\t// in\ntag_4:\n  pop\n    /* \"Remix/Day14_FinalExam.sol\":744:4081  contract LogisticsSystem is AccessControl, ILogistics {... */\n  jump(tag_6)\n    /* \"@openzeppelin/contracts/access/AccessControl.sol\":6155:6471  function _grantRole(bytes32 role, address account) internal virtual returns (bool) {... */\ntag_5:\n    /* \"@openzeppelin/contracts/access/AccessControl.sol\":6232:6236  bool */\n  0x00\n    /* \"@openzeppelin/contracts/access/AccessControl.sol\":6253:6275  hasRole(role, account) */\n  tag_8\n    /* \"@openzeppelin/contracts/access/AccessControl.sol\":6261:6265  role */\n  dup4\n    /* \"@openzeppelin/contracts/access/AccessControl.sol\":6267:6274  account */\n  dup4\n    /* \"@openzeppelin/contracts/access/AccessControl.sol\":6253:6260  hasRole */\n  shl(0x20, tag_9)\n    /* \"@openzeppelin/contracts/access/AccessControl.sol\":6253:6275  hasRole(role, account) */\n  0x20\n  shr\n  jump\t// in\ntag_8:\n    /* \"@openzeppelin/contracts/access/AccessControl.sol\":6248:6465  if (!hasRole(role, account)) {... */\n  tag_10\n  jumpi\n    /* \"@openzeppelin/contracts/access/AccessControl.sol\":6323:6327  true */\n  0x01\n    /* \"@openzeppelin/contracts/access/AccessControl.sol\":6291:6297  _roles */\n  0x00\n    /* \"@openzeppelin/contracts/access/AccessControl.sol\":6291:6303  _roles[role] */\n  0x00\n    /* \"@openzeppelin/contracts/access/AccessControl.sol\":6298:6302  role */\n  dup6\n    /* \"@openzeppelin/contracts/access/AccessControl.sol\":6291:6303  _roles[role] */\n  dup2\n  mstore\n  0x20\n  add\n  swap1\n  dup2\n  mstore\n  0x20\n  add\n  0x00\n  keccak256\n    /* \"@openzeppelin/contracts/access/AccessControl.sol\":6291:6311  _roles[role].hasRole */\n  0x00\n  add\n    /* \"@openzeppelin/contracts/access/AccessControl.sol\":6291:6320  _roles[role].hasRole[account] */\n  0x00\n    /* \"@openzeppelin/contracts/access/AccessControl.sol\":6312:6319  account */\n  dup5\n    /* \"@openzeppelin/contracts/access/AccessControl.sol\":6291:6320  _roles[role].hasRole[account] */\n  0xffffffffffffffffffffffffffffffffffffffff\n  and\n  0xffffffffffffffffffffffffffffffffffffffff\n  and\n  dup2\n  mstore\n  0x20\n  add\n  swap1\n  dup2\n  mstore\n  0x20\n  add\n  0x00\n  keccak256\n  0x00\n    /* \"@openzeppelin/contracts/access/AccessControl.sol\":6291:6327  _roles[role].hasRole[account] = true */\n  0x0100\n  exp\n  dup2\n  sload\n  dup2\n  0xff\n  mul\n  not\n  and\n  swap1\n  dup4\n  iszero\n  iszero\n  mul\n  or\n  swap1\n  sstore\n  pop\n    /* \"@openzeppelin/contracts/access/AccessControl.sol\":6373:6385  _msgSender() */\n  tag_11\n    /* \"@openzeppelin/contracts/access/AccessControl.sol\":6373:6383  _msgSender */\n  shl(0x20, tag_12)\n    /* \"@openzeppelin/contracts/access/AccessControl.sol\":6373:6385  _msgSender() */\n  0x20\n  shr\n  jump\t// in\ntag_11:\n    /* \"@openzeppelin/contracts/access/AccessControl.sol\":6346:6386  RoleGranted(role, account, _msgSender()) */\n  0xffffffffffffffffffffffffffffffffffffffff\n  and\n    /* \"@openzeppelin/contracts/access/AccessControl.sol\":6364:6371  account */\n  dup3\n    /* \"@openzeppelin/contracts/access/AccessControl.sol\":6346:6386  RoleGranted(role, account, _msgSender()) */\n  0xffffffffffffffffffffffffffffffffffffffff\n  and\n    /* \"@openzeppelin/contracts/access/AccessControl.sol\":6358:6362  role */\n  dup5\n    /* \"@openzeppelin/contracts/access/AccessControl.sol\":6346:6386  RoleGranted(role, account, _msgSender()) */\n  0x2f8788117e7eff1d82e926ec794901d17c78024a50270940304540a733656f0d\n  mload(0x40)\n  mload(0x40)\n  dup1\n  swap2\n  sub\n  swap1\n  log4\n    /* \"@openzeppelin/contracts/access/AccessControl.sol\":6407:6411  true */\n  0x01\n    /* \"@openzeppelin/contracts/access/AccessControl.sol\":6400:6411  return true */\n  swap1\n  pop\n  jump(tag_7)\n    /* \"@openzeppelin/contracts/access/AccessControl.sol\":6248:6465  if (!hasRole(role, account)) {... */\ntag_10:\n    /* \"@openzeppelin/contracts/access/AccessControl.sol\":6449:6454  false */\n  0x00\n    /* \"@openzeppelin/contracts/access/AccessControl.sol\":6442:6454  return false */\n  swap1\n  pop\n    /* \"@openzeppelin/contracts/access/AccessControl.sol\":6155:6471  function _grantRole(bytes32 role, address account) internal virtual returns (bool) {... */\ntag_7:\n  swap3\n  swap2\n  pop\n  pop\n  jump\t// out\n    /* \"@openzeppelin/contracts/access/AccessControl.sol\":2830:2966  function hasRole(bytes32 role, address account) public view virtual returns (bool) {... */\ntag_9:\n    /* \"@openzeppelin/contracts/access/AccessControl.sol\":2907:2911  bool */\n  0x00\n    /* \"@openzeppelin/contracts/access/AccessControl.sol\":2930:2936  _roles */\n  0x00\n    /* \"@openzeppelin/contracts/access/AccessControl.sol\":2930:2942  _roles[role] */\n  0x00\n    /* \"@openzeppelin/contracts/access/AccessControl.sol\":2937:2941  role */\n  dup5\n    /* \"@openzeppelin/contracts/access/AccessControl.sol\":2930:2942  _roles[role] */\n  dup2\n  mstore\n  0x20\n  add\n  swap1\n  dup2\n  mstore\n  0x20\n  add\n  0x00\n  keccak256\n    /* \"@openzeppelin/contracts/access/AccessControl.sol\":2930:2950  _roles[role].hasRole */\n  0x00\n  add\n    /* \"@openzeppelin/contracts/access/AccessControl.sol\":2930:2959  _roles[role].hasRole[account] */\n  0x00\n    /* \"@openzeppelin/contracts/access/AccessControl.sol\":2951:2958  account */\n  dup4\n    /* \"@openzeppelin/contracts/access/AccessControl.sol\":2930:2959  _roles[role].hasRole[account] */\n  0xffffffffffffffffffffffffffffffffffffffff\n  and\n  0xffffffffffffffffffffffffffffffffffffffff\n  and\n  dup2\n  mstore\n  0x20\n  add\n  swap1\n  dup2\n  mstore\n  0x20\n  add\n  0x00\n  keccak256\n  0x00\n  swap1\n  sload\n  swap1\n  0x0100\n  exp\n  swap1\n  div\n  0xff\n  and\n    /* \"@openzeppelin/contracts/access/AccessControl.sol\":2923:2959  return _roles[role].hasRole[account] */\n  swap1\n  pop\n    /* \"@openzeppelin/contracts/access/AccessControl.sol\":2830:2966  function hasRole(bytes32 role, address account) public view virtual returns (bool) {... */\n  swap3\n  swap2\n  pop\n  pop\n  jump\t// out\n    /* \"@openzeppelin/contracts/utils/Context.sol\":656:752  function _msgSender() internal view virtual returns (address) {... */\ntag_12:\n    /* \"@openzeppelin/contracts/utils/Context.sol\":709:716  address */\n  0x00\n    /* \"@openzeppelin/contracts/utils/Context.sol\":735:745  msg.sender */\n  caller\n    /* \"@openzeppelin/contracts/utils/Context.sol\":728:745  return msg.sender */\n  swap1\n  pop\n    /* \"@openzeppelin/contracts/utils/Context.sol\":656:752  function _msgSender() internal view virtual returns (address) {... */\n  swap1\n  jump\t// out\n    /* \"Remix/Day14_FinalExam.sol\":744:4081  contract LogisticsSystem is AccessControl, ILogistics {... */\ntag_6:\n  dataSize(sub_0)\n  dup1\n  dataOffset(sub_0)\n  0x00\n  codecopy\n  0x00\n  return\nstop\n\nsub_0: assembly {\n        /* \"Remix/Day14_FinalExam.sol\":744:4081  contract LogisticsSystem is AccessControl, ILogistics {... */\n      mstore(0x40, 0x80)\n      callvalue\n      dup1\n      iszero\n      tag_1\n      jumpi\n      revert(0x00, 0x00)\n    tag_1:\n      pop\n      jumpi(tag_2, lt(calldatasize, 0x04))\n      shr(0xe0, calldataload(0x00))\n      dup1\n      0x91d14854\n      gt\n      tag_17\n      jumpi\n      dup1\n      0xa217fddf\n      gt\n      tag_18\n      jumpi\n      dup1\n      0xa217fddf\n      eq\n      tag_13\n      jumpi\n      dup1\n      0xa29508fc\n      eq\n      tag_14\n      jumpi\n      dup1\n      0xa85c38ef\n      eq\n      tag_15\n      jumpi\n      dup1\n      0xd547741f\n      eq\n      tag_16\n      jumpi\n      jump(tag_2)\n    tag_18:\n      dup1\n      0x91d14854\n      eq\n      tag_10\n      jumpi\n      dup1\n      0x92b8a6c8\n      eq\n      tag_11\n      jumpi\n      dup1\n      0x9d07a8e9\n      eq\n      tag_12\n      jumpi\n      jump(tag_2)\n    tag_17:\n      dup1\n      0x248a9ca3\n      gt\n      tag_19\n      jumpi\n      dup1\n      0x248a9ca3\n      eq\n      tag_6\n      jumpi\n      dup1\n      0x2f2ff15d\n      eq\n      tag_7\n      jumpi\n      dup1\n      0x36568abe\n      eq\n      tag_8\n      jumpi\n      dup1\n      0x843cba13\n      eq\n      tag_9\n      jumpi\n      jump(tag_2)\n    tag_19:\n      dup1\n      0x01ffc9a7\n      eq\n      tag_3\n      jumpi\n      dup1\n      0x0e540b3a\n      eq\n      tag_4\n      jumpi\n      dup1\n      0x2334ac7f\n      eq\n      tag_5\n      jumpi\n    tag_2:\n      revert(0x00, 0x00)\n        /* \"@openzeppelin/contracts/access/AccessControl.sol\":2541:2743  function supportsInterface(bytes4 interfaceId) public view virtual override returns (bool) {... */\n    tag_3:\n      tag_20\n      0x04\n      dup1\n      calldatasize\n      sub\n      dup2\n      add\n      swap1\n      tag_21\n      swap2\n      swap1\n      tag_22\n      jump\t// in\n    tag_21:\n      tag_23\n      jump\t// in\n    tag_20:\n      mload(0x40)\n      tag_24\n      swap2\n      swap1\n      tag_25\n      jump\t// in\n    tag_24:\n      mload(0x40)\n      dup1\n      swap2\n      sub\n      swap1\n      return\n        /* \"Remix/Day14_FinalExam.sol\":1665:2400  function createOrder(uint256 _id, string memory _item) public override onlyRole(SUPPLIER_ROLE) {... */\n    tag_4:\n      tag_26\n      0x04\n      dup1\n      calldatasize\n      sub\n      dup2\n      add\n      swap1\n      tag_27\n      swap2\n      swap1\n      tag_28\n      jump\t// in\n    tag_27:\n      tag_29\n      jump\t// in\n    tag_26:\n      stop\n        /* \"Remix/Day14_FinalExam.sol\":2514:2650  function setCustomer(uint256 _id, address _customer) public onlyRole(SUPPLIER_ROLE) {... */\n    tag_5:\n      tag_30\n      0x04\n      dup1\n      calldatasize\n      sub\n      dup2\n      add\n      swap1\n      tag_31\n      swap2\n      swap1\n      tag_32\n      jump\t// in\n    tag_31:\n      tag_33\n      jump\t// in\n    tag_30:\n      stop\n        /* \"@openzeppelin/contracts/access/AccessControl.sol\":3786:3906  function getRoleAdmin(bytes32 role) public view virtual returns (bytes32) {... */\n    tag_6:\n      tag_34\n      0x04\n      dup1\n      calldatasize\n      sub\n      dup2\n      add\n      swap1\n      tag_35\n      swap2\n      swap1\n      tag_36\n      jump\t// in\n    tag_35:\n      tag_37\n      jump\t// in\n    tag_34:\n      mload(0x40)\n      tag_38\n      swap2\n      swap1\n      tag_39\n      jump\t// in\n    tag_38:\n      mload(0x40)\n      dup1\n      swap2\n      sub\n      swap1\n      return\n        /* \"@openzeppelin/contracts/access/AccessControl.sol\":4202:4338  function grantRole(bytes32 role, address account) public virtual onlyRole(getRoleAdmin(role)) {... */\n    tag_7:\n      tag_40\n      0x04\n      dup1\n      calldatasize\n      sub\n      dup2\n      add\n      swap1\n      tag_41\n      swap2\n      swap1\n      tag_42\n      jump\t// in\n    tag_41:\n      tag_43\n      jump\t// in\n    tag_40:\n      stop\n        /* \"@openzeppelin/contracts/access/AccessControl.sol\":5304:5549  function renounceRole(bytes32 role, address callerConfirmation) public virtual {... */\n    tag_8:\n      tag_44\n      0x04\n      dup1\n      calldatasize\n      sub\n      dup2\n      add\n      swap1\n      tag_45\n      swap2\n      swap1\n      tag_42\n      jump\t// in\n    tag_45:\n      tag_46\n      jump\t// in\n    tag_44:\n      stop\n        /* \"Remix/Day14_FinalExam.sol\":3432:4078  function confirmReceipt(uint256 _id) public override {... */\n    tag_9:\n      tag_47\n      0x04\n      dup1\n      calldatasize\n      sub\n      dup2\n      add\n      swap1\n      tag_48\n      swap2\n      swap1\n      tag_49\n      jump\t// in\n    tag_48:\n      tag_50\n      jump\t// in\n    tag_47:\n      stop\n        /* \"@openzeppelin/contracts/access/AccessControl.sol\":2830:2966  function hasRole(bytes32 role, address account) public view virtual returns (bool) {... */\n    tag_10:\n      tag_51\n      0x04\n      dup1\n      calldatasize\n      sub\n      dup2\n      add\n      swap1\n      tag_52\n      swap2\n      swap1\n      tag_42\n      jump\t// in\n    tag_52:\n      tag_53\n      jump\t// in\n    tag_51:\n      mload(0x40)\n      tag_54\n      swap2\n      swap1\n      tag_25\n      jump\t// in\n    tag_54:\n      mload(0x40)\n      dup1\n      swap2\n      sub\n      swap1\n      return\n        /* \"Remix/Day14_FinalExam.sol\":919:978  bytes32 public constant COURIER_ROLE = keccak256(\"COURIER\") */\n    tag_11:\n      tag_55\n      tag_56\n      jump\t// in\n    tag_55:\n      mload(0x40)\n      tag_57\n      swap2\n      swap1\n      tag_39\n      jump\t// in\n    tag_57:\n      mload(0x40)\n      dup1\n      swap2\n      sub\n      swap1\n      return\n        /* \"Remix/Day14_FinalExam.sol\":2700:3237  function shipOrder(uint256 _id, string memory _location) public override onlyRole(COURIER_ROLE) {... */\n    tag_12:\n      tag_58\n      0x04\n      dup1\n      calldatasize\n      sub\n      dup2\n      add\n      swap1\n      tag_59\n      swap2\n      swap1\n      tag_28\n      jump\t// in\n    tag_59:\n      tag_60\n      jump\t// in\n    tag_58:\n      stop\n        /* \"@openzeppelin/contracts/access/AccessControl.sol\":2196:2245  bytes32 public constant DEFAULT_ADMIN_ROLE = 0x00 */\n    tag_13:\n      tag_61\n      tag_62\n      jump\t// in\n    tag_61:\n      mload(0x40)\n      tag_63\n      swap2\n      swap1\n      tag_39\n      jump\t// in\n    tag_63:\n      mload(0x40)\n      dup1\n      swap2\n      sub\n      swap1\n      return\n        /* \"Remix/Day14_FinalExam.sol\":851:912  bytes32 public constant SUPPLIER_ROLE = keccak256(\"SUPPLIER\") */\n    tag_14:\n      tag_64\n      tag_65\n      jump\t// in\n    tag_64:\n      mload(0x40)\n      tag_66\n      swap2\n      swap1\n      tag_39\n      jump\t// in\n    tag_66:\n      mload(0x40)\n      dup1\n      swap2\n      sub\n      swap1\n      return\n        /* \"Remix/Day14_FinalExam.sol\":1303:1342  mapping(uint256 => Order) public orders */\n    tag_15:\n      tag_67\n      0x04\n      dup1\n      calldatasize\n      sub\n      dup2\n      add\n      swap1\n      tag_68\n      swap2\n      swap1\n      tag_49\n      jump\t// in\n    tag_68:\n      tag_69\n      jump\t// in\n    tag_67:\n      mload(0x40)\n      tag_70\n      swap7\n      swap6\n      swap5\n      swap4\n      swap3\n      swap2\n      swap1\n      tag_71\n      jump\t// in\n    tag_70:\n      mload(0x40)\n      dup1\n      swap2\n      sub\n      swap1\n      return\n        /* \"@openzeppelin/contracts/access/AccessControl.sol\":4618:4756  function revokeRole(bytes32 role, address account) public virtual onlyRole(getRoleAdmin(role)) {... */\n    tag_16:\n      tag_72\n      0x04\n      dup1\n      calldatasize\n      sub\n      dup2\n      add\n      swap1\n      tag_73\n      swap2\n      swap1\n      tag_42\n      jump\t// in\n    tag_73:\n      tag_74\n      jump\t// in\n    tag_72:\n      stop\n        /* \"@openzeppelin/contracts/access/AccessControl.sol\":2541:2743  function supportsInterface(bytes4 interfaceId) public view virtual override returns (bool) {... */\n    tag_23:\n        /* \"@openzeppelin/contracts/access/AccessControl.sol\":2626:2630  bool */\n      0x00\n        /* \"@openzeppelin/contracts/access/AccessControl.sol\":2664:2696  type(IAccessControl).interfaceId */\n      0x7965db0b00000000000000000000000000000000000000000000000000000000\n        /* \"@openzeppelin/contracts/access/AccessControl.sol\":2649:2696  interfaceId == type(IAccessControl).interfaceId */\n      not(0xffffffffffffffffffffffffffffffffffffffffffffffffffffffff)\n      and\n        /* \"@openzeppelin/contracts/access/AccessControl.sol\":2649:2660  interfaceId */\n      dup3\n        /* \"@openzeppelin/contracts/access/AccessControl.sol\":2649:2696  interfaceId == type(IAccessControl).interfaceId */\n      not(0xffffffffffffffffffffffffffffffffffffffffffffffffffffffff)\n      and\n      eq\n        /* \"@openzeppelin/contracts/access/AccessControl.sol\":2649:2736  interfaceId == type(IAccessControl).interfaceId || super.supportsInterface(interfaceId) */\n      dup1\n      tag_76\n      jumpi\n      pop\n        /* \"@openzeppelin/contracts/access/AccessControl.sol\":2700:2736  super.supportsInterface(interfaceId) */\n      tag_77\n        /* \"@openzeppelin/contracts/access/AccessControl.sol\":2724:2735  interfaceId */\n      dup3\n        /* \"@openzeppelin/contracts/access/AccessControl.sol\":2700:2723  super.supportsInterface */\n      tag_78\n        /* \"@openzeppelin/contracts/access/AccessControl.sol\":2700:2736  super.supportsInterface(interfaceId) */\n      jump\t// in\n    tag_77:\n        /* \"@openzeppelin/contracts/access/AccessControl.sol\":2649:2736  interfaceId == type(IAccessControl).interfaceId || super.supportsInterface(interfaceId) */\n    tag_76:\n        /* \"@openzeppelin/contracts/access/AccessControl.sol\":2642:2736  return interfaceId == type(IAccessControl).interfaceId || super.supportsInterface(interfaceId) */\n      swap1\n      pop\n        /* \"@openzeppelin/contracts/access/AccessControl.sol\":2541:2743  function supportsInterface(bytes4 interfaceId) public view virtual override returns (bool) {... */\n      swap2\n      swap1\n      pop\n      jump\t// out\n        /* \"Remix/Day14_FinalExam.sol\":1665:2400  function createOrder(uint256 _id, string memory _item) public override onlyRole(SUPPLIER_ROLE) {... */\n    tag_29:\n        /* \"Remix/Day14_FinalExam.sol\":891:912  keccak256(\"SUPPLIER\") */\n      0xf4649f2a97b4905837fc846dcfefa3e2561c3a9744fc53688b4d0bcb33e49f98\n        /* \"@openzeppelin/contracts/access/AccessControl.sol\":2473:2489  _checkRole(role) */\n      tag_80\n        /* \"@openzeppelin/contracts/access/AccessControl.sol\":2484:2488  role */\n      dup2\n        /* \"@openzeppelin/contracts/access/AccessControl.sol\":2473:2483  _checkRole */\n      tag_81\n        /* \"@openzeppelin/contracts/access/AccessControl.sol\":2473:2489  _checkRole(role) */\n      jump\t// in\n    tag_80:\n        /* \"Remix/Day14_FinalExam.sol\":1852:1853  0 */\n      0x00\n        /* \"Remix/Day14_FinalExam.sol\":1834:1840  orders */\n      0x01\n        /* \"Remix/Day14_FinalExam.sol\":1834:1845  orders[_id] */\n      0x00\n        /* \"Remix/Day14_FinalExam.sol\":1841:1844  _id */\n      dup6\n        /* \"Remix/Day14_FinalExam.sol\":1834:1845  orders[_id] */\n      dup2\n      mstore\n      0x20\n      add\n      swap1\n      dup2\n      mstore\n      0x20\n      add\n      0x00\n      keccak256\n        /* \"Remix/Day14_FinalExam.sol\":1834:1848  orders[_id].id */\n      0x00\n      add\n      sload\n        /* \"Remix/Day14_FinalExam.sol\":1834:1853  orders[_id].id == 0 */\n      eq\n        /* \"Remix/Day14_FinalExam.sol\":1826:1878  require(orders[_id].id == 0, \"Order already exists\") */\n      tag_83\n      jumpi\n      mload(0x40)\n      0x08c379a000000000000000000000000000000000000000000000000000000000\n      dup2\n      mstore\n      0x04\n      add\n      tag_84\n      swap1\n      tag_85\n      jump\t// in\n    tag_84:\n      mload(0x40)\n      dup1\n      swap2\n      sub\n      swap1\n      revert\n    tag_83:\n        /* \"Remix/Day14_FinalExam.sol\":2078:2350  Order({... */\n      mload(0x40)\n      dup1\n      0xc0\n      add\n      0x40\n      mstore\n      dup1\n        /* \"Remix/Day14_FinalExam.sol\":2103:2106  _id */\n      dup5\n        /* \"Remix/Day14_FinalExam.sol\":2078:2350  Order({... */\n      dup2\n      mstore\n      0x20\n      add\n        /* \"Remix/Day14_FinalExam.sol\":2127:2132  _item */\n      dup4\n        /* \"Remix/Day14_FinalExam.sol\":2078:2350  Order({... */\n      dup2\n      mstore\n      0x20\n      add\n        /* \"Remix/Day14_FinalExam.sol\":2165:2166  0 */\n      0x00\n        /* \"Remix/Day14_FinalExam.sol\":2078:2350  Order({... */\n      0xffffffffffffffffffffffffffffffffffffffff\n      and\n      dup2\n      mstore\n      0x20\n      add\n        /* \"Remix/Day14_FinalExam.sol\":2250:2263  State.Pending */\n      0x00\n        /* \"Remix/Day14_FinalExam.sol\":2078:2350  Order({... */\n      0x02\n      dup2\n      gt\n      iszero\n      tag_86\n      jumpi\n      tag_87\n      tag_88\n      jump\t// in\n    tag_87:\n    tag_86:\n      dup2\n      mstore\n      0x20\n      add\n      mload(0x40)\n      dup1\n      0x40\n      add\n      0x40\n      mstore\n      dup1\n      0x07\n      dup2\n      mstore\n      0x20\n      add\n      0x466163746f727900000000000000000000000000000000000000000000000000\n      dup2\n      mstore\n      pop\n      dup2\n      mstore\n      0x20\n      add\n        /* \"Remix/Day14_FinalExam.sol\":2323:2338  block.timestamp */\n      timestamp\n        /* \"Remix/Day14_FinalExam.sol\":2078:2350  Order({... */\n      dup2\n      mstore\n      pop\n        /* \"Remix/Day14_FinalExam.sol\":2064:2070  orders */\n      0x01\n        /* \"Remix/Day14_FinalExam.sol\":2064:2075  orders[_id] */\n      0x00\n        /* \"Remix/Day14_FinalExam.sol\":2071:2074  _id */\n      dup6\n        /* \"Remix/Day14_FinalExam.sol\":2064:2075  orders[_id] */\n      dup2\n      mstore\n      0x20\n      add\n      swap1\n      dup2\n      mstore\n      0x20\n      add\n      0x00\n      keccak256\n        /* \"Remix/Day14_FinalExam.sol\":2064:2350  orders[_id] = Order({... */\n      0x00\n      dup3\n      add\n      mload\n      dup2\n      0x00\n      add\n      sstore\n      0x20\n      dup3\n      add\n      mload\n      dup2\n      0x01\n      add\n      swap1\n      dup2\n      tag_89\n      swap2\n      swap1\n      tag_90\n      jump\t// in\n    tag_89:\n      pop\n      0x40\n      dup3\n      add\n      mload\n      dup2\n      0x02\n      add\n      exp(0x0100, 0x00)\n      dup2\n      sload\n      dup2\n      0xffffffffffffffffffffffffffffffffffffffff\n      mul\n      not\n      and\n      swap1\n      dup4\n      0xffffffffffffffffffffffffffffffffffffffff\n      and\n      mul\n      or\n      swap1\n      sstore\n      pop\n      0x60\n      dup3\n      add\n      mload\n      dup2\n      0x02\n      add\n      exp(0x0100, 0x14)\n      dup2\n      sload\n      dup2\n      0xff\n      mul\n      not\n      and\n      swap1\n      dup4\n      0x02\n      dup2\n      gt\n      iszero\n      tag_91\n      jumpi\n      tag_92\n      tag_88\n      jump\t// in\n    tag_92:\n    tag_91:\n      mul\n      or\n      swap1\n      sstore\n      pop\n      0x80\n      dup3\n      add\n      mload\n      dup2\n      0x03\n      add\n      swap1\n      dup2\n      tag_93\n      swap2\n      swap1\n      tag_90\n      jump\t// in\n    tag_93:\n      pop\n      0xa0\n      dup3\n      add\n      mload\n      dup2\n      0x04\n      add\n      sstore\n      swap1\n      pop\n      pop\n        /* \"Remix/Day14_FinalExam.sol\":2381:2384  _id */\n      dup3\n        /* \"Remix/Day14_FinalExam.sol\":2368:2392  OrderCreated(_id, _item) */\n      0xd685ea678ddf3f2385a2ec7f8e057a9467a5bce80e0db82f38b35b6d1cdf8f00\n        /* \"Remix/Day14_FinalExam.sol\":2386:2391  _item */\n      dup4\n        /* \"Remix/Day14_FinalExam.sol\":2368:2392  OrderCreated(_id, _item) */\n      mload(0x40)\n      tag_94\n      swap2\n      swap1\n      tag_95\n      jump\t// in\n    tag_94:\n      mload(0x40)\n      dup1\n      swap2\n      sub\n      swap1\n      log2\n        /* \"Remix/Day14_FinalExam.sol\":1665:2400  function createOrder(uint256 _id, string memory _item) public override onlyRole(SUPPLIER_ROLE) {... */\n      pop\n      pop\n      pop\n      jump\t// out\n        /* \"Remix/Day14_FinalExam.sol\":2514:2650  function setCustomer(uint256 _id, address _customer) public onlyRole(SUPPLIER_ROLE) {... */\n    tag_33:\n        /* \"Remix/Day14_FinalExam.sol\":891:912  keccak256(\"SUPPLIER\") */\n      0xf4649f2a97b4905837fc846dcfefa3e2561c3a9744fc53688b4d0bcb33e49f98\n        /* \"@openzeppelin/contracts/access/AccessControl.sol\":2473:2489  _checkRole(role) */\n      tag_97\n        /* \"@openzeppelin/contracts/access/AccessControl.sol\":2484:2488  role */\n      dup2\n        /* \"@openzeppelin/contracts/access/AccessControl.sol\":2473:2483  _checkRole */\n      tag_81\n        /* \"@openzeppelin/contracts/access/AccessControl.sol\":2473:2489  _checkRole(role) */\n      jump\t// in\n    tag_97:\n        /* \"Remix/Day14_FinalExam.sol\":2633:2642  _customer */\n      dup2\n        /* \"Remix/Day14_FinalExam.sol\":2610:2616  orders */\n      0x01\n        /* \"Remix/Day14_FinalExam.sol\":2610:2621  orders[_id] */\n      0x00\n        /* \"Remix/Day14_FinalExam.sol\":2617:2620  _id */\n      dup6\n        /* \"Remix/Day14_FinalExam.sol\":2610:2621  orders[_id] */\n      dup2\n      mstore\n      0x20\n      add\n      swap1\n      dup2\n      mstore\n      0x20\n      add\n      0x00\n      keccak256\n        /* \"Remix/Day14_FinalExam.sol\":2610:2630  orders[_id].customer */\n      0x02\n      add\n      0x00\n        /* \"Remix/Day14_FinalExam.sol\":2610:2642  orders[_id].customer = _customer */\n      0x0100\n      exp\n      dup2\n      sload\n      dup2\n      0xffffffffffffffffffffffffffffffffffffffff\n      mul\n      not\n      and\n      swap1\n      dup4\n      0xffffffffffffffffffffffffffffffffffffffff\n      and\n      mul\n      or\n      swap1\n      sstore\n      pop\n        /* \"Remix/Day14_FinalExam.sol\":2514:2650  function setCustomer(uint256 _id, address _customer) public onlyRole(SUPPLIER_ROLE) {... */\n      pop\n      pop\n      pop\n      jump\t// out\n        /* \"@openzeppelin/contracts/access/AccessControl.sol\":3786:3906  function getRoleAdmin(bytes32 role) public view virtual returns (bytes32) {... */\n    tag_37:\n        /* \"@openzeppelin/contracts/access/AccessControl.sol\":3851:3858  bytes32 */\n      0x00\n        /* \"@openzeppelin/contracts/access/AccessControl.sol\":3877:3883  _roles */\n      0x00\n        /* \"@openzeppelin/contracts/access/AccessControl.sol\":3877:3889  _roles[role] */\n      0x00\n        /* \"@openzeppelin/contracts/access/AccessControl.sol\":3884:3888  role */\n      dup4\n        /* \"@openzeppelin/contracts/access/AccessControl.sol\":3877:3889  _roles[role] */\n      dup2\n      mstore\n      0x20\n      add\n      swap1\n      dup2\n      mstore\n      0x20\n      add\n      0x00\n      keccak256\n        /* \"@openzeppelin/contracts/access/AccessControl.sol\":3877:3899  _roles[role].adminRole */\n      0x01\n      add\n      sload\n        /* \"@openzeppelin/contracts/access/AccessControl.sol\":3870:3899  return _roles[role].adminRole */\n      swap1\n      pop\n        /* \"@openzeppelin/contracts/access/AccessControl.sol\":3786:3906  function getRoleAdmin(bytes32 role) public view virtual returns (bytes32) {... */\n      swap2\n      swap1\n      pop\n      jump\t// out\n        /* \"@openzeppelin/contracts/access/AccessControl.sol\":4202:4338  function grantRole(bytes32 role, address account) public virtual onlyRole(getRoleAdmin(role)) {... */\n    tag_43:\n        /* \"@openzeppelin/contracts/access/AccessControl.sol\":4276:4294  getRoleAdmin(role) */\n      tag_100\n        /* \"@openzeppelin/contracts/access/AccessControl.sol\":4289:4293  role */\n      dup3\n        /* \"@openzeppelin/contracts/access/AccessControl.sol\":4276:4288  getRoleAdmin */\n      tag_37\n        /* \"@openzeppelin/contracts/access/AccessControl.sol\":4276:4294  getRoleAdmin(role) */\n      jump\t// in\n    tag_100:\n        /* \"@openzeppelin/contracts/access/AccessControl.sol\":2473:2489  _checkRole(role) */\n      tag_102\n        /* \"@openzeppelin/contracts/access/AccessControl.sol\":2484:2488  role */\n      dup2\n        /* \"@openzeppelin/contracts/access/AccessControl.sol\":2473:2483  _checkRole */\n      tag_81\n        /* \"@openzeppelin/contracts/access/AccessControl.sol\":2473:2489  _checkRole(role) */\n      jump\t// in\n    tag_102:\n        /* \"@openzeppelin/contracts/access/AccessControl.sol\":4306:4331  _grantRole(role, account) */\n      tag_104\n        /* \"@openzeppelin/contracts/access/AccessControl.sol\":4317:4321  role */\n      dup4\n        /* \"@openzeppelin/contracts/access/AccessControl.sol\":4323:4330  account */\n      dup4\n        /* \"@openzeppelin/contracts/access/AccessControl.sol\":4306:4316  _grantRole */\n      tag_105\n        /* \"@openzeppelin/contracts/access/AccessControl.sol\":4306:4331  _grantRole(role, account) */\n      jump\t// in\n    tag_104:\n      pop\n        /* \"@openzeppelin/contracts/access/AccessControl.sol\":4202:4338  function grantRole(bytes32 role, address account) public virtual onlyRole(getRoleAdmin(role)) {... */\n      pop\n      pop\n      pop\n      jump\t// out\n        /* \"@openzeppelin/contracts/access/AccessControl.sol\":5304:5549  function renounceRole(bytes32 role, address callerConfirmation) public virtual {... */\n    tag_46:\n        /* \"@openzeppelin/contracts/access/AccessControl.sol\":5419:5431  _msgSender() */\n      tag_107\n        /* \"@openzeppelin/contracts/access/AccessControl.sol\":5419:5429  _msgSender */\n      tag_108\n        /* \"@openzeppelin/contracts/access/AccessControl.sol\":5419:5431  _msgSender() */\n      jump\t// in\n    tag_107:\n        /* \"@openzeppelin/contracts/access/AccessControl.sol\":5397:5431  callerConfirmation != _msgSender() */\n      0xffffffffffffffffffffffffffffffffffffffff\n      and\n        /* \"@openzeppelin/contracts/access/AccessControl.sol\":5397:5415  callerConfirmation */\n      dup2\n        /* \"@openzeppelin/contracts/access/AccessControl.sol\":5397:5431  callerConfirmation != _msgSender() */\n      0xffffffffffffffffffffffffffffffffffffffff\n      and\n      eq\n        /* \"@openzeppelin/contracts/access/AccessControl.sol\":5393:5495  if (callerConfirmation != _msgSender()) {... */\n      tag_109\n      jumpi\n        /* \"@openzeppelin/contracts/access/AccessControl.sol\":5454:5484  AccessControlBadConfirmation() */\n      mload(0x40)\n      0x6697b23200000000000000000000000000000000000000000000000000000000\n      dup2\n      mstore\n      0x04\n      add\n      mload(0x40)\n      dup1\n      swap2\n      sub\n      swap1\n      revert\n        /* \"@openzeppelin/contracts/access/AccessControl.sol\":5393:5495  if (callerConfirmation != _msgSender()) {... */\n    tag_109:\n        /* \"@openzeppelin/contracts/access/AccessControl.sol\":5505:5542  _revokeRole(role, callerConfirmation) */\n      tag_110\n        /* \"@openzeppelin/contracts/access/AccessControl.sol\":5517:5521  role */\n      dup3\n        /* \"@openzeppelin/contracts/access/AccessControl.sol\":5523:5541  callerConfirmation */\n      dup3\n        /* \"@openzeppelin/contracts/access/AccessControl.sol\":5505:5516  _revokeRole */\n      tag_111\n        /* \"@openzeppelin/contracts/access/AccessControl.sol\":5505:5542  _revokeRole(role, callerConfirmation) */\n      jump\t// in\n    tag_110:\n      pop\n        /* \"@openzeppelin/contracts/access/AccessControl.sol\":5304:5549  function renounceRole(bytes32 role, address callerConfirmation) public virtual {... */\n      pop\n      pop\n      jump\t// out\n        /* \"Remix/Day14_FinalExam.sol\":3432:4078  function confirmReceipt(uint256 _id) public override {... */\n    tag_50:\n        /* \"Remix/Day14_FinalExam.sol\":3625:3631  orders */\n      0x01\n        /* \"Remix/Day14_FinalExam.sol\":3625:3636  orders[_id] */\n      0x00\n        /* \"Remix/Day14_FinalExam.sol\":3632:3635  _id */\n      dup3\n        /* \"Remix/Day14_FinalExam.sol\":3625:3636  orders[_id] */\n      dup2\n      mstore\n      0x20\n      add\n      swap1\n      dup2\n      mstore\n      0x20\n      add\n      0x00\n      keccak256\n        /* \"Remix/Day14_FinalExam.sol\":3625:3645  orders[_id].customer */\n      0x02\n      add\n      0x00\n      swap1\n      sload\n      swap1\n      0x0100\n      exp\n      swap1\n      div\n      0xffffffffffffffffffffffffffffffffffffffff\n      and\n        /* \"Remix/Day14_FinalExam.sol\":3611:3645  msg.sender == orders[_id].customer */\n      0xffffffffffffffffffffffffffffffffffffffff\n      and\n        /* \"Remix/Day14_FinalExam.sol\":3611:3621  msg.sender */\n      caller\n        /* \"Remix/Day14_FinalExam.sol\":3611:3645  msg.sender == orders[_id].customer */\n      0xffffffffffffffffffffffffffffffffffffffff\n      and\n      eq\n        /* \"Remix/Day14_FinalExam.sol\":3603:3664  require(msg.sender == orders[_id].customer, \"Not your order\") */\n      tag_113\n      jumpi\n      mload(0x40)\n      0x08c379a000000000000000000000000000000000000000000000000000000000\n      dup2\n      mstore\n      0x04\n      add\n      tag_114\n      swap1\n      tag_115\n      jump\t// in\n    tag_114:\n      mload(0x40)\n      dup1\n      swap2\n      sub\n      swap1\n      revert\n    tag_113:\n        /* \"Remix/Day14_FinalExam.sol\":3797:3810  State.Shipped */\n      0x01\n        /* \"Remix/Day14_FinalExam.sol\":3776:3810  orders[_id].state == State.Shipped */\n      0x02\n      dup2\n      gt\n      iszero\n      tag_116\n      jumpi\n      tag_117\n      tag_88\n      jump\t// in\n    tag_117:\n    tag_116:\n        /* \"Remix/Day14_FinalExam.sol\":3776:3782  orders */\n      0x01\n        /* \"Remix/Day14_FinalExam.sol\":3776:3787  orders[_id] */\n      0x00\n        /* \"Remix/Day14_FinalExam.sol\":3783:3786  _id */\n      dup4\n        /* \"Remix/Day14_FinalExam.sol\":3776:3787  orders[_id] */\n      dup2\n      mstore\n      0x20\n      add\n      swap1\n      dup2\n      mstore\n      0x20\n      add\n      0x00\n      keccak256\n        /* \"Remix/Day14_FinalExam.sol\":3776:3793  orders[_id].state */\n      0x02\n      add\n      0x14\n      swap1\n      sload\n      swap1\n      0x0100\n      exp\n      swap1\n      div\n      0xff\n      and\n        /* \"Remix/Day14_FinalExam.sol\":3776:3810  orders[_id].state == State.Shipped */\n      0x02\n      dup2\n      gt\n      iszero\n      tag_118\n      jumpi\n      tag_119\n      tag_88\n      jump\t// in\n    tag_119:\n    tag_118:\n      eq\n        /* \"Remix/Day14_FinalExam.sol\":3767:3830  require( orders[_id].state == State.Shipped, \"Not shipped yet\") */\n      tag_120\n      jumpi\n      mload(0x40)\n      0x08c379a000000000000000000000000000000000000000000000000000000000\n      dup2\n      mstore\n      0x04\n      add\n      tag_121\n      swap1\n      tag_122\n      jump\t// in\n    tag_121:\n      mload(0x40)\n      dup1\n      swap2\n      sub\n      swap1\n      revert\n    tag_120:\n        /* \"Remix/Day14_FinalExam.sol\":3888:3903  State.Delivered */\n      0x02\n        /* \"Remix/Day14_FinalExam.sol\":3868:3874  orders */\n      0x01\n        /* \"Remix/Day14_FinalExam.sol\":3868:3879  orders[_id] */\n      0x00\n        /* \"Remix/Day14_FinalExam.sol\":3875:3878  _id */\n      dup4\n        /* \"Remix/Day14_FinalExam.sol\":3868:3879  orders[_id] */\n      dup2\n      mstore\n      0x20\n      add\n      swap1\n      dup2\n      mstore\n      0x20\n      add\n      0x00\n      keccak256\n        /* \"Remix/Day14_FinalExam.sol\":3868:3885  orders[_id].state */\n      0x02\n      add\n      0x14\n        /* \"Remix/Day14_FinalExam.sol\":3868:3903  orders[_id].state = State.Delivered */\n      0x0100\n      exp\n      dup2\n      sload\n      dup2\n      0xff\n      mul\n      not\n      and\n      swap1\n      dup4\n      0x02\n      dup2\n      gt\n      iszero\n      tag_123\n      jumpi\n      tag_124\n      tag_88\n      jump\t// in\n    tag_124:\n    tag_123:\n      mul\n      or\n      swap1\n      sstore\n      pop\n        /* \"Remix/Day14_FinalExam.sol\":3914:3951  orders[_id].location = \"CustomerHand\" */\n      mload(0x40)\n      dup1\n      0x40\n      add\n      0x40\n      mstore\n      dup1\n      0x0c\n      dup2\n      mstore\n      0x20\n      add\n      0x437573746f6d657248616e640000000000000000000000000000000000000000\n      dup2\n      mstore\n      pop\n        /* \"Remix/Day14_FinalExam.sol\":3914:3920  orders */\n      0x01\n        /* \"Remix/Day14_FinalExam.sol\":3914:3925  orders[_id] */\n      0x00\n        /* \"Remix/Day14_FinalExam.sol\":3921:3924  _id */\n      dup4\n        /* \"Remix/Day14_FinalExam.sol\":3914:3925  orders[_id] */\n      dup2\n      mstore\n      0x20\n      add\n      swap1\n      dup2\n      mstore\n      0x20\n      add\n      0x00\n      keccak256\n        /* \"Remix/Day14_FinalExam.sol\":3914:3934  orders[_id].location */\n      0x03\n      add\n        /* \"Remix/Day14_FinalExam.sol\":3914:3951  orders[_id].location = \"CustomerHand\" */\n      swap1\n      dup2\n      tag_125\n      swap2\n      swap1\n      tag_90\n      jump\t// in\n    tag_125:\n      pop\n        /* \"Remix/Day14_FinalExam.sol\":3986:4001  block.timestamp */\n      timestamp\n        /* \"Remix/Day14_FinalExam.sol\":3962:3968  orders */\n      0x01\n        /* \"Remix/Day14_FinalExam.sol\":3962:3973  orders[_id] */\n      0x00\n        /* \"Remix/Day14_FinalExam.sol\":3969:3972  _id */\n      dup4\n        /* \"Remix/Day14_FinalExam.sol\":3962:3973  orders[_id] */\n      dup2\n      mstore\n      0x20\n      add\n      swap1\n      dup2\n      mstore\n      0x20\n      add\n      0x00\n      keccak256\n        /* \"Remix/Day14_FinalExam.sol\":3962:3983  orders[_id].timestamp */\n      0x04\n      add\n        /* \"Remix/Day14_FinalExam.sol\":3962:4001  orders[_id].timestamp = block.timestamp */\n      dup2\n      swap1\n      sstore\n      pop\n        /* \"Remix/Day14_FinalExam.sol\":4033:4036  _id */\n      dup1\n        /* \"Remix/Day14_FinalExam.sol\":4019:4070  StatusUpdated(_id, State.Delivered, \"CustomerHand\") */\n      0xc5c93ed2fd64a070646b08af8189ccc62bc86626a2d2f627fca964d44156143c\n        /* \"Remix/Day14_FinalExam.sol\":4038:4053  State.Delivered */\n      0x02\n        /* \"Remix/Day14_FinalExam.sol\":4019:4070  StatusUpdated(_id, State.Delivered, \"CustomerHand\") */\n      mload(0x40)\n      tag_126\n      swap2\n      swap1\n      tag_127\n      jump\t// in\n    tag_126:\n      mload(0x40)\n      dup1\n      swap2\n      sub\n      swap1\n      log2\n        /* \"Remix/Day14_FinalExam.sol\":3432:4078  function confirmReceipt(uint256 _id) public override {... */\n      pop\n      jump\t// out\n        /* \"@openzeppelin/contracts/access/AccessControl.sol\":2830:2966  function hasRole(bytes32 role, address account) public view virtual returns (bool) {... */\n    tag_53:\n        /* \"@openzeppelin/contracts/access/AccessControl.sol\":2907:2911  bool */\n      0x00\n        /* \"@openzeppelin/contracts/access/AccessControl.sol\":2930:2936  _roles */\n      0x00\n        /* \"@openzeppelin/contracts/access/AccessControl.sol\":2930:2942  _roles[role] */\n      0x00\n        /* \"@openzeppelin/contracts/access/AccessControl.sol\":2937:2941  role */\n      dup5\n        /* \"@openzeppelin/contracts/access/AccessControl.sol\":2930:2942  _roles[role] */\n      dup2\n      mstore\n      0x20\n      add\n      swap1\n      dup2\n      mstore\n      0x20\n      add\n      0x00\n      keccak256\n        /* \"@openzeppelin/contracts/access/AccessControl.sol\":2930:2950  _roles[role].hasRole */\n      0x00\n      add\n        /* \"@openzeppelin/contracts/access/AccessControl.sol\":2930:2959  _roles[role].hasRole[account] */\n      0x00\n        /* \"@openzeppelin/contracts/access/AccessControl.sol\":2951:2958  account */\n      dup4\n        /* \"@openzeppelin/contracts/access/AccessControl.sol\":2930:2959  _roles[role].hasRole[account] */\n      0xffffffffffffffffffffffffffffffffffffffff\n      and\n      0xffffffffffffffffffffffffffffffffffffffff\n      and\n      dup2\n      mstore\n      0x20\n      add\n      swap1\n      dup2\n      mstore\n      0x20\n      add\n      0x00\n      keccak256\n      0x00\n      swap1\n      sload\n      swap1\n      0x0100\n      exp\n      swap1\n      div\n      0xff\n      and\n        /* \"@openzeppelin/contracts/access/AccessControl.sol\":2923:2959  return _roles[role].hasRole[account] */\n      swap1\n      pop\n        /* \"@openzeppelin/contracts/access/AccessControl.sol\":2830:2966  function hasRole(bytes32 role, address account) public view virtual returns (bool) {... */\n      swap3\n      swap2\n      pop\n      pop\n      jump\t// out\n        /* \"Remix/Day14_FinalExam.sol\":919:978  bytes32 public constant COURIER_ROLE = keccak256(\"COURIER\") */\n    tag_56:\n        /* \"Remix/Day14_FinalExam.sol\":958:978  keccak256(\"COURIER\") */\n      0x0e7e0884cdcf0694acfe2208565155e042d5974898173dda6479c6b825ec762e\n        /* \"Remix/Day14_FinalExam.sol\":919:978  bytes32 public constant COURIER_ROLE = keccak256(\"COURIER\") */\n      dup2\n      jump\t// out\n        /* \"Remix/Day14_FinalExam.sol\":2700:3237  function shipOrder(uint256 _id, string memory _location) public override onlyRole(COURIER_ROLE) {... */\n    tag_60:\n        /* \"Remix/Day14_FinalExam.sol\":958:978  keccak256(\"COURIER\") */\n      0x0e7e0884cdcf0694acfe2208565155e042d5974898173dda6479c6b825ec762e\n        /* \"@openzeppelin/contracts/access/AccessControl.sol\":2473:2489  _checkRole(role) */\n      tag_130\n        /* \"@openzeppelin/contracts/access/AccessControl.sol\":2484:2488  role */\n      dup2\n        /* \"@openzeppelin/contracts/access/AccessControl.sol\":2473:2483  _checkRole */\n      tag_81\n        /* \"@openzeppelin/contracts/access/AccessControl.sol\":2473:2489  _checkRole(role) */\n      jump\t// in\n    tag_130:\n        /* \"Remix/Day14_FinalExam.sol\":2927:2940  State.Pending */\n      0x00\n        /* \"Remix/Day14_FinalExam.sol\":2906:2940  orders[_id].state == State.Pending */\n      0x02\n      dup2\n      gt\n      iszero\n      tag_132\n      jumpi\n      tag_133\n      tag_88\n      jump\t// in\n    tag_133:\n    tag_132:\n        /* \"Remix/Day14_FinalExam.sol\":2906:2912  orders */\n      0x01\n        /* \"Remix/Day14_FinalExam.sol\":2906:2917  orders[_id] */\n      0x00\n        /* \"Remix/Day14_FinalExam.sol\":2913:2916  _id */\n      dup6\n        /* \"Remix/Day14_FinalExam.sol\":2906:2917  orders[_id] */\n      dup2\n      mstore\n      0x20\n      add\n      swap1\n      dup2\n      mstore\n      0x20\n      add\n      0x00\n      keccak256\n        /* \"Remix/Day14_FinalExam.sol\":2906:2923  orders[_id].state */\n      0x02\n      add\n      0x14\n      swap1\n      sload\n      swap1\n      0x0100\n      exp\n      swap1\n      div\n      0xff\n      and\n        /* \"Remix/Day14_FinalExam.sol\":2906:2940  orders[_id].state == State.Pending */\n      0x02\n      dup2\n      gt\n      iszero\n      tag_134\n      jumpi\n      tag_135\n      tag_88\n      jump\t// in\n    tag_135:\n    tag_134:\n      eq\n        /* \"Remix/Day14_FinalExam.sol\":2898:2969  require(orders[_id].state == State.Pending, \"Invalid state transition\") */\n      tag_136\n      jumpi\n      mload(0x40)\n      0x08c379a000000000000000000000000000000000000000000000000000000000\n      dup2\n      mstore\n      0x04\n      add\n      tag_137\n      swap1\n      tag_138\n      jump\t// in\n    tag_137:\n      mload(0x40)\n      dup1\n      swap2\n      sub\n      swap1\n      revert\n    tag_136:\n        /* \"Remix/Day14_FinalExam.sol\":3036:3049  State.Shipped */\n      0x01\n        /* \"Remix/Day14_FinalExam.sol\":3016:3022  orders */\n      dup1\n        /* \"Remix/Day14_FinalExam.sol\":3016:3027  orders[_id] */\n      0x00\n        /* \"Remix/Day14_FinalExam.sol\":3023:3026  _id */\n      dup6\n        /* \"Remix/Day14_FinalExam.sol\":3016:3027  orders[_id] */\n      dup2\n      mstore\n      0x20\n      add\n      swap1\n      dup2\n      mstore\n      0x20\n      add\n      0x00\n      keccak256\n        /* \"Remix/Day14_FinalExam.sol\":3016:3033  orders[_id].state */\n      0x02\n      add\n      0x14\n        /* \"Remix/Day14_FinalExam.sol\":3016:3049  orders[_id].state = State.Shipped */\n      0x0100\n      exp\n      dup2\n      sload\n      dup2\n      0xff\n      mul\n      not\n      and\n      swap1\n      dup4\n      0x02\n      dup2\n      gt\n      iszero\n      tag_139\n      jumpi\n      tag_140\n      tag_88\n      jump\t// in\n    tag_140:\n    tag_139:\n      mul\n      or\n      swap1\n      sstore\n      pop\n        /* \"Remix/Day14_FinalExam.sol\":3083:3092  _location */\n      dup2\n        /* \"Remix/Day14_FinalExam.sol\":3060:3066  orders */\n      0x01\n        /* \"Remix/Day14_FinalExam.sol\":3060:3071  orders[_id] */\n      0x00\n        /* \"Remix/Day14_FinalExam.sol\":3067:3070  _id */\n      dup6\n        /* \"Remix/Day14_FinalExam.sol\":3060:3071  orders[_id] */\n      dup2\n      mstore\n      0x20\n      add\n      swap1\n      dup2\n      mstore\n      0x20\n      add\n      0x00\n      keccak256\n        /* \"Remix/Day14_FinalExam.sol\":3060:3080  orders[_id].location */\n      0x03\n      add\n        /* \"Remix/Day14_FinalExam.sol\":3060:3092  orders[_id].location = _location */\n      swap1\n      dup2\n      tag_141\n      swap2\n      swap1\n      tag_90\n      jump\t// in\n    tag_141:\n      pop\n        /* \"Remix/Day14_FinalExam.sol\":3127:3142  block.timestamp */\n      timestamp\n        /* \"Remix/Day14_FinalExam.sol\":3103:3109  orders */\n      0x01\n        /* \"Remix/Day14_FinalExam.sol\":3103:3114  orders[_id] */\n      0x00\n        /* \"Remix/Day14_FinalExam.sol\":3110:3113  _id */\n      dup6\n        /* \"Remix/Day14_FinalExam.sol\":3103:3114  orders[_id] */\n      dup2\n      mstore\n      0x20\n      add\n      swap1\n      dup2\n      mstore\n      0x20\n      add\n      0x00\n      keccak256\n        /* \"Remix/Day14_FinalExam.sol\":3103:3124  orders[_id].timestamp */\n      0x04\n      add\n        /* \"Remix/Day14_FinalExam.sol\":3103:3142  orders[_id].timestamp = block.timestamp */\n      dup2\n      swap1\n      sstore\n      pop\n        /* \"Remix/Day14_FinalExam.sol\":3199:3202  _id */\n      dup3\n        /* \"Remix/Day14_FinalExam.sol\":3185:3229  StatusUpdated(_id, State.Shipped, _location) */\n      0xc5c93ed2fd64a070646b08af8189ccc62bc86626a2d2f627fca964d44156143c\n        /* \"Remix/Day14_FinalExam.sol\":3204:3217  State.Shipped */\n      0x01\n        /* \"Remix/Day14_FinalExam.sol\":3219:3228  _location */\n      dup5\n        /* \"Remix/Day14_FinalExam.sol\":3185:3229  StatusUpdated(_id, State.Shipped, _location) */\n      mload(0x40)\n      tag_142\n      swap3\n      swap2\n      swap1\n      tag_143\n      jump\t// in\n    tag_142:\n      mload(0x40)\n      dup1\n      swap2\n      sub\n      swap1\n      log2\n        /* \"Remix/Day14_FinalExam.sol\":2700:3237  function shipOrder(uint256 _id, string memory _location) public override onlyRole(COURIER_ROLE) {... */\n      pop\n      pop\n      pop\n      jump\t// out\n        /* \"@openzeppelin/contracts/access/AccessControl.sol\":2196:2245  bytes32 public constant DEFAULT_ADMIN_ROLE = 0x00 */\n    tag_62:\n        /* \"@openzeppelin/contracts/access/AccessControl.sol\":2241:2245  0x00 */\n      0x00\n        /* \"@openzeppelin/contracts/access/AccessControl.sol\":2196:2245  bytes32 public constant DEFAULT_ADMIN_ROLE = 0x00 */\n      0x00\n      shl\n      dup2\n      jump\t// out\n        /* \"Remix/Day14_FinalExam.sol\":851:912  bytes32 public constant SUPPLIER_ROLE = keccak256(\"SUPPLIER\") */\n    tag_65:\n        /* \"Remix/Day14_FinalExam.sol\":891:912  keccak256(\"SUPPLIER\") */\n      0xf4649f2a97b4905837fc846dcfefa3e2561c3a9744fc53688b4d0bcb33e49f98\n        /* \"Remix/Day14_FinalExam.sol\":851:912  bytes32 public constant SUPPLIER_ROLE = keccak256(\"SUPPLIER\") */\n      dup2\n      jump\t// out\n        /* \"Remix/Day14_FinalExam.sol\":1303:1342  mapping(uint256 => Order) public orders */\n    tag_69:\n      mstore(0x20, 0x01)\n      dup1\n      0x00\n      mstore\n      keccak256(0x00, 0x40)\n      0x00\n      swap2\n      pop\n      swap1\n      pop\n      dup1\n      0x00\n      add\n      sload\n      swap1\n      dup1\n      0x01\n      add\n      dup1\n      sload\n      tag_144\n      swap1\n      tag_145\n      jump\t// in\n    tag_144:\n      dup1\n      0x1f\n      add\n      0x20\n      dup1\n      swap2\n      div\n      mul\n      0x20\n      add\n      mload(0x40)\n      swap1\n      dup2\n      add\n      0x40\n      mstore\n      dup1\n      swap3\n      swap2\n      swap1\n      dup2\n      dup2\n      mstore\n      0x20\n      add\n      dup3\n      dup1\n      sload\n      tag_146\n      swap1\n      tag_145\n      jump\t// in\n    tag_146:\n      dup1\n      iszero\n      tag_147\n      jumpi\n      dup1\n      0x1f\n      lt\n      tag_148\n      jumpi\n      0x0100\n      dup1\n      dup4\n      sload\n      div\n      mul\n      dup4\n      mstore\n      swap2\n      0x20\n      add\n      swap2\n      jump(tag_147)\n    tag_148:\n      dup3\n      add\n      swap2\n      swap1\n      0x00\n      mstore\n      keccak256(0x00, 0x20)\n      swap1\n    tag_149:\n      dup2\n      sload\n      dup2\n      mstore\n      swap1\n      0x01\n      add\n      swap1\n      0x20\n      add\n      dup1\n      dup4\n      gt\n      tag_149\n      jumpi\n      dup3\n      swap1\n      sub\n      0x1f\n      and\n      dup3\n      add\n      swap2\n    tag_147:\n      pop\n      pop\n      pop\n      pop\n      pop\n      swap1\n      dup1\n      0x02\n      add\n      0x00\n      swap1\n      sload\n      swap1\n      0x0100\n      exp\n      swap1\n      div\n      0xffffffffffffffffffffffffffffffffffffffff\n      and\n      swap1\n      dup1\n      0x02\n      add\n      0x14\n      swap1\n      sload\n      swap1\n      0x0100\n      exp\n      swap1\n      div\n      0xff\n      and\n      swap1\n      dup1\n      0x03\n      add\n      dup1\n      sload\n      tag_150\n      swap1\n      tag_145\n      jump\t// in\n    tag_150:\n      dup1\n      0x1f\n      add\n      0x20\n      dup1\n      swap2\n      div\n      mul\n      0x20\n      add\n      mload(0x40)\n      swap1\n      dup2\n      add\n      0x40\n      mstore\n      dup1\n      swap3\n      swap2\n      swap1\n      dup2\n      dup2\n      mstore\n      0x20\n      add\n      dup3\n      dup1\n      sload\n      tag_151\n      swap1\n      tag_145\n      jump\t// in\n    tag_151:\n      dup1\n      iszero\n      tag_152\n      jumpi\n      dup1\n      0x1f\n      lt\n      tag_153\n      jumpi\n      0x0100\n      dup1\n      dup4\n      sload\n      div\n      mul\n      dup4\n      mstore\n      swap2\n      0x20\n      add\n      swap2\n      jump(tag_152)\n    tag_153:\n      dup3\n      add\n      swap2\n      swap1\n      0x00\n      mstore\n      keccak256(0x00, 0x20)\n      swap1\n    tag_154:\n      dup2\n      sload\n      dup2\n      mstore\n      swap1\n      0x01\n      add\n      swap1\n      0x20\n      add\n      dup1\n      dup4\n      gt\n      tag_154\n      jumpi\n      dup3\n      swap1\n      sub\n      0x1f\n      and\n      dup3\n      add\n      swap2\n    tag_152:\n      pop\n      pop\n      pop\n      pop\n      pop\n      swap1\n      dup1\n      0x04\n      add\n      sload\n      swap1\n      pop\n      dup7\n      jump\t// out\n        /* \"@openzeppelin/contracts/access/AccessControl.sol\":4618:4756  function revokeRole(bytes32 role, address account) public virtual onlyRole(getRoleAdmin(role)) {... */\n    tag_74:\n        /* \"@openzeppelin/contracts/access/AccessControl.sol\":4693:4711  getRoleAdmin(role) */\n      tag_155\n        /* \"@openzeppelin/contracts/access/AccessControl.sol\":4706:4710  role */\n      dup3\n        /* \"@openzeppelin/contracts/access/AccessControl.sol\":4693:4705  getRoleAdmin */\n      tag_37\n        /* \"@openzeppelin/contracts/access/AccessControl.sol\":4693:4711  getRoleAdmin(role) */\n      jump\t// in\n    tag_155:\n        /* \"@openzeppelin/contracts/access/AccessControl.sol\":2473:2489  _checkRole(role) */\n      tag_157\n        /* \"@openzeppelin/contracts/access/AccessControl.sol\":2484:2488  role */\n      dup2\n        /* \"@openzeppelin/contracts/access/AccessControl.sol\":2473:2483  _checkRole */\n      tag_81\n        /* \"@openzeppelin/contracts/access/AccessControl.sol\":2473:2489  _checkRole(role) */\n      jump\t// in\n    tag_157:\n        /* \"@openzeppelin/contracts/access/AccessControl.sol\":4723:4749  _revokeRole(role, account) */\n      tag_159\n        /* \"@openzeppelin/contracts/access/AccessControl.sol\":4735:4739  role */\n      dup4\n        /* \"@openzeppelin/contracts/access/AccessControl.sol\":4741:4748  account */\n      dup4\n        /* \"@openzeppelin/contracts/access/AccessControl.sol\":4723:4734  _revokeRole */\n      tag_111\n        /* \"@openzeppelin/contracts/access/AccessControl.sol\":4723:4749  _revokeRole(role, account) */\n      jump\t// in\n    tag_159:\n      pop\n        /* \"@openzeppelin/contracts/access/AccessControl.sol\":4618:4756  function revokeRole(bytes32 role, address account) public virtual onlyRole(getRoleAdmin(role)) {... */\n      pop\n      pop\n      pop\n      jump\t// out\n        /* \"@openzeppelin/contracts/utils/introspection/ERC165.sol\":730:876  function supportsInterface(bytes4 interfaceId) public view virtual returns (bool) {... */\n    tag_78:\n        /* \"@openzeppelin/contracts/utils/introspection/ERC165.sol\":806:810  bool */\n      0x00\n        /* \"@openzeppelin/contracts/utils/introspection/ERC165.sol\":844:869  type(IERC165).interfaceId */\n      0x01ffc9a700000000000000000000000000000000000000000000000000000000\n        /* \"@openzeppelin/contracts/utils/introspection/ERC165.sol\":829:869  interfaceId == type(IERC165).interfaceId */\n      not(0xffffffffffffffffffffffffffffffffffffffffffffffffffffffff)\n      and\n        /* \"@openzeppelin/contracts/utils/introspection/ERC165.sol\":829:840  interfaceId */\n      dup3\n        /* \"@openzeppelin/contracts/utils/introspection/ERC165.sol\":829:869  interfaceId == type(IERC165).interfaceId */\n      not(0xffffffffffffffffffffffffffffffffffffffffffffffffffffffff)\n      and\n      eq\n        /* \"@openzeppelin/contracts/utils/introspection/ERC165.sol\":822:869  return interfaceId == type(IERC165).interfaceId */\n      swap1\n      pop\n        /* \"@openzeppelin/contracts/utils/introspection/ERC165.sol\":730:876  function supportsInterface(bytes4 interfaceId) public view virtual returns (bool) {... */\n      swap2\n      swap1\n      pop\n      jump\t// out\n        /* \"@openzeppelin/contracts/access/AccessControl.sol\":3175:3278  function _checkRole(bytes32 role) internal view virtual {... */\n    tag_81:\n        /* \"@openzeppelin/contracts/access/AccessControl.sol\":3241:3271  _checkRole(role, _msgSender()) */\n      tag_162\n        /* \"@openzeppelin/contracts/access/AccessControl.sol\":3252:3256  role */\n      dup2\n        /* \"@openzeppelin/contracts/access/AccessControl.sol\":3258:3270  _msgSender() */\n      tag_163\n        /* \"@openzeppelin/contracts/access/AccessControl.sol\":3258:3268  _msgSender */\n      tag_108\n        /* \"@openzeppelin/contracts/access/AccessControl.sol\":3258:3270  _msgSender() */\n      jump\t// in\n    tag_163:\n        /* \"@openzeppelin/contracts/access/AccessControl.sol\":3241:3251  _checkRole */\n      tag_164\n        /* \"@openzeppelin/contracts/access/AccessControl.sol\":3241:3271  _checkRole(role, _msgSender()) */\n      jump\t// in\n    tag_162:\n        /* \"@openzeppelin/contracts/access/AccessControl.sol\":3175:3278  function _checkRole(bytes32 role) internal view virtual {... */\n      pop\n      jump\t// out\n        /* \"@openzeppelin/contracts/access/AccessControl.sol\":6155:6471  function _grantRole(bytes32 role, address account) internal virtual returns (bool) {... */\n    tag_105:\n        /* \"@openzeppelin/contracts/access/AccessControl.sol\":6232:6236  bool */\n      0x00\n        /* \"@openzeppelin/contracts/access/AccessControl.sol\":6253:6275  hasRole(role, account) */\n      tag_166\n        /* \"@openzeppelin/contracts/access/AccessControl.sol\":6261:6265  role */\n      dup4\n        /* \"@openzeppelin/contracts/access/AccessControl.sol\":6267:6274  account */\n      dup4\n        /* \"@openzeppelin/contracts/access/AccessControl.sol\":6253:6260  hasRole */\n      tag_53\n        /* \"@openzeppelin/contracts/access/AccessControl.sol\":6253:6275  hasRole(role, account) */\n      jump\t// in\n    tag_166:\n        /* \"@openzeppelin/contracts/access/AccessControl.sol\":6248:6465  if (!hasRole(role, account)) {... */\n      tag_167\n      jumpi\n        /* \"@openzeppelin/contracts/access/AccessControl.sol\":6323:6327  true */\n      0x01\n        /* \"@openzeppelin/contracts/access/AccessControl.sol\":6291:6297  _roles */\n      0x00\n        /* \"@openzeppelin/contracts/access/AccessControl.sol\":6291:6303  _roles[role] */\n      0x00\n        /* \"@openzeppelin/contracts/access/AccessControl.sol\":6298:6302  role */\n      dup6\n        /* \"@openzeppelin/contracts/access/AccessControl.sol\":6291:6303  _roles[role] */\n      dup2\n      mstore\n      0x20\n      add\n      swap1\n      dup2\n      mstore\n      0x20\n      add\n      0x00\n      keccak256\n        /* \"@openzeppelin/contracts/access/AccessControl.sol\":6291:6311  _roles[role].hasRole */\n      0x00\n      add\n        /* \"@openzeppelin/contracts/access/AccessControl.sol\":6291:6320  _roles[role].hasRole[account] */\n      0x00\n        /* \"@openzeppelin/contracts/access/AccessControl.sol\":6312:6319  account */\n      dup5\n        /* \"@openzeppelin/contracts/access/AccessControl.sol\":6291:6320  _roles[role].hasRole[account] */\n      0xffffffffffffffffffffffffffffffffffffffff\n      and\n      0xffffffffffffffffffffffffffffffffffffffff\n      and\n      dup2\n      mstore\n      0x20\n      add\n      swap1\n      dup2\n      mstore\n      0x20\n      add\n      0x00\n      keccak256\n      0x00\n        /* \"@openzeppelin/contracts/access/AccessControl.sol\":6291:6327  _roles[role].hasRole[account] = true */\n      0x0100\n      exp\n      dup2\n      sload\n      dup2\n      0xff\n      mul\n      not\n      and\n      swap1\n      dup4\n      iszero\n      iszero\n      mul\n      or\n      swap1\n      sstore\n      pop\n        /* \"@openzeppelin/contracts/access/AccessControl.sol\":6373:6385  _msgSender() */\n      tag_168\n        /* \"@openzeppelin/contracts/access/AccessControl.sol\":6373:6383  _msgSender */\n      tag_108\n        /* \"@openzeppelin/contracts/access/AccessControl.sol\":6373:6385  _msgSender() */\n      jump\t// in\n    tag_168:\n        /* \"@openzeppelin/contracts/access/AccessControl.sol\":6346:6386  RoleGranted(role, account, _msgSender()) */\n      0xffffffffffffffffffffffffffffffffffffffff\n      and\n        /* \"@openzeppelin/contracts/access/AccessControl.sol\":6364:6371  account */\n      dup3\n        /* \"@openzeppelin/contracts/access/AccessControl.sol\":6346:6386  RoleGranted(role, account, _msgSender()) */\n      0xffffffffffffffffffffffffffffffffffffffff\n      and\n        /* \"@openzeppelin/contracts/access/AccessControl.sol\":6358:6362  role */\n      dup5\n        /* \"@openzeppelin/contracts/access/AccessControl.sol\":6346:6386  RoleGranted(role, account, _msgSender()) */\n      0x2f8788117e7eff1d82e926ec794901d17c78024a50270940304540a733656f0d\n      mload(0x40)\n      mload(0x40)\n      dup1\n      swap2\n      sub\n      swap1\n      log4\n        /* \"@openzeppelin/contracts/access/AccessControl.sol\":6407:6411  true */\n      0x01\n        /* \"@openzeppelin/contracts/access/AccessControl.sol\":6400:6411  return true */\n      swap1\n      pop\n      jump(tag_165)\n        /* \"@openzeppelin/contracts/access/AccessControl.sol\":6248:6465  if (!hasRole(role, account)) {... */\n    tag_167:\n        /* \"@openzeppelin/contracts/access/AccessControl.sol\":6449:6454  false */\n      0x00\n        /* \"@openzeppelin/contracts/access/AccessControl.sol\":6442:6454  return false */\n      swap1\n      pop\n        /* \"@openzeppelin/contracts/access/AccessControl.sol\":6155:6471  function _grantRole(bytes32 role, address account) internal virtual returns (bool) {... */\n    tag_165:\n      swap3\n      swap2\n      pop\n      pop\n      jump\t// out\n        /* \"@openzeppelin/contracts/utils/Context.sol\":656:752  function _msgSender() internal view virtual returns (address) {... */\n    tag_108:\n        /* \"@openzeppelin/contracts/utils/Context.sol\":709:716  address */\n      0x00\n        /* \"@openzeppelin/contracts/utils/Context.sol\":735:745  msg.sender */\n      caller\n        /* \"@openzeppelin/contracts/utils/Context.sol\":728:745  return msg.sender */\n      swap1\n      pop\n        /* \"@openzeppelin/contracts/utils/Context.sol\":656:752  function _msgSender() internal view virtual returns (address) {... */\n      swap1\n      jump\t// out\n        /* \"@openzeppelin/contracts/access/AccessControl.sol\":6708:7025  function _revokeRole(bytes32 role, address account) internal virtual returns (bool) {... */\n    tag_111:\n        /* \"@openzeppelin/contracts/access/AccessControl.sol\":6786:6790  bool */\n      0x00\n        /* \"@openzeppelin/contracts/access/AccessControl.sol\":6806:6828  hasRole(role, account) */\n      tag_172\n        /* \"@openzeppelin/contracts/access/AccessControl.sol\":6814:6818  role */\n      dup4\n        /* \"@openzeppelin/contracts/access/AccessControl.sol\":6820:6827  account */\n      dup4\n        /* \"@openzeppelin/contracts/access/AccessControl.sol\":6806:6813  hasRole */\n      tag_53\n        /* \"@openzeppelin/contracts/access/AccessControl.sol\":6806:6828  hasRole(role, account) */\n      jump\t// in\n    tag_172:\n        /* \"@openzeppelin/contracts/access/AccessControl.sol\":6802:7019  if (hasRole(role, account)) {... */\n      iszero\n      tag_173\n      jumpi\n        /* \"@openzeppelin/contracts/access/AccessControl.sol\":6876:6881  false */\n      0x00\n        /* \"@openzeppelin/contracts/access/AccessControl.sol\":6844:6850  _roles */\n      0x00\n        /* \"@openzeppelin/contracts/access/AccessControl.sol\":6844:6856  _roles[role] */\n      0x00\n        /* \"@openzeppelin/contracts/access/AccessControl.sol\":6851:6855  role */\n      dup6\n        /* \"@openzeppelin/contracts/access/AccessControl.sol\":6844:6856  _roles[role] */\n      dup2\n      mstore\n      0x20\n      add\n      swap1\n      dup2\n      mstore\n      0x20\n      add\n      0x00\n      keccak256\n        /* \"@openzeppelin/contracts/access/AccessControl.sol\":6844:6864  _roles[role].hasRole */\n      0x00\n      add\n        /* \"@openzeppelin/contracts/access/AccessControl.sol\":6844:6873  _roles[role].hasRole[account] */\n      0x00\n        /* \"@openzeppelin/contracts/access/AccessControl.sol\":6865:6872  account */\n      dup5\n        /* \"@openzeppelin/contracts/access/AccessControl.sol\":6844:6873  _roles[role].hasRole[account] */\n      0xffffffffffffffffffffffffffffffffffffffff\n      and\n      0xffffffffffffffffffffffffffffffffffffffff\n      and\n      dup2\n      mstore\n      0x20\n      add\n      swap1\n      dup2\n      mstore\n      0x20\n      add\n      0x00\n      keccak256\n      0x00\n        /* \"@openzeppelin/contracts/access/AccessControl.sol\":6844:6881  _roles[role].hasRole[account] = false */\n      0x0100\n      exp\n      dup2\n      sload\n      dup2\n      0xff\n      mul\n      not\n      and\n      swap1\n      dup4\n      iszero\n      iszero\n      mul\n      or\n      swap1\n      sstore\n      pop\n        /* \"@openzeppelin/contracts/access/AccessControl.sol\":6927:6939  _msgSender() */\n      tag_174\n        /* \"@openzeppelin/contracts/access/AccessControl.sol\":6927:6937  _msgSender */\n      tag_108\n        /* \"@openzeppelin/contracts/access/AccessControl.sol\":6927:6939  _msgSender() */\n      jump\t// in\n    tag_174:\n        /* \"@openzeppelin/contracts/access/AccessControl.sol\":6900:6940  RoleRevoked(role, account, _msgSender()) */\n      0xffffffffffffffffffffffffffffffffffffffff\n      and\n        /* \"@openzeppelin/contracts/access/AccessControl.sol\":6918:6925  account */\n      dup3\n        /* \"@openzeppelin/contracts/access/AccessControl.sol\":6900:6940  RoleRevoked(role, account, _msgSender()) */\n      0xffffffffffffffffffffffffffffffffffffffff\n      and\n        /* \"@openzeppelin/contracts/access/AccessControl.sol\":6912:6916  role */\n      dup5\n        /* \"@openzeppelin/contracts/access/AccessControl.sol\":6900:6940  RoleRevoked(role, account, _msgSender()) */\n      0xf6391f5c32d9c69d2a47ea670b442974b53935d1edc7fd64eb21e047a839171b\n      mload(0x40)\n      mload(0x40)\n      dup1\n      swap2\n      sub\n      swap1\n      log4\n        /* \"@openzeppelin/contracts/access/AccessControl.sol\":6961:6965  true */\n      0x01\n        /* \"@openzeppelin/contracts/access/AccessControl.sol\":6954:6965  return true */\n      swap1\n      pop\n      jump(tag_171)\n        /* \"@openzeppelin/contracts/access/AccessControl.sol\":6802:7019  if (hasRole(role, account)) {... */\n    tag_173:\n        /* \"@openzeppelin/contracts/access/AccessControl.sol\":7003:7008  false */\n      0x00\n        /* \"@openzeppelin/contracts/access/AccessControl.sol\":6996:7008  return false */\n      swap1\n      pop\n        /* \"@openzeppelin/contracts/access/AccessControl.sol\":6708:7025  function _revokeRole(bytes32 role, address account) internal virtual returns (bool) {... */\n    tag_171:\n      swap3\n      swap2\n      pop\n      pop\n      jump\t// out\n        /* \"@openzeppelin/contracts/access/AccessControl.sol\":3408:3605  function _checkRole(bytes32 role, address account) internal view virtual {... */\n    tag_164:\n        /* \"@openzeppelin/contracts/access/AccessControl.sol\":3496:3518  hasRole(role, account) */\n      tag_177\n        /* \"@openzeppelin/contracts/access/AccessControl.sol\":3504:3508  role */\n      dup3\n        /* \"@openzeppelin/contracts/access/AccessControl.sol\":3510:3517  account */\n      dup3\n        /* \"@openzeppelin/contracts/access/AccessControl.sol\":3496:3503  hasRole */\n      tag_53\n        /* \"@openzeppelin/contracts/access/AccessControl.sol\":3496:3518  hasRole(role, account) */\n      jump\t// in\n    tag_177:\n        /* \"@openzeppelin/contracts/access/AccessControl.sol\":3491:3599  if (!hasRole(role, account)) {... */\n      tag_178\n      jumpi\n        /* \"@openzeppelin/contracts/access/AccessControl.sol\":3574:3581  account */\n      dup1\n        /* \"@openzeppelin/contracts/access/AccessControl.sol\":3583:3587  role */\n      dup3\n        /* \"@openzeppelin/contracts/access/AccessControl.sol\":3541:3588  AccessControlUnauthorizedAccount(account, role) */\n      mload(0x40)\n      0xe2517d3f00000000000000000000000000000000000000000000000000000000\n      dup2\n      mstore\n      0x04\n      add\n      tag_179\n      swap3\n      swap2\n      swap1\n      tag_180\n      jump\t// in\n    tag_179:\n      mload(0x40)\n      dup1\n      swap2\n      sub\n      swap1\n      revert\n        /* \"@openzeppelin/contracts/access/AccessControl.sol\":3491:3599  if (!hasRole(role, account)) {... */\n    tag_178:\n        /* \"@openzeppelin/contracts/access/AccessControl.sol\":3408:3605  function _checkRole(bytes32 role, address account) internal view virtual {... */\n      pop\n      pop\n      jump\t// out\n        /* \"#utility.yul\":7:82   */\n    tag_181:\n        /* \"#utility.yul\":40:46   */\n      0x00\n        /* \"#utility.yul\":73:75   */\n      0x40\n        /* \"#utility.yul\":67:76   */\n      mload\n        /* \"#utility.yul\":57:76   */\n      swap1\n      pop\n        /* \"#utility.yul\":7:82   */\n      swap1\n      jump\t// out\n        /* \"#utility.yul\":88:205   */\n    tag_182:\n        /* \"#utility.yul\":197:198   */\n      0x00\n        /* \"#utility.yul\":194:195   */\n      0x00\n        /* \"#utility.yul\":187:199   */\n      revert\n        /* \"#utility.yul\":211:328   */\n    tag_183:\n        /* \"#utility.yul\":320:321   */\n      0x00\n        /* \"#utility.yul\":317:318   */\n      0x00\n        /* \"#utility.yul\":310:322   */\n      revert\n        /* \"#utility.yul\":334:483   */\n    tag_184:\n        /* \"#utility.yul\":370:377   */\n      0x00\n        /* \"#utility.yul\":410:476   */\n      0xffffffff00000000000000000000000000000000000000000000000000000000\n        /* \"#utility.yul\":403:408   */\n      dup3\n        /* \"#utility.yul\":399:477   */\n      and\n        /* \"#utility.yul\":388:477   */\n      swap1\n      pop\n        /* \"#utility.yul\":334:483   */\n      swap2\n      swap1\n      pop\n      jump\t// out\n        /* \"#utility.yul\":489:609   */\n    tag_185:\n        /* \"#utility.yul\":561:584   */\n      tag_252\n        /* \"#utility.yul\":578:583   */\n      dup2\n        /* \"#utility.yul\":561:584   */\n      tag_184\n      jump\t// in\n    tag_252:\n        /* \"#utility.yul\":554:559   */\n      dup2\n        /* \"#utility.yul\":551:585   */\n      eq\n        /* \"#utility.yul\":541:603   */\n      tag_253\n      jumpi\n        /* \"#utility.yul\":599:600   */\n      0x00\n        /* \"#utility.yul\":596:597   */\n      0x00\n        /* \"#utility.yul\":589:601   */\n      revert\n        /* \"#utility.yul\":541:603   */\n    tag_253:\n        /* \"#utility.yul\":489:609   */\n      pop\n      jump\t// out\n        /* \"#utility.yul\":615:752   */\n    tag_186:\n        /* \"#utility.yul\":660:665   */\n      0x00\n        /* \"#utility.yul\":698:704   */\n      dup2\n        /* \"#utility.yul\":685:705   */\n      calldataload\n        /* \"#utility.yul\":676:705   */\n      swap1\n      pop\n        /* \"#utility.yul\":714:746   */\n      tag_255\n        /* \"#utility.yul\":740:745   */\n      dup2\n        /* \"#utility.yul\":714:746   */\n      tag_185\n      jump\t// in\n    tag_255:\n        /* \"#utility.yul\":615:752   */\n      swap3\n      swap2\n      pop\n      pop\n      jump\t// out\n        /* \"#utility.yul\":758:1085   */\n    tag_22:\n        /* \"#utility.yul\":816:822   */\n      0x00\n        /* \"#utility.yul\":865:867   */\n      0x20\n        /* \"#utility.yul\":853:862   */\n      dup3\n        /* \"#utility.yul\":844:851   */\n      dup5\n        /* \"#utility.yul\":840:863   */\n      sub\n        /* \"#utility.yul\":836:868   */\n      slt\n        /* \"#utility.yul\":833:952   */\n      iszero\n      tag_257\n      jumpi\n        /* \"#utility.yul\":871:950   */\n      tag_258\n      tag_182\n      jump\t// in\n    tag_258:\n        /* \"#utility.yul\":833:952   */\n    tag_257:\n        /* \"#utility.yul\":991:992   */\n      0x00\n        /* \"#utility.yul\":1016:1068   */\n      tag_259\n        /* \"#utility.yul\":1060:1067   */\n      dup5\n        /* \"#utility.yul\":1051:1057   */\n      dup3\n        /* \"#utility.yul\":1040:1049   */\n      dup6\n        /* \"#utility.yul\":1036:1058   */\n      add\n        /* \"#utility.yul\":1016:1068   */\n      tag_186\n      jump\t// in\n    tag_259:\n        /* \"#utility.yul\":1006:1068   */\n      swap2\n      pop\n        /* \"#utility.yul\":962:1078   */\n      pop\n        /* \"#utility.yul\":758:1085   */\n      swap3\n      swap2\n      pop\n      pop\n      jump\t// out\n        /* \"#utility.yul\":1091:1181   */\n    tag_187:\n        /* \"#utility.yul\":1125:1132   */\n      0x00\n        /* \"#utility.yul\":1168:1173   */\n      dup2\n        /* \"#utility.yul\":1161:1174   */\n      iszero\n        /* \"#utility.yul\":1154:1175   */\n      iszero\n        /* \"#utility.yul\":1143:1175   */\n      swap1\n      pop\n        /* \"#utility.yul\":1091:1181   */\n      swap2\n      swap1\n      pop\n      jump\t// out\n        /* \"#utility.yul\":1187:1296   */\n    tag_188:\n        /* \"#utility.yul\":1268:1289   */\n      tag_262\n        /* \"#utility.yul\":1283:1288   */\n      dup2\n        /* \"#utility.yul\":1268:1289   */\n      tag_187\n      jump\t// in\n    tag_262:\n        /* \"#utility.yul\":1263:1266   */\n      dup3\n        /* \"#utility.yul\":1256:1290   */\n      mstore\n        /* \"#utility.yul\":1187:1296   */\n      pop\n      pop\n      jump\t// out\n        /* \"#utility.yul\":1302:1512   */\n    tag_25:\n        /* \"#utility.yul\":1389:1393   */\n      0x00\n        /* \"#utility.yul\":1427:1429   */\n      0x20\n        /* \"#utility.yul\":1416:1425   */\n      dup3\n        /* \"#utility.yul\":1412:1430   */\n      add\n        /* \"#utility.yul\":1404:1430   */\n      swap1\n      pop\n        /* \"#utility.yul\":1440:1505   */\n      tag_264\n        /* \"#utility.yul\":1502:1503   */\n      0x00\n        /* \"#utility.yul\":1491:1500   */\n      dup4\n        /* \"#utility.yul\":1487:1504   */\n      add\n        /* \"#utility.yul\":1478:1484   */\n      dup5\n        /* \"#utility.yul\":1440:1505   */\n      tag_188\n      jump\t// in\n    tag_264:\n        /* \"#utility.yul\":1302:1512   */\n      swap3\n      swap2\n      pop\n      pop\n      jump\t// out\n        /* \"#utility.yul\":1518:1595   */\n    tag_189:\n        /* \"#utility.yul\":1555:1562   */\n      0x00\n        /* \"#utility.yul\":1584:1589   */\n      dup2\n        /* \"#utility.yul\":1573:1589   */\n      swap1\n      pop\n        /* \"#utility.yul\":1518:1595   */\n      swap2\n      swap1\n      pop\n      jump\t// out\n        /* \"#utility.yul\":1601:1723   */\n    tag_190:\n        /* \"#utility.yul\":1674:1698   */\n      tag_267\n        /* \"#utility.yul\":1692:1697   */\n      dup2\n        /* \"#utility.yul\":1674:1698   */\n      tag_189\n      jump\t// in\n    tag_267:\n        /* \"#utility.yul\":1667:1672   */\n      dup2\n        /* \"#utility.yul\":1664:1699   */\n      eq\n        /* \"#utility.yul\":1654:1717   */\n      tag_268\n      jumpi\n        /* \"#utility.yul\":1713:1714   */\n      0x00\n        /* \"#utility.yul\":1710:1711   */\n      0x00\n        /* \"#utility.yul\":1703:1715   */\n      revert\n        /* \"#utility.yul\":1654:1717   */\n    tag_268:\n        /* \"#utility.yul\":1601:1723   */\n      pop\n      jump\t// out\n        /* \"#utility.yul\":1729:1868   */\n    tag_191:\n        /* \"#utility.yul\":1775:1780   */\n      0x00\n        /* \"#utility.yul\":1813:1819   */\n      dup2\n        /* \"#utility.yul\":1800:1820   */\n      calldataload\n        /* \"#utility.yul\":1791:1820   */\n      swap1\n      pop\n        /* \"#utility.yul\":1829:1862   */\n      tag_270\n        /* \"#utility.yul\":1856:1861   */\n      dup2\n        /* \"#utility.yul\":1829:1862   */\n      tag_190\n      jump\t// in\n    tag_270:\n        /* \"#utility.yul\":1729:1868   */\n      swap3\n      swap2\n      pop\n      pop\n      jump\t// out\n        /* \"#utility.yul\":1874:1991   */\n    tag_192:\n        /* \"#utility.yul\":1983:1984   */\n      0x00\n        /* \"#utility.yul\":1980:1981   */\n      0x00\n        /* \"#utility.yul\":1973:1985   */\n      revert\n        /* \"#utility.yul\":1997:2114   */\n    tag_193:\n        /* \"#utility.yul\":2106:2107   */\n      0x00\n        /* \"#utility.yul\":2103:2104   */\n      0x00\n        /* \"#utility.yul\":2096:2108   */\n      revert\n        /* \"#utility.yul\":2120:2222   */\n    tag_194:\n        /* \"#utility.yul\":2161:2167   */\n      0x00\n        /* \"#utility.yul\":2212:2214   */\n      0x1f\n        /* \"#utility.yul\":2208:2215   */\n      not\n        /* \"#utility.yul\":2203:2205   */\n      0x1f\n        /* \"#utility.yul\":2196:2201   */\n      dup4\n        /* \"#utility.yul\":2192:2206   */\n      add\n        /* \"#utility.yul\":2188:2216   */\n      and\n        /* \"#utility.yul\":2178:2216   */\n      swap1\n      pop\n        /* \"#utility.yul\":2120:2222   */\n      swap2\n      swap1\n      pop\n      jump\t// out\n        /* \"#utility.yul\":2228:2408   */\n    tag_195:\n        /* \"#utility.yul\":2276:2353   */\n      0x4e487b7100000000000000000000000000000000000000000000000000000000\n        /* \"#utility.yul\":2273:2274   */\n      0x00\n        /* \"#utility.yul\":2266:2354   */\n      mstore\n        /* \"#utility.yul\":2373:2377   */\n      0x41\n        /* \"#utility.yul\":2370:2371   */\n      0x04\n        /* \"#utility.yul\":2363:2378   */\n      mstore\n        /* \"#utility.yul\":2397:2401   */\n      0x24\n        /* \"#utility.yul\":2394:2395   */\n      0x00\n        /* \"#utility.yul\":2387:2402   */\n      revert\n        /* \"#utility.yul\":2414:2695   */\n    tag_196:\n        /* \"#utility.yul\":2497:2524   */\n      tag_276\n        /* \"#utility.yul\":2519:2523   */\n      dup3\n        /* \"#utility.yul\":2497:2524   */\n      tag_194\n      jump\t// in\n    tag_276:\n        /* \"#utility.yul\":2489:2495   */\n      dup2\n        /* \"#utility.yul\":2485:2525   */\n      add\n        /* \"#utility.yul\":2627:2633   */\n      dup2\n        /* \"#utility.yul\":2615:2625   */\n      dup2\n        /* \"#utility.yul\":2612:2634   */\n      lt\n        /* \"#utility.yul\":2591:2609   */\n      0xffffffffffffffff\n        /* \"#utility.yul\":2579:2589   */\n      dup3\n        /* \"#utility.yul\":2576:2610   */\n      gt\n        /* \"#utility.yul\":2573:2635   */\n      or\n        /* \"#utility.yul\":2570:2658   */\n      iszero\n      tag_277\n      jumpi\n        /* \"#utility.yul\":2638:2656   */\n      tag_278\n      tag_195\n      jump\t// in\n    tag_278:\n        /* \"#utility.yul\":2570:2658   */\n    tag_277:\n        /* \"#utility.yul\":2678:2688   */\n      dup1\n        /* \"#utility.yul\":2674:2676   */\n      0x40\n        /* \"#utility.yul\":2667:2689   */\n      mstore\n        /* \"#utility.yul\":2457:2695   */\n      pop\n        /* \"#utility.yul\":2414:2695   */\n      pop\n      pop\n      jump\t// out\n        /* \"#utility.yul\":2701:2830   */\n    tag_197:\n        /* \"#utility.yul\":2735:2741   */\n      0x00\n        /* \"#utility.yul\":2762:2782   */\n      tag_280\n      tag_181\n      jump\t// in\n    tag_280:\n        /* \"#utility.yul\":2752:2782   */\n      swap1\n      pop\n        /* \"#utility.yul\":2791:2824   */\n      tag_281\n        /* \"#utility.yul\":2819:2823   */\n      dup3\n        /* \"#utility.yul\":2811:2817   */\n      dup3\n        /* \"#utility.yul\":2791:2824   */\n      tag_196\n      jump\t// in\n    tag_281:\n        /* \"#utility.yul\":2701:2830   */\n      swap2\n      swap1\n      pop\n      jump\t// out\n        /* \"#utility.yul\":2836:3144   */\n    tag_198:\n        /* \"#utility.yul\":2898:2902   */\n      0x00\n        /* \"#utility.yul\":2988:3006   */\n      0xffffffffffffffff\n        /* \"#utility.yul\":2980:2986   */\n      dup3\n        /* \"#utility.yul\":2977:3007   */\n      gt\n        /* \"#utility.yul\":2974:3030   */\n      iszero\n      tag_283\n      jumpi\n        /* \"#utility.yul\":3010:3028   */\n      tag_284\n      tag_195\n      jump\t// in\n    tag_284:\n        /* \"#utility.yul\":2974:3030   */\n    tag_283:\n        /* \"#utility.yul\":3048:3077   */\n      tag_285\n        /* \"#utility.yul\":3070:3076   */\n      dup3\n        /* \"#utility.yul\":3048:3077   */\n      tag_194\n      jump\t// in\n    tag_285:\n        /* \"#utility.yul\":3040:3077   */\n      swap1\n      pop\n        /* \"#utility.yul\":3132:3136   */\n      0x20\n        /* \"#utility.yul\":3126:3130   */\n      dup2\n        /* \"#utility.yul\":3122:3137   */\n      add\n        /* \"#utility.yul\":3114:3137   */\n      swap1\n      pop\n        /* \"#utility.yul\":2836:3144   */\n      swap2\n      swap1\n      pop\n      jump\t// out\n        /* \"#utility.yul\":3150:3298   */\n    tag_199:\n        /* \"#utility.yul\":3248:3254   */\n      dup3\n        /* \"#utility.yul\":3243:3246   */\n      dup2\n        /* \"#utility.yul\":3238:3241   */\n      dup4\n        /* \"#utility.yul\":3225:3255   */\n      calldatacopy\n        /* \"#utility.yul\":3289:3290   */\n      0x00\n        /* \"#utility.yul\":3280:3286   */\n      dup4\n        /* \"#utility.yul\":3275:3278   */\n      dup4\n        /* \"#utility.yul\":3271:3287   */\n      add\n        /* \"#utility.yul\":3264:3291   */\n      mstore\n        /* \"#utility.yul\":3150:3298   */\n      pop\n      pop\n      pop\n      jump\t// out\n        /* \"#utility.yul\":3304:3729   */\n    tag_200:\n        /* \"#utility.yul\":3382:3387   */\n      0x00\n        /* \"#utility.yul\":3407:3473   */\n      tag_288\n        /* \"#utility.yul\":3423:3472   */\n      tag_289\n        /* \"#utility.yul\":3465:3471   */\n      dup5\n        /* \"#utility.yul\":3423:3472   */\n      tag_198\n      jump\t// in\n    tag_289:\n        /* \"#utility.yul\":3407:3473   */\n      tag_197\n      jump\t// in\n    tag_288:\n        /* \"#utility.yul\":3398:3473   */\n      swap1\n      pop\n        /* \"#utility.yul\":3496:3502   */\n      dup3\n        /* \"#utility.yul\":3489:3494   */\n      dup2\n        /* \"#utility.yul\":3482:3503   */\n      mstore\n        /* \"#utility.yul\":3534:3538   */\n      0x20\n        /* \"#utility.yul\":3527:3532   */\n      dup2\n        /* \"#utility.yul\":3523:3539   */\n      add\n        /* \"#utility.yul\":3572:3575   */\n      dup5\n        /* \"#utility.yul\":3563:3569   */\n      dup5\n        /* \"#utility.yul\":3558:3561   */\n      dup5\n        /* \"#utility.yul\":3554:3570   */\n      add\n        /* \"#utility.yul\":3551:3576   */\n      gt\n        /* \"#utility.yul\":3548:3660   */\n      iszero\n      tag_290\n      jumpi\n        /* \"#utility.yul\":3579:3658   */\n      tag_291\n      tag_193\n      jump\t// in\n    tag_291:\n        /* \"#utility.yul\":3548:3660   */\n    tag_290:\n        /* \"#utility.yul\":3669:3723   */\n      tag_292\n        /* \"#utility.yul\":3716:3722   */\n      dup5\n        /* \"#utility.yul\":3711:3714   */\n      dup3\n        /* \"#utility.yul\":3706:3709   */\n      dup6\n        /* \"#utility.yul\":3669:3723   */\n      tag_199\n      jump\t// in\n    tag_292:\n        /* \"#utility.yul\":3388:3729   */\n      pop\n        /* \"#utility.yul\":3304:3729   */\n      swap4\n      swap3\n      pop\n      pop\n      pop\n      jump\t// out\n        /* \"#utility.yul\":3749:4089   */\n    tag_201:\n        /* \"#utility.yul\":3805:3810   */\n      0x00\n        /* \"#utility.yul\":3854:3857   */\n      dup3\n        /* \"#utility.yul\":3847:3851   */\n      0x1f\n        /* \"#utility.yul\":3839:3845   */\n      dup4\n        /* \"#utility.yul\":3835:3852   */\n      add\n        /* \"#utility.yul\":3831:3858   */\n      slt\n        /* \"#utility.yul\":3821:3943   */\n      tag_294\n      jumpi\n        /* \"#utility.yul\":3862:3941   */\n      tag_295\n      tag_192\n      jump\t// in\n    tag_295:\n        /* \"#utility.yul\":3821:3943   */\n    tag_294:\n        /* \"#utility.yul\":3979:3985   */\n      dup2\n        /* \"#utility.yul\":3966:3986   */\n      calldataload\n        /* \"#utility.yul\":4004:4083   */\n      tag_296\n        /* \"#utility.yul\":4079:4082   */\n      dup5\n        /* \"#utility.yul\":4071:4077   */\n      dup3\n        /* \"#utility.yul\":4064:4068   */\n      0x20\n        /* \"#utility.yul\":4056:4062   */\n      dup7\n        /* \"#utility.yul\":4052:4069   */\n      add\n        /* \"#utility.yul\":4004:4083   */\n      tag_200\n      jump\t// in\n    tag_296:\n        /* \"#utility.yul\":3995:4083   */\n      swap2\n      pop\n        /* \"#utility.yul\":3811:4089   */\n      pop\n        /* \"#utility.yul\":3749:4089   */\n      swap3\n      swap2\n      pop\n      pop\n      jump\t// out\n        /* \"#utility.yul\":4095:4749   */\n    tag_28:\n        /* \"#utility.yul\":4173:4179   */\n      0x00\n        /* \"#utility.yul\":4181:4187   */\n      0x00\n        /* \"#utility.yul\":4230:4232   */\n      0x40\n        /* \"#utility.yul\":4218:4227   */\n      dup4\n        /* \"#utility.yul\":4209:4216   */\n      dup6\n        /* \"#utility.yul\":4205:4228   */\n      sub\n        /* \"#utility.yul\":4201:4233   */\n      slt\n        /* \"#utility.yul\":4198:4317   */\n      iszero\n      tag_298\n      jumpi\n        /* \"#utility.yul\":4236:4315   */\n      tag_299\n      tag_182\n      jump\t// in\n    tag_299:\n        /* \"#utility.yul\":4198:4317   */\n    tag_298:\n        /* \"#utility.yul\":4356:4357   */\n      0x00\n        /* \"#utility.yul\":4381:4434   */\n      tag_300\n        /* \"#utility.yul\":4426:4433   */\n      dup6\n        /* \"#utility.yul\":4417:4423   */\n      dup3\n        /* \"#utility.yul\":4406:4415   */\n      dup7\n        /* \"#utility.yul\":4402:4424   */\n      add\n        /* \"#utility.yul\":4381:4434   */\n      tag_191\n      jump\t// in\n    tag_300:\n        /* \"#utility.yul\":4371:4434   */\n      swap3\n      pop\n        /* \"#utility.yul\":4327:4444   */\n      pop\n        /* \"#utility.yul\":4511:4513   */\n      0x20\n        /* \"#utility.yul\":4500:4509   */\n      dup4\n        /* \"#utility.yul\":4496:4514   */\n      add\n        /* \"#utility.yul\":4483:4515   */\n      calldataload\n        /* \"#utility.yul\":4542:4560   */\n      0xffffffffffffffff\n        /* \"#utility.yul\":4534:4540   */\n      dup2\n        /* \"#utility.yul\":4531:4561   */\n      gt\n        /* \"#utility.yul\":4528:4645   */\n      iszero\n      tag_301\n      jumpi\n        /* \"#utility.yul\":4564:4643   */\n      tag_302\n      tag_183\n      jump\t// in\n    tag_302:\n        /* \"#utility.yul\":4528:4645   */\n    tag_301:\n        /* \"#utility.yul\":4669:4732   */\n      tag_303\n        /* \"#utility.yul\":4724:4731   */\n      dup6\n        /* \"#utility.yul\":4715:4721   */\n      dup3\n        /* \"#utility.yul\":4704:4713   */\n      dup7\n        /* \"#utility.yul\":4700:4722   */\n      add\n        /* \"#utility.yul\":4669:4732   */\n      tag_201\n      jump\t// in\n    tag_303:\n        /* \"#utility.yul\":4659:4732   */\n      swap2\n      pop\n        /* \"#utility.yul\":4454:4742   */\n      pop\n        /* \"#utility.yul\":4095:4749   */\n      swap3\n      pop\n      swap3\n      swap1\n      pop\n      jump\t// out\n        /* \"#utility.yul\":4755:4881   */\n    tag_202:\n        /* \"#utility.yul\":4792:4799   */\n      0x00\n        /* \"#utility.yul\":4832:4874   */\n      0xffffffffffffffffffffffffffffffffffffffff\n        /* \"#utility.yul\":4825:4830   */\n      dup3\n        /* \"#utility.yul\":4821:4875   */\n      and\n        /* \"#utility.yul\":4810:4875   */\n      swap1\n      pop\n        /* \"#utility.yul\":4755:4881   */\n      swap2\n      swap1\n      pop\n      jump\t// out\n        /* \"#utility.yul\":4887:4983   */\n    tag_203:\n        /* \"#utility.yul\":4924:4931   */\n      0x00\n        /* \"#utility.yul\":4953:4977   */\n      tag_306\n        /* \"#utility.yul\":4971:4976   */\n      dup3\n        /* \"#utility.yul\":4953:4977   */\n      tag_202\n      jump\t// in\n    tag_306:\n        /* \"#utility.yul\":4942:4977   */\n      swap1\n      pop\n        /* \"#utility.yul\":4887:4983   */\n      swap2\n      swap1\n      pop\n      jump\t// out\n        /* \"#utility.yul\":4989:5111   */\n    tag_204:\n        /* \"#utility.yul\":5062:5086   */\n      tag_308\n        /* \"#utility.yul\":5080:5085   */\n      dup2\n        /* \"#utility.yul\":5062:5086   */\n      tag_203\n      jump\t// in\n    tag_308:\n        /* \"#utility.yul\":5055:5060   */\n      dup2\n        /* \"#utility.yul\":5052:5087   */\n      eq\n        /* \"#utility.yul\":5042:5105   */\n      tag_309\n      jumpi\n        /* \"#utility.yul\":5101:5102   */\n      0x00\n        /* \"#utility.yul\":5098:5099   */\n      0x00\n        /* \"#utility.yul\":5091:5103   */\n      revert\n        /* \"#utility.yul\":5042:5105   */\n    tag_309:\n        /* \"#utility.yul\":4989:5111   */\n      pop\n      jump\t// out\n        /* \"#utility.yul\":5117:5256   */\n    tag_205:\n        /* \"#utility.yul\":5163:5168   */\n      0x00\n        /* \"#utility.yul\":5201:5207   */\n      dup2\n        /* \"#utility.yul\":5188:5208   */\n      calldataload\n        /* \"#utility.yul\":5179:5208   */\n      swap1\n      pop\n        /* \"#utility.yul\":5217:5250   */\n      tag_311\n        /* \"#utility.yul\":5244:5249   */\n      dup2\n        /* \"#utility.yul\":5217:5250   */\n      tag_204\n      jump\t// in\n    tag_311:\n        /* \"#utility.yul\":5117:5256   */\n      swap3\n      swap2\n      pop\n      pop\n      jump\t// out\n        /* \"#utility.yul\":5262:5736   */\n    tag_32:\n        /* \"#utility.yul\":5330:5336   */\n      0x00\n        /* \"#utility.yul\":5338:5344   */\n      0x00\n        /* \"#utility.yul\":5387:5389   */\n      0x40\n        /* \"#utility.yul\":5375:5384   */\n      dup4\n        /* \"#utility.yul\":5366:5373   */\n      dup6\n        /* \"#utility.yul\":5362:5385   */\n      sub\n        /* \"#utility.yul\":5358:5390   */\n      slt\n        /* \"#utility.yul\":5355:5474   */\n      iszero\n      tag_313\n      jumpi\n        /* \"#utility.yul\":5393:5472   */\n      tag_314\n      tag_182\n      jump\t// in\n    tag_314:\n        /* \"#utility.yul\":5355:5474   */\n    tag_313:\n        /* \"#utility.yul\":5513:5514   */\n      0x00\n        /* \"#utility.yul\":5538:5591   */\n      tag_315\n        /* \"#utility.yul\":5583:5590   */\n      dup6\n        /* \"#utility.yul\":5574:5580   */\n      dup3\n        /* \"#utility.yul\":5563:5572   */\n      dup7\n        /* \"#utility.yul\":5559:5581   */\n      add\n        /* \"#utility.yul\":5538:5591   */\n      tag_191\n      jump\t// in\n    tag_315:\n        /* \"#utility.yul\":5528:5591   */\n      swap3\n      pop\n        /* \"#utility.yul\":5484:5601   */\n      pop\n        /* \"#utility.yul\":5640:5642   */\n      0x20\n        /* \"#utility.yul\":5666:5719   */\n      tag_316\n        /* \"#utility.yul\":5711:5718   */\n      dup6\n        /* \"#utility.yul\":5702:5708   */\n      dup3\n        /* \"#utility.yul\":5691:5700   */\n      dup7\n        /* \"#utility.yul\":5687:5709   */\n      add\n        /* \"#utility.yul\":5666:5719   */\n      tag_205\n      jump\t// in\n    tag_316:\n        /* \"#utility.yul\":5656:5719   */\n      swap2\n      pop\n        /* \"#utility.yul\":5611:5729   */\n      pop\n        /* \"#utility.yul\":5262:5736   */\n      swap3\n      pop\n      swap3\n      swap1\n      pop\n      jump\t// out\n        /* \"#utility.yul\":5742:5819   */\n    tag_206:\n        /* \"#utility.yul\":5779:5786   */\n      0x00\n        /* \"#utility.yul\":5808:5813   */\n      dup2\n        /* \"#utility.yul\":5797:5813   */\n      swap1\n      pop\n        /* \"#utility.yul\":5742:5819   */\n      swap2\n      swap1\n      pop\n      jump\t// out\n        /* \"#utility.yul\":5825:5947   */\n    tag_207:\n        /* \"#utility.yul\":5898:5922   */\n      tag_319\n        /* \"#utility.yul\":5916:5921   */\n      dup2\n        /* \"#utility.yul\":5898:5922   */\n      tag_206\n      jump\t// in\n    tag_319:\n        /* \"#utility.yul\":5891:5896   */\n      dup2\n        /* \"#utility.yul\":5888:5923   */\n      eq\n        /* \"#utility.yul\":5878:5941   */\n      tag_320\n      jumpi\n        /* \"#utility.yul\":5937:5938   */\n      0x00\n        /* \"#utility.yul\":5934:5935   */\n      0x00\n        /* \"#utility.yul\":5927:5939   */\n      revert\n        /* \"#utility.yul\":5878:5941   */\n    tag_320:\n        /* \"#utility.yul\":5825:5947   */\n      pop\n      jump\t// out\n        /* \"#utility.yul\":5953:6092   */\n    tag_208:\n        /* \"#utility.yul\":5999:6004   */\n      0x00\n        /* \"#utility.yul\":6037:6043   */\n      dup2\n        /* \"#utility.yul\":6024:6044   */\n      calldataload\n        /* \"#utility.yul\":6015:6044   */\n      swap1\n      pop\n        /* \"#utility.yul\":6053:6086   */\n      tag_322\n        /* \"#utility.yul\":6080:6085   */\n      dup2\n        /* \"#utility.yul\":6053:6086   */\n      tag_207\n      jump\t// in\n    tag_322:\n        /* \"#utility.yul\":5953:6092   */\n      swap3\n      swap2\n      pop\n      pop\n      jump\t// out\n        /* \"#utility.yul\":6098:6427   */\n    tag_36:\n        /* \"#utility.yul\":6157:6163   */\n      0x00\n        /* \"#utility.yul\":6206:6208   */\n      0x20\n        /* \"#utility.yul\":6194:6203   */\n      dup3\n        /* \"#utility.yul\":6185:6192   */\n      dup5\n        /* \"#utility.yul\":6181:6204   */\n      sub\n        /* \"#utility.yul\":6177:6209   */\n      slt\n        /* \"#utility.yul\":6174:6293   */\n      iszero\n      tag_324\n      jumpi\n        /* \"#utility.yul\":6212:6291   */\n      tag_325\n      tag_182\n      jump\t// in\n    tag_325:\n        /* \"#utility.yul\":6174:6293   */\n    tag_324:\n        /* \"#utility.yul\":6332:6333   */\n      0x00\n        /* \"#utility.yul\":6357:6410   */\n      tag_326\n        /* \"#utility.yul\":6402:6409   */\n      dup5\n        /* \"#utility.yul\":6393:6399   */\n      dup3\n        /* \"#utility.yul\":6382:6391   */\n      dup6\n        /* \"#utility.yul\":6378:6400   */\n      add\n        /* \"#utility.yul\":6357:6410   */\n      tag_208\n      jump\t// in\n    tag_326:\n        /* \"#utility.yul\":6347:6410   */\n      swap2\n      pop\n        /* \"#utility.yul\":6303:6420   */\n      pop\n        /* \"#utility.yul\":6098:6427   */\n      swap3\n      swap2\n      pop\n      pop\n      jump\t// out\n        /* \"#utility.yul\":6433:6551   */\n    tag_209:\n        /* \"#utility.yul\":6520:6544   */\n      tag_328\n        /* \"#utility.yul\":6538:6543   */\n      dup2\n        /* \"#utility.yul\":6520:6544   */\n      tag_206\n      jump\t// in\n    tag_328:\n        /* \"#utility.yul\":6515:6518   */\n      dup3\n        /* \"#utility.yul\":6508:6545   */\n      mstore\n        /* \"#utility.yul\":6433:6551   */\n      pop\n      pop\n      jump\t// out\n        /* \"#utility.yul\":6557:6779   */\n    tag_39:\n        /* \"#utility.yul\":6650:6654   */\n      0x00\n        /* \"#utility.yul\":6688:6690   */\n      0x20\n        /* \"#utility.yul\":6677:6686   */\n      dup3\n        /* \"#utility.yul\":6673:6691   */\n      add\n        /* \"#utility.yul\":6665:6691   */\n      swap1\n      pop\n        /* \"#utility.yul\":6701:6772   */\n      tag_330\n        /* \"#utility.yul\":6769:6770   */\n      0x00\n        /* \"#utility.yul\":6758:6767   */\n      dup4\n        /* \"#utility.yul\":6754:6771   */\n      add\n        /* \"#utility.yul\":6745:6751   */\n      dup5\n        /* \"#utility.yul\":6701:6772   */\n      tag_209\n      jump\t// in\n    tag_330:\n        /* \"#utility.yul\":6557:6779   */\n      swap3\n      swap2\n      pop\n      pop\n      jump\t// out\n        /* \"#utility.yul\":6785:7259   */\n    tag_42:\n        /* \"#utility.yul\":6853:6859   */\n      0x00\n        /* \"#utility.yul\":6861:6867   */\n      0x00\n        /* \"#utility.yul\":6910:6912   */\n      0x40\n        /* \"#utility.yul\":6898:6907   */\n      dup4\n        /* \"#utility.yul\":6889:6896   */\n      dup6\n        /* \"#utility.yul\":6885:6908   */\n      sub\n        /* \"#utility.yul\":6881:6913   */\n      slt\n        /* \"#utility.yul\":6878:6997   */\n      iszero\n      tag_332\n      jumpi\n        /* \"#utility.yul\":6916:6995   */\n      tag_333\n      tag_182\n      jump\t// in\n    tag_333:\n        /* \"#utility.yul\":6878:6997   */\n    tag_332:\n        /* \"#utility.yul\":7036:7037   */\n      0x00\n        /* \"#utility.yul\":7061:7114   */\n      tag_334\n        /* \"#utility.yul\":7106:7113   */\n      dup6\n        /* \"#utility.yul\":7097:7103   */\n      dup3\n        /* \"#utility.yul\":7086:7095   */\n      dup7\n        /* \"#utility.yul\":7082:7104   */\n      add\n        /* \"#utility.yul\":7061:7114   */\n      tag_208\n      jump\t// in\n    tag_334:\n        /* \"#utility.yul\":7051:7114   */\n      swap3\n      pop\n        /* \"#utility.yul\":7007:7124   */\n      pop\n        /* \"#utility.yul\":7163:7165   */\n      0x20\n        /* \"#utility.yul\":7189:7242   */\n      tag_335\n        /* \"#utility.yul\":7234:7241   */\n      dup6\n        /* \"#utility.yul\":7225:7231   */\n      dup3\n        /* \"#utility.yul\":7214:7223   */\n      dup7\n        /* \"#utility.yul\":7210:7232   */\n      add\n        /* \"#utility.yul\":7189:7242   */\n      tag_205\n      jump\t// in\n    tag_335:\n        /* \"#utility.yul\":7179:7242   */\n      swap2\n      pop\n        /* \"#utility.yul\":7134:7252   */\n      pop\n        /* \"#utility.yul\":6785:7259   */\n      swap3\n      pop\n      swap3\n      swap1\n      pop\n      jump\t// out\n        /* \"#utility.yul\":7265:7594   */\n    tag_49:\n        /* \"#utility.yul\":7324:7330   */\n      0x00\n        /* \"#utility.yul\":7373:7375   */\n      0x20\n        /* \"#utility.yul\":7361:7370   */\n      dup3\n        /* \"#utility.yul\":7352:7359   */\n      dup5\n        /* \"#utility.yul\":7348:7371   */\n      sub\n        /* \"#utility.yul\":7344:7376   */\n      slt\n        /* \"#utility.yul\":7341:7460   */\n      iszero\n      tag_337\n      jumpi\n        /* \"#utility.yul\":7379:7458   */\n      tag_338\n      tag_182\n      jump\t// in\n    tag_338:\n        /* \"#utility.yul\":7341:7460   */\n    tag_337:\n        /* \"#utility.yul\":7499:7500   */\n      0x00\n        /* \"#utility.yul\":7524:7577   */\n      tag_339\n        /* \"#utility.yul\":7569:7576   */\n      dup5\n        /* \"#utility.yul\":7560:7566   */\n      dup3\n        /* \"#utility.yul\":7549:7558   */\n      dup6\n        /* \"#utility.yul\":7545:7567   */\n      add\n        /* \"#utility.yul\":7524:7577   */\n      tag_191\n      jump\t// in\n    tag_339:\n        /* \"#utility.yul\":7514:7577   */\n      swap2\n      pop\n        /* \"#utility.yul\":7470:7587   */\n      pop\n        /* \"#utility.yul\":7265:7594   */\n      swap3\n      swap2\n      pop\n      pop\n      jump\t// out\n        /* \"#utility.yul\":7600:7718   */\n    tag_210:\n        /* \"#utility.yul\":7687:7711   */\n      tag_341\n        /* \"#utility.yul\":7705:7710   */\n      dup2\n        /* \"#utility.yul\":7687:7711   */\n      tag_189\n      jump\t// in\n    tag_341:\n        /* \"#utility.yul\":7682:7685   */\n      dup3\n        /* \"#utility.yul\":7675:7712   */\n      mstore\n        /* \"#utility.yul\":7600:7718   */\n      pop\n      pop\n      jump\t// out\n        /* \"#utility.yul\":7724:7823   */\n    tag_211:\n        /* \"#utility.yul\":7776:7782   */\n      0x00\n        /* \"#utility.yul\":7810:7815   */\n      dup2\n        /* \"#utility.yul\":7804:7816   */\n      mload\n        /* \"#utility.yul\":7794:7816   */\n      swap1\n      pop\n        /* \"#utility.yul\":7724:7823   */\n      swap2\n      swap1\n      pop\n      jump\t// out\n        /* \"#utility.yul\":7829:7998   */\n    tag_212:\n        /* \"#utility.yul\":7913:7924   */\n      0x00\n        /* \"#utility.yul\":7947:7953   */\n      dup3\n        /* \"#utility.yul\":7942:7945   */\n      dup3\n        /* \"#utility.yul\":7935:7954   */\n      mstore\n        /* \"#utility.yul\":7987:7991   */\n      0x20\n        /* \"#utility.yul\":7982:7985   */\n      dup3\n        /* \"#utility.yul\":7978:7992   */\n      add\n        /* \"#utility.yul\":7963:7992   */\n      swap1\n      pop\n        /* \"#utility.yul\":7829:7998   */\n      swap3\n      swap2\n      pop\n      pop\n      jump\t// out\n        /* \"#utility.yul\":8004:8143   */\n    tag_213:\n        /* \"#utility.yul\":8093:8099   */\n      dup3\n        /* \"#utility.yul\":8088:8091   */\n      dup2\n        /* \"#utility.yul\":8083:8086   */\n      dup4\n        /* \"#utility.yul\":8077:8100   */\n      mcopy\n        /* \"#utility.yul\":8134:8135   */\n      0x00\n        /* \"#utility.yul\":8125:8131   */\n      dup4\n        /* \"#utility.yul\":8120:8123   */\n      dup4\n        /* \"#utility.yul\":8116:8132   */\n      add\n        /* \"#utility.yul\":8109:8136   */\n      mstore\n        /* \"#utility.yul\":8004:8143   */\n      pop\n      pop\n      pop\n      jump\t// out\n        /* \"#utility.yul\":8149:8526   */\n    tag_214:\n        /* \"#utility.yul\":8237:8240   */\n      0x00\n        /* \"#utility.yul\":8265:8304   */\n      tag_346\n        /* \"#utility.yul\":8298:8303   */\n      dup3\n        /* \"#utility.yul\":8265:8304   */\n      tag_211\n      jump\t// in\n    tag_346:\n        /* \"#utility.yul\":8320:8391   */\n      tag_347\n        /* \"#utility.yul\":8384:8390   */\n      dup2\n        /* \"#utility.yul\":8379:8382   */\n      dup6\n        /* \"#utility.yul\":8320:8391   */\n      tag_212\n      jump\t// in\n    tag_347:\n        /* \"#utility.yul\":8313:8391   */\n      swap4\n      pop\n        /* \"#utility.yul\":8400:8465   */\n      tag_348\n        /* \"#utility.yul\":8458:8464   */\n      dup2\n        /* \"#utility.yul\":8453:8456   */\n      dup6\n        /* \"#utility.yul\":8446:8450   */\n      0x20\n        /* \"#utility.yul\":8439:8444   */\n      dup7\n        /* \"#utility.yul\":8435:8451   */\n      add\n        /* \"#utility.yul\":8400:8465   */\n      tag_213\n      jump\t// in\n    tag_348:\n        /* \"#utility.yul\":8490:8519   */\n      tag_349\n        /* \"#utility.yul\":8512:8518   */\n      dup2\n        /* \"#utility.yul\":8490:8519   */\n      tag_194\n      jump\t// in\n    tag_349:\n        /* \"#utility.yul\":8485:8488   */\n      dup5\n        /* \"#utility.yul\":8481:8520   */\n      add\n        /* \"#utility.yul\":8474:8520   */\n      swap2\n      pop\n        /* \"#utility.yul\":8241:8526   */\n      pop\n        /* \"#utility.yul\":8149:8526   */\n      swap3\n      swap2\n      pop\n      pop\n      jump\t// out\n        /* \"#utility.yul\":8532:8650   */\n    tag_215:\n        /* \"#utility.yul\":8619:8643   */\n      tag_351\n        /* \"#utility.yul\":8637:8642   */\n      dup2\n        /* \"#utility.yul\":8619:8643   */\n      tag_203\n      jump\t// in\n    tag_351:\n        /* \"#utility.yul\":8614:8617   */\n      dup3\n        /* \"#utility.yul\":8607:8644   */\n      mstore\n        /* \"#utility.yul\":8532:8650   */\n      pop\n      pop\n      jump\t// out\n        /* \"#utility.yul\":8656:8836   */\n    tag_88:\n        /* \"#utility.yul\":8704:8781   */\n      0x4e487b7100000000000000000000000000000000000000000000000000000000\n        /* \"#utility.yul\":8701:8702   */\n      0x00\n        /* \"#utility.yul\":8694:8782   */\n      mstore\n        /* \"#utility.yul\":8801:8805   */\n      0x21\n        /* \"#utility.yul\":8798:8799   */\n      0x04\n        /* \"#utility.yul\":8791:8806   */\n      mstore\n        /* \"#utility.yul\":8825:8829   */\n      0x24\n        /* \"#utility.yul\":8822:8823   */\n      0x00\n        /* \"#utility.yul\":8815:8830   */\n      revert\n        /* \"#utility.yul\":8842:8956   */\n    tag_216:\n        /* \"#utility.yul\":8924:8925   */\n      0x03\n        /* \"#utility.yul\":8917:8922   */\n      dup2\n        /* \"#utility.yul\":8914:8926   */\n      lt\n        /* \"#utility.yul\":8904:8950   */\n      tag_354\n      jumpi\n        /* \"#utility.yul\":8930:8948   */\n      tag_355\n      tag_88\n      jump\t// in\n    tag_355:\n        /* \"#utility.yul\":8904:8950   */\n    tag_354:\n        /* \"#utility.yul\":8842:8956   */\n      pop\n      jump\t// out\n        /* \"#utility.yul\":8962:9091   */\n    tag_217:\n        /* \"#utility.yul\":9008:9015   */\n      0x00\n        /* \"#utility.yul\":9037:9042   */\n      dup2\n        /* \"#utility.yul\":9026:9042   */\n      swap1\n      pop\n        /* \"#utility.yul\":9043:9085   */\n      tag_357\n        /* \"#utility.yul\":9079:9084   */\n      dup3\n        /* \"#utility.yul\":9043:9085   */\n      tag_216\n      jump\t// in\n    tag_357:\n        /* \"#utility.yul\":8962:9091   */\n      swap2\n      swap1\n      pop\n      jump\t// out\n        /* \"#utility.yul\":9097:9226   */\n    tag_218:\n        /* \"#utility.yul\":9154:9163   */\n      0x00\n        /* \"#utility.yul\":9187:9220   */\n      tag_359\n        /* \"#utility.yul\":9214:9219   */\n      dup3\n        /* \"#utility.yul\":9187:9220   */\n      tag_217\n      jump\t// in\n    tag_359:\n        /* \"#utility.yul\":9174:9220   */\n      swap1\n      pop\n        /* \"#utility.yul\":9097:9226   */\n      swap2\n      swap1\n      pop\n      jump\t// out\n        /* \"#utility.yul\":9232:9377   */\n    tag_219:\n        /* \"#utility.yul\":9326:9370   */\n      tag_361\n        /* \"#utility.yul\":9364:9369   */\n      dup2\n        /* \"#utility.yul\":9326:9370   */\n      tag_218\n      jump\t// in\n    tag_361:\n        /* \"#utility.yul\":9321:9324   */\n      dup3\n        /* \"#utility.yul\":9314:9371   */\n      mstore\n        /* \"#utility.yul\":9232:9377   */\n      pop\n      pop\n      jump\t// out\n        /* \"#utility.yul\":9383:10354   */\n    tag_71:\n        /* \"#utility.yul\":9663:9667   */\n      0x00\n        /* \"#utility.yul\":9701:9704   */\n      0xc0\n        /* \"#utility.yul\":9690:9699   */\n      dup3\n        /* \"#utility.yul\":9686:9705   */\n      add\n        /* \"#utility.yul\":9678:9705   */\n      swap1\n      pop\n        /* \"#utility.yul\":9715:9786   */\n      tag_363\n        /* \"#utility.yul\":9783:9784   */\n      0x00\n        /* \"#utility.yul\":9772:9781   */\n      dup4\n        /* \"#utility.yul\":9768:9785   */\n      add\n        /* \"#utility.yul\":9759:9765   */\n      dup10\n        /* \"#utility.yul\":9715:9786   */\n      tag_210\n      jump\t// in\n    tag_363:\n        /* \"#utility.yul\":9833:9842   */\n      dup2\n        /* \"#utility.yul\":9827:9831   */\n      dup2\n        /* \"#utility.yul\":9823:9843   */\n      sub\n        /* \"#utility.yul\":9818:9820   */\n      0x20\n        /* \"#utility.yul\":9807:9816   */\n      dup4\n        /* \"#utility.yul\":9803:9821   */\n      add\n        /* \"#utility.yul\":9796:9844   */\n      mstore\n        /* \"#utility.yul\":9861:9939   */\n      tag_364\n        /* \"#utility.yul\":9934:9938   */\n      dup2\n        /* \"#utility.yul\":9925:9931   */\n      dup9\n        /* \"#utility.yul\":9861:9939   */\n      tag_214\n      jump\t// in\n    tag_364:\n        /* \"#utility.yul\":9853:9939   */\n      swap1\n      pop\n        /* \"#utility.yul\":9949:10021   */\n      tag_365\n        /* \"#utility.yul\":10017:10019   */\n      0x40\n        /* \"#utility.yul\":10006:10015   */\n      dup4\n        /* \"#utility.yul\":10002:10020   */\n      add\n        /* \"#utility.yul\":9993:9999   */\n      dup8\n        /* \"#utility.yul\":9949:10021   */\n      tag_215\n      jump\t// in\n    tag_365:\n        /* \"#utility.yul\":10031:10110   */\n      tag_366\n        /* \"#utility.yul\":10106:10108   */\n      0x60\n        /* \"#utility.yul\":10095:10104   */\n      dup4\n        /* \"#utility.yul\":10091:10109   */\n      add\n        /* \"#utility.yul\":10082:10088   */\n      dup7\n        /* \"#utility.yul\":10031:10110   */\n      tag_219\n      jump\t// in\n    tag_366:\n        /* \"#utility.yul\":10158:10167   */\n      dup2\n        /* \"#utility.yul\":10152:10156   */\n      dup2\n        /* \"#utility.yul\":10148:10168   */\n      sub\n        /* \"#utility.yul\":10142:10145   */\n      0x80\n        /* \"#utility.yul\":10131:10140   */\n      dup4\n        /* \"#utility.yul\":10127:10146   */\n      add\n        /* \"#utility.yul\":10120:10169   */\n      mstore\n        /* \"#utility.yul\":10186:10264   */\n      tag_367\n        /* \"#utility.yul\":10259:10263   */\n      dup2\n        /* \"#utility.yul\":10250:10256   */\n      dup6\n        /* \"#utility.yul\":10186:10264   */\n      tag_214\n      jump\t// in\n    tag_367:\n        /* \"#utility.yul\":10178:10264   */\n      swap1\n      pop\n        /* \"#utility.yul\":10274:10347   */\n      tag_368\n        /* \"#utility.yul\":10342:10345   */\n      0xa0\n        /* \"#utility.yul\":10331:10340   */\n      dup4\n        /* \"#utility.yul\":10327:10346   */\n      add\n        /* \"#utility.yul\":10318:10324   */\n      dup5\n        /* \"#utility.yul\":10274:10347   */\n      tag_210\n      jump\t// in\n    tag_368:\n        /* \"#utility.yul\":9383:10354   */\n      swap8\n      swap7\n      pop\n      pop\n      pop\n      pop\n      pop\n      pop\n      pop\n      jump\t// out\n        /* \"#utility.yul\":10360:10530   */\n    tag_220:\n        /* \"#utility.yul\":10500:10522   */\n      0x4f7264657220616c726561647920657869737473000000000000000000000000\n        /* \"#utility.yul\":10496:10497   */\n      0x00\n        /* \"#utility.yul\":10488:10494   */\n      dup3\n        /* \"#utility.yul\":10484:10498   */\n      add\n        /* \"#utility.yul\":10477:10523   */\n      mstore\n        /* \"#utility.yul\":10360:10530   */\n      pop\n      jump\t// out\n        /* \"#utility.yul\":10536:10902   */\n    tag_221:\n        /* \"#utility.yul\":10678:10681   */\n      0x00\n        /* \"#utility.yul\":10699:10766   */\n      tag_371\n        /* \"#utility.yul\":10763:10765   */\n      0x14\n        /* \"#utility.yul\":10758:10761   */\n      dup4\n        /* \"#utility.yul\":10699:10766   */\n      tag_212\n      jump\t// in\n    tag_371:\n        /* \"#utility.yul\":10692:10766   */\n      swap2\n      pop\n        /* \"#utility.yul\":10775:10868   */\n      tag_372\n        /* \"#utility.yul\":10864:10867   */\n      dup3\n        /* \"#utility.yul\":10775:10868   */\n      tag_220\n      jump\t// in\n    tag_372:\n        /* \"#utility.yul\":10893:10895   */\n      0x20\n        /* \"#utility.yul\":10888:10891   */\n      dup3\n        /* \"#utility.yul\":10884:10896   */\n      add\n        /* \"#utility.yul\":10877:10896   */\n      swap1\n      pop\n        /* \"#utility.yul\":10536:10902   */\n      swap2\n      swap1\n      pop\n      jump\t// out\n        /* \"#utility.yul\":10908:11327   */\n    tag_85:\n        /* \"#utility.yul\":11074:11078   */\n      0x00\n        /* \"#utility.yul\":11112:11114   */\n      0x20\n        /* \"#utility.yul\":11101:11110   */\n      dup3\n        /* \"#utility.yul\":11097:11115   */\n      add\n        /* \"#utility.yul\":11089:11115   */\n      swap1\n      pop\n        /* \"#utility.yul\":11161:11170   */\n      dup2\n        /* \"#utility.yul\":11155:11159   */\n      dup2\n        /* \"#utility.yul\":11151:11171   */\n      sub\n        /* \"#utility.yul\":11147:11148   */\n      0x00\n        /* \"#utility.yul\":11136:11145   */\n      dup4\n        /* \"#utility.yul\":11132:11149   */\n      add\n        /* \"#utility.yul\":11125:11172   */\n      mstore\n        /* \"#utility.yul\":11189:11320   */\n      tag_374\n        /* \"#utility.yul\":11315:11319   */\n      dup2\n        /* \"#utility.yul\":11189:11320   */\n      tag_221\n      jump\t// in\n    tag_374:\n        /* \"#utility.yul\":11181:11320   */\n      swap1\n      pop\n        /* \"#utility.yul\":10908:11327   */\n      swap2\n      swap1\n      pop\n      jump\t// out\n        /* \"#utility.yul\":11333:11513   */\n    tag_222:\n        /* \"#utility.yul\":11381:11458   */\n      0x4e487b7100000000000000000000000000000000000000000000000000000000\n        /* \"#utility.yul\":11378:11379   */\n      0x00\n        /* \"#utility.yul\":11371:11459   */\n      mstore\n        /* \"#utility.yul\":11478:11482   */\n      0x22\n        /* \"#utility.yul\":11475:11476   */\n      0x04\n        /* \"#utility.yul\":11468:11483   */\n      mstore\n        /* \"#utility.yul\":11502:11506   */\n      0x24\n        /* \"#utility.yul\":11499:11500   */\n      0x00\n        /* \"#utility.yul\":11492:11507   */\n      revert\n        /* \"#utility.yul\":11519:11839   */\n    tag_145:\n        /* \"#utility.yul\":11563:11569   */\n      0x00\n        /* \"#utility.yul\":11600:11601   */\n      0x02\n        /* \"#utility.yul\":11594:11598   */\n      dup3\n        /* \"#utility.yul\":11590:11602   */\n      div\n        /* \"#utility.yul\":11580:11602   */\n      swap1\n      pop\n        /* \"#utility.yul\":11647:11648   */\n      0x01\n        /* \"#utility.yul\":11641:11645   */\n      dup3\n        /* \"#utility.yul\":11637:11649   */\n      and\n        /* \"#utility.yul\":11668:11686   */\n      dup1\n        /* \"#utility.yul\":11658:11739   */\n      tag_377\n      jumpi\n        /* \"#utility.yul\":11724:11728   */\n      0x7f\n        /* \"#utility.yul\":11716:11722   */\n      dup3\n        /* \"#utility.yul\":11712:11729   */\n      and\n        /* \"#utility.yul\":11702:11729   */\n      swap2\n      pop\n        /* \"#utility.yul\":11658:11739   */\n    tag_377:\n        /* \"#utility.yul\":11786:11788   */\n      0x20\n        /* \"#utility.yul\":11778:11784   */\n      dup3\n        /* \"#utility.yul\":11775:11789   */\n      lt\n        /* \"#utility.yul\":11755:11773   */\n      dup2\n        /* \"#utility.yul\":11752:11790   */\n      sub\n        /* \"#utility.yul\":11749:11833   */\n      tag_378\n      jumpi\n        /* \"#utility.yul\":11805:11823   */\n      tag_379\n      tag_222\n      jump\t// in\n    tag_379:\n        /* \"#utility.yul\":11749:11833   */\n    tag_378:\n        /* \"#utility.yul\":11570:11839   */\n      pop\n        /* \"#utility.yul\":11519:11839   */\n      swap2\n      swap1\n      pop\n      jump\t// out\n        /* \"#utility.yul\":11845:11986   */\n    tag_223:\n        /* \"#utility.yul\":11894:11898   */\n      0x00\n        /* \"#utility.yul\":11917:11920   */\n      dup2\n        /* \"#utility.yul\":11909:11920   */\n      swap1\n      pop\n        /* \"#utility.yul\":11940:11943   */\n      dup2\n        /* \"#utility.yul\":11937:11938   */\n      0x00\n        /* \"#utility.yul\":11930:11944   */\n      mstore\n        /* \"#utility.yul\":11974:11978   */\n      0x20\n        /* \"#utility.yul\":11971:11972   */\n      0x00\n        /* \"#utility.yul\":11961:11979   */\n      keccak256\n        /* \"#utility.yul\":11953:11979   */\n      swap1\n      pop\n        /* \"#utility.yul\":11845:11986   */\n      swap2\n      swap1\n      pop\n      jump\t// out\n        /* \"#utility.yul\":11992:12085   */\n    tag_224:\n        /* \"#utility.yul\":12029:12035   */\n      0x00\n        /* \"#utility.yul\":12076:12078   */\n      0x20\n        /* \"#utility.yul\":12071:12073   */\n      0x1f\n        /* \"#utility.yul\":12064:12069   */\n      dup4\n        /* \"#utility.yul\":12060:12074   */\n      add\n        /* \"#utility.yul\":12056:12079   */\n      div\n        /* \"#utility.yul\":12046:12079   */\n      swap1\n      pop\n        /* \"#utility.yul\":11992:12085   */\n      swap2\n      swap1\n      pop\n      jump\t// out\n        /* \"#utility.yul\":12091:12198   */\n    tag_225:\n        /* \"#utility.yul\":12135:12143   */\n      0x00\n        /* \"#utility.yul\":12185:12190   */\n      dup3\n        /* \"#utility.yul\":12179:12183   */\n      dup3\n        /* \"#utility.yul\":12175:12191   */\n      shl\n        /* \"#utility.yul\":12154:12191   */\n      swap1\n      pop\n        /* \"#utility.yul\":12091:12198   */\n      swap3\n      swap2\n      pop\n      pop\n      jump\t// out\n        /* \"#utility.yul\":12204:12597   */\n    tag_226:\n        /* \"#utility.yul\":12273:12279   */\n      0x00\n        /* \"#utility.yul\":12323:12324   */\n      0x08\n        /* \"#utility.yul\":12311:12321   */\n      dup4\n        /* \"#utility.yul\":12307:12325   */\n      mul\n        /* \"#utility.yul\":12346:12443   */\n      tag_384\n        /* \"#utility.yul\":12376:12442   */\n      0xffffffffffffffffffffffffffffffffffffffffffffffffffffffffffffffff\n        /* \"#utility.yul\":12365:12374   */\n      dup3\n        /* \"#utility.yul\":12346:12443   */\n      tag_225\n      jump\t// in\n    tag_384:\n        /* \"#utility.yul\":12464:12503   */\n      tag_385\n        /* \"#utility.yul\":12494:12502   */\n      dup7\n        /* \"#utility.yul\":12483:12492   */\n      dup4\n        /* \"#utility.yul\":12464:12503   */\n      tag_225\n      jump\t// in\n    tag_385:\n        /* \"#utility.yul\":12452:12503   */\n      swap6\n      pop\n        /* \"#utility.yul\":12536:12540   */\n      dup1\n        /* \"#utility.yul\":12532:12541   */\n      not\n        /* \"#utility.yul\":12525:12530   */\n      dup5\n        /* \"#utility.yul\":12521:12542   */\n      and\n        /* \"#utility.yul\":12512:12542   */\n      swap4\n      pop\n        /* \"#utility.yul\":12585:12589   */\n      dup1\n        /* \"#utility.yul\":12575:12583   */\n      dup7\n        /* \"#utility.yul\":12571:12590   */\n      and\n        /* \"#utility.yul\":12564:12569   */\n      dup5\n        /* \"#utility.yul\":12561:12591   */\n      or\n        /* \"#utility.yul\":12551:12591   */\n      swap3\n      pop\n        /* \"#utility.yul\":12280:12597   */\n      pop\n      pop\n        /* \"#utility.yul\":12204:12597   */\n      swap4\n      swap3\n      pop\n      pop\n      pop\n      jump\t// out\n        /* \"#utility.yul\":12603:12663   */\n    tag_227:\n        /* \"#utility.yul\":12631:12634   */\n      0x00\n        /* \"#utility.yul\":12652:12657   */\n      dup2\n        /* \"#utility.yul\":12645:12657   */\n      swap1\n      pop\n        /* \"#utility.yul\":12603:12663   */\n      swap2\n      swap1\n      pop\n      jump\t// out\n        /* \"#utility.yul\":12669:12811   */\n    tag_228:\n        /* \"#utility.yul\":12719:12728   */\n      0x00\n        /* \"#utility.yul\":12752:12805   */\n      tag_388\n        /* \"#utility.yul\":12770:12804   */\n      tag_389\n        /* \"#utility.yul\":12779:12803   */\n      tag_390\n        /* \"#utility.yul\":12797:12802   */\n      dup5\n        /* \"#utility.yul\":12779:12803   */\n      tag_189\n      jump\t// in\n    tag_390:\n        /* \"#utility.yul\":12770:12804   */\n      tag_227\n      jump\t// in\n    tag_389:\n        /* \"#utility.yul\":12752:12805   */\n      tag_189\n      jump\t// in\n    tag_388:\n        /* \"#utility.yul\":12739:12805   */\n      swap1\n      pop\n        /* \"#utility.yul\":12669:12811   */\n      swap2\n      swap1\n      pop\n      jump\t// out\n        /* \"#utility.yul\":12817:12892   */\n    tag_229:\n        /* \"#utility.yul\":12860:12863   */\n      0x00\n        /* \"#utility.yul\":12881:12886   */\n      dup2\n        /* \"#utility.yul\":12874:12886   */\n      swap1\n      pop\n        /* \"#utility.yul\":12817:12892   */\n      swap2\n      swap1\n      pop\n      jump\t// out\n        /* \"#utility.yul\":12898:13167   */\n    tag_230:\n        /* \"#utility.yul\":13008:13047   */\n      tag_393\n        /* \"#utility.yul\":13039:13046   */\n      dup4\n        /* \"#utility.yul\":13008:13047   */\n      tag_228\n      jump\t// in\n    tag_393:\n        /* \"#utility.yul\":13069:13160   */\n      tag_394\n        /* \"#utility.yul\":13118:13159   */\n      tag_395\n        /* \"#utility.yul\":13142:13158   */\n      dup3\n        /* \"#utility.yul\":13118:13159   */\n      tag_229\n      jump\t// in\n    tag_395:\n        /* \"#utility.yul\":13110:13116   */\n      dup5\n        /* \"#utility.yul\":13103:13107   */\n      dup5\n        /* \"#utility.yul\":13097:13108   */\n      sload\n        /* \"#utility.yul\":13069:13160   */\n      tag_226\n      jump\t// in\n    tag_394:\n        /* \"#utility.yul\":13063:13067   */\n      dup3\n        /* \"#utility.yul\":13056:13161   */\n      sstore\n        /* \"#utility.yul\":12974:13167   */\n      pop\n        /* \"#utility.yul\":12898:13167   */\n      pop\n      pop\n      pop\n      jump\t// out\n        /* \"#utility.yul\":13173:13246   */\n    tag_231:\n        /* \"#utility.yul\":13218:13221   */\n      0x00\n        /* \"#utility.yul\":13239:13240   */\n      0x00\n        /* \"#utility.yul\":13232:13240   */\n      swap1\n      pop\n        /* \"#utility.yul\":13173:13246   */\n      swap1\n      jump\t// out\n        /* \"#utility.yul\":13252:13441   */\n    tag_232:\n        /* \"#utility.yul\":13329:13361   */\n      tag_398\n      tag_231\n      jump\t// in\n    tag_398:\n        /* \"#utility.yul\":13370:13435   */\n      tag_399\n        /* \"#utility.yul\":13428:13434   */\n      dup2\n        /* \"#utility.yul\":13420:13426   */\n      dup5\n        /* \"#utility.yul\":13414:13418   */\n      dup5\n        /* \"#utility.yul\":13370:13435   */\n      tag_230\n      jump\t// in\n    tag_399:\n        /* \"#utility.yul\":13305:13441   */\n      pop\n        /* \"#utility.yul\":13252:13441   */\n      pop\n      pop\n      jump\t// out\n        /* \"#utility.yul\":13447:13633   */\n    tag_233:\n        /* \"#utility.yul\":13507:13627   */\n    tag_401:\n        /* \"#utility.yul\":13524:13527   */\n      dup2\n        /* \"#utility.yul\":13517:13522   */\n      dup2\n        /* \"#utility.yul\":13514:13528   */\n      lt\n        /* \"#utility.yul\":13507:13627   */\n      iszero\n      tag_403\n      jumpi\n        /* \"#utility.yul\":13578:13617   */\n      tag_404\n        /* \"#utility.yul\":13615:13616   */\n      0x00\n        /* \"#utility.yul\":13608:13613   */\n      dup3\n        /* \"#utility.yul\":13578:13617   */\n      tag_232\n      jump\t// in\n    tag_404:\n        /* \"#utility.yul\":13551:13552   */\n      0x01\n        /* \"#utility.yul\":13544:13549   */\n      dup2\n        /* \"#utility.yul\":13540:13553   */\n      add\n        /* \"#utility.yul\":13531:13553   */\n      swap1\n      pop\n        /* \"#utility.yul\":13507:13627   */\n      jump(tag_401)\n    tag_403:\n        /* \"#utility.yul\":13447:13633   */\n      pop\n      pop\n      jump\t// out\n        /* \"#utility.yul\":13639:14182   */\n    tag_234:\n        /* \"#utility.yul\":13740:13742   */\n      0x1f\n        /* \"#utility.yul\":13735:13738   */\n      dup3\n        /* \"#utility.yul\":13732:13743   */\n      gt\n        /* \"#utility.yul\":13729:14175   */\n      iszero\n      tag_406\n      jumpi\n        /* \"#utility.yul\":13774:13812   */\n      tag_407\n        /* \"#utility.yul\":13806:13811   */\n      dup2\n        /* \"#utility.yul\":13774:13812   */\n      tag_223\n      jump\t// in\n    tag_407:\n        /* \"#utility.yul\":13858:13887   */\n      tag_408\n        /* \"#utility.yul\":13876:13886   */\n      dup5\n        /* \"#utility.yul\":13858:13887   */\n      tag_224\n      jump\t// in\n    tag_408:\n        /* \"#utility.yul\":13848:13856   */\n      dup2\n        /* \"#utility.yul\":13844:13888   */\n      add\n        /* \"#utility.yul\":14041:14043   */\n      0x20\n        /* \"#utility.yul\":14029:14039   */\n      dup6\n        /* \"#utility.yul\":14026:14044   */\n      lt\n        /* \"#utility.yul\":14023:14072   */\n      iszero\n      tag_409\n      jumpi\n        /* \"#utility.yul\":14062:14070   */\n      dup2\n        /* \"#utility.yul\":14047:14070   */\n      swap1\n      pop\n        /* \"#utility.yul\":14023:14072   */\n    tag_409:\n        /* \"#utility.yul\":14085:14165   */\n      tag_410\n        /* \"#utility.yul\":14141:14163   */\n      tag_411\n        /* \"#utility.yul\":14159:14162   */\n      dup6\n        /* \"#utility.yul\":14141:14163   */\n      tag_224\n      jump\t// in\n    tag_411:\n        /* \"#utility.yul\":14131:14139   */\n      dup4\n        /* \"#utility.yul\":14127:14164   */\n      add\n        /* \"#utility.yul\":14114:14125   */\n      dup3\n        /* \"#utility.yul\":14085:14165   */\n      tag_233\n      jump\t// in\n    tag_410:\n        /* \"#utility.yul\":13744:14175   */\n      pop\n      pop\n        /* \"#utility.yul\":13729:14175   */\n    tag_406:\n        /* \"#utility.yul\":13639:14182   */\n      pop\n      pop\n      pop\n      jump\t// out\n        /* \"#utility.yul\":14188:14305   */\n    tag_235:\n        /* \"#utility.yul\":14242:14250   */\n      0x00\n        /* \"#utility.yul\":14292:14297   */\n      dup3\n        /* \"#utility.yul\":14286:14290   */\n      dup3\n        /* \"#utility.yul\":14282:14298   */\n      shr\n        /* \"#utility.yul\":14261:14298   */\n      swap1\n      pop\n        /* \"#utility.yul\":14188:14305   */\n      swap3\n      swap2\n      pop\n      pop\n      jump\t// out\n        /* \"#utility.yul\":14311:14480   */\n    tag_236:\n        /* \"#utility.yul\":14355:14361   */\n      0x00\n        /* \"#utility.yul\":14388:14439   */\n      tag_414\n        /* \"#utility.yul\":14436:14437   */\n      0x00\n        /* \"#utility.yul\":14432:14438   */\n      not\n        /* \"#utility.yul\":14424:14429   */\n      dup5\n        /* \"#utility.yul\":14421:14422   */\n      0x08\n        /* \"#utility.yul\":14417:14430   */\n      mul\n        /* \"#utility.yul\":14388:14439   */\n      tag_235\n      jump\t// in\n    tag_414:\n        /* \"#utility.yul\":14384:14440   */\n      not\n        /* \"#utility.yul\":14469:14473   */\n      dup1\n        /* \"#utility.yul\":14463:14467   */\n      dup4\n        /* \"#utility.yul\":14459:14474   */\n      and\n        /* \"#utility.yul\":14449:14474   */\n      swap2\n      pop\n        /* \"#utility.yul\":14362:14480   */\n      pop\n        /* \"#utility.yul\":14311:14480   */\n      swap3\n      swap2\n      pop\n      pop\n      jump\t// out\n        /* \"#utility.yul\":14485:14780   */\n    tag_237:\n        /* \"#utility.yul\":14561:14565   */\n      0x00\n        /* \"#utility.yul\":14707:14736   */\n      tag_416\n        /* \"#utility.yul\":14732:14735   */\n      dup4\n        /* \"#utility.yul\":14726:14730   */\n      dup4\n        /* \"#utility.yul\":14707:14736   */\n      tag_236\n      jump\t// in\n    tag_416:\n        /* \"#utility.yul\":14699:14736   */\n      swap2\n      pop\n        /* \"#utility.yul\":14769:14772   */\n      dup3\n        /* \"#utility.yul\":14766:14767   */\n      0x02\n        /* \"#utility.yul\":14762:14773   */\n      mul\n        /* \"#utility.yul\":14756:14760   */\n      dup3\n        /* \"#utility.yul\":14753:14774   */\n      or\n        /* \"#utility.yul\":14745:14774   */\n      swap1\n      pop\n        /* \"#utility.yul\":14485:14780   */\n      swap3\n      swap2\n      pop\n      pop\n      jump\t// out\n        /* \"#utility.yul\":14785:16180   */\n    tag_90:\n        /* \"#utility.yul\":14902:14939   */\n      tag_418\n        /* \"#utility.yul\":14935:14938   */\n      dup3\n        /* \"#utility.yul\":14902:14939   */\n      tag_211\n      jump\t// in\n    tag_418:\n        /* \"#utility.yul\":15004:15022   */\n      0xffffffffffffffff\n        /* \"#utility.yul\":14996:15002   */\n      dup2\n        /* \"#utility.yul\":14993:15023   */\n      gt\n        /* \"#utility.yul\":14990:15046   */\n      iszero\n      tag_419\n      jumpi\n        /* \"#utility.yul\":15026:15044   */\n      tag_420\n      tag_195\n      jump\t// in\n    tag_420:\n        /* \"#utility.yul\":14990:15046   */\n    tag_419:\n        /* \"#utility.yul\":15070:15108   */\n      tag_421\n        /* \"#utility.yul\":15102:15106   */\n      dup3\n        /* \"#utility.yul\":15096:15107   */\n      sload\n        /* \"#utility.yul\":15070:15108   */\n      tag_145\n      jump\t// in\n    tag_421:\n        /* \"#utility.yul\":15155:15222   */\n      tag_422\n        /* \"#utility.yul\":15215:15221   */\n      dup3\n        /* \"#utility.yul\":15207:15213   */\n      dup3\n        /* \"#utility.yul\":15201:15205   */\n      dup6\n        /* \"#utility.yul\":15155:15222   */\n      tag_234\n      jump\t// in\n    tag_422:\n        /* \"#utility.yul\":15249:15250   */\n      0x00\n        /* \"#utility.yul\":15273:15277   */\n      0x20\n        /* \"#utility.yul\":15260:15277   */\n      swap1\n      pop\n        /* \"#utility.yul\":15305:15307   */\n      0x1f\n        /* \"#utility.yul\":15297:15303   */\n      dup4\n        /* \"#utility.yul\":15294:15308   */\n      gt\n        /* \"#utility.yul\":15322:15323   */\n      0x01\n        /* \"#utility.yul\":15317:15935   */\n      dup2\n      eq\n      tag_424\n      jumpi\n        /* \"#utility.yul\":15979:15980   */\n      0x00\n        /* \"#utility.yul\":15996:16002   */\n      dup5\n        /* \"#utility.yul\":15993:16070   */\n      iszero\n      tag_425\n      jumpi\n        /* \"#utility.yul\":16045:16054   */\n      dup3\n        /* \"#utility.yul\":16040:16043   */\n      dup8\n        /* \"#utility.yul\":16036:16055   */\n      add\n        /* \"#utility.yul\":16030:16056   */\n      mload\n        /* \"#utility.yul\":16021:16056   */\n      swap1\n      pop\n        /* \"#utility.yul\":15993:16070   */\n    tag_425:\n        /* \"#utility.yul\":16096:16163   */\n      tag_426\n        /* \"#utility.yul\":16156:16162   */\n      dup6\n        /* \"#utility.yul\":16149:16154   */\n      dup3\n        /* \"#utility.yul\":16096:16163   */\n      tag_237\n      jump\t// in\n    tag_426:\n        /* \"#utility.yul\":16090:16094   */\n      dup7\n        /* \"#utility.yul\":16083:16164   */\n      sstore\n        /* \"#utility.yul\":15952:16174   */\n      pop\n        /* \"#utility.yul\":15287:16174   */\n      jump(tag_423)\n        /* \"#utility.yul\":15317:15935   */\n    tag_424:\n        /* \"#utility.yul\":15369:15373   */\n      0x1f\n        /* \"#utility.yul\":15365:15374   */\n      not\n        /* \"#utility.yul\":15357:15363   */\n      dup5\n        /* \"#utility.yul\":15353:15375   */\n      and\n        /* \"#utility.yul\":15403:15440   */\n      tag_427\n        /* \"#utility.yul\":15435:15439   */\n      dup7\n        /* \"#utility.yul\":15403:15440   */\n      tag_223\n      jump\t// in\n    tag_427:\n        /* \"#utility.yul\":15462:15463   */\n      0x00\n        /* \"#utility.yul\":15476:15684   */\n    tag_428:\n        /* \"#utility.yul\":15490:15497   */\n      dup3\n        /* \"#utility.yul\":15487:15488   */\n      dup2\n        /* \"#utility.yul\":15484:15498   */\n      lt\n        /* \"#utility.yul\":15476:15684   */\n      iszero\n      tag_430\n      jumpi\n        /* \"#utility.yul\":15569:15578   */\n      dup5\n        /* \"#utility.yul\":15564:15567   */\n      dup10\n        /* \"#utility.yul\":15560:15579   */\n      add\n        /* \"#utility.yul\":15554:15580   */\n      mload\n        /* \"#utility.yul\":15546:15552   */\n      dup3\n        /* \"#utility.yul\":15539:15581   */\n      sstore\n        /* \"#utility.yul\":15620:15621   */\n      0x01\n        /* \"#utility.yul\":15612:15618   */\n      dup3\n        /* \"#utility.yul\":15608:15622   */\n      add\n        /* \"#utility.yul\":15598:15622   */\n      swap2\n      pop\n        /* \"#utility.yul\":15667:15669   */\n      0x20\n        /* \"#utility.yul\":15656:15665   */\n      dup6\n        /* \"#utility.yul\":15652:15670   */\n      add\n        /* \"#utility.yul\":15639:15670   */\n      swap5\n      pop\n        /* \"#utility.yul\":15513:15517   */\n      0x20\n        /* \"#utility.yul\":15510:15511   */\n      dup2\n        /* \"#utility.yul\":15506:15518   */\n      add\n        /* \"#utility.yul\":15501:15518   */\n      swap1\n      pop\n        /* \"#utility.yul\":15476:15684   */\n      jump(tag_428)\n    tag_430:\n        /* \"#utility.yul\":15712:15718   */\n      dup7\n        /* \"#utility.yul\":15703:15710   */\n      dup4\n        /* \"#utility.yul\":15700:15719   */\n      lt\n        /* \"#utility.yul\":15697:15876   */\n      iszero\n      tag_431\n      jumpi\n        /* \"#utility.yul\":15770:15779   */\n      dup5\n        /* \"#utility.yul\":15765:15768   */\n      dup10\n        /* \"#utility.yul\":15761:15780   */\n      add\n        /* \"#utility.yul\":15755:15781   */\n      mload\n        /* \"#utility.yul\":15813:15861   */\n      tag_432\n        /* \"#utility.yul\":15855:15859   */\n      0x1f\n        /* \"#utility.yul\":15847:15853   */\n      dup10\n        /* \"#utility.yul\":15843:15860   */\n      and\n        /* \"#utility.yul\":15832:15841   */\n      dup3\n        /* \"#utility.yul\":15813:15861   */\n      tag_236\n      jump\t// in\n    tag_432:\n        /* \"#utility.yul\":15805:15811   */\n      dup4\n        /* \"#utility.yul\":15798:15862   */\n      sstore\n        /* \"#utility.yul\":15720:15876   */\n      pop\n        /* \"#utility.yul\":15697:15876   */\n    tag_431:\n        /* \"#utility.yul\":15922:15923   */\n      0x01\n        /* \"#utility.yul\":15918:15919   */\n      0x02\n        /* \"#utility.yul\":15910:15916   */\n      dup9\n        /* \"#utility.yul\":15906:15920   */\n      mul\n        /* \"#utility.yul\":15902:15924   */\n      add\n        /* \"#utility.yul\":15896:15900   */\n      dup9\n        /* \"#utility.yul\":15889:15925   */\n      sstore\n        /* \"#utility.yul\":15324:15935   */\n      pop\n      pop\n      pop\n        /* \"#utility.yul\":15287:16174   */\n    tag_423:\n      pop\n        /* \"#utility.yul\":14877:16180   */\n      pop\n      pop\n      pop\n        /* \"#utility.yul\":14785:16180   */\n      pop\n      pop\n      jump\t// out\n        /* \"#utility.yul\":16186:16499   */\n    tag_95:\n        /* \"#utility.yul\":16299:16303   */\n      0x00\n        /* \"#utility.yul\":16337:16339   */\n      0x20\n        /* \"#utility.yul\":16326:16335   */\n      dup3\n        /* \"#utility.yul\":16322:16340   */\n      add\n        /* \"#utility.yul\":16314:16340   */\n      swap1\n      pop\n        /* \"#utility.yul\":16386:16395   */\n      dup2\n        /* \"#utility.yul\":16380:16384   */\n      dup2\n        /* \"#utility.yul\":16376:16396   */\n      sub\n        /* \"#utility.yul\":16372:16373   */\n      0x00\n        /* \"#utility.yul\":16361:16370   */\n      dup4\n        /* \"#utility.yul\":16357:16374   */\n      add\n        /* \"#utility.yul\":16350:16397   */\n      mstore\n        /* \"#utility.yul\":16414:16492   */\n      tag_434\n        /* \"#utility.yul\":16487:16491   */\n      dup2\n        /* \"#utility.yul\":16478:16484   */\n      dup5\n        /* \"#utility.yul\":16414:16492   */\n      tag_214\n      jump\t// in\n    tag_434:\n        /* \"#utility.yul\":16406:16492   */\n      swap1\n      pop\n        /* \"#utility.yul\":16186:16499   */\n      swap3\n      swap2\n      pop\n      pop\n      jump\t// out\n        /* \"#utility.yul\":16505:16669   */\n    tag_238:\n        /* \"#utility.yul\":16645:16661   */\n      0x4e6f7420796f7572206f72646572000000000000000000000000000000000000\n        /* \"#utility.yul\":16641:16642   */\n      0x00\n        /* \"#utility.yul\":16633:16639   */\n      dup3\n        /* \"#utility.yul\":16629:16643   */\n      add\n        /* \"#utility.yul\":16622:16662   */\n      mstore\n        /* \"#utility.yul\":16505:16669   */\n      pop\n      jump\t// out\n        /* \"#utility.yul\":16675:17041   */\n    tag_239:\n        /* \"#utility.yul\":16817:16820   */\n      0x00\n        /* \"#utility.yul\":16838:16905   */\n      tag_437\n        /* \"#utility.yul\":16902:16904   */\n      0x0e\n        /* \"#utility.yul\":16897:16900   */\n      dup4\n        /* \"#utility.yul\":16838:16905   */\n      tag_212\n      jump\t// in\n    tag_437:\n        /* \"#utility.yul\":16831:16905   */\n      swap2\n      pop\n        /* \"#utility.yul\":16914:17007   */\n      tag_438\n        /* \"#utility.yul\":17003:17006   */\n      dup3\n        /* \"#utility.yul\":16914:17007   */\n      tag_238\n      jump\t// in\n    tag_438:\n        /* \"#utility.yul\":17032:17034   */\n      0x20\n        /* \"#utility.yul\":17027:17030   */\n      dup3\n        /* \"#utility.yul\":17023:17035   */\n      add\n        /* \"#utility.yul\":17016:17035   */\n      swap1\n      pop\n        /* \"#utility.yul\":16675:17041   */\n      swap2\n      swap1\n      pop\n      jump\t// out\n        /* \"#utility.yul\":17047:17466   */\n    tag_115:\n        /* \"#utility.yul\":17213:17217   */\n      0x00\n        /* \"#utility.yul\":17251:17253   */\n      0x20\n        /* \"#utility.yul\":17240:17249   */\n      dup3\n        /* \"#utility.yul\":17236:17254   */\n      add\n        /* \"#utility.yul\":17228:17254   */\n      swap1\n      pop\n        /* \"#utility.yul\":17300:17309   */\n      dup2\n        /* \"#utility.yul\":17294:17298   */\n      dup2\n        /* \"#utility.yul\":17290:17310   */\n      sub\n        /* \"#utility.yul\":17286:17287   */\n      0x00\n        /* \"#utility.yul\":17275:17284   */\n      dup4\n        /* \"#utility.yul\":17271:17288   */\n      add\n        /* \"#utility.yul\":17264:17311   */\n      mstore\n        /* \"#utility.yul\":17328:17459   */\n      tag_440\n        /* \"#utility.yul\":17454:17458   */\n      dup2\n        /* \"#utility.yul\":17328:17459   */\n      tag_239\n      jump\t// in\n    tag_440:\n        /* \"#utility.yul\":17320:17459   */\n      swap1\n      pop\n        /* \"#utility.yul\":17047:17466   */\n      swap2\n      swap1\n      pop\n      jump\t// out\n        /* \"#utility.yul\":17472:17637   */\n    tag_240:\n        /* \"#utility.yul\":17612:17629   */\n      0x4e6f742073686970706564207965740000000000000000000000000000000000\n        /* \"#utility.yul\":17608:17609   */\n      0x00\n        /* \"#utility.yul\":17600:17606   */\n      dup3\n        /* \"#utility.yul\":17596:17610   */\n      add\n        /* \"#utility.yul\":17589:17630   */\n      mstore\n        /* \"#utility.yul\":17472:17637   */\n      pop\n      jump\t// out\n        /* \"#utility.yul\":17643:18009   */\n    tag_241:\n        /* \"#utility.yul\":17785:17788   */\n      0x00\n        /* \"#utility.yul\":17806:17873   */\n      tag_443\n        /* \"#utility.yul\":17870:17872   */\n      0x0f\n        /* \"#utility.yul\":17865:17868   */\n      dup4\n        /* \"#utility.yul\":17806:17873   */\n      tag_212\n      jump\t// in\n    tag_443:\n        /* \"#utility.yul\":17799:17873   */\n      swap2\n      pop\n        /* \"#utility.yul\":17882:17975   */\n      tag_444\n        /* \"#utility.yul\":17971:17974   */\n      dup3\n        /* \"#utility.yul\":17882:17975   */\n      tag_240\n      jump\t// in\n    tag_444:\n        /* \"#utility.yul\":18000:18002   */\n      0x20\n        /* \"#utility.yul\":17995:17998   */\n      dup3\n        /* \"#utility.yul\":17991:18003   */\n      add\n        /* \"#utility.yul\":17984:18003   */\n      swap1\n      pop\n        /* \"#utility.yul\":17643:18009   */\n      swap2\n      swap1\n      pop\n      jump\t// out\n        /* \"#utility.yul\":18015:18434   */\n    tag_122:\n        /* \"#utility.yul\":18181:18185   */\n      0x00\n        /* \"#utility.yul\":18219:18221   */\n      0x20\n        /* \"#utility.yul\":18208:18217   */\n      dup3\n        /* \"#utility.yul\":18204:18222   */\n      add\n        /* \"#utility.yul\":18196:18222   */\n      swap1\n      pop\n        /* \"#utility.yul\":18268:18277   */\n      dup2\n        /* \"#utility.yul\":18262:18266   */\n      dup2\n        /* \"#utility.yul\":18258:18278   */\n      sub\n        /* \"#utility.yul\":18254:18255   */\n      0x00\n        /* \"#utility.yul\":18243:18252   */\n      dup4\n        /* \"#utility.yul\":18239:18256   */\n      add\n        /* \"#utility.yul\":18232:18279   */\n      mstore\n        /* \"#utility.yul\":18296:18427   */\n      tag_446\n        /* \"#utility.yul\":18422:18426   */\n      dup2\n        /* \"#utility.yul\":18296:18427   */\n      tag_241\n      jump\t// in\n    tag_446:\n        /* \"#utility.yul\":18288:18427   */\n      swap1\n      pop\n        /* \"#utility.yul\":18015:18434   */\n      swap2\n      swap1\n      pop\n      jump\t// out\n        /* \"#utility.yul\":18440:18602   */\n    tag_242:\n        /* \"#utility.yul\":18580:18594   */\n      0x437573746f6d657248616e640000000000000000000000000000000000000000\n        /* \"#utility.yul\":18576:18577   */\n      0x00\n        /* \"#utility.yul\":18568:18574   */\n      dup3\n        /* \"#utility.yul\":18564:18578   */\n      add\n        /* \"#utility.yul\":18557:18595   */\n      mstore\n        /* \"#utility.yul\":18440:18602   */\n      pop\n      jump\t// out\n        /* \"#utility.yul\":18608:18974   */\n    tag_243:\n        /* \"#utility.yul\":18750:18753   */\n      0x00\n        /* \"#utility.yul\":18771:18838   */\n      tag_449\n        /* \"#utility.yul\":18835:18837   */\n      0x0c\n        /* \"#utility.yul\":18830:18833   */\n      dup4\n        /* \"#utility.yul\":18771:18838   */\n      tag_212\n      jump\t// in\n    tag_449:\n        /* \"#utility.yul\":18764:18838   */\n      swap2\n      pop\n        /* \"#utility.yul\":18847:18940   */\n      tag_450\n        /* \"#utility.yul\":18936:18939   */\n      dup3\n        /* \"#utility.yul\":18847:18940   */\n      tag_242\n      jump\t// in\n    tag_450:\n        /* \"#utility.yul\":18965:18967   */\n      0x20\n        /* \"#utility.yul\":18960:18963   */\n      dup3\n        /* \"#utility.yul\":18956:18968   */\n      add\n        /* \"#utility.yul\":18949:18968   */\n      swap1\n      pop\n        /* \"#utility.yul\":18608:18974   */\n      swap2\n      swap1\n      pop\n      jump\t// out\n        /* \"#utility.yul\":18980:19523   */\n    tag_127:\n        /* \"#utility.yul\":19181:19185   */\n      0x00\n        /* \"#utility.yul\":19219:19221   */\n      0x40\n        /* \"#utility.yul\":19208:19217   */\n      dup3\n        /* \"#utility.yul\":19204:19222   */\n      add\n        /* \"#utility.yul\":19196:19222   */\n      swap1\n      pop\n        /* \"#utility.yul\":19232:19310   */\n      tag_452\n        /* \"#utility.yul\":19307:19308   */\n      0x00\n        /* \"#utility.yul\":19296:19305   */\n      dup4\n        /* \"#utility.yul\":19292:19309   */\n      add\n        /* \"#utility.yul\":19283:19289   */\n      dup5\n        /* \"#utility.yul\":19232:19310   */\n      tag_219\n      jump\t// in\n    tag_452:\n        /* \"#utility.yul\":19357:19366   */\n      dup2\n        /* \"#utility.yul\":19351:19355   */\n      dup2\n        /* \"#utility.yul\":19347:19367   */\n      sub\n        /* \"#utility.yul\":19342:19344   */\n      0x20\n        /* \"#utility.yul\":19331:19340   */\n      dup4\n        /* \"#utility.yul\":19327:19345   */\n      add\n        /* \"#utility.yul\":19320:19368   */\n      mstore\n        /* \"#utility.yul\":19385:19516   */\n      tag_453\n        /* \"#utility.yul\":19511:19515   */\n      dup2\n        /* \"#utility.yul\":19385:19516   */\n      tag_243\n      jump\t// in\n    tag_453:\n        /* \"#utility.yul\":19377:19516   */\n      swap1\n      pop\n        /* \"#utility.yul\":18980:19523   */\n      swap3\n      swap2\n      pop\n      pop\n      jump\t// out\n        /* \"#utility.yul\":19529:19703   */\n    tag_244:\n        /* \"#utility.yul\":19669:19695   */\n      0x496e76616c6964207374617465207472616e736974696f6e0000000000000000\n        /* \"#utility.yul\":19665:19666   */\n      0x00\n        /* \"#utility.yul\":19657:19663   */\n      dup3\n        /* \"#utility.yul\":19653:19667   */\n      add\n        /* \"#utility.yul\":19646:19696   */\n      mstore\n        /* \"#utility.yul\":19529:19703   */\n      pop\n      jump\t// out\n        /* \"#utility.yul\":19709:20075   */\n    tag_245:\n        /* \"#utility.yul\":19851:19854   */\n      0x00\n        /* \"#utility.yul\":19872:19939   */\n      tag_456\n        /* \"#utility.yul\":19936:19938   */\n      0x18\n        /* \"#utility.yul\":19931:19934   */\n      dup4\n        /* \"#utility.yul\":19872:19939   */\n      tag_212\n      jump\t// in\n    tag_456:\n        /* \"#utility.yul\":19865:19939   */\n      swap2\n      pop\n        /* \"#utility.yul\":19948:20041   */\n      tag_457\n        /* \"#utility.yul\":20037:20040   */\n      dup3\n        /* \"#utility.yul\":19948:20041   */\n      tag_244\n      jump\t// in\n    tag_457:\n        /* \"#utility.yul\":20066:20068   */\n      0x20\n        /* \"#utility.yul\":20061:20064   */\n      dup3\n        /* \"#utility.yul\":20057:20069   */\n      add\n        /* \"#utility.yul\":20050:20069   */\n      swap1\n      pop\n        /* \"#utility.yul\":19709:20075   */\n      swap2\n      swap1\n      pop\n      jump\t// out\n        /* \"#utility.yul\":20081:20500   */\n    tag_138:\n        /* \"#utility.yul\":20247:20251   */\n      0x00\n        /* \"#utility.yul\":20285:20287   */\n      0x20\n        /* \"#utility.yul\":20274:20283   */\n      dup3\n        /* \"#utility.yul\":20270:20288   */\n      add\n        /* \"#utility.yul\":20262:20288   */\n      swap1\n      pop\n        /* \"#utility.yul\":20334:20343   */\n      dup2\n        /* \"#utility.yul\":20328:20332   */\n      dup2\n        /* \"#utility.yul\":20324:20344   */\n      sub\n        /* \"#utility.yul\":20320:20321   */\n      0x00\n        /* \"#utility.yul\":20309:20318   */\n      dup4\n        /* \"#utility.yul\":20305:20322   */\n      add\n        /* \"#utility.yul\":20298:20345   */\n      mstore\n        /* \"#utility.yul\":20362:20493   */\n      tag_459\n        /* \"#utility.yul\":20488:20492   */\n      dup2\n        /* \"#utility.yul\":20362:20493   */\n      tag_245\n      jump\t// in\n    tag_459:\n        /* \"#utility.yul\":20354:20493   */\n      swap1\n      pop\n        /* \"#utility.yul\":20081:20500   */\n      swap2\n      swap1\n      pop\n      jump\t// out\n        /* \"#utility.yul\":20506:20943   */\n    tag_143:\n        /* \"#utility.yul\":20654:20658   */\n      0x00\n        /* \"#utility.yul\":20692:20694   */\n      0x40\n        /* \"#utility.yul\":20681:20690   */\n      dup3\n        /* \"#utility.yul\":20677:20695   */\n      add\n        /* \"#utility.yul\":20669:20695   */\n      swap1\n      pop\n        /* \"#utility.yul\":20705:20783   */\n      tag_461\n        /* \"#utility.yul\":20780:20781   */\n      0x00\n        /* \"#utility.yul\":20769:20778   */\n      dup4\n        /* \"#utility.yul\":20765:20782   */\n      add\n        /* \"#utility.yul\":20756:20762   */\n      dup6\n        /* \"#utility.yul\":20705:20783   */\n      tag_219\n      jump\t// in\n    tag_461:\n        /* \"#utility.yul\":20830:20839   */\n      dup2\n        /* \"#utility.yul\":20824:20828   */\n      dup2\n        /* \"#utility.yul\":20820:20840   */\n      sub\n        /* \"#utility.yul\":20815:20817   */\n      0x20\n        /* \"#utility.yul\":20804:20813   */\n      dup4\n        /* \"#utility.yul\":20800:20818   */\n      add\n        /* \"#utility.yul\":20793:20841   */\n      mstore\n        /* \"#utility.yul\":20858:20936   */\n      tag_462\n        /* \"#utility.yul\":20931:20935   */\n      dup2\n        /* \"#utility.yul\":20922:20928   */\n      dup5\n        /* \"#utility.yul\":20858:20936   */\n      tag_214\n      jump\t// in\n    tag_462:\n        /* \"#utility.yul\":20850:20936   */\n      swap1\n      pop\n        /* \"#utility.yul\":20506:20943   */\n      swap4\n      swap3\n      pop\n      pop\n      pop\n      jump\t// out\n        /* \"#utility.yul\":20949:21281   */\n    tag_180:\n        /* \"#utility.yul\":21070:21074   */\n      0x00\n        /* \"#utility.yul\":21108:21110   */\n      0x40\n        /* \"#utility.yul\":21097:21106   */\n      dup3\n        /* \"#utility.yul\":21093:21111   */\n      add\n        /* \"#utility.yul\":21085:21111   */\n      swap1\n      pop\n        /* \"#utility.yul\":21121:21192   */\n      tag_464\n        /* \"#utility.yul\":21189:21190   */\n      0x00\n        /* \"#utility.yul\":21178:21187   */\n      dup4\n        /* \"#utility.yul\":21174:21191   */\n      add\n        /* \"#utility.yul\":21165:21171   */\n      dup6\n        /* \"#utility.yul\":21121:21192   */\n      tag_215\n      jump\t// in\n    tag_464:\n        /* \"#utility.yul\":21202:21274   */\n      tag_465\n        /* \"#utility.yul\":21270:21272   */\n      0x20\n        /* \"#utility.yul\":21259:21268   */\n      dup4\n        /* \"#utility.yul\":21255:21273   */\n      add\n        /* \"#utility.yul\":21246:21252   */\n      dup5\n        /* \"#utility.yul\":21202:21274   */\n      tag_209\n      jump\t// in\n    tag_465:\n        /* \"#utility.yul\":20949:21281   */\n      swap4\n      swap3\n      pop\n      pop\n      pop\n      jump\t// out\n\n    auxdata: 0xa26469706673582212209c51ee4a6030873ea18cb6369f762bc39d4cca7d386a9de45fc58cf13c56ae2764736f6c634300081f0033\n}\n",
				"bytecode": {
					"linkReferences": {},
					"object": "608060405234801561000f575f5ffd5b506100225f5f1b3361002860201b60201c565b50610187565b5f610039838361011d60201b60201c565b6101135760015f5f8581526020019081526020015f205f015f8473ffffffffffffffffffffffffffffffffffffffff1673ffffffffffffffffffffffffffffffffffffffff1681526020019081526020015f205f6101000a81548160ff0219169083151502179055506100b061018060201b60201c565b73ffffffffffffffffffffffffffffffffffffffff168273ffffffffffffffffffffffffffffffffffffffff16847f2f8788117e7eff1d82e926ec794901d17c78024a50270940304540a733656f0d60405160405180910390a460019050610117565b5f90505b92915050565b5f5f5f8481526020019081526020015f205f015f8373ffffffffffffffffffffffffffffffffffffffff1673ffffffffffffffffffffffffffffffffffffffff1681526020019081526020015f205f9054906101000a900460ff16905092915050565b5f33905090565b6119f3806101945f395ff3fe608060405234801561000f575f5ffd5b50600436106100e8575f3560e01c806391d148541161008a578063a217fddf11610064578063a217fddf14610242578063a29508fc14610260578063a85c38ef1461027e578063d547741f146102b3576100e8565b806391d14854146101d857806392b8a6c8146102085780639d07a8e914610226576100e8565b8063248a9ca3116100c6578063248a9ca3146101545780632f2ff15d1461018457806336568abe146101a0578063843cba13146101bc576100e8565b806301ffc9a7146100ec5780630e540b3a1461011c5780632334ac7f14610138575b5f5ffd5b61010660048036038101906101019190610f5a565b6102cf565b6040516101139190610f9f565b60405180910390f35b61013660048036038101906101319190611127565b610348565b005b610152600480360381019061014d91906111db565b610556565b005b61016e6004803603810190610169919061124c565b6105d7565b60405161017b9190611286565b60405180910390f35b61019e6004803603810190610199919061129f565b6105f3565b005b6101ba60048036038101906101b5919061129f565b610615565b005b6101d660048036038101906101d191906112dd565b610690565b005b6101f260048036038101906101ed919061129f565b6108a2565b6040516101ff9190610f9f565b60405180910390f35b610210610905565b60405161021d9190611286565b60405180910390f35b610240600480360381019061023b9190611127565b610929565b005b61024a610a91565b6040516102579190611286565b60405180910390f35b610268610a97565b6040516102759190611286565b60405180910390f35b610298600480360381019061029391906112dd565b610abb565b6040516102aa969594939291906113f9565b60405180910390f35b6102cd60048036038101906102c8919061129f565b610c2b565b005b5f7f7965db0b000000000000000000000000000000000000000000000000000000007bffffffffffffffffffffffffffffffffffffffffffffffffffffffff1916827bffffffffffffffffffffffffffffffffffffffffffffffffffffffff19161480610341575061034082610c4d565b5b9050919050565b7ff4649f2a97b4905837fc846dcfefa3e2561c3a9744fc53688b4d0bcb33e49f9861037281610cb6565b5f60015f8581526020019081526020015f205f0154146103c7576040517f08c379a00000000000000000000000000000000000000000000000000000000081526004016103be906114b0565b60405180910390fd5b6040518060c001604052808481526020018381526020015f73ffffffffffffffffffffffffffffffffffffffff1681526020015f600281111561040d5761040c611386565b5b81526020016040518060400160405280600781526020017f466163746f72790000000000000000000000000000000000000000000000000081525081526020014281525060015f8581526020019081526020015f205f820151815f0155602082015181600101908161047f91906116cb565b506040820151816002015f6101000a81548173ffffffffffffffffffffffffffffffffffffffff021916908373ffffffffffffffffffffffffffffffffffffffff16021790555060608201518160020160146101000a81548160ff021916908360028111156104f1576104f0611386565b5b0217905550608082015181600301908161050b91906116cb565b5060a08201518160040155905050827fd685ea678ddf3f2385a2ec7f8e057a9467a5bce80e0db82f38b35b6d1cdf8f0083604051610549919061179a565b60405180910390a2505050565b7ff4649f2a97b4905837fc846dcfefa3e2561c3a9744fc53688b4d0bcb33e49f9861058081610cb6565b8160015f8581526020019081526020015f206002015f6101000a81548173ffffffffffffffffffffffffffffffffffffffff021916908373ffffffffffffffffffffffffffffffffffffffff160217905550505050565b5f5f5f8381526020019081526020015f20600101549050919050565b6105fc826105d7565b61060581610cb6565b61060f8383610cca565b50505050565b61061d610db3565b73ffffffffffffffffffffffffffffffffffffffff168173ffffffffffffffffffffffffffffffffffffffff1614610681576040517f6697b23200000000000000000000000000000000000000000000000000000000815260040160405180910390fd5b61068b8282610dba565b505050565b60015f8281526020019081526020015f206002015f9054906101000a900473ffffffffffffffffffffffffffffffffffffffff1673ffffffffffffffffffffffffffffffffffffffff163373ffffffffffffffffffffffffffffffffffffffff1614610731576040517f08c379a000000000000000000000000000000000000000000000000000000000815260040161072890611804565b60405180910390fd5b6001600281111561074557610744611386565b5b60015f8381526020019081526020015f2060020160149054906101000a900460ff16600281111561077957610778611386565b5b146107b9576040517f08c379a00000000000000000000000000000000000000000000000000000000081526004016107b09061186c565b60405180910390fd5b600260015f8381526020019081526020015f2060020160146101000a81548160ff021916908360028111156107f1576107f0611386565b5b02179055506040518060400160405280600c81526020017f437573746f6d657248616e64000000000000000000000000000000000000000081525060015f8381526020019081526020015f20600301908161084c91906116cb565b504260015f8381526020019081526020015f2060040181905550807fc5c93ed2fd64a070646b08af8189ccc62bc86626a2d2f627fca964d44156143c600260405161089791906118d4565b60405180910390a250565b5f5f5f8481526020019081526020015f205f015f8373ffffffffffffffffffffffffffffffffffffffff1673ffffffffffffffffffffffffffffffffffffffff1681526020019081526020015f205f9054906101000a900460ff16905092915050565b7f0e7e0884cdcf0694acfe2208565155e042d5974898173dda6479c6b825ec762e81565b7f0e7e0884cdcf0694acfe2208565155e042d5974898173dda6479c6b825ec762e61095381610cb6565b5f600281111561096657610965611386565b5b60015f8581526020019081526020015f2060020160149054906101000a900460ff16600281111561099a57610999611386565b5b146109da576040517f08c379a00000000000000000000000000000000000000000000000000000000081526004016109d19061194a565b60405180910390fd5b6001805f8581526020019081526020015f2060020160146101000a81548160ff02191690836002811115610a1157610a10611386565b5b02179055508160015f8581526020019081526020015f206003019081610a3791906116cb565b504260015f8581526020019081526020015f2060040181905550827fc5c93ed2fd64a070646b08af8189ccc62bc86626a2d2f627fca964d44156143c600184604051610a84929190611968565b60405180910390a2505050565b5f5f1b81565b7ff4649f2a97b4905837fc846dcfefa3e2561c3a9744fc53688b4d0bcb33e49f9881565b6001602052805f5260405f205f91509050805f015490806001018054610ae0906114fb565b80601f0160208091040260200160405190810160405280929190818152602001828054610b0c906114fb565b8015610b575780601f10610b2e57610100808354040283529160200191610b57565b820191905f5260205f20905b815481529060010190602001808311610b3a57829003601f168201915b505050505090806002015f9054906101000a900473ffffffffffffffffffffffffffffffffffffffff16908060020160149054906101000a900460ff1690806003018054610ba4906114fb565b80601f0160208091040260200160405190810160405280929190818152602001828054610bd0906114fb565b8015610c1b5780601f10610bf257610100808354040283529160200191610c1b565b820191905f5260205f20905b815481529060010190602001808311610bfe57829003601f168201915b5050505050908060040154905086565b610c34826105d7565b610c3d81610cb6565b610c478383610dba565b50505050565b5f7f01ffc9a7000000000000000000000000000000000000000000000000000000007bffffffffffffffffffffffffffffffffffffffffffffffffffffffff1916827bffffffffffffffffffffffffffffffffffffffffffffffffffffffff1916149050919050565b610cc781610cc2610db3565b610ea3565b50565b5f610cd583836108a2565b610da95760015f5f8581526020019081526020015f205f015f8473ffffffffffffffffffffffffffffffffffffffff1673ffffffffffffffffffffffffffffffffffffffff1681526020019081526020015f205f6101000a81548160ff021916908315150217905550610d46610db3565b73ffffffffffffffffffffffffffffffffffffffff168273ffffffffffffffffffffffffffffffffffffffff16847f2f8788117e7eff1d82e926ec794901d17c78024a50270940304540a733656f0d60405160405180910390a460019050610dad565b5f90505b92915050565b5f33905090565b5f610dc583836108a2565b15610e99575f5f5f8581526020019081526020015f205f015f8473ffffffffffffffffffffffffffffffffffffffff1673ffffffffffffffffffffffffffffffffffffffff1681526020019081526020015f205f6101000a81548160ff021916908315150217905550610e36610db3565b73ffffffffffffffffffffffffffffffffffffffff168273ffffffffffffffffffffffffffffffffffffffff16847ff6391f5c32d9c69d2a47ea670b442974b53935d1edc7fd64eb21e047a839171b60405160405180910390a460019050610e9d565b5f90505b92915050565b610ead82826108a2565b610ef05780826040517fe2517d3f000000000000000000000000000000000000000000000000000000008152600401610ee7929190611996565b60405180910390fd5b5050565b5f604051905090565b5f5ffd5b5f5ffd5b5f7fffffffff0000000000000000000000000000000000000000000000000000000082169050919050565b610f3981610f05565b8114610f43575f5ffd5b50565b5f81359050610f5481610f30565b92915050565b5f60208284031215610f6f57610f6e610efd565b5b5f610f7c84828501610f46565b91505092915050565b5f8115159050919050565b610f9981610f85565b82525050565b5f602082019050610fb25f830184610f90565b92915050565b5f819050919050565b610fca81610fb8565b8114610fd4575f5ffd5b50565b5f81359050610fe581610fc1565b92915050565b5f5ffd5b5f5ffd5b5f601f19601f8301169050919050565b7f4e487b71000000000000000000000000000000000000000000000000000000005f52604160045260245ffd5b61103982610ff3565b810181811067ffffffffffffffff8211171561105857611057611003565b5b80604052505050565b5f61106a610ef4565b90506110768282611030565b919050565b5f67ffffffffffffffff82111561109557611094611003565b5b61109e82610ff3565b9050602081019050919050565b828183375f83830152505050565b5f6110cb6110c68461107b565b611061565b9050828152602081018484840111156110e7576110e6610fef565b5b6110f28482856110ab565b509392505050565b5f82601f83011261110e5761110d610feb565b5b813561111e8482602086016110b9565b91505092915050565b5f5f6040838503121561113d5761113c610efd565b5b5f61114a85828601610fd7565b925050602083013567ffffffffffffffff81111561116b5761116a610f01565b5b611177858286016110fa565b9150509250929050565b5f73ffffffffffffffffffffffffffffffffffffffff82169050919050565b5f6111aa82611181565b9050919050565b6111ba816111a0565b81146111c4575f5ffd5b50565b5f813590506111d5816111b1565b92915050565b5f5f604083850312156111f1576111f0610efd565b5b5f6111fe85828601610fd7565b925050602061120f858286016111c7565b9150509250929050565b5f819050919050565b61122b81611219565b8114611235575f5ffd5b50565b5f8135905061124681611222565b92915050565b5f6020828403121561126157611260610efd565b5b5f61126e84828501611238565b91505092915050565b61128081611219565b82525050565b5f6020820190506112995f830184611277565b92915050565b5f5f604083850312156112b5576112b4610efd565b5b5f6112c285828601611238565b92505060206112d3858286016111c7565b9150509250929050565b5f602082840312156112f2576112f1610efd565b5b5f6112ff84828501610fd7565b91505092915050565b61131181610fb8565b82525050565b5f81519050919050565b5f82825260208201905092915050565b8281835e5f83830152505050565b5f61134982611317565b6113538185611321565b9350611363818560208601611331565b61136c81610ff3565b840191505092915050565b611380816111a0565b82525050565b7f4e487b71000000000000000000000000000000000000000000000000000000005f52602160045260245ffd5b600381106113c4576113c3611386565b5b50565b5f8190506113d4826113b3565b919050565b5f6113e3826113c7565b9050919050565b6113f3816113d9565b82525050565b5f60c08201905061140c5f830189611308565b818103602083015261141e818861133f565b905061142d6040830187611377565b61143a60608301866113ea565b818103608083015261144c818561133f565b905061145b60a0830184611308565b979650505050505050565b7f4f7264657220616c7265616479206578697374730000000000000000000000005f82015250565b5f61149a601483611321565b91506114a582611466565b602082019050919050565b5f6020820190508181035f8301526114c78161148e565b9050919050565b7f4e487b71000000000000000000000000000000000000000000000000000000005f52602260045260245ffd5b5f600282049050600182168061151257607f821691505b602082108103611525576115246114ce565b5b50919050565b5f819050815f5260205f209050919050565b5f6020601f8301049050919050565b5f82821b905092915050565b5f600883026115877fffffffffffffffffffffffffffffffffffffffffffffffffffffffffffffffff8261154c565b611591868361154c565b95508019841693508086168417925050509392505050565b5f819050919050565b5f6115cc6115c76115c284610fb8565b6115a9565b610fb8565b9050919050565b5f819050919050565b6115e5836115b2565b6115f96115f1826115d3565b848454611558565b825550505050565b5f5f905090565b611610611601565b61161b8184846115dc565b505050565b5b8181101561163e576116335f82611608565b600181019050611621565b5050565b601f821115611683576116548161152b565b61165d8461153d565b8101602085101561166c578190505b6116806116788561153d565b830182611620565b50505b505050565b5f82821c905092915050565b5f6116a35f1984600802611688565b1980831691505092915050565b5f6116bb8383611694565b9150826002028217905092915050565b6116d482611317565b67ffffffffffffffff8111156116ed576116ec611003565b5b6116f782546114fb565b611702828285611642565b5f60209050601f831160018114611733575f8415611721578287015190505b61172b85826116b0565b865550611792565b601f1984166117418661152b565b5f5b8281101561176857848901518255600182019150602085019450602081019050611743565b868310156117855784890151611781601f891682611694565b8355505b6001600288020188555050505b505050505050565b5f6020820190508181035f8301526117b2818461133f565b905092915050565b7f4e6f7420796f7572206f726465720000000000000000000000000000000000005f82015250565b5f6117ee600e83611321565b91506117f9826117ba565b602082019050919050565b5f6020820190508181035f83015261181b816117e2565b9050919050565b7f4e6f7420736869707065642079657400000000000000000000000000000000005f82015250565b5f611856600f83611321565b915061186182611822565b602082019050919050565b5f6020820190508181035f8301526118838161184a565b9050919050565b7f437573746f6d657248616e6400000000000000000000000000000000000000005f82015250565b5f6118be600c83611321565b91506118c98261188a565b602082019050919050565b5f6040820190506118e75f8301846113ea565b81810360208301526118f8816118b2565b905092915050565b7f496e76616c6964207374617465207472616e736974696f6e00000000000000005f82015250565b5f611934601883611321565b915061193f82611900565b602082019050919050565b5f6020820190508181035f83015261196181611928565b9050919050565b5f60408201905061197b5f8301856113ea565b818103602083015261198d818461133f565b90509392505050565b5f6040820190506119a95f830185611377565b6119b66020830184611277565b939250505056fea26469706673582212209c51ee4a6030873ea18cb6369f762bc39d4cca7d386a9de45fc58cf13c56ae2764736f6c634300081f0033",
					"opcodes": "PUSH1 0x80 PUSH1 0x40 MSTORE CALLVALUE DUP1 ISZERO PUSH2 0xF JUMPI PUSH0 PUSH0 REVERT JUMPDEST POP PUSH2 0x22 PUSH0 PUSH0 SHL CALLER PUSH2 0x28 PUSH1 0x20 SHL PUSH1 0x20 SHR JUMP JUMPDEST POP PUSH2 0x187 JUMP JUMPDEST PUSH0 PUSH2 0x39 DUP4 DUP4 PUSH2 0x11D PUSH1 0x20 SHL PUSH1 0x20 SHR JUMP JUMPDEST PUSH2 0x113 JUMPI PUSH1 0x1 PUSH0 PUSH0 DUP6 DUP2 MSTORE PUSH1 0x20 ADD SWAP1 DUP2 MSTORE PUSH1 0x20 ADD PUSH0 KECCAK256 PUSH0 ADD PUSH0 DUP5 PUSH20 0xFFFFFFFFFFFFFFFFFFFFFFFFFFFFFFFFFFFFFFFF AND PUSH20 0xFFFFFFFFFFFFFFFFFFFFFFFFFFFFFFFFFFFFFFFF AND DUP2 MSTORE PUSH1 0x20 ADD SWAP1 DUP2 MSTORE PUSH1 0x20 ADD PUSH0 KECCAK256 PUSH0 PUSH2 0x100 EXP DUP2 SLOAD DUP2 PUSH1 0xFF MUL NOT AND SWAP1 DUP4 ISZERO ISZERO MUL OR SWAP1 SSTORE POP PUSH2 0xB0 PUSH2 0x180 PUSH1 0x20 SHL PUSH1 0x20 SHR JUMP JUMPDEST PUSH20 0xFFFFFFFFFFFFFFFFFFFFFFFFFFFFFFFFFFFFFFFF AND DUP3 PUSH20 0xFFFFFFFFFFFFFFFFFFFFFFFFFFFFFFFFFFFFFFFF AND DUP5 PUSH32 0x2F8788117E7EFF1D82E926EC794901D17C78024A50270940304540A733656F0D PUSH1 0x40 MLOAD PUSH1 0x40 MLOAD DUP1 SWAP2 SUB SWAP1 LOG4 PUSH1 0x1 SWAP1 POP PUSH2 0x117 JUMP JUMPDEST PUSH0 SWAP1 POP JUMPDEST SWAP3 SWAP2 POP POP JUMP JUMPDEST PUSH0 PUSH0 PUSH0 DUP5 DUP2 MSTORE PUSH1 0x20 ADD SWAP1 DUP2 MSTORE PUSH1 0x20 ADD PUSH0 KECCAK256 PUSH0 ADD PUSH0 DUP4 PUSH20 0xFFFFFFFFFFFFFFFFFFFFFFFFFFFFFFFFFFFFFFFF AND PUSH20 0xFFFFFFFFFFFFFFFFFFFFFFFFFFFFFFFFFFFFFFFF AND DUP2 MSTORE PUSH1 0x20 ADD SWAP1 DUP2 MSTORE PUSH1 0x20 ADD PUSH0 KECCAK256 PUSH0 SWAP1 SLOAD SWAP1 PUSH2 0x100 EXP SWAP1 DIV PUSH1 0xFF AND SWAP1 POP SWAP3 SWAP2 POP POP JUMP JUMPDEST PUSH0 CALLER SWAP1 POP SWAP1 JUMP JUMPDEST PUSH2 0x19F3 DUP1 PUSH2 0x194 PUSH0 CODECOPY PUSH0 RETURN INVALID PUSH1 0x80 PUSH1 0x40 MSTORE CALLVALUE DUP1 ISZERO PUSH2 0xF JUMPI PUSH0 PUSH0 REVERT JUMPDEST POP PUSH1 0x4 CALLDATASIZE LT PUSH2 0xE8 JUMPI PUSH0 CALLDATALOAD PUSH1 0xE0 SHR DUP1 PUSH4 0x91D14854 GT PUSH2 0x8A JUMPI DUP1 PUSH4 0xA217FDDF GT PUSH2 0x64 JUMPI DUP1 PUSH4 0xA217FDDF EQ PUSH2 0x242 JUMPI DUP1 PUSH4 0xA29508FC EQ PUSH2 0x260 JUMPI DUP1 PUSH4 0xA85C38EF EQ PUSH2 0x27E JUMPI DUP1 PUSH4 0xD547741F EQ PUSH2 0x2B3 JUMPI PUSH2 0xE8 JUMP JUMPDEST DUP1 PUSH4 0x91D14854 EQ PUSH2 0x1D8 JUMPI DUP1 PUSH4 0x92B8A6C8 EQ PUSH2 0x208 JUMPI DUP1 PUSH4 0x9D07A8E9 EQ PUSH2 0x226 JUMPI PUSH2 0xE8 JUMP JUMPDEST DUP1 PUSH4 0x248A9CA3 GT PUSH2 0xC6 JUMPI DUP1 PUSH4 0x248A9CA3 EQ PUSH2 0x154 JUMPI DUP1 PUSH4 0x2F2FF15D EQ PUSH2 0x184 JUMPI DUP1 PUSH4 0x36568ABE EQ PUSH2 0x1A0 JUMPI DUP1 PUSH4 0x843CBA13 EQ PUSH2 0x1BC JUMPI PUSH2 0xE8 JUMP JUMPDEST DUP1 PUSH4 0x1FFC9A7 EQ PUSH2 0xEC JUMPI DUP1 PUSH4 0xE540B3A EQ PUSH2 0x11C JUMPI DUP1 PUSH4 0x2334AC7F EQ PUSH2 0x138 JUMPI JUMPDEST PUSH0 PUSH0 REVERT JUMPDEST PUSH2 0x106 PUSH1 0x4 DUP1 CALLDATASIZE SUB DUP2 ADD SWAP1 PUSH2 0x101 SWAP2 SWAP1 PUSH2 0xF5A JUMP JUMPDEST PUSH2 0x2CF JUMP JUMPDEST PUSH1 0x40 MLOAD PUSH2 0x113 SWAP2 SWAP1 PUSH2 0xF9F JUMP JUMPDEST PUSH1 0x40 MLOAD DUP1 SWAP2 SUB SWAP1 RETURN JUMPDEST PUSH2 0x136 PUSH1 0x4 DUP1 CALLDATASIZE SUB DUP2 ADD SWAP1 PUSH2 0x131 SWAP2 SWAP1 PUSH2 0x1127 JUMP JUMPDEST PUSH2 0x348 JUMP JUMPDEST STOP JUMPDEST PUSH2 0x152 PUSH1 0x4 DUP1 CALLDATASIZE SUB DUP2 ADD SWAP1 PUSH2 0x14D SWAP2 SWAP1 PUSH2 0x11DB JUMP JUMPDEST PUSH2 0x556 JUMP JUMPDEST STOP JUMPDEST PUSH2 0x16E PUSH1 0x4 DUP1 CALLDATASIZE SUB DUP2 ADD SWAP1 PUSH2 0x169 SWAP2 SWAP1 PUSH2 0x124C JUMP JUMPDEST PUSH2 0x5D7 JUMP JUMPDEST PUSH1 0x40 MLOAD PUSH2 0x17B SWAP2 SWAP1 PUSH2 0x1286 JUMP JUMPDEST PUSH1 0x40 MLOAD DUP1 SWAP2 SUB SWAP1 RETURN JUMPDEST PUSH2 0x19E PUSH1 0x4 DUP1 CALLDATASIZE SUB DUP2 ADD SWAP1 PUSH2 0x199 SWAP2 SWAP1 PUSH2 0x129F JUMP JUMPDEST PUSH2 0x5F3 JUMP JUMPDEST STOP JUMPDEST PUSH2 0x1BA PUSH1 0x4 DUP1 CALLDATASIZE SUB DUP2 ADD SWAP1 PUSH2 0x1B5 SWAP2 SWAP1 PUSH2 0x129F JUMP JUMPDEST PUSH2 0x615 JUMP JUMPDEST STOP JUMPDEST PUSH2 0x1D6 PUSH1 0x4 DUP1 CALLDATASIZE SUB DUP2 ADD SWAP1 PUSH2 0x1D1 SWAP2 SWAP1 PUSH2 0x12DD JUMP JUMPDEST PUSH2 0x690 JUMP JUMPDEST STOP JUMPDEST PUSH2 0x1F2 PUSH1 0x4 DUP1 CALLDATASIZE SUB DUP2 ADD SWAP1 PUSH2 0x1ED SWAP2 SWAP1 PUSH2 0x129F JUMP JUMPDEST PUSH2 0x8A2 JUMP JUMPDEST PUSH1 0x40 MLOAD PUSH2 0x1FF SWAP2 SWAP1 PUSH2 0xF9F JUMP JUMPDEST PUSH1 0x40 MLOAD DUP1 SWAP2 SUB SWAP1 RETURN JUMPDEST PUSH2 0x210 PUSH2 0x905 JUMP JUMPDEST PUSH1 0x40 MLOAD PUSH2 0x21D SWAP2 SWAP1 PUSH2 0x1286 JUMP JUMPDEST PUSH1 0x40 MLOAD DUP1 SWAP2 SUB SWAP1 RETURN JUMPDEST PUSH2 0x240 PUSH1 0x4 DUP1 CALLDATASIZE SUB DUP2 ADD SWAP1 PUSH2 0x23B SWAP2 SWAP1 PUSH2 0x1127 JUMP JUMPDEST PUSH2 0x929 JUMP JUMPDEST STOP JUMPDEST PUSH2 0x24A PUSH2 0xA91 JUMP JUMPDEST PUSH1 0x40 MLOAD PUSH2 0x257 SWAP2 SWAP1 PUSH2 0x1286 JUMP JUMPDEST PUSH1 0x40 MLOAD DUP1 SWAP2 SUB SWAP1 RETURN JUMPDEST PUSH2 0x268 PUSH2 0xA97 JUMP JUMPDEST PUSH1 0x40 MLOAD PUSH2 0x275 SWAP2 SWAP1 PUSH2 0x1286 JUMP JUMPDEST PUSH1 0x40 MLOAD DUP1 SWAP2 SUB SWAP1 RETURN JUMPDEST PUSH2 0x298 PUSH1 0x4 DUP1 CALLDATASIZE SUB DUP2 ADD SWAP1 PUSH2 0x293 SWAP2 SWAP1 PUSH2 0x12DD JUMP JUMPDEST PUSH2 0xABB JUMP JUMPDEST PUSH1 0x40 MLOAD PUSH2 0x2AA SWAP7 SWAP6 SWAP5 SWAP4 SWAP3 SWAP2 SWAP1 PUSH2 0x13F9 JUMP JUMPDEST PUSH1 0x40 MLOAD DUP1 SWAP2 SUB SWAP1 RETURN JUMPDEST PUSH2 0x2CD PUSH1 0x4 DUP1 CALLDATASIZE SUB DUP2 ADD SWAP1 PUSH2 0x2C8 SWAP2 SWAP1 PUSH2 0x129F JUMP JUMPDEST PUSH2 0xC2B JUMP JUMPDEST STOP JUMPDEST PUSH0 PUSH32 0x7965DB0B00000000000000000000000000000000000000000000000000000000 PUSH28 0xFFFFFFFFFFFFFFFFFFFFFFFFFFFFFFFFFFFFFFFFFFFFFFFFFFFFFFFF NOT AND DUP3 PUSH28 0xFFFFFFFFFFFFFFFFFFFFFFFFFFFFFFFFFFFFFFFFFFFFFFFFFFFFFFFF NOT AND EQ DUP1 PUSH2 0x341 JUMPI POP PUSH2 0x340 DUP3 PUSH2 0xC4D JUMP JUMPDEST JUMPDEST SWAP1 POP SWAP2 SWAP1 POP JUMP JUMPDEST PUSH32 0xF4649F2A97B4905837FC846DCFEFA3E2561C3A9744FC53688B4D0BCB33E49F98 PUSH2 0x372 DUP2 PUSH2 0xCB6 JUMP JUMPDEST PUSH0 PUSH1 0x1 PUSH0 DUP6 DUP2 MSTORE PUSH1 0x20 ADD SWAP1 DUP2 MSTORE PUSH1 0x20 ADD PUSH0 KECCAK256 PUSH0 ADD SLOAD EQ PUSH2 0x3C7 JUMPI PUSH1 0x40 MLOAD PUSH32 0x8C379A000000000000000000000000000000000000000000000000000000000 DUP2 MSTORE PUSH1 0x4 ADD PUSH2 0x3BE SWAP1 PUSH2 0x14B0 JUMP JUMPDEST PUSH1 0x40 MLOAD DUP1 SWAP2 SUB SWAP1 REVERT JUMPDEST PUSH1 0x40 MLOAD DUP1 PUSH1 0xC0 ADD PUSH1 0x40 MSTORE DUP1 DUP5 DUP2 MSTORE PUSH1 0x20 ADD DUP4 DUP2 MSTORE PUSH1 0x20 ADD PUSH0 PUSH20 0xFFFFFFFFFFFFFFFFFFFFFFFFFFFFFFFFFFFFFFFF AND DUP2 MSTORE PUSH1 0x20 ADD PUSH0 PUSH1 0x2 DUP2 GT ISZERO PUSH2 0x40D JUMPI PUSH2 0x40C PUSH2 0x1386 JUMP JUMPDEST JUMPDEST DUP2 MSTORE PUSH1 0x20 ADD PUSH1 0x40 MLOAD DUP1 PUSH1 0x40 ADD PUSH1 0x40 MSTORE DUP1 PUSH1 0x7 DUP2 MSTORE PUSH1 0x20 ADD PUSH32 0x466163746F727900000000000000000000000000000000000000000000000000 DUP2 MSTORE POP DUP2 MSTORE PUSH1 0x20 ADD TIMESTAMP DUP2 MSTORE POP PUSH1 0x1 PUSH0 DUP6 DUP2 MSTORE PUSH1 0x20 ADD SWAP1 DUP2 MSTORE PUSH1 0x20 ADD PUSH0 KECCAK256 PUSH0 DUP3 ADD MLOAD DUP2 PUSH0 ADD SSTORE PUSH1 0x20 DUP3 ADD MLOAD DUP2 PUSH1 0x1 ADD SWAP1 DUP2 PUSH2 0x47F SWAP2 SWAP1 PUSH2 0x16CB JUMP JUMPDEST POP PUSH1 0x40 DUP3 ADD MLOAD DUP2 PUSH1 0x2 ADD PUSH0 PUSH2 0x100 EXP DUP2 SLOAD DUP2 PUSH20 0xFFFFFFFFFFFFFFFFFFFFFFFFFFFFFFFFFFFFFFFF MUL NOT AND SWAP1 DUP4 PUSH20 0xFFFFFFFFFFFFFFFFFFFFFFFFFFFFFFFFFFFFFFFF AND MUL OR SWAP1 SSTORE POP PUSH1 0x60 DUP3 ADD MLOAD DUP2 PUSH1 0x2 ADD PUSH1 0x14 PUSH2 0x100 EXP DUP2 SLOAD DUP2 PUSH1 0xFF MUL NOT AND SWAP1 DUP4 PUSH1 0x2 DUP2 GT ISZERO PUSH2 0x4F1 JUMPI PUSH2 0x4F0 PUSH2 0x1386 JUMP JUMPDEST JUMPDEST MUL OR SWAP1 SSTORE POP PUSH1 0x80 DUP3 ADD MLOAD DUP2 PUSH1 0x3 ADD SWAP1 DUP2 PUSH2 0x50B SWAP2 SWAP1 PUSH2 0x16CB JUMP JUMPDEST POP PUSH1 0xA0 DUP3 ADD MLOAD DUP2 PUSH1 0x4 ADD SSTORE SWAP1 POP POP DUP3 PUSH32 0xD685EA678DDF3F2385A2EC7F8E057A9467A5BCE80E0DB82F38B35B6D1CDF8F00 DUP4 PUSH1 0x40 MLOAD PUSH2 0x549 SWAP2 SWAP1 PUSH2 0x179A JUMP JUMPDEST PUSH1 0x40 MLOAD DUP1 SWAP2 SUB SWAP1 LOG2 POP POP POP JUMP JUMPDEST PUSH32 0xF4649F2A97B4905837FC846DCFEFA3E2561C3A9744FC53688B4D0BCB33E49F98 PUSH2 0x580 DUP2 PUSH2 0xCB6 JUMP JUMPDEST DUP2 PUSH1 0x1 PUSH0 DUP6 DUP2 MSTORE PUSH1 0x20 ADD SWAP1 DUP2 MSTORE PUSH1 0x20 ADD PUSH0 KECCAK256 PUSH1 0x2 ADD PUSH0 PUSH2 0x100 EXP DUP2 SLOAD DUP2 PUSH20 0xFFFFFFFFFFFFFFFFFFFFFFFFFFFFFFFFFFFFFFFF MUL NOT AND SWAP1 DUP4 PUSH20 0xFFFFFFFFFFFFFFFFFFFFFFFFFFFFFFFFFFFFFFFF AND MUL OR SWAP1 SSTORE POP POP POP POP JUMP JUMPDEST PUSH0 PUSH0 PUSH0 DUP4 DUP2 MSTORE PUSH1 0x20 ADD SWAP1 DUP2 MSTORE PUSH1 0x20 ADD PUSH0 KECCAK256 PUSH1 0x1 ADD SLOAD SWAP1 POP SWAP2 SWAP1 POP JUMP JUMPDEST PUSH2 0x5FC DUP3 PUSH2 0x5D7 JUMP JUMPDEST PUSH2 0x605 DUP2 PUSH2 0xCB6 JUMP JUMPDEST PUSH2 0x60F DUP4 DUP4 PUSH2 0xCCA JUMP JUMPDEST POP POP POP POP JUMP JUMPDEST PUSH2 0x61D PUSH2 0xDB3 JUMP JUMPDEST PUSH20 0xFFFFFFFFFFFFFFFFFFFFFFFFFFFFFFFFFFFFFFFF AND DUP2 PUSH20 0xFFFFFFFFFFFFFFFFFFFFFFFFFFFFFFFFFFFFFFFF AND EQ PUSH2 0x681 JUMPI PUSH1 0x40 MLOAD PUSH32 0x6697B23200000000000000000000000000000000000000000000000000000000 DUP2 MSTORE PUSH1 0x4 ADD PUSH1 0x40 MLOAD DUP1 SWAP2 SUB SWAP1 REVERT JUMPDEST PUSH2 0x68B DUP3 DUP3 PUSH2 0xDBA JUMP JUMPDEST POP POP POP JUMP JUMPDEST PUSH1 0x1 PUSH0 DUP3 DUP2 MSTORE PUSH1 0x20 ADD SWAP1 DUP2 MSTORE PUSH1 0x20 ADD PUSH0 KECCAK256 PUSH1 0x2 ADD PUSH0 SWAP1 SLOAD SWAP1 PUSH2 0x100 EXP SWAP1 DIV PUSH20 0xFFFFFFFFFFFFFFFFFFFFFFFFFFFFFFFFFFFFFFFF AND PUSH20 0xFFFFFFFFFFFFFFFFFFFFFFFFFFFFFFFFFFFFFFFF AND CALLER PUSH20 0xFFFFFFFFFFFFFFFFFFFFFFFFFFFFFFFFFFFFFFFF AND EQ PUSH2 0x731 JUMPI PUSH1 0x40 MLOAD PUSH32 0x8C379A000000000000000000000000000000000000000000000000000000000 DUP2 MSTORE PUSH1 0x4 ADD PUSH2 0x728 SWAP1 PUSH2 0x1804 JUMP JUMPDEST PUSH1 0x40 MLOAD DUP1 SWAP2 SUB SWAP1 REVERT JUMPDEST PUSH1 0x1 PUSH1 0x2 DUP2 GT ISZERO PUSH2 0x745 JUMPI PUSH2 0x744 PUSH2 0x1386 JUMP JUMPDEST JUMPDEST PUSH1 0x1 PUSH0 DUP4 DUP2 MSTORE PUSH1 0x20 ADD SWAP1 DUP2 MSTORE PUSH1 0x20 ADD PUSH0 KECCAK256 PUSH1 0x2 ADD PUSH1 0x14 SWAP1 SLOAD SWAP1 PUSH2 0x100 EXP SWAP1 DIV PUSH1 0xFF AND PUSH1 0x2 DUP2 GT ISZERO PUSH2 0x779 JUMPI PUSH2 0x778 PUSH2 0x1386 JUMP JUMPDEST JUMPDEST EQ PUSH2 0x7B9 JUMPI PUSH1 0x40 MLOAD PUSH32 0x8C379A000000000000000000000000000000000000000000000000000000000 DUP2 MSTORE PUSH1 0x4 ADD PUSH2 0x7B0 SWAP1 PUSH2 0x186C JUMP JUMPDEST PUSH1 0x40 MLOAD DUP1 SWAP2 SUB SWAP1 REVERT JUMPDEST PUSH1 0x2 PUSH1 0x1 PUSH0 DUP4 DUP2 MSTORE PUSH1 0x20 ADD SWAP1 DUP2 MSTORE PUSH1 0x20 ADD PUSH0 KECCAK256 PUSH1 0x2 ADD PUSH1 0x14 PUSH2 0x100 EXP DUP2 SLOAD DUP2 PUSH1 0xFF MUL NOT AND SWAP1 DUP4 PUSH1 0x2 DUP2 GT ISZERO PUSH2 0x7F1 JUMPI PUSH2 0x7F0 PUSH2 0x1386 JUMP JUMPDEST JUMPDEST MUL OR SWAP1 SSTORE POP PUSH1 0x40 MLOAD DUP1 PUSH1 0x40 ADD PUSH1 0x40 MSTORE DUP1 PUSH1 0xC DUP2 MSTORE PUSH1 0x20 ADD PUSH32 0x437573746F6D657248616E640000000000000000000000000000000000000000 DUP2 MSTORE POP PUSH1 0x1 PUSH0 DUP4 DUP2 MSTORE PUSH1 0x20 ADD SWAP1 DUP2 MSTORE PUSH1 0x20 ADD PUSH0 KECCAK256 PUSH1 0x3 ADD SWAP1 DUP2 PUSH2 0x84C SWAP2 SWAP1 PUSH2 0x16CB JUMP JUMPDEST POP TIMESTAMP PUSH1 0x1 PUSH0 DUP4 DUP2 MSTORE PUSH1 0x20 ADD SWAP1 DUP2 MSTORE PUSH1 0x20 ADD PUSH0 KECCAK256 PUSH1 0x4 ADD DUP2 SWAP1 SSTORE POP DUP1 PUSH32 0xC5C93ED2FD64A070646B08AF8189CCC62BC86626A2D2F627FCA964D44156143C PUSH1 0x2 PUSH1 0x40 MLOAD PUSH2 0x897 SWAP2 SWAP1 PUSH2 0x18D4 JUMP JUMPDEST PUSH1 0x40 MLOAD DUP1 SWAP2 SUB SWAP1 LOG2 POP JUMP JUMPDEST PUSH0 PUSH0 PUSH0 DUP5 DUP2 MSTORE PUSH1 0x20 ADD SWAP1 DUP2 MSTORE PUSH1 0x20 ADD PUSH0 KECCAK256 PUSH0 ADD PUSH0 DUP4 PUSH20 0xFFFFFFFFFFFFFFFFFFFFFFFFFFFFFFFFFFFFFFFF AND PUSH20 0xFFFFFFFFFFFFFFFFFFFFFFFFFFFFFFFFFFFFFFFF AND DUP2 MSTORE PUSH1 0x20 ADD SWAP1 DUP2 MSTORE PUSH1 0x20 ADD PUSH0 KECCAK256 PUSH0 SWAP1 SLOAD SWAP1 PUSH2 0x100 EXP SWAP1 DIV PUSH1 0xFF AND SWAP1 POP SWAP3 SWAP2 POP POP JUMP JUMPDEST PUSH32 0xE7E0884CDCF0694ACFE2208565155E042D5974898173DDA6479C6B825EC762E DUP2 JUMP JUMPDEST PUSH32 0xE7E0884CDCF0694ACFE2208565155E042D5974898173DDA6479C6B825EC762E PUSH2 0x953 DUP2 PUSH2 0xCB6 JUMP JUMPDEST PUSH0 PUSH1 0x2 DUP2 GT ISZERO PUSH2 0x966 JUMPI PUSH2 0x965 PUSH2 0x1386 JUMP JUMPDEST JUMPDEST PUSH1 0x1 PUSH0 DUP6 DUP2 MSTORE PUSH1 0x20 ADD SWAP1 DUP2 MSTORE PUSH1 0x20 ADD PUSH0 KECCAK256 PUSH1 0x2 ADD PUSH1 0x14 SWAP1 SLOAD SWAP1 PUSH2 0x100 EXP SWAP1 DIV PUSH1 0xFF AND PUSH1 0x2 DUP2 GT ISZERO PUSH2 0x99A JUMPI PUSH2 0x999 PUSH2 0x1386 JUMP JUMPDEST JUMPDEST EQ PUSH2 0x9DA JUMPI PUSH1 0x40 MLOAD PUSH32 0x8C379A000000000000000000000000000000000000000000000000000000000 DUP2 MSTORE PUSH1 0x4 ADD PUSH2 0x9D1 SWAP1 PUSH2 0x194A JUMP JUMPDEST PUSH1 0x40 MLOAD DUP1 SWAP2 SUB SWAP1 REVERT JUMPDEST PUSH1 0x1 DUP1 PUSH0 DUP6 DUP2 MSTORE PUSH1 0x20 ADD SWAP1 DUP2 MSTORE PUSH1 0x20 ADD PUSH0 KECCAK256 PUSH1 0x2 ADD PUSH1 0x14 PUSH2 0x100 EXP DUP2 SLOAD DUP2 PUSH1 0xFF MUL NOT AND SWAP1 DUP4 PUSH1 0x2 DUP2 GT ISZERO PUSH2 0xA11 JUMPI PUSH2 0xA10 PUSH2 0x1386 JUMP JUMPDEST JUMPDEST MUL OR SWAP1 SSTORE POP DUP2 PUSH1 0x1 PUSH0 DUP6 DUP2 MSTORE PUSH1 0x20 ADD SWAP1 DUP2 MSTORE PUSH1 0x20 ADD PUSH0 KECCAK256 PUSH1 0x3 ADD SWAP1 DUP2 PUSH2 0xA37 SWAP2 SWAP1 PUSH2 0x16CB JUMP JUMPDEST POP TIMESTAMP PUSH1 0x1 PUSH0 DUP6 DUP2 MSTORE PUSH1 0x20 ADD SWAP1 DUP2 MSTORE PUSH1 0x20 ADD PUSH0 KECCAK256 PUSH1 0x4 ADD DUP2 SWAP1 SSTORE POP DUP3 PUSH32 0xC5C93ED2FD64A070646B08AF8189CCC62BC86626A2D2F627FCA964D44156143C PUSH1 0x1 DUP5 PUSH1 0x40 MLOAD PUSH2 0xA84 SWAP3 SWAP2 SWAP1 PUSH2 0x1968 JUMP JUMPDEST PUSH1 0x40 MLOAD DUP1 SWAP2 SUB SWAP1 LOG2 POP POP POP JUMP JUMPDEST PUSH0 PUSH0 SHL DUP2 JUMP JUMPDEST PUSH32 0xF4649F2A97B4905837FC846DCFEFA3E2561C3A9744FC53688B4D0BCB33E49F98 DUP2 JUMP JUMPDEST PUSH1 0x1 PUSH1 0x20 MSTORE DUP1 PUSH0 MSTORE PUSH1 0x40 PUSH0 KECCAK256 PUSH0 SWAP2 POP SWAP1 POP DUP1 PUSH0 ADD SLOAD SWAP1 DUP1 PUSH1 0x1 ADD DUP1 SLOAD PUSH2 0xAE0 SWAP1 PUSH2 0x14FB JUMP JUMPDEST DUP1 PUSH1 0x1F ADD PUSH1 0x20 DUP1 SWAP2 DIV MUL PUSH1 0x20 ADD PUSH1 0x40 MLOAD SWAP1 DUP2 ADD PUSH1 0x40 MSTORE DUP1 SWAP3 SWAP2 SWAP1 DUP2 DUP2 MSTORE PUSH1 0x20 ADD DUP3 DUP1 SLOAD PUSH2 0xB0C SWAP1 PUSH2 0x14FB JUMP JUMPDEST DUP1 ISZERO PUSH2 0xB57 JUMPI DUP1 PUSH1 0x1F LT PUSH2 0xB2E JUMPI PUSH2 0x100 DUP1 DUP4 SLOAD DIV MUL DUP4 MSTORE SWAP2 PUSH1 0x20 ADD SWAP2 PUSH2 0xB57 JUMP JUMPDEST DUP3 ADD SWAP2 SWAP1 PUSH0 MSTORE PUSH1 0x20 PUSH0 KECCAK256 SWAP1 JUMPDEST DUP2 SLOAD DUP2 MSTORE SWAP1 PUSH1 0x1 ADD SWAP1 PUSH1 0x20 ADD DUP1 DUP4 GT PUSH2 0xB3A JUMPI DUP3 SWAP1 SUB PUSH1 0x1F AND DUP3 ADD SWAP2 JUMPDEST POP POP POP POP POP SWAP1 DUP1 PUSH1 0x2 ADD PUSH0 SWAP1 SLOAD SWAP1 PUSH2 0x100 EXP SWAP1 DIV PUSH20 0xFFFFFFFFFFFFFFFFFFFFFFFFFFFFFFFFFFFFFFFF AND SWAP1 DUP1 PUSH1 0x2 ADD PUSH1 0x14 SWAP1 SLOAD SWAP1 PUSH2 0x100 EXP SWAP1 DIV PUSH1 0xFF AND SWAP1 DUP1 PUSH1 0x3 ADD DUP1 SLOAD PUSH2 0xBA4 SWAP1 PUSH2 0x14FB JUMP JUMPDEST DUP1 PUSH1 0x1F ADD PUSH1 0x20 DUP1 SWAP2 DIV MUL PUSH1 0x20 ADD PUSH1 0x40 MLOAD SWAP1 DUP2 ADD PUSH1 0x40 MSTORE DUP1 SWAP3 SWAP2 SWAP1 DUP2 DUP2 MSTORE PUSH1 0x20 ADD DUP3 DUP1 SLOAD PUSH2 0xBD0 SWAP1 PUSH2 0x14FB JUMP JUMPDEST DUP1 ISZERO PUSH2 0xC1B JUMPI DUP1 PUSH1 0x1F LT PUSH2 0xBF2 JUMPI PUSH2 0x100 DUP1 DUP4 SLOAD DIV MUL DUP4 MSTORE SWAP2 PUSH1 0x20 ADD SWAP2 PUSH2 0xC1B JUMP JUMPDEST DUP3 ADD SWAP2 SWAP1 PUSH0 MSTORE PUSH1 0x20 PUSH0 KECCAK256 SWAP1 JUMPDEST DUP2 SLOAD DUP2 MSTORE SWAP1 PUSH1 0x1 ADD SWAP1 PUSH1 0x20 ADD DUP1 DUP4 GT PUSH2 0xBFE JUMPI DUP3 SWAP1 SUB PUSH1 0x1F AND DUP3 ADD SWAP2 JUMPDEST POP POP POP POP POP SWAP1 DUP1 PUSH1 0x4 ADD SLOAD SWAP1 POP DUP7 JUMP JUMPDEST PUSH2 0xC34 DUP3 PUSH2 0x5D7 JUMP JUMPDEST PUSH2 0xC3D DUP2 PUSH2 0xCB6 JUMP JUMPDEST PUSH2 0xC47 DUP4 DUP4 PUSH2 0xDBA JUMP JUMPDEST POP POP POP POP JUMP JUMPDEST PUSH0 PUSH32 0x1FFC9A700000000000000000000000000000000000000000000000000000000 PUSH28 0xFFFFFFFFFFFFFFFFFFFFFFFFFFFFFFFFFFFFFFFFFFFFFFFFFFFFFFFF NOT AND DUP3 PUSH28 0xFFFFFFFFFFFFFFFFFFFFFFFFFFFFFFFFFFFFFFFFFFFFFFFFFFFFFFFF NOT AND EQ SWAP1 POP SWAP2 SWAP1 POP JUMP JUMPDEST PUSH2 0xCC7 DUP2 PUSH2 0xCC2 PUSH2 0xDB3 JUMP JUMPDEST PUSH2 0xEA3 JUMP JUMPDEST POP JUMP JUMPDEST PUSH0 PUSH2 0xCD5 DUP4 DUP4 PUSH2 0x8A2 JUMP JUMPDEST PUSH2 0xDA9 JUMPI PUSH1 0x1 PUSH0 PUSH0 DUP6 DUP2 MSTORE PUSH1 0x20 ADD SWAP1 DUP2 MSTORE PUSH1 0x20 ADD PUSH0 KECCAK256 PUSH0 ADD PUSH0 DUP5 PUSH20 0xFFFFFFFFFFFFFFFFFFFFFFFFFFFFFFFFFFFFFFFF AND PUSH20 0xFFFFFFFFFFFFFFFFFFFFFFFFFFFFFFFFFFFFFFFF AND DUP2 MSTORE PUSH1 0x20 ADD SWAP1 DUP2 MSTORE PUSH1 0x20 ADD PUSH0 KECCAK256 PUSH0 PUSH2 0x100 EXP DUP2 SLOAD DUP2 PUSH1 0xFF MUL NOT AND SWAP1 DUP4 ISZERO ISZERO MUL OR SWAP1 SSTORE POP PUSH2 0xD46 PUSH2 0xDB3 JUMP JUMPDEST PUSH20 0xFFFFFFFFFFFFFFFFFFFFFFFFFFFFFFFFFFFFFFFF AND DUP3 PUSH20 0xFFFFFFFFFFFFFFFFFFFFFFFFFFFFFFFFFFFFFFFF AND DUP5 PUSH32 0x2F8788117E7EFF1D82E926EC794901D17C78024A50270940304540A733656F0D PUSH1 0x40 MLOAD PUSH1 0x40 MLOAD DUP1 SWAP2 SUB SWAP1 LOG4 PUSH1 0x1 SWAP1 POP PUSH2 0xDAD JUMP JUMPDEST PUSH0 SWAP1 POP JUMPDEST SWAP3 SWAP2 POP POP JUMP JUMPDEST PUSH0 CALLER SWAP1 POP SWAP1 JUMP JUMPDEST PUSH0 PUSH2 0xDC5 DUP4 DUP4 PUSH2 0x8A2 JUMP JUMPDEST ISZERO PUSH2 0xE99 JUMPI PUSH0 PUSH0 PUSH0 DUP6 DUP2 MSTORE PUSH1 0x20 ADD SWAP1 DUP2 MSTORE PUSH1 0x20 ADD PUSH0 KECCAK256 PUSH0 ADD PUSH0 DUP5 PUSH20 0xFFFFFFFFFFFFFFFFFFFFFFFFFFFFFFFFFFFFFFFF AND PUSH20 0xFFFFFFFFFFFFFFFFFFFFFFFFFFFFFFFFFFFFFFFF AND DUP2 MSTORE PUSH1 0x20 ADD SWAP1 DUP2 MSTORE PUSH1 0x20 ADD PUSH0 KECCAK256 PUSH0 PUSH2 0x100 EXP DUP2 SLOAD DUP2 PUSH1 0xFF MUL NOT AND SWAP1 DUP4 ISZERO ISZERO MUL OR SWAP1 SSTORE POP PUSH2 0xE36 PUSH2 0xDB3 JUMP JUMPDEST PUSH20 0xFFFFFFFFFFFFFFFFFFFFFFFFFFFFFFFFFFFFFFFF AND DUP3 PUSH20 0xFFFFFFFFFFFFFFFFFFFFFFFFFFFFFFFFFFFFFFFF AND DUP5 PUSH32 0xF6391F5C32D9C69D2A47EA670B442974B53935D1EDC7FD64EB21E047A839171B PUSH1 0x40 MLOAD PUSH1 0x40 MLOAD DUP1 SWAP2 SUB SWAP1 LOG4 PUSH1 0x1 SWAP1 POP PUSH2 0xE9D JUMP JUMPDEST PUSH0 SWAP1 POP JUMPDEST SWAP3 SWAP2 POP POP JUMP JUMPDEST PUSH2 0xEAD DUP3 DUP3 PUSH2 0x8A2 JUMP JUMPDEST PUSH2 0xEF0 JUMPI DUP1 DUP3 PUSH1 0x40 MLOAD PUSH32 0xE2517D3F00000000000000000000000000000000000000000000000000000000 DUP2 MSTORE PUSH1 0x4 ADD PUSH2 0xEE7 SWAP3 SWAP2 SWAP1 PUSH2 0x1996 JUMP JUMPDEST PUSH1 0x40 MLOAD DUP1 SWAP2 SUB SWAP1 REVERT JUMPDEST POP POP JUMP JUMPDEST PUSH0 PUSH1 0x40 MLOAD SWAP1 POP SWAP1 JUMP JUMPDEST PUSH0 PUSH0 REVERT JUMPDEST PUSH0 PUSH0 REVERT JUMPDEST PUSH0 PUSH32 0xFFFFFFFF00000000000000000000000000000000000000000000000000000000 DUP3 AND SWAP1 POP SWAP2 SWAP1 POP JUMP JUMPDEST PUSH2 0xF39 DUP2 PUSH2 0xF05 JUMP JUMPDEST DUP2 EQ PUSH2 0xF43 JUMPI PUSH0 PUSH0 REVERT JUMPDEST POP JUMP JUMPDEST PUSH0 DUP2 CALLDATALOAD SWAP1 POP PUSH2 0xF54 DUP2 PUSH2 0xF30 JUMP JUMPDEST SWAP3 SWAP2 POP POP JUMP JUMPDEST PUSH0 PUSH1 0x20 DUP3 DUP5 SUB SLT ISZERO PUSH2 0xF6F JUMPI PUSH2 0xF6E PUSH2 0xEFD JUMP JUMPDEST JUMPDEST PUSH0 PUSH2 0xF7C DUP5 DUP3 DUP6 ADD PUSH2 0xF46 JUMP JUMPDEST SWAP2 POP POP SWAP3 SWAP2 POP POP JUMP JUMPDEST PUSH0 DUP2 ISZERO ISZERO SWAP1 POP SWAP2 SWAP1 POP JUMP JUMPDEST PUSH2 0xF99 DUP2 PUSH2 0xF85 JUMP JUMPDEST DUP3 MSTORE POP POP JUMP JUMPDEST PUSH0 PUSH1 0x20 DUP3 ADD SWAP1 POP PUSH2 0xFB2 PUSH0 DUP4 ADD DUP5 PUSH2 0xF90 JUMP JUMPDEST SWAP3 SWAP2 POP POP JUMP JUMPDEST PUSH0 DUP2 SWAP1 POP SWAP2 SWAP1 POP JUMP JUMPDEST PUSH2 0xFCA DUP2 PUSH2 0xFB8 JUMP JUMPDEST DUP2 EQ PUSH2 0xFD4 JUMPI PUSH0 PUSH0 REVERT JUMPDEST POP JUMP JUMPDEST PUSH0 DUP2 CALLDATALOAD SWAP1 POP PUSH2 0xFE5 DUP2 PUSH2 0xFC1 JUMP JUMPDEST SWAP3 SWAP2 POP POP JUMP JUMPDEST PUSH0 PUSH0 REVERT JUMPDEST PUSH0 PUSH0 REVERT JUMPDEST PUSH0 PUSH1 0x1F NOT PUSH1 0x1F DUP4 ADD AND SWAP1 POP SWAP2 SWAP1 POP JUMP JUMPDEST PUSH32 0x4E487B7100000000000000000000000000000000000000000000000000000000 PUSH0 MSTORE PUSH1 0x41 PUSH1 0x4 MSTORE PUSH1 0x24 PUSH0 REVERT JUMPDEST PUSH2 0x1039 DUP3 PUSH2 0xFF3 JUMP JUMPDEST DUP2 ADD DUP2 DUP2 LT PUSH8 0xFFFFFFFFFFFFFFFF DUP3 GT OR ISZERO PUSH2 0x1058 JUMPI PUSH2 0x1057 PUSH2 0x1003 JUMP JUMPDEST JUMPDEST DUP1 PUSH1 0x40 MSTORE POP POP POP JUMP JUMPDEST PUSH0 PUSH2 0x106A PUSH2 0xEF4 JUMP JUMPDEST SWAP1 POP PUSH2 0x1076 DUP3 DUP3 PUSH2 0x1030 JUMP JUMPDEST SWAP2 SWAP1 POP JUMP JUMPDEST PUSH0 PUSH8 0xFFFFFFFFFFFFFFFF DUP3 GT ISZERO PUSH2 0x1095 JUMPI PUSH2 0x1094 PUSH2 0x1003 JUMP JUMPDEST JUMPDEST PUSH2 0x109E DUP3 PUSH2 0xFF3 JUMP JUMPDEST SWAP1 POP PUSH1 0x20 DUP2 ADD SWAP1 POP SWAP2 SWAP1 POP JUMP JUMPDEST DUP3 DUP2 DUP4 CALLDATACOPY PUSH0 DUP4 DUP4 ADD MSTORE POP POP POP JUMP JUMPDEST PUSH0 PUSH2 0x10CB PUSH2 0x10C6 DUP5 PUSH2 0x107B JUMP JUMPDEST PUSH2 0x1061 JUMP JUMPDEST SWAP1 POP DUP3 DUP2 MSTORE PUSH1 0x20 DUP2 ADD DUP5 DUP5 DUP5 ADD GT ISZERO PUSH2 0x10E7 JUMPI PUSH2 0x10E6 PUSH2 0xFEF JUMP JUMPDEST JUMPDEST PUSH2 0x10F2 DUP5 DUP3 DUP6 PUSH2 0x10AB JUMP JUMPDEST POP SWAP4 SWAP3 POP POP POP JUMP JUMPDEST PUSH0 DUP3 PUSH1 0x1F DUP4 ADD SLT PUSH2 0x110E JUMPI PUSH2 0x110D PUSH2 0xFEB JUMP JUMPDEST JUMPDEST DUP2 CALLDATALOAD PUSH2 0x111E DUP5 DUP3 PUSH1 0x20 DUP7 ADD PUSH2 0x10B9 JUMP JUMPDEST SWAP2 POP POP SWAP3 SWAP2 POP POP JUMP JUMPDEST PUSH0 PUSH0 PUSH1 0x40 DUP4 DUP6 SUB SLT ISZERO PUSH2 0x113D JUMPI PUSH2 0x113C PUSH2 0xEFD JUMP JUMPDEST JUMPDEST PUSH0 PUSH2 0x114A DUP6 DUP3 DUP7 ADD PUSH2 0xFD7 JUMP JUMPDEST SWAP3 POP POP PUSH1 0x20 DUP4 ADD CALLDATALOAD PUSH8 0xFFFFFFFFFFFFFFFF DUP2 GT ISZERO PUSH2 0x116B JUMPI PUSH2 0x116A PUSH2 0xF01 JUMP JUMPDEST JUMPDEST PUSH2 0x1177 DUP6 DUP3 DUP7 ADD PUSH2 0x10FA JUMP JUMPDEST SWAP2 POP POP SWAP3 POP SWAP3 SWAP1 POP JUMP JUMPDEST PUSH0 PUSH20 0xFFFFFFFFFFFFFFFFFFFFFFFFFFFFFFFFFFFFFFFF DUP3 AND SWAP1 POP SWAP2 SWAP1 POP JUMP JUMPDEST PUSH0 PUSH2 0x11AA DUP3 PUSH2 0x1181 JUMP JUMPDEST SWAP1 POP SWAP2 SWAP1 POP JUMP JUMPDEST PUSH2 0x11BA DUP2 PUSH2 0x11A0 JUMP JUMPDEST DUP2 EQ PUSH2 0x11C4 JUMPI PUSH0 PUSH0 REVERT JUMPDEST POP JUMP JUMPDEST PUSH0 DUP2 CALLDATALOAD SWAP1 POP PUSH2 0x11D5 DUP2 PUSH2 0x11B1 JUMP JUMPDEST SWAP3 SWAP2 POP POP JUMP JUMPDEST PUSH0 PUSH0 PUSH1 0x40 DUP4 DUP6 SUB SLT ISZERO PUSH2 0x11F1 JUMPI PUSH2 0x11F0 PUSH2 0xEFD JUMP JUMPDEST JUMPDEST PUSH0 PUSH2 0x11FE DUP6 DUP3 DUP7 ADD PUSH2 0xFD7 JUMP JUMPDEST SWAP3 POP POP PUSH1 0x20 PUSH2 0x120F DUP6 DUP3 DUP7 ADD PUSH2 0x11C7 JUMP JUMPDEST SWAP2 POP POP SWAP3 POP SWAP3 SWAP1 POP JUMP JUMPDEST PUSH0 DUP2 SWAP1 POP SWAP2 SWAP1 POP JUMP JUMPDEST PUSH2 0x122B DUP2 PUSH2 0x1219 JUMP JUMPDEST DUP2 EQ PUSH2 0x1235 JUMPI PUSH0 PUSH0 REVERT JUMPDEST POP JUMP JUMPDEST PUSH0 DUP2 CALLDATALOAD SWAP1 POP PUSH2 0x1246 DUP2 PUSH2 0x1222 JUMP JUMPDEST SWAP3 SWAP2 POP POP JUMP JUMPDEST PUSH0 PUSH1 0x20 DUP3 DUP5 SUB SLT ISZERO PUSH2 0x1261 JUMPI PUSH2 0x1260 PUSH2 0xEFD JUMP JUMPDEST JUMPDEST PUSH0 PUSH2 0x126E DUP5 DUP3 DUP6 ADD PUSH2 0x1238 JUMP JUMPDEST SWAP2 POP POP SWAP3 SWAP2 POP POP JUMP JUMPDEST PUSH2 0x1280 DUP2 PUSH2 0x1219 JUMP JUMPDEST DUP3 MSTORE POP POP JUMP JUMPDEST PUSH0 PUSH1 0x20 DUP3 ADD SWAP1 POP PUSH2 0x1299 PUSH0 DUP4 ADD DUP5 PUSH2 0x1277 JUMP JUMPDEST SWAP3 SWAP2 POP POP JUMP JUMPDEST PUSH0 PUSH0 PUSH1 0x40 DUP4 DUP6 SUB SLT ISZERO PUSH2 0x12B5 JUMPI PUSH2 0x12B4 PUSH2 0xEFD JUMP JUMPDEST JUMPDEST PUSH0 PUSH2 0x12C2 DUP6 DUP3 DUP7 ADD PUSH2 0x1238 JUMP JUMPDEST SWAP3 POP POP PUSH1 0x20 PUSH2 0x12D3 DUP6 DUP3 DUP7 ADD PUSH2 0x11C7 JUMP JUMPDEST SWAP2 POP POP SWAP3 POP SWAP3 SWAP1 POP JUMP JUMPDEST PUSH0 PUSH1 0x20 DUP3 DUP5 SUB SLT ISZERO PUSH2 0x12F2 JUMPI PUSH2 0x12F1 PUSH2 0xEFD JUMP JUMPDEST JUMPDEST PUSH0 PUSH2 0x12FF DUP5 DUP3 DUP6 ADD PUSH2 0xFD7 JUMP JUMPDEST SWAP2 POP POP SWAP3 SWAP2 POP POP JUMP JUMPDEST PUSH2 0x1311 DUP2 PUSH2 0xFB8 JUMP JUMPDEST DUP3 MSTORE POP POP JUMP JUMPDEST PUSH0 DUP2 MLOAD SWAP1 POP SWAP2 SWAP1 POP JUMP JUMPDEST PUSH0 DUP3 DUP3 MSTORE PUSH1 0x20 DUP3 ADD SWAP1 POP SWAP3 SWAP2 POP POP JUMP JUMPDEST DUP3 DUP2 DUP4 MCOPY PUSH0 DUP4 DUP4 ADD MSTORE POP POP POP JUMP JUMPDEST PUSH0 PUSH2 0x1349 DUP3 PUSH2 0x1317 JUMP JUMPDEST PUSH2 0x1353 DUP2 DUP6 PUSH2 0x1321 JUMP JUMPDEST SWAP4 POP PUSH2 0x1363 DUP2 DUP6 PUSH1 0x20 DUP7 ADD PUSH2 0x1331 JUMP JUMPDEST PUSH2 0x136C DUP2 PUSH2 0xFF3 JUMP JUMPDEST DUP5 ADD SWAP2 POP POP SWAP3 SWAP2 POP POP JUMP JUMPDEST PUSH2 0x1380 DUP2 PUSH2 0x11A0 JUMP JUMPDEST DUP3 MSTORE POP POP JUMP JUMPDEST PUSH32 0x4E487B7100000000000000000000000000000000000000000000000000000000 PUSH0 MSTORE PUSH1 0x21 PUSH1 0x4 MSTORE PUSH1 0x24 PUSH0 REVERT JUMPDEST PUSH1 0x3 DUP2 LT PUSH2 0x13C4 JUMPI PUSH2 0x13C3 PUSH2 0x1386 JUMP JUMPDEST JUMPDEST POP JUMP JUMPDEST PUSH0 DUP2 SWAP1 POP PUSH2 0x13D4 DUP3 PUSH2 0x13B3 JUMP JUMPDEST SWAP2 SWAP1 POP JUMP JUMPDEST PUSH0 PUSH2 0x13E3 DUP3 PUSH2 0x13C7 JUMP JUMPDEST SWAP1 POP SWAP2 SWAP1 POP JUMP JUMPDEST PUSH2 0x13F3 DUP2 PUSH2 0x13D9 JUMP JUMPDEST DUP3 MSTORE POP POP JUMP JUMPDEST PUSH0 PUSH1 0xC0 DUP3 ADD SWAP1 POP PUSH2 0x140C PUSH0 DUP4 ADD DUP10 PUSH2 0x1308 JUMP JUMPDEST DUP2 DUP2 SUB PUSH1 0x20 DUP4 ADD MSTORE PUSH2 0x141E DUP2 DUP9 PUSH2 0x133F JUMP JUMPDEST SWAP1 POP PUSH2 0x142D PUSH1 0x40 DUP4 ADD DUP8 PUSH2 0x1377 JUMP JUMPDEST PUSH2 0x143A PUSH1 0x60 DUP4 ADD DUP7 PUSH2 0x13EA JUMP JUMPDEST DUP2 DUP2 SUB PUSH1 0x80 DUP4 ADD MSTORE PUSH2 0x144C DUP2 DUP6 PUSH2 0x133F JUMP JUMPDEST SWAP1 POP PUSH2 0x145B PUSH1 0xA0 DUP4 ADD DUP5 PUSH2 0x1308 JUMP JUMPDEST SWAP8 SWAP7 POP POP POP POP POP POP POP JUMP JUMPDEST PUSH32 0x4F7264657220616C726561647920657869737473000000000000000000000000 PUSH0 DUP3 ADD MSTORE POP JUMP JUMPDEST PUSH0 PUSH2 0x149A PUSH1 0x14 DUP4 PUSH2 0x1321 JUMP JUMPDEST SWAP2 POP PUSH2 0x14A5 DUP3 PUSH2 0x1466 JUMP JUMPDEST PUSH1 0x20 DUP3 ADD SWAP1 POP SWAP2 SWAP1 POP JUMP JUMPDEST PUSH0 PUSH1 0x20 DUP3 ADD SWAP1 POP DUP2 DUP2 SUB PUSH0 DUP4 ADD MSTORE PUSH2 0x14C7 DUP2 PUSH2 0x148E JUMP JUMPDEST SWAP1 POP SWAP2 SWAP1 POP JUMP JUMPDEST PUSH32 0x4E487B7100000000000000000000000000000000000000000000000000000000 PUSH0 MSTORE PUSH1 0x22 PUSH1 0x4 MSTORE PUSH1 0x24 PUSH0 REVERT JUMPDEST PUSH0 PUSH1 0x2 DUP3 DIV SWAP1 POP PUSH1 0x1 DUP3 AND DUP1 PUSH2 0x1512 JUMPI PUSH1 0x7F DUP3 AND SWAP2 POP JUMPDEST PUSH1 0x20 DUP3 LT DUP2 SUB PUSH2 0x1525 JUMPI PUSH2 0x1524 PUSH2 0x14CE JUMP JUMPDEST JUMPDEST POP SWAP2 SWAP1 POP JUMP JUMPDEST PUSH0 DUP2 SWAP1 POP DUP2 PUSH0 MSTORE PUSH1 0x20 PUSH0 KECCAK256 SWAP1 POP SWAP2 SWAP1 POP JUMP JUMPDEST PUSH0 PUSH1 0x20 PUSH1 0x1F DUP4 ADD DIV SWAP1 POP SWAP2 SWAP1 POP JUMP JUMPDEST PUSH0 DUP3 DUP3 SHL SWAP1 POP SWAP3 SWAP2 POP POP JUMP JUMPDEST PUSH0 PUSH1 0x8 DUP4 MUL PUSH2 0x1587 PUSH32 0xFFFFFFFFFFFFFFFFFFFFFFFFFFFFFFFFFFFFFFFFFFFFFFFFFFFFFFFFFFFFFFFF DUP3 PUSH2 0x154C JUMP JUMPDEST PUSH2 0x1591 DUP7 DUP4 PUSH2 0x154C JUMP JUMPDEST SWAP6 POP DUP1 NOT DUP5 AND SWAP4 POP DUP1 DUP7 AND DUP5 OR SWAP3 POP POP POP SWAP4 SWAP3 POP POP POP JUMP JUMPDEST PUSH0 DUP2 SWAP1 POP SWAP2 SWAP1 POP JUMP JUMPDEST PUSH0 PUSH2 0x15CC PUSH2 0x15C7 PUSH2 0x15C2 DUP5 PUSH2 0xFB8 JUMP JUMPDEST PUSH2 0x15A9 JUMP JUMPDEST PUSH2 0xFB8 JUMP JUMPDEST SWAP1 POP SWAP2 SWAP1 POP JUMP JUMPDEST PUSH0 DUP2 SWAP1 POP SWAP2 SWAP1 POP JUMP JUMPDEST PUSH2 0x15E5 DUP4 PUSH2 0x15B2 JUMP JUMPDEST PUSH2 0x15F9 PUSH2 0x15F1 DUP3 PUSH2 0x15D3 JUMP JUMPDEST DUP5 DUP5 SLOAD PUSH2 0x1558 JUMP JUMPDEST DUP3 SSTORE POP POP POP POP JUMP JUMPDEST PUSH0 PUSH0 SWAP1 POP SWAP1 JUMP JUMPDEST PUSH2 0x1610 PUSH2 0x1601 JUMP JUMPDEST PUSH2 0x161B DUP2 DUP5 DUP5 PUSH2 0x15DC JUMP JUMPDEST POP POP POP JUMP JUMPDEST JUMPDEST DUP2 DUP2 LT ISZERO PUSH2 0x163E JUMPI PUSH2 0x1633 PUSH0 DUP3 PUSH2 0x1608 JUMP JUMPDEST PUSH1 0x1 DUP2 ADD SWAP1 POP PUSH2 0x1621 JUMP JUMPDEST POP POP JUMP JUMPDEST PUSH1 0x1F DUP3 GT ISZERO PUSH2 0x1683 JUMPI PUSH2 0x1654 DUP2 PUSH2 0x152B JUMP JUMPDEST PUSH2 0x165D DUP5 PUSH2 0x153D JUMP JUMPDEST DUP2 ADD PUSH1 0x20 DUP6 LT ISZERO PUSH2 0x166C JUMPI DUP2 SWAP1 POP JUMPDEST PUSH2 0x1680 PUSH2 0x1678 DUP6 PUSH2 0x153D JUMP JUMPDEST DUP4 ADD DUP3 PUSH2 0x1620 JUMP JUMPDEST POP POP JUMPDEST POP POP POP JUMP JUMPDEST PUSH0 DUP3 DUP3 SHR SWAP1 POP SWAP3 SWAP2 POP POP JUMP JUMPDEST PUSH0 PUSH2 0x16A3 PUSH0 NOT DUP5 PUSH1 0x8 MUL PUSH2 0x1688 JUMP JUMPDEST NOT DUP1 DUP4 AND SWAP2 POP POP SWAP3 SWAP2 POP POP JUMP JUMPDEST PUSH0 PUSH2 0x16BB DUP4 DUP4 PUSH2 0x1694 JUMP JUMPDEST SWAP2 POP DUP3 PUSH1 0x2 MUL DUP3 OR SWAP1 POP SWAP3 SWAP2 POP POP JUMP JUMPDEST PUSH2 0x16D4 DUP3 PUSH2 0x1317 JUMP JUMPDEST PUSH8 0xFFFFFFFFFFFFFFFF DUP2 GT ISZERO PUSH2 0x16ED JUMPI PUSH2 0x16EC PUSH2 0x1003 JUMP JUMPDEST JUMPDEST PUSH2 0x16F7 DUP3 SLOAD PUSH2 0x14FB JUMP JUMPDEST PUSH2 0x1702 DUP3 DUP3 DUP6 PUSH2 0x1642 JUMP JUMPDEST PUSH0 PUSH1 0x20 SWAP1 POP PUSH1 0x1F DUP4 GT PUSH1 0x1 DUP2 EQ PUSH2 0x1733 JUMPI PUSH0 DUP5 ISZERO PUSH2 0x1721 JUMPI DUP3 DUP8 ADD MLOAD SWAP1 POP JUMPDEST PUSH2 0x172B DUP6 DUP3 PUSH2 0x16B0 JUMP JUMPDEST DUP7 SSTORE POP PUSH2 0x1792 JUMP JUMPDEST PUSH1 0x1F NOT DUP5 AND PUSH2 0x1741 DUP7 PUSH2 0x152B JUMP JUMPDEST PUSH0 JUMPDEST DUP3 DUP2 LT ISZERO PUSH2 0x1768 JUMPI DUP5 DUP10 ADD MLOAD DUP3 SSTORE PUSH1 0x1 DUP3 ADD SWAP2 POP PUSH1 0x20 DUP6 ADD SWAP5 POP PUSH1 0x20 DUP2 ADD SWAP1 POP PUSH2 0x1743 JUMP JUMPDEST DUP7 DUP4 LT ISZERO PUSH2 0x1785 JUMPI DUP5 DUP10 ADD MLOAD PUSH2 0x1781 PUSH1 0x1F DUP10 AND DUP3 PUSH2 0x1694 JUMP JUMPDEST DUP4 SSTORE POP JUMPDEST PUSH1 0x1 PUSH1 0x2 DUP9 MUL ADD DUP9 SSTORE POP POP POP JUMPDEST POP POP POP POP POP POP JUMP JUMPDEST PUSH0 PUSH1 0x20 DUP3 ADD SWAP1 POP DUP2 DUP2 SUB PUSH0 DUP4 ADD MSTORE PUSH2 0x17B2 DUP2 DUP5 PUSH2 0x133F JUMP JUMPDEST SWAP1 POP SWAP3 SWAP2 POP POP JUMP JUMPDEST PUSH32 0x4E6F7420796F7572206F72646572000000000000000000000000000000000000 PUSH0 DUP3 ADD MSTORE POP JUMP JUMPDEST PUSH0 PUSH2 0x17EE PUSH1 0xE DUP4 PUSH2 0x1321 JUMP JUMPDEST SWAP2 POP PUSH2 0x17F9 DUP3 PUSH2 0x17BA JUMP JUMPDEST PUSH1 0x20 DUP3 ADD SWAP1 POP SWAP2 SWAP1 POP JUMP JUMPDEST PUSH0 PUSH1 0x20 DUP3 ADD SWAP1 POP DUP2 DUP2 SUB PUSH0 DUP4 ADD MSTORE PUSH2 0x181B DUP2 PUSH2 0x17E2 JUMP JUMPDEST SWAP1 POP SWAP2 SWAP1 POP JUMP JUMPDEST PUSH32 0x4E6F742073686970706564207965740000000000000000000000000000000000 PUSH0 DUP3 ADD MSTORE POP JUMP JUMPDEST PUSH0 PUSH2 0x1856 PUSH1 0xF DUP4 PUSH2 0x1321 JUMP JUMPDEST SWAP2 POP PUSH2 0x1861 DUP3 PUSH2 0x1822 JUMP JUMPDEST PUSH1 0x20 DUP3 ADD SWAP1 POP SWAP2 SWAP1 POP JUMP JUMPDEST PUSH0 PUSH1 0x20 DUP3 ADD SWAP1 POP DUP2 DUP2 SUB PUSH0 DUP4 ADD MSTORE PUSH2 0x1883 DUP2 PUSH2 0x184A JUMP JUMPDEST SWAP1 POP SWAP2 SWAP1 POP JUMP JUMPDEST PUSH32 0x437573746F6D657248616E640000000000000000000000000000000000000000 PUSH0 DUP3 ADD MSTORE POP JUMP JUMPDEST PUSH0 PUSH2 0x18BE PUSH1 0xC DUP4 PUSH2 0x1321 JUMP JUMPDEST SWAP2 POP PUSH2 0x18C9 DUP3 PUSH2 0x188A JUMP JUMPDEST PUSH1 0x20 DUP3 ADD SWAP1 POP SWAP2 SWAP1 POP JUMP JUMPDEST PUSH0 PUSH1 0x40 DUP3 ADD SWAP1 POP PUSH2 0x18E7 PUSH0 DUP4 ADD DUP5 PUSH2 0x13EA JUMP JUMPDEST DUP2 DUP2 SUB PUSH1 0x20 DUP4 ADD MSTORE PUSH2 0x18F8 DUP2 PUSH2 0x18B2 JUMP JUMPDEST SWAP1 POP SWAP3 SWAP2 POP POP JUMP JUMPDEST PUSH32 0x496E76616C6964207374617465207472616E736974696F6E0000000000000000 PUSH0 DUP3 ADD MSTORE POP JUMP JUMPDEST PUSH0 PUSH2 0x1934 PUSH1 0x18 DUP4 PUSH2 0x1321 JUMP JUMPDEST SWAP2 POP PUSH2 0x193F DUP3 PUSH2 0x1900 JUMP JUMPDEST PUSH1 0x20 DUP3 ADD SWAP1 POP SWAP2 SWAP1 POP JUMP JUMPDEST PUSH0 PUSH1 0x20 DUP3 ADD SWAP1 POP DUP2 DUP2 SUB PUSH0 DUP4 ADD MSTORE PUSH2 0x1961 DUP2 PUSH2 0x1928 JUMP JUMPDEST SWAP1 POP SWAP2 SWAP1 POP JUMP JUMPDEST PUSH0 PUSH1 0x40 DUP3 ADD SWAP1 POP PUSH2 0x197B PUSH0 DUP4 ADD DUP6 PUSH2 0x13EA JUMP JUMPDEST DUP2 DUP2 SUB PUSH1 0x20 DUP4 ADD MSTORE PUSH2 0x198D DUP2 DUP5 PUSH2 0x133F JUMP JUMPDEST SWAP1 POP SWAP4 SWAP3 POP POP POP JUMP JUMPDEST PUSH0 PUSH1 0x40 DUP3 ADD SWAP1 POP PUSH2 0x19A9 PUSH0 DUP4 ADD DUP6 PUSH2 0x1377 JUMP JUMPDEST PUSH2 0x19B6 PUSH1 0x20 DUP4 ADD DUP5 PUSH2 0x1277 JUMP JUMPDEST SWAP4 SWAP3 POP POP POP JUMP INVALID LOG2 PUSH5 0x6970667358 0x22 SLT KECCAK256 SWAP13 MLOAD RETURNCONTRACT 0x4A PUSH1 0x30 DUP8 RETURNDATACOPY LOG1 DUP13 0xB6 CALLDATASIZE SWAP16 PUSH23 0x2BC39D4CCA7D386A9DE45FC58CF13C56AE2764736F6C63 NUMBER STOP ADDMOD 0x1F STOP CALLER "
				},
				"gasEstimates": {
					"creation": {
						"codeDepositCost": "1328600",
						"executionCost": "infinite",
						"totalCost": "infinite"
					},
					"external": {
						"COURIER_ROLE()": "370",
						"DEFAULT_ADMIN_ROLE()": "351",
						"SUPPLIER_ROLE()": "369",
						"confirmReceipt(uint256)": "infinite",
						"createOrder(uint256,string)": "infinite",
						"getRoleAdmin(bytes32)": "infinite",
						"grantRole(bytes32,address)": "infinite",
						"hasRole(bytes32,address)": "3143",
						"orders(uint256)": "infinite",
						"renounceRole(bytes32,address)": "infinite",
						"revokeRole(bytes32,address)": "infinite",
						"setCustomer(uint256,address)": "infinite",
						"shipOrder(uint256,string)": "infinite",
						"supportsInterface(bytes4)": "741"
					}
				},
				"methodIdentifiers": {
					"COURIER_ROLE()": "92b8a6c8",
					"DEFAULT_ADMIN_ROLE()": "a217fddf",
					"SUPPLIER_ROLE()": "a29508fc",
					"confirmReceipt(uint256)": "843cba13",
					"createOrder(uint256,string)": "0e540b3a",
					"getRoleAdmin(bytes32)": "248a9ca3",
					"grantRole(bytes32,address)": "2f2ff15d",
					"hasRole(bytes32,address)": "91d14854",
					"orders(uint256)": "a85c38ef",
					"renounceRole(bytes32,address)": "36568abe",
					"revokeRole(bytes32,address)": "d547741f",
					"setCustomer(uint256,address)": "2334ac7f",
					"shipOrder(uint256,string)": "9d07a8e9",
					"supportsInterface(bytes4)": "01ffc9a7"
				}
			},
			"storageLayout": {
				"storage": [
					{
						"astId": 27,
						"contract": "Remix/Day14_FinalExam.sol:LogisticsSystem",
						"label": "_roles",
						"offset": 0,
						"slot": "0",
						"type": "t_mapping(t_bytes32,t_struct(RoleData)22_storage)"
					},
					{
						"astId": 520,
						"contract": "Remix/Day14_FinalExam.sol:LogisticsSystem",
						"label": "orders",
						"offset": 0,
						"slot": "1",
						"type": "t_mapping(t_uint256,t_struct(Order)515_storage)"
					}
				],
				"types": {
					"t_address": {
						"encoding": "inplace",
						"label": "address",
						"numberOfBytes": "20"
					},
					"t_bool": {
						"encoding": "inplace",
						"label": "bool",
						"numberOfBytes": "1"
					},
					"t_bytes32": {
						"encoding": "inplace",
						"label": "bytes32",
						"numberOfBytes": "32"
					},
					"t_enum(State)452": {
						"encoding": "inplace",
						"label": "enum ILogistics.State",
						"numberOfBytes": "1"
					},
					"t_mapping(t_address,t_bool)": {
						"encoding": "mapping",
						"key": "t_address",
						"label": "mapping(address => bool)",
						"numberOfBytes": "32",
						"value": "t_bool"
					},
					"t_mapping(t_bytes32,t_struct(RoleData)22_storage)": {
						"encoding": "mapping",
						"key": "t_bytes32",
						"label": "mapping(bytes32 => struct AccessControl.RoleData)",
						"numberOfBytes": "32",
						"value": "t_struct(RoleData)22_storage"
					},
					"t_mapping(t_uint256,t_struct(Order)515_storage)": {
						"encoding": "mapping",
						"key": "t_uint256",
						"label": "mapping(uint256 => struct LogisticsSystem.Order)",
						"numberOfBytes": "32",
						"value": "t_struct(Order)515_storage"
					},
					"t_string_storage": {
						"encoding": "bytes",
						"label": "string",
						"numberOfBytes": "32"
					},
					"t_struct(Order)515_storage": {
						"encoding": "inplace",
						"label": "struct LogisticsSystem.Order",
						"members": [
							{
								"astId": 503,
								"contract": "Remix/Day14_FinalExam.sol:LogisticsSystem",
								"label": "id",
								"offset": 0,
								"slot": "0",
								"type": "t_uint256"
							},
							{
								"astId": 505,
								"contract": "Remix/Day14_FinalExam.sol:LogisticsSystem",
								"label": "item",
								"offset": 0,
								"slot": "1",
								"type": "t_string_storage"
							},
							{
								"astId": 507,
								"contract": "Remix/Day14_FinalExam.sol:LogisticsSystem",
								"label": "customer",
								"offset": 0,
								"slot": "2",
								"type": "t_address"
							},
							{
								"astId": 510,
								"contract": "Remix/Day14_FinalExam.sol:LogisticsSystem",
								"label": "state",
								"offset": 20,
								"slot": "2",
								"type": "t_enum(State)452"
							},
							{
								"astId": 512,
								"contract": "Remix/Day14_FinalExam.sol:LogisticsSystem",
								"label": "location",
								"offset": 0,
								"slot": "3",
								"type": "t_string_storage"
							},
							{
								"astId": 514,
								"contract": "Remix/Day14_FinalExam.sol:LogisticsSystem",
								"label": "timestamp",
								"offset": 0,
								"slot": "4",
								"type": "t_uint256"
							}
						],
						"numberOfBytes": "160"
					},
					"t_struct(RoleData)22_storage": {
						"encoding": "inplace",
						"label": "struct AccessControl.RoleData",
						"members": [
							{
								"astId": 19,
								"contract": "Remix/Day14_FinalExam.sol:LogisticsSystem",
								"label": "hasRole",
								"offset": 0,
								"slot": "0",
								"type": "t_mapping(t_address,t_bool)"
							},
							{
								"astId": 21,
								"contract": "Remix/Day14_FinalExam.sol:LogisticsSystem",
								"label": "adminRole",
								"offset": 0,
								"slot": "1",
								"type": "t_bytes32"
							}
						],
						"numberOfBytes": "64"
					},
					"t_uint256": {
						"encoding": "inplace",
						"label": "uint256",
						"numberOfBytes": "32"
					}
				}
			},
			"userdoc": {
				"kind": "user",
				"methods": {},
				"version": 1
			}
		}
	}
}