{
	"Remix/practice11.sol": {
		"modifysample": {
			"abi": [
				{
					"inputs": [],
					"name": "get_a",
					"outputs": [
						{
							"internalType": "uint256",
							"name": "",
							"type": "uint256"
						}
					],
					"stateMutability": "view",
					"type": "function"
				},
				{
					"inputs": [],
					"name": "test1",
					"outputs": [],
					"stateMutability": "nonpayable",
					"type": "function"
				}
			],
			"devdoc": {
				"kind": "dev",
				"methods": {},
				"version": 1
			},
			"evm": {
				"assembly": "    /* \"Remix/practice11.sol\":58:521  contract modifysample {... */\n  mstore(0x40, 0x80)\n    /* \"Remix/practice11.sol\":96:98  10 */\n  0x0a\n    /* \"Remix/practice11.sol\":87:98  uint a = 10 */\n  0x00\n  sstore\n    /* \"Remix/practice11.sol\":58:521  contract modifysample {... */\n  callvalue\n  dup1\n  iszero\n  tag_1\n  jumpi\n  revert(0x00, 0x00)\ntag_1:\n  pop\n  dataSize(sub_0)\n  dup1\n  dataOffset(sub_0)\n  0x00\n  codecopy\n  0x00\n  return\nstop\n\nsub_0: assembly {\n        /* \"Remix/practice11.sol\":58:521  contract modifysample {... */\n      mstore(0x40, 0x80)\n      callvalue\n      dup1\n      iszero\n      tag_1\n      jumpi\n      revert(0x00, 0x00)\n    tag_1:\n      pop\n      jumpi(tag_2, lt(calldatasize, 0x04))\n      shr(0xe0, calldataload(0x00))\n      dup1\n      0x48159181\n      eq\n      tag_3\n      jumpi\n      dup1\n      0x6b59084d\n      eq\n      tag_4\n      jumpi\n    tag_2:\n      revert(0x00, 0x00)\n        /* \"Remix/practice11.sol\":445:518  function get_a() public view returns (uint)   {... */\n    tag_3:\n      tag_5\n      tag_6\n      jump\t// in\n    tag_5:\n      mload(0x40)\n      tag_7\n      swap2\n      swap1\n      tag_8\n      jump\t// in\n    tag_7:\n      mload(0x40)\n      dup1\n      swap2\n      sub\n      swap1\n      return\n        /* \"Remix/practice11.sol\":372:437  function test1() mf1(a) mf2 mf3 public   {... */\n    tag_4:\n      tag_9\n      tag_10\n      jump\t// in\n    tag_9:\n      stop\n        /* \"Remix/practice11.sol\":445:518  function get_a() public view returns (uint)   {... */\n    tag_6:\n        /* \"Remix/practice11.sol\":483:487  uint */\n      0x00\n        /* \"Remix/practice11.sol\":509:510  a */\n      sload(0x00)\n        /* \"Remix/practice11.sol\":502:510  return a */\n      swap1\n      pop\n        /* \"Remix/practice11.sol\":445:518  function get_a() public view returns (uint)   {... */\n      swap1\n      jump\t// out\n        /* \"Remix/practice11.sol\":372:437  function test1() mf1(a) mf2 mf3 public   {... */\n    tag_10:\n        /* \"Remix/practice11.sol\":393:394  a */\n      sload(0x00)\n        /* \"Remix/practice11.sol\":140:146  uint c */\n      0x00\n        /* \"Remix/practice11.sol\":149:150  b */\n      dup2\n        /* \"Remix/practice11.sol\":140:150  uint c = b */\n      swap1\n      pop\n        /* \"Remix/practice11.sol\":239:245  uint c */\n      0x00\n        /* \"Remix/practice11.sol\":248:249  a */\n      sload(0x00)\n        /* \"Remix/practice11.sol\":239:249  uint c = a */\n      swap1\n      pop\n        /* \"Remix/practice11.sol\":307:309  12 */\n      0x0c\n        /* \"Remix/practice11.sol\":303:304  a */\n      0x00\n        /* \"Remix/practice11.sol\":303:309  a = 12 */\n      dup2\n      swap1\n      sstore\n      pop\n        /* \"Remix/practice11.sol\":228:269  {... */\n      pop\n        /* \"Remix/practice11.sol\":177:178  a */\n      sload(0x00)\n        /* \"Remix/practice11.sol\":173:178  c = a */\n      swap1\n      pop\n        /* \"Remix/practice11.sol\":193:195  11 */\n      0x0b\n        /* \"Remix/practice11.sol\":189:190  a */\n      0x00\n        /* \"Remix/practice11.sol\":189:195  a = 11 */\n      dup2\n      swap1\n      sstore\n      pop\n        /* \"Remix/practice11.sol\":129:203  {... */\n      pop\n        /* \"Remix/practice11.sol\":372:437  function test1() mf1(a) mf2 mf3 public   {... */\n      pop\n      jump\t// out\n        /* \"#utility.yul\":7:84   */\n    tag_16:\n        /* \"#utility.yul\":44:51   */\n      0x00\n        /* \"#utility.yul\":73:78   */\n      dup2\n        /* \"#utility.yul\":62:78   */\n      swap1\n      pop\n        /* \"#utility.yul\":7:84   */\n      swap2\n      swap1\n      pop\n      jump\t// out\n        /* \"#utility.yul\":90:208   */\n    tag_17:\n        /* \"#utility.yul\":177:201   */\n      tag_21\n        /* \"#utility.yul\":195:200   */\n      dup2\n        /* \"#utility.yul\":177:201   */\n      tag_16\n      jump\t// in\n    tag_21:\n        /* \"#utility.yul\":172:175   */\n      dup3\n        /* \"#utility.yul\":165:202   */\n      mstore\n        /* \"#utility.yul\":90:208   */\n      pop\n      pop\n      jump\t// out\n        /* \"#utility.yul\":214:436   */\n    tag_8:\n        /* \"#utility.yul\":307:311   */\n      0x00\n        /* \"#utility.yul\":345:347   */\n      0x20\n        /* \"#utility.yul\":334:343   */\n      dup3\n        /* \"#utility.yul\":330:348   */\n      add\n        /* \"#utility.yul\":322:348   */\n      swap1\n      pop\n        /* \"#utility.yul\":358:429   */\n      tag_23\n        /* \"#utility.yul\":426:427   */\n      0x00\n        /* \"#utility.yul\":415:424   */\n      dup4\n        /* \"#utility.yul\":411:428   */\n      add\n        /* \"#utility.yul\":402:408   */\n      dup5\n        /* \"#utility.yul\":358:429   */\n      tag_17\n      jump\t// in\n    tag_23:\n        /* \"#utility.yul\":214:436   */\n      swap3\n      swap2\n      pop\n      pop\n      jump\t// out\n\n    auxdata: 0xa2646970667358221220f8ba4f9e2aa55c4521ba015d87f82ec4cd348ae9d7c3c1d436dfe149a93dcd6564736f6c634300081f0033\n}\n",
				"bytecode": {
					"linkReferences": {},
					"object": "6080604052600a5f553480156012575f5ffd5b5060e38061001f5f395ff3fe6080604052348015600e575f5ffd5b50600436106030575f3560e01c8063481591811460345780636b59084d14604e575b5f5ffd5b603a6056565b604051604591906096565b60405180910390f35b6054605e565b005b5f5f54905090565b5f545f8190505f5f549050600c5f81905550505f549050600b5f819055505050565b5f819050919050565b6090816080565b82525050565b5f60208201905060a75f8301846089565b9291505056fea2646970667358221220f8ba4f9e2aa55c4521ba015d87f82ec4cd348ae9d7c3c1d436dfe149a93dcd6564736f6c634300081f0033",
					"opcodes": "PUSH1 0x80 PUSH1 0x40 MSTORE PUSH1 0xA PUSH0 SSTORE CALLVALUE DUP1 ISZERO PUSH1 0x12 JUMPI PUSH0 PUSH0 REVERT JUMPDEST POP PUSH1 0xE3 DUP1 PUSH2 0x1F PUSH0 CODECOPY PUSH0 RETURN INVALID PUSH1 0x80 PUSH1 0x40 MSTORE CALLVALUE DUP1 ISZERO PUSH1 0xE JUMPI PUSH0 PUSH0 REVERT JUMPDEST POP PUSH1 0x4 CALLDATASIZE LT PUSH1 0x30 JUMPI PUSH0 CALLDATALOAD PUSH1 0xE0 SHR DUP1 PUSH4 0x48159181 EQ PUSH1 0x34 JUMPI DUP1 PUSH4 0x6B59084D EQ PUSH1 0x4E JUMPI JUMPDEST PUSH0 PUSH0 REVERT JUMPDEST PUSH1 0x3A PUSH1 0x56 JUMP JUMPDEST PUSH1 0x40 MLOAD PUSH1 0x45 SWAP2 SWAP1 PUSH1 0x96 JUMP JUMPDEST PUSH1 0x40 MLOAD DUP1 SWAP2 SUB SWAP1 RETURN JUMPDEST PUSH1 0x54 PUSH1 0x5E JUMP JUMPDEST STOP JUMPDEST PUSH0 PUSH0 SLOAD SWAP1 POP SWAP1 JUMP JUMPDEST PUSH0 SLOAD PUSH0 DUP2 SWAP1 POP PUSH0 PUSH0 SLOAD SWAP1 POP PUSH1 0xC PUSH0 DUP2 SWAP1 SSTORE POP POP PUSH0 SLOAD SWAP1 POP PUSH1 0xB PUSH0 DUP2 SWAP1 SSTORE POP POP POP JUMP JUMPDEST PUSH0 DUP2 SWAP1 POP SWAP2 SWAP1 POP JUMP JUMPDEST PUSH1 0x90 DUP2 PUSH1 0x80 JUMP JUMPDEST DUP3 MSTORE POP POP JUMP JUMPDEST PUSH0 PUSH1 0x20 DUP3 ADD SWAP1 POP PUSH1 0xA7 PUSH0 DUP4 ADD DUP5 PUSH1 0x89 JUMP JUMPDEST SWAP3 SWAP2 POP POP JUMP INVALID LOG2 PUSH5 0x6970667358 0x22 SLT KECCAK256 EXTCALL 0xBA 0x4F SWAP15 0x2A 0xA5 TLOAD GASLIMIT 0x21 0xBA ADD TSTORE DUP8 EXTCALL 0x2E 0xC4 0xCD CALLVALUE DUP11 0xE9 0xD7 0xC3 0xC1 0xD4 CALLDATASIZE 0xDF RJUMPI 0x49A9 RETURNDATASIZE 0xCD PUSH6 0x64736F6C6343 STOP ADDMOD 0x1F STOP CALLER "
				},
				"gasEstimates": {
					"creation": {
						"codeDepositCost": "45400",
						"executionCost": "22202",
						"totalCost": "67602"
					},
					"external": {
						"get_a()": "2409",
						"test1()": "33603"
					}
				},
				"methodIdentifiers": {
					"get_a()": "48159181",
					"test1()": "6b59084d"
				}
			},
			"storageLayout": {
				"storage": [
					{
						"astId": 4,
						"contract": "Remix/practice11.sol:modifysample",
						"label": "a",
						"offset": 0,
						"slot": "0",
						"type": "t_uint256"
					}
				],
				"types": {
					"t_uint256": {
						"encoding": "inplace",
						"label": "uint256",
						"numberOfBytes": "32"
					}
				}
			},
			"userdoc": {
				"kind": "user",
				"methods": {},
				"version": 1
			}
		}
	}
}