{
	"Remix/practice13.sol": {
		"Sub": {
			"abi": [
				{
					"inputs": [],
					"name": "a",
					"outputs": [
						{
							"internalType": "uint256",
							"name": "",
							"type": "uint256"
						}
					],
					"stateMutability": "view",
					"type": "function"
				},
				{
					"inputs": [],
					"name": "foo",
					"outputs": [],
					"stateMutability": "nonpayable",
					"type": "function"
				}
			],
			"devdoc": {
				"kind": "dev",
				"methods": {},
				"version": 1
			},
			"evm": {
				"assembly": "    /* \"Remix/practice13.sol\":161:317  contract Sub is Base {... */\n  mstore(0x40, 0x80)\n  callvalue\n  dup1\n  iszero\n  tag_1\n  jumpi\n  revert(0x00, 0x00)\ntag_1:\n  pop\n  dataSize(sub_0)\n  dup1\n  dataOffset(sub_0)\n  0x00\n  codecopy\n  0x00\n  return\nstop\n\nsub_0: assembly {\n        /* \"Remix/practice13.sol\":161:317  contract Sub is Base {... */\n      mstore(0x40, 0x80)\n      callvalue\n      dup1\n      iszero\n      tag_1\n      jumpi\n      revert(0x00, 0x00)\n    tag_1:\n      pop\n      jumpi(tag_2, lt(calldatasize, 0x04))\n      shr(0xe0, calldataload(0x00))\n      dup1\n      0x0dbe671f\n      eq\n      tag_3\n      jumpi\n      dup1\n      0xc2985578\n      eq\n      tag_4\n      jumpi\n    tag_2:\n      revert(0x00, 0x00)\n        /* \"Remix/practice13.sol\":82:95  uint public a */\n    tag_3:\n      tag_5\n      tag_6\n      jump\t// in\n    tag_5:\n      mload(0x40)\n      tag_7\n      swap2\n      swap1\n      tag_8\n      jump\t// in\n    tag_7:\n      mload(0x40)\n      dup1\n      swap2\n      sub\n      swap1\n      return\n        /* \"Remix/practice13.sol\":190:314  function foo() public override {... */\n    tag_4:\n      tag_9\n      tag_10\n      jump\t// in\n    tag_9:\n      stop\n        /* \"Remix/practice13.sol\":82:95  uint public a */\n    tag_6:\n      sload(0x00)\n      dup2\n      jump\t// out\n        /* \"Remix/practice13.sol\":190:314  function foo() public override {... */\n    tag_10:\n        /* \"Remix/practice13.sol\":259:270  super.foo() */\n      tag_12\n        /* \"Remix/practice13.sol\":259:268  super.foo */\n      tag_13\n        /* \"Remix/practice13.sol\":259:270  super.foo() */\n      jump\t// in\n    tag_12:\n        /* \"Remix/practice13.sol\":306:307  1 */\n      0x01\n        /* \"Remix/practice13.sol\":301:302  a */\n      0x00\n      0x00\n        /* \"Remix/practice13.sol\":301:307  a += 1 */\n      dup3\n      dup3\n      sload\n      tag_14\n      swap2\n      swap1\n      tag_15\n      jump\t// in\n    tag_14:\n      swap3\n      pop\n      pop\n      dup2\n      swap1\n      sstore\n      pop\n        /* \"Remix/practice13.sol\":190:314  function foo() public override {... */\n      jump\t// out\n        /* \"Remix/practice13.sol\":102:154  function foo() virtual public {... */\n    tag_13:\n        /* \"Remix/practice13.sol\":145:146  2 */\n      0x02\n        /* \"Remix/practice13.sol\":140:141  a */\n      0x00\n      0x00\n        /* \"Remix/practice13.sol\":140:146  a += 2 */\n      dup3\n      dup3\n      sload\n      tag_17\n      swap2\n      swap1\n      tag_15\n      jump\t// in\n    tag_17:\n      swap3\n      pop\n      pop\n      dup2\n      swap1\n      sstore\n      pop\n        /* \"Remix/practice13.sol\":102:154  function foo() virtual public {... */\n      jump\t// out\n        /* \"#utility.yul\":7:84   */\n    tag_18:\n        /* \"#utility.yul\":44:51   */\n      0x00\n        /* \"#utility.yul\":73:78   */\n      dup2\n        /* \"#utility.yul\":62:78   */\n      swap1\n      pop\n        /* \"#utility.yul\":7:84   */\n      swap2\n      swap1\n      pop\n      jump\t// out\n        /* \"#utility.yul\":90:208   */\n    tag_19:\n        /* \"#utility.yul\":177:201   */\n      tag_24\n        /* \"#utility.yul\":195:200   */\n      dup2\n        /* \"#utility.yul\":177:201   */\n      tag_18\n      jump\t// in\n    tag_24:\n        /* \"#utility.yul\":172:175   */\n      dup3\n        /* \"#utility.yul\":165:202   */\n      mstore\n        /* \"#utility.yul\":90:208   */\n      pop\n      pop\n      jump\t// out\n        /* \"#utility.yul\":214:436   */\n    tag_8:\n        /* \"#utility.yul\":307:311   */\n      0x00\n        /* \"#utility.yul\":345:347   */\n      0x20\n        /* \"#utility.yul\":334:343   */\n      dup3\n        /* \"#utility.yul\":330:348   */\n      add\n        /* \"#utility.yul\":322:348   */\n      swap1\n      pop\n        /* \"#utility.yul\":358:429   */\n      tag_26\n        /* \"#utility.yul\":426:427   */\n      0x00\n        /* \"#utility.yul\":415:424   */\n      dup4\n        /* \"#utility.yul\":411:428   */\n      add\n        /* \"#utility.yul\":402:408   */\n      dup5\n        /* \"#utility.yul\":358:429   */\n      tag_19\n      jump\t// in\n    tag_26:\n        /* \"#utility.yul\":214:436   */\n      swap3\n      swap2\n      pop\n      pop\n      jump\t// out\n        /* \"#utility.yul\":442:622   */\n    tag_20:\n        /* \"#utility.yul\":490:567   */\n      0x4e487b7100000000000000000000000000000000000000000000000000000000\n        /* \"#utility.yul\":487:488   */\n      0x00\n        /* \"#utility.yul\":480:568   */\n      mstore\n        /* \"#utility.yul\":587:591   */\n      0x11\n        /* \"#utility.yul\":584:585   */\n      0x04\n        /* \"#utility.yul\":577:592   */\n      mstore\n        /* \"#utility.yul\":611:615   */\n      0x24\n        /* \"#utility.yul\":608:609   */\n      0x00\n        /* \"#utility.yul\":601:616   */\n      revert\n        /* \"#utility.yul\":628:819   */\n    tag_15:\n        /* \"#utility.yul\":668:671   */\n      0x00\n        /* \"#utility.yul\":687:707   */\n      tag_29\n        /* \"#utility.yul\":705:706   */\n      dup3\n        /* \"#utility.yul\":687:707   */\n      tag_18\n      jump\t// in\n    tag_29:\n        /* \"#utility.yul\":682:707   */\n      swap2\n      pop\n        /* \"#utility.yul\":721:741   */\n      tag_30\n        /* \"#utility.yul\":739:740   */\n      dup4\n        /* \"#utility.yul\":721:741   */\n      tag_18\n      jump\t// in\n    tag_30:\n        /* \"#utility.yul\":716:741   */\n      swap3\n      pop\n        /* \"#utility.yul\":764:765   */\n      dup3\n        /* \"#utility.yul\":761:762   */\n      dup3\n        /* \"#utility.yul\":757:766   */\n      add\n        /* \"#utility.yul\":750:766   */\n      swap1\n      pop\n        /* \"#utility.yul\":785:788   */\n      dup1\n        /* \"#utility.yul\":782:783   */\n      dup3\n        /* \"#utility.yul\":779:789   */\n      gt\n        /* \"#utility.yul\":776:812   */\n      iszero\n      tag_31\n      jumpi\n        /* \"#utility.yul\":792:810   */\n      tag_32\n      tag_20\n      jump\t// in\n    tag_32:\n        /* \"#utility.yul\":776:812   */\n    tag_31:\n        /* \"#utility.yul\":628:819   */\n      swap3\n      swap2\n      pop\n      pop\n      jump\t// out\n\n    auxdata: 0xa26469706673582212204ee1dd1705374e6a701806030c0c6973f895fb23fde332504e267ccd4500b75c64736f6c634300081f0033\n}\n",
				"bytecode": {
					"linkReferences": {},
					"object": "6080604052348015600e575f5ffd5b506101688061001c5f395ff3fe608060405234801561000f575f5ffd5b5060043610610034575f3560e01c80630dbe671f14610038578063c298557814610056575b5f5ffd5b610040610060565b60405161004d91906100b9565b60405180910390f35b61005e610065565b005b5f5481565b61006d610087565b60015f5f82825461007e91906100ff565b92505081905550565b60025f5f82825461009891906100ff565b92505081905550565b5f819050919050565b6100b3816100a1565b82525050565b5f6020820190506100cc5f8301846100aa565b92915050565b7f4e487b71000000000000000000000000000000000000000000000000000000005f52601160045260245ffd5b5f610109826100a1565b9150610114836100a1565b925082820190508082111561012c5761012b6100d2565b5b9291505056fea26469706673582212204ee1dd1705374e6a701806030c0c6973f895fb23fde332504e267ccd4500b75c64736f6c634300081f0033",
					"opcodes": "PUSH1 0x80 PUSH1 0x40 MSTORE CALLVALUE DUP1 ISZERO PUSH1 0xE JUMPI PUSH0 PUSH0 REVERT JUMPDEST POP PUSH2 0x168 DUP1 PUSH2 0x1C PUSH0 CODECOPY PUSH0 RETURN INVALID PUSH1 0x80 PUSH1 0x40 MSTORE CALLVALUE DUP1 ISZERO PUSH2 0xF JUMPI PUSH0 PUSH0 REVERT JUMPDEST POP PUSH1 0x4 CALLDATASIZE LT PUSH2 0x34 JUMPI PUSH0 CALLDATALOAD PUSH1 0xE0 SHR DUP1 PUSH4 0xDBE671F EQ PUSH2 0x38 JUMPI DUP1 PUSH4 0xC2985578 EQ PUSH2 0x56 JUMPI JUMPDEST PUSH0 PUSH0 REVERT JUMPDEST PUSH2 0x40 PUSH2 0x60 JUMP JUMPDEST PUSH1 0x40 MLOAD PUSH2 0x4D SWAP2 SWAP1 PUSH2 0xB9 JUMP JUMPDEST PUSH1 0x40 MLOAD DUP1 SWAP2 SUB SWAP1 RETURN JUMPDEST PUSH2 0x5E PUSH2 0x65 JUMP JUMPDEST STOP JUMPDEST PUSH0 SLOAD DUP2 JUMP JUMPDEST PUSH2 0x6D PUSH2 0x87 JUMP JUMPDEST PUSH1 0x1 PUSH0 PUSH0 DUP3 DUP3 SLOAD PUSH2 0x7E SWAP2 SWAP1 PUSH2 0xFF JUMP JUMPDEST SWAP3 POP POP DUP2 SWAP1 SSTORE POP JUMP JUMPDEST PUSH1 0x2 PUSH0 PUSH0 DUP3 DUP3 SLOAD PUSH2 0x98 SWAP2 SWAP1 PUSH2 0xFF JUMP JUMPDEST SWAP3 POP POP DUP2 SWAP1 SSTORE POP JUMP JUMPDEST PUSH0 DUP2 SWAP1 POP SWAP2 SWAP1 POP JUMP JUMPDEST PUSH2 0xB3 DUP2 PUSH2 0xA1 JUMP JUMPDEST DUP3 MSTORE POP POP JUMP JUMPDEST PUSH0 PUSH1 0x20 DUP3 ADD SWAP1 POP PUSH2 0xCC PUSH0 DUP4 ADD DUP5 PUSH2 0xAA JUMP JUMPDEST SWAP3 SWAP2 POP POP JUMP JUMPDEST PUSH32 0x4E487B7100000000000000000000000000000000000000000000000000000000 PUSH0 MSTORE PUSH1 0x11 PUSH1 0x4 MSTORE PUSH1 0x24 PUSH0 REVERT JUMPDEST PUSH0 PUSH2 0x109 DUP3 PUSH2 0xA1 JUMP JUMPDEST SWAP2 POP PUSH2 0x114 DUP4 PUSH2 0xA1 JUMP JUMPDEST SWAP3 POP DUP3 DUP3 ADD SWAP1 POP DUP1 DUP3 GT ISZERO PUSH2 0x12C JUMPI PUSH2 0x12B PUSH2 0xD2 JUMP JUMPDEST JUMPDEST SWAP3 SWAP2 POP POP JUMP INVALID LOG2 PUSH5 0x6970667358 0x22 SLT KECCAK256 0x4E RJUMPI 0xDD17 SDIV CALLDATACOPY 0x4E PUSH11 0x701806030C0C6973F895FB 0x23 REVERT CALLF 0x3250 0x4E 0x26 PUSH29 0xCD4500B75C64736F6C634300081F003300000000000000000000000000 "
				},
				"gasEstimates": {
					"creation": {
						"codeDepositCost": "72000",
						"executionCost": "121",
						"totalCost": "72121"
					},
					"external": {
						"a()": "2402",
						"foo()": "infinite"
					}
				},
				"methodIdentifiers": {
					"a()": "0dbe671f",
					"foo()": "c2985578"
				}
			},
			"storageLayout": {
				"storage": [
					{
						"astId": 3,
						"contract": "Remix/practice13.sol:Sub",
						"label": "a",
						"offset": 0,
						"slot": "0",
						"type": "t_uint256"
					}
				],
				"types": {
					"t_uint256": {
						"encoding": "inplace",
						"label": "uint256",
						"numberOfBytes": "32"
					}
				}
			},
			"userdoc": {
				"kind": "user",
				"methods": {},
				"version": 1
			}
		}
	}
}