{
	"data": {
		"bytecode": {
			"linkReferences": {},
			"object": "6080604052348015600e575f5ffd5b506106258061001c5f395ff3fe608060405234801561000f575f5ffd5b5060043610610034575f3560e01c80637ea89d7414610038578063e104a47d14610068575b5f5ffd5b610052600480360381019061004d91906102a3565b610098565b60405161005f91906102e6565b60405180910390f35b610082600480360381019061007d919061044f565b61010d565b60405161008f919061054d565b60405180910390f35b5f8173ffffffffffffffffffffffffffffffffffffffff1663209652556040518163ffffffff1660e01b8152600401602060405180830381865afa1580156100e2573d5f5f3e3d5ffd5b505050506040513d601f19601f820116820180604052508101906101069190610597565b9050919050565b60605f825167ffffffffffffffff81111561012b5761012a610313565b5b6040519080825280602002602001820160405280156101595781602001602082028036833780820191505090505b5090505f5f90505b835181101561021d5783818151811061017d5761017c6105c2565b5b602002602001015173ffffffffffffffffffffffffffffffffffffffff1663209652556040518163ffffffff1660e01b8152600401602060405180830381865afa1580156101cd573d5f5f3e3d5ffd5b505050506040513d601f19601f820116820180604052508101906101f19190610597565b828281518110610204576102036105c2565b5b6020026020010181815250508080600101915050610161565b5080915050919050565b5f604051905090565b5f5ffd5b5f5ffd5b5f73ffffffffffffffffffffffffffffffffffffffff82169050919050565b5f61026182610238565b9050919050565b5f61027282610257565b9050919050565b61028281610268565b811461028c575f5ffd5b50565b5f8135905061029d81610279565b92915050565b5f602082840312156102b8576102b7610230565b5b5f6102c58482850161028f565b91505092915050565b5f819050919050565b6102e0816102ce565b82525050565b5f6020820190506102f95f8301846102d7565b92915050565b5f5ffd5b5f601f19601f8301169050919050565b7f4e487b71000000000000000000000000000000000000000000000000000000005f52604160045260245ffd5b61034982610303565b810181811067ffffffffffffffff8211171561036857610367610313565b5b80604052505050565b5f61037a610227565b90506103868282610340565b919050565b5f67ffffffffffffffff8211156103a5576103a4610313565b5b602082029050602081019050919050565b5f5ffd5b5f6103cc6103c78461038b565b610371565b905080838252602082019050602084028301858111156103ef576103ee6103b6565b5b835b818110156104185780610404888261028f565b8452602084019350506020810190506103f1565b5050509392505050565b5f82601f830112610436576104356102ff565b5b81356104468482602086016103ba565b91505092915050565b5f6020828403121561046457610463610230565b5b5f82013567ffffffffffffffff81111561048157610480610234565b5b61048d84828501610422565b91505092915050565b5f81519050919050565b5f82825260208201905092915050565b5f819050602082019050919050565b6104c8816102ce565b82525050565b5f6104d983836104bf565b60208301905092915050565b5f602082019050919050565b5f6104fb82610496565b61050581856104a0565b9350610510836104b0565b805f5b8381101561054057815161052788826104ce565b9750610532836104e5565b925050600181019050610513565b5085935050505092915050565b5f6020820190508181035f83015261056581846104f1565b905092915050565b610576816102ce565b8114610580575f5ffd5b50565b5f815190506105918161056d565b92915050565b5f602082840312156105ac576105ab610230565b5b5f6105b984828501610583565b91505092915050565b7f4e487b71000000000000000000000000000000000000000000000000000000005f52603260045260245ffdfea2646970667358221220158afda3e6d91d40aa076223814ed1076bc66fcb02904c8c2dc7072b01a865de64736f6c634300081f0033",
			"opcodes": "PUSH1 0x80 PUSH1 0x40 MSTORE CALLVALUE DUP1 ISZERO PUSH1 0xE JUMPI PUSH0 PUSH0 REVERT JUMPDEST POP PUSH2 0x625 DUP1 PUSH2 0x1C PUSH0 CODECOPY PUSH0 RETURN INVALID PUSH1 0x80 PUSH1 0x40 MSTORE CALLVALUE DUP1 ISZERO PUSH2 0xF JUMPI PUSH0 PUSH0 REVERT JUMPDEST POP PUSH1 0x4 CALLDATASIZE LT PUSH2 0x34 JUMPI PUSH0 CALLDATALOAD PUSH1 0xE0 SHR DUP1 PUSH4 0x7EA89D74 EQ PUSH2 0x38 JUMPI DUP1 PUSH4 0xE104A47D EQ PUSH2 0x68 JUMPI JUMPDEST PUSH0 PUSH0 REVERT JUMPDEST PUSH2 0x52 PUSH1 0x4 DUP1 CALLDATASIZE SUB DUP2 ADD SWAP1 PUSH2 0x4D SWAP2 SWAP1 PUSH2 0x2A3 JUMP JUMPDEST PUSH2 0x98 JUMP JUMPDEST PUSH1 0x40 MLOAD PUSH2 0x5F SWAP2 SWAP1 PUSH2 0x2E6 JUMP JUMPDEST PUSH1 0x40 MLOAD DUP1 SWAP2 SUB SWAP1 RETURN JUMPDEST PUSH2 0x82 PUSH1 0x4 DUP1 CALLDATASIZE SUB DUP2 ADD SWAP1 PUSH2 0x7D SWAP2 SWAP1 PUSH2 0x44F JUMP JUMPDEST PUSH2 0x10D JUMP JUMPDEST PUSH1 0x40 MLOAD PUSH2 0x8F SWAP2 SWAP1 PUSH2 0x54D JUMP JUMPDEST PUSH1 0x40 MLOAD DUP1 SWAP2 SUB SWAP1 RETURN JUMPDEST PUSH0 DUP2 PUSH20 0xFFFFFFFFFFFFFFFFFFFFFFFFFFFFFFFFFFFFFFFF AND PUSH4 0x20965255 PUSH1 0x40 MLOAD DUP2 PUSH4 0xFFFFFFFF AND PUSH1 0xE0 SHL DUP2 MSTORE PUSH1 0x4 ADD PUSH1 0x20 PUSH1 0x40 MLOAD DUP1 DUP4 SUB DUP2 DUP7 GAS STATICCALL ISZERO DUP1 ISZERO PUSH2 0xE2 JUMPI RETURNDATASIZE PUSH0 PUSH0 RETURNDATACOPY RETURNDATASIZE PUSH0 REVERT JUMPDEST POP POP POP POP PUSH1 0x40 MLOAD RETURNDATASIZE PUSH1 0x1F NOT PUSH1 0x1F DUP3 ADD AND DUP3 ADD DUP1 PUSH1 0x40 MSTORE POP DUP2 ADD SWAP1 PUSH2 0x106 SWAP2 SWAP1 PUSH2 0x597 JUMP JUMPDEST SWAP1 POP SWAP2 SWAP1 POP JUMP JUMPDEST PUSH1 0x60 PUSH0 DUP3 MLOAD PUSH8 0xFFFFFFFFFFFFFFFF DUP2 GT ISZERO PUSH2 0x12B JUMPI PUSH2 0x12A PUSH2 0x313 JUMP JUMPDEST JUMPDEST PUSH1 0x40 MLOAD SWAP1 DUP1 DUP3 MSTORE DUP1 PUSH1 0x20 MUL PUSH1 0x20 ADD DUP3 ADD PUSH1 0x40 MSTORE DUP1 ISZERO PUSH2 0x159 JUMPI DUP2 PUSH1 0x20 ADD PUSH1 0x20 DUP3 MUL DUP1 CALLDATASIZE DUP4 CALLDATACOPY DUP1 DUP3 ADD SWAP2 POP POP SWAP1 POP JUMPDEST POP SWAP1 POP PUSH0 PUSH0 SWAP1 POP JUMPDEST DUP4 MLOAD DUP2 LT ISZERO PUSH2 0x21D JUMPI DUP4 DUP2 DUP2 MLOAD DUP2 LT PUSH2 0x17D JUMPI PUSH2 0x17C PUSH2 0x5C2 JUMP JUMPDEST JUMPDEST PUSH1 0x20 MUL PUSH1 0x20 ADD ADD MLOAD PUSH20 0xFFFFFFFFFFFFFFFFFFFFFFFFFFFFFFFFFFFFFFFF AND PUSH4 0x20965255 PUSH1 0x40 MLOAD DUP2 PUSH4 0xFFFFFFFF AND PUSH1 0xE0 SHL DUP2 MSTORE PUSH1 0x4 ADD PUSH1 0x20 PUSH1 0x40 MLOAD DUP1 DUP4 SUB DUP2 DUP7 GAS STATICCALL ISZERO DUP1 ISZERO PUSH2 0x1CD JUMPI RETURNDATASIZE PUSH0 PUSH0 RETURNDATACOPY RETURNDATASIZE PUSH0 REVERT JUMPDEST POP POP POP POP PUSH1 0x40 MLOAD RETURNDATASIZE PUSH1 0x1F NOT PUSH1 0x1F DUP3 ADD AND DUP3 ADD DUP1 PUSH1 0x40 MSTORE POP DUP2 ADD SWAP1 PUSH2 0x1F1 SWAP2 SWAP1 PUSH2 0x597 JUMP JUMPDEST DUP3 DUP3 DUP2 MLOAD DUP2 LT PUSH2 0x204 JUMPI PUSH2 0x203 PUSH2 0x5C2 JUMP JUMPDEST JUMPDEST PUSH1 0x20 MUL PUSH1 0x20 ADD ADD DUP2 DUP2 MSTORE POP POP DUP1 DUP1 PUSH1 0x1 ADD SWAP2 POP POP PUSH2 0x161 JUMP JUMPDEST POP DUP1 SWAP2 POP POP SWAP2 SWAP1 POP JUMP JUMPDEST PUSH0 PUSH1 0x40 MLOAD SWAP1 POP SWAP1 JUMP JUMPDEST PUSH0 PUSH0 REVERT JUMPDEST PUSH0 PUSH0 REVERT JUMPDEST PUSH0 PUSH20 0xFFFFFFFFFFFFFFFFFFFFFFFFFFFFFFFFFFFFFFFF DUP3 AND SWAP1 POP SWAP2 SWAP1 POP JUMP JUMPDEST PUSH0 PUSH2 0x261 DUP3 PUSH2 0x238 JUMP JUMPDEST SWAP1 POP SWAP2 SWAP1 POP JUMP JUMPDEST PUSH0 PUSH2 0x272 DUP3 PUSH2 0x257 JUMP JUMPDEST SWAP1 POP SWAP2 SWAP1 POP JUMP JUMPDEST PUSH2 0x282 DUP2 PUSH2 0x268 JUMP JUMPDEST DUP2 EQ PUSH2 0x28C JUMPI PUSH0 PUSH0 REVERT JUMPDEST POP JUMP JUMPDEST PUSH0 DUP2 CALLDATALOAD SWAP1 POP PUSH2 0x29D DUP2 PUSH2 0x279 JUMP JUMPDEST SWAP3 SWAP2 POP POP JUMP JUMPDEST PUSH0 PUSH1 0x20 DUP3 DUP5 SUB SLT ISZERO PUSH2 0x2B8 JUMPI PUSH2 0x2B7 PUSH2 0x230 JUMP JUMPDEST JUMPDEST PUSH0 PUSH2 0x2C5 DUP5 DUP3 DUP6 ADD PUSH2 0x28F JUMP JUMPDEST SWAP2 POP POP SWAP3 SWAP2 POP POP JUMP JUMPDEST PUSH0 DUP2 SWAP1 POP SWAP2 SWAP1 POP JUMP JUMPDEST PUSH2 0x2E0 DUP2 PUSH2 0x2CE JUMP JUMPDEST DUP3 MSTORE POP POP JUMP JUMPDEST PUSH0 PUSH1 0x20 DUP3 ADD SWAP1 POP PUSH2 0x2F9 PUSH0 DUP4 ADD DUP5 PUSH2 0x2D7 JUMP JUMPDEST SWAP3 SWAP2 POP POP JUMP JUMPDEST PUSH0 PUSH0 REVERT JUMPDEST PUSH0 PUSH1 0x1F NOT PUSH1 0x1F DUP4 ADD AND SWAP1 POP SWAP2 SWAP1 POP JUMP JUMPDEST PUSH32 0x4E487B7100000000000000000000000000000000000000000000000000000000 PUSH0 MSTORE PUSH1 0x41 PUSH1 0x4 MSTORE PUSH1 0x24 PUSH0 REVERT JUMPDEST PUSH2 0x349 DUP3 PUSH2 0x303 JUMP JUMPDEST DUP2 ADD DUP2 DUP2 LT PUSH8 0xFFFFFFFFFFFFFFFF DUP3 GT OR ISZERO PUSH2 0x368 JUMPI PUSH2 0x367 PUSH2 0x313 JUMP JUMPDEST JUMPDEST DUP1 PUSH1 0x40 MSTORE POP POP POP JUMP JUMPDEST PUSH0 PUSH2 0x37A PUSH2 0x227 JUMP JUMPDEST SWAP1 POP PUSH2 0x386 DUP3 DUP3 PUSH2 0x340 JUMP JUMPDEST SWAP2 SWAP1 POP JUMP JUMPDEST PUSH0 PUSH8 0xFFFFFFFFFFFFFFFF DUP3 GT ISZERO PUSH2 0x3A5 JUMPI PUSH2 0x3A4 PUSH2 0x313 JUMP JUMPDEST JUMPDEST PUSH1 0x20 DUP3 MUL SWAP1 POP PUSH1 0x20 DUP2 ADD SWAP1 POP SWAP2 SWAP1 POP JUMP JUMPDEST PUSH0 PUSH0 REVERT JUMPDEST PUSH0 PUSH2 0x3CC PUSH2 0x3C7 DUP5 PUSH2 0x38B JUMP JUMPDEST PUSH2 0x371 JUMP JUMPDEST SWAP1 POP DUP1 DUP4 DUP3 MSTORE PUSH1 0x20 DUP3 ADD SWAP1 POP PUSH1 0x20 DUP5 MUL DUP4 ADD DUP6 DUP2 GT ISZERO PUSH2 0x3EF JUMPI PUSH2 0x3EE PUSH2 0x3B6 JUMP JUMPDEST JUMPDEST DUP4 JUMPDEST DUP2 DUP2 LT ISZERO PUSH2 0x418 JUMPI DUP1 PUSH2 0x404 DUP9 DUP3 PUSH2 0x28F JUMP JUMPDEST DUP5 MSTORE PUSH1 0x20 DUP5 ADD SWAP4 POP POP PUSH1 0x20 DUP2 ADD SWAP1 POP PUSH2 0x3F1 JUMP JUMPDEST POP POP POP SWAP4 SWAP3 POP POP POP JUMP JUMPDEST PUSH0 DUP3 PUSH1 0x1F DUP4 ADD SLT PUSH2 0x436 JUMPI PUSH2 0x435 PUSH2 0x2FF JUMP JUMPDEST JUMPDEST DUP2 CALLDATALOAD PUSH2 0x446 DUP5 DUP3 PUSH1 0x20 DUP7 ADD PUSH2 0x3BA JUMP JUMPDEST SWAP2 POP POP SWAP3 SWAP2 POP POP JUMP JUMPDEST PUSH0 PUSH1 0x20 DUP3 DUP5 SUB SLT ISZERO PUSH2 0x464 JUMPI PUSH2 0x463 PUSH2 0x230 JUMP JUMPDEST JUMPDEST PUSH0 DUP3 ADD CALLDATALOAD PUSH8 0xFFFFFFFFFFFFFFFF DUP2 GT ISZERO PUSH2 0x481 JUMPI PUSH2 0x480 PUSH2 0x234 JUMP JUMPDEST JUMPDEST PUSH2 0x48D DUP5 DUP3 DUP6 ADD PUSH2 0x422 JUMP JUMPDEST SWAP2 POP POP SWAP3 SWAP2 POP POP JUMP JUMPDEST PUSH0 DUP2 MLOAD SWAP1 POP SWAP2 SWAP1 POP JUMP JUMPDEST PUSH0 DUP3 DUP3 MSTORE PUSH1 0x20 DUP3 ADD SWAP1 POP SWAP3 SWAP2 POP POP JUMP JUMPDEST PUSH0 DUP2 SWAP1 POP PUSH1 0x20 DUP3 ADD SWAP1 POP SWAP2 SWAP1 POP JUMP JUMPDEST PUSH2 0x4C8 DUP2 PUSH2 0x2CE JUMP JUMPDEST DUP3 MSTORE POP POP JUMP JUMPDEST PUSH0 PUSH2 0x4D9 DUP4 DUP4 PUSH2 0x4BF JUMP JUMPDEST PUSH1 0x20 DUP4 ADD SWAP1 POP SWAP3 SWAP2 POP POP JUMP JUMPDEST PUSH0 PUSH1 0x20 DUP3 ADD SWAP1 POP SWAP2 SWAP1 POP JUMP JUMPDEST PUSH0 PUSH2 0x4FB DUP3 PUSH2 0x496 JUMP JUMPDEST PUSH2 0x505 DUP2 DUP6 PUSH2 0x4A0 JUMP JUMPDEST SWAP4 POP PUSH2 0x510 DUP4 PUSH2 0x4B0 JUMP JUMPDEST DUP1 PUSH0 JUMPDEST DUP4 DUP2 LT ISZERO PUSH2 0x540 JUMPI DUP2 MLOAD PUSH2 0x527 DUP9 DUP3 PUSH2 0x4CE JUMP JUMPDEST SWAP8 POP PUSH2 0x532 DUP4 PUSH2 0x4E5 JUMP JUMPDEST SWAP3 POP POP PUSH1 0x1 DUP2 ADD SWAP1 POP PUSH2 0x513 JUMP JUMPDEST POP DUP6 SWAP4 POP POP POP POP SWAP3 SWAP2 POP POP JUMP JUMPDEST PUSH0 PUSH1 0x20 DUP3 ADD SWAP1 POP DUP2 DUP2 SUB PUSH0 DUP4 ADD MSTORE PUSH2 0x565 DUP2 DUP5 PUSH2 0x4F1 JUMP JUMPDEST SWAP1 POP SWAP3 SWAP2 POP POP JUMP JUMPDEST PUSH2 0x576 DUP2 PUSH2 0x2CE JUMP JUMPDEST DUP2 EQ PUSH2 0x580 JUMPI PUSH0 PUSH0 REVERT JUMPDEST POP JUMP JUMPDEST PUSH0 DUP2 MLOAD SWAP1 POP PUSH2 0x591 DUP2 PUSH2 0x56D JUMP JUMPDEST SWAP3 SWAP2 POP POP JUMP JUMPDEST PUSH0 PUSH1 0x20 DUP3 DUP5 SUB SLT ISZERO PUSH2 0x5AC JUMPI PUSH2 0x5AB PUSH2 0x230 JUMP JUMPDEST JUMPDEST PUSH0 PUSH2 0x5B9 DUP5 DUP3 DUP6 ADD PUSH2 0x583 JUMP JUMPDEST SWAP2 POP POP SWAP3 SWAP2 POP POP JUMP JUMPDEST PUSH32 0x4E487B7100000000000000000000000000000000000000000000000000000000 PUSH0 MSTORE PUSH1 0x32 PUSH1 0x4 MSTORE PUSH1 0x24 PUSH0 REVERT INVALID LOG2 PUSH5 0x6970667358 0x22 SLT KECCAK256 ISZERO DUP11 REVERT LOG3 DUPN 0xD9 SAR BLOCKHASH 0xAA SMOD PUSH3 0x23814E DATALOADN 0x76B 0xC6 PUSH16 0xCB02904C8C2DC7072B01A865DE64736F PUSH13 0x634300081F0033000000000000 "
		},
		"gasEstimates": {
			"creation": {
				"codeDepositCost": "314600",
				"executionCost": "353",
				"totalCost": "314953"
			},
			"external": {
				"readAll(address[])": "infinite",
				"readSensor(address)": "infinite"
			}
		},
		"methodIdentifiers": {
			"readAll(address[])": "e104a47d",
			"readSensor(address)": "7ea89d74"
		}
	},
	"abi": [
		{
			"inputs": [
				{
					"internalType": "contract ISensor[]",
					"name": "_sensors",
					"type": "address[]"
				}
			],
			"name": "readAll",
			"outputs": [
				{
					"internalType": "uint256[]",
					"name": "",
					"type": "uint256[]"
				}
			],
			"stateMutability": "view",
			"type": "function"
		},
		{
			"inputs": [
				{
					"internalType": "contract ISensor",
					"name": "_sensorAddress",
					"type": "address"
				}
			],
			"name": "readSensor",
			"outputs": [
				{
					"internalType": "uint256",
					"name": "",
					"type": "uint256"
				}
			],
			"stateMutability": "view",
			"type": "function"
		}
	]
}