{
	"data": {
		"bytecode": {
			"linkReferences": {},
			"object": "6080604052348015600e575f5ffd5b506104268061001c5f395ff3fe608060405234801561000f575f5ffd5b5060043610610034575f3560e01c8063407d43b214610038578063b46cfd5114610054575b5f5ffd5b610052600480360381019061004d91906102aa565b610070565b005b61006e600480360381019061006991906102aa565b6101af565b005b5f8160405160240161008291906102f7565b6040516020818303038152906040527f215651af000000000000000000000000000000000000000000000000000000007bffffffffffffffffffffffffffffffffffffffffffffffffffffffff19166020820180517bffffffffffffffffffffffffffffffffffffffffffffffffffffffff838183161783525050505090505f8373ffffffffffffffffffffffffffffffffffffffff16826040516101279190610362565b5f604051808303815f865af19150503d805f8114610160576040519150601f19603f3d011682016040523d82523d5f602084013e610165565b606091505b50509050806101a9576040517f08c379a00000000000000000000000000000000000000000000000000000000081526004016101a0906103d2565b60405180910390fd5b50505050565b8173ffffffffffffffffffffffffffffffffffffffff16635b4b73a9826040518263ffffffff1660e01b81526004016101e891906102f7565b5f604051808303815f87803b1580156101ff575f5ffd5b505af1158015610211573d5f5f3e3d5ffd5b505050505050565b5f5ffd5b5f73ffffffffffffffffffffffffffffffffffffffff82169050919050565b5f6102468261021d565b9050919050565b6102568161023c565b8114610260575f5ffd5b50565b5f813590506102718161024d565b92915050565b5f819050919050565b61028981610277565b8114610293575f5ffd5b50565b5f813590506102a481610280565b92915050565b5f5f604083850312156102c0576102bf610219565b5b5f6102cd85828601610263565b92505060206102de85828601610296565b9150509250929050565b6102f181610277565b82525050565b5f60208201905061030a5f8301846102e8565b92915050565b5f81519050919050565b5f81905092915050565b8281835e5f83830152505050565b5f61033c82610310565b610346818561031a565b9350610356818560208601610324565b80840191505092915050565b5f61036d8284610332565b915081905092915050565b5f82825260208201905092915050565b7f43616c6c206661696c65642100000000000000000000000000000000000000005f82015250565b5f6103bc600c83610378565b91506103c782610388565b602082019050919050565b5f6020820190508181035f8301526103e9816103b0565b905091905056fea2646970667358221220842254931ed2f33d85f42b4a58cd308103cc4131d3d0b414f7ede050acf2ef4d64736f6c634300081f0033",
			"opcodes": "PUSH1 0x80 PUSH1 0x40 MSTORE CALLVALUE DUP1 ISZERO PUSH1 0xE JUMPI PUSH0 PUSH0 REVERT JUMPDEST POP PUSH2 0x426 DUP1 PUSH2 0x1C PUSH0 CODECOPY PUSH0 RETURN INVALID PUSH1 0x80 PUSH1 0x40 MSTORE CALLVALUE DUP1 ISZERO PUSH2 0xF JUMPI PUSH0 PUSH0 REVERT JUMPDEST POP PUSH1 0x4 CALLDATASIZE LT PUSH2 0x34 JUMPI PUSH0 CALLDATALOAD PUSH1 0xE0 SHR DUP1 PUSH4 0x407D43B2 EQ PUSH2 0x38 JUMPI DUP1 PUSH4 0xB46CFD51 EQ PUSH2 0x54 JUMPI JUMPDEST PUSH0 PUSH0 REVERT JUMPDEST PUSH2 0x52 PUSH1 0x4 DUP1 CALLDATASIZE SUB DUP2 ADD SWAP1 PUSH2 0x4D SWAP2 SWAP1 PUSH2 0x2AA JUMP JUMPDEST PUSH2 0x70 JUMP JUMPDEST STOP JUMPDEST PUSH2 0x6E PUSH1 0x4 DUP1 CALLDATASIZE SUB DUP2 ADD SWAP1 PUSH2 0x69 SWAP2 SWAP1 PUSH2 0x2AA JUMP JUMPDEST PUSH2 0x1AF JUMP JUMPDEST STOP JUMPDEST PUSH0 DUP2 PUSH1 0x40 MLOAD PUSH1 0x24 ADD PUSH2 0x82 SWAP2 SWAP1 PUSH2 0x2F7 JUMP JUMPDEST PUSH1 0x40 MLOAD PUSH1 0x20 DUP2 DUP4 SUB SUB DUP2 MSTORE SWAP1 PUSH1 0x40 MSTORE PUSH32 0x215651AF00000000000000000000000000000000000000000000000000000000 PUSH28 0xFFFFFFFFFFFFFFFFFFFFFFFFFFFFFFFFFFFFFFFFFFFFFFFFFFFFFFFF NOT AND PUSH1 0x20 DUP3 ADD DUP1 MLOAD PUSH28 0xFFFFFFFFFFFFFFFFFFFFFFFFFFFFFFFFFFFFFFFFFFFFFFFFFFFFFFFF DUP4 DUP2 DUP4 AND OR DUP4 MSTORE POP POP POP POP SWAP1 POP PUSH0 DUP4 PUSH20 0xFFFFFFFFFFFFFFFFFFFFFFFFFFFFFFFFFFFFFFFF AND DUP3 PUSH1 0x40 MLOAD PUSH2 0x127 SWAP2 SWAP1 PUSH2 0x362 JUMP JUMPDEST PUSH0 PUSH1 0x40 MLOAD DUP1 DUP4 SUB DUP2 PUSH0 DUP7 GAS CALL SWAP2 POP POP RETURNDATASIZE DUP1 PUSH0 DUP2 EQ PUSH2 0x160 JUMPI PUSH1 0x40 MLOAD SWAP2 POP PUSH1 0x1F NOT PUSH1 0x3F RETURNDATASIZE ADD AND DUP3 ADD PUSH1 0x40 MSTORE RETURNDATASIZE DUP3 MSTORE RETURNDATASIZE PUSH0 PUSH1 0x20 DUP5 ADD RETURNDATACOPY PUSH2 0x165 JUMP JUMPDEST PUSH1 0x60 SWAP2 POP JUMPDEST POP POP SWAP1 POP DUP1 PUSH2 0x1A9 JUMPI PUSH1 0x40 MLOAD PUSH32 0x8C379A000000000000000000000000000000000000000000000000000000000 DUP2 MSTORE PUSH1 0x4 ADD PUSH2 0x1A0 SWAP1 PUSH2 0x3D2 JUMP JUMPDEST PUSH1 0x40 MLOAD DUP1 SWAP2 SUB SWAP1 REVERT JUMPDEST POP POP POP POP JUMP JUMPDEST DUP2 PUSH20 0xFFFFFFFFFFFFFFFFFFFFFFFFFFFFFFFFFFFFFFFF AND PUSH4 0x5B4B73A9 DUP3 PUSH1 0x40 MLOAD DUP3 PUSH4 0xFFFFFFFF AND PUSH1 0xE0 SHL DUP2 MSTORE PUSH1 0x4 ADD PUSH2 0x1E8 SWAP2 SWAP1 PUSH2 0x2F7 JUMP JUMPDEST PUSH0 PUSH1 0x40 MLOAD DUP1 DUP4 SUB DUP2 PUSH0 DUP8 DUP1 EXTCODESIZE ISZERO DUP1 ISZERO PUSH2 0x1FF JUMPI PUSH0 PUSH0 REVERT JUMPDEST POP GAS CALL ISZERO DUP1 ISZERO PUSH2 0x211 JUMPI RETURNDATASIZE PUSH0 PUSH0 RETURNDATACOPY RETURNDATASIZE PUSH0 REVERT JUMPDEST POP POP POP POP POP POP JUMP JUMPDEST PUSH0 PUSH0 REVERT JUMPDEST PUSH0 PUSH20 0xFFFFFFFFFFFFFFFFFFFFFFFFFFFFFFFFFFFFFFFF DUP3 AND SWAP1 POP SWAP2 SWAP1 POP JUMP JUMPDEST PUSH0 PUSH2 0x246 DUP3 PUSH2 0x21D JUMP JUMPDEST SWAP1 POP SWAP2 SWAP1 POP JUMP JUMPDEST PUSH2 0x256 DUP2 PUSH2 0x23C JUMP JUMPDEST DUP2 EQ PUSH2 0x260 JUMPI PUSH0 PUSH0 REVERT JUMPDEST POP JUMP JUMPDEST PUSH0 DUP2 CALLDATALOAD SWAP1 POP PUSH2 0x271 DUP2 PUSH2 0x24D JUMP JUMPDEST SWAP3 SWAP2 POP POP JUMP JUMPDEST PUSH0 DUP2 SWAP1 POP SWAP2 SWAP1 POP JUMP JUMPDEST PUSH2 0x289 DUP2 PUSH2 0x277 JUMP JUMPDEST DUP2 EQ PUSH2 0x293 JUMPI PUSH0 PUSH0 REVERT JUMPDEST POP JUMP JUMPDEST PUSH0 DUP2 CALLDATALOAD SWAP1 POP PUSH2 0x2A4 DUP2 PUSH2 0x280 JUMP JUMPDEST SWAP3 SWAP2 POP POP JUMP JUMPDEST PUSH0 PUSH0 PUSH1 0x40 DUP4 DUP6 SUB SLT ISZERO PUSH2 0x2C0 JUMPI PUSH2 0x2BF PUSH2 0x219 JUMP JUMPDEST JUMPDEST PUSH0 PUSH2 0x2CD DUP6 DUP3 DUP7 ADD PUSH2 0x263 JUMP JUMPDEST SWAP3 POP POP PUSH1 0x20 PUSH2 0x2DE DUP6 DUP3 DUP7 ADD PUSH2 0x296 JUMP JUMPDEST SWAP2 POP POP SWAP3 POP SWAP3 SWAP1 POP JUMP JUMPDEST PUSH2 0x2F1 DUP2 PUSH2 0x277 JUMP JUMPDEST DUP3 MSTORE POP POP JUMP JUMPDEST PUSH0 PUSH1 0x20 DUP3 ADD SWAP1 POP PUSH2 0x30A PUSH0 DUP4 ADD DUP5 PUSH2 0x2E8 JUMP JUMPDEST SWAP3 SWAP2 POP POP JUMP JUMPDEST PUSH0 DUP2 MLOAD SWAP1 POP SWAP2 SWAP1 POP JUMP JUMPDEST PUSH0 DUP2 SWAP1 POP SWAP3 SWAP2 POP POP JUMP JUMPDEST DUP3 DUP2 DUP4 MCOPY PUSH0 DUP4 DUP4 ADD MSTORE POP POP POP JUMP JUMPDEST PUSH0 PUSH2 0x33C DUP3 PUSH2 0x310 JUMP JUMPDEST PUSH2 0x346 DUP2 DUP6 PUSH2 0x31A JUMP JUMPDEST SWAP4 POP PUSH2 0x356 DUP2 DUP6 PUSH1 0x20 DUP7 ADD PUSH2 0x324 JUMP JUMPDEST DUP1 DUP5 ADD SWAP2 POP POP SWAP3 SWAP2 POP POP JUMP JUMPDEST PUSH0 PUSH2 0x36D DUP3 DUP5 PUSH2 0x332 JUMP JUMPDEST SWAP2 POP DUP2 SWAP1 POP SWAP3 SWAP2 POP POP JUMP JUMPDEST PUSH0 DUP3 DUP3 MSTORE PUSH1 0x20 DUP3 ADD SWAP1 POP SWAP3 SWAP2 POP POP JUMP JUMPDEST PUSH32 0x43616C6C206661696C6564210000000000000000000000000000000000000000 PUSH0 DUP3 ADD MSTORE POP JUMP JUMPDEST PUSH0 PUSH2 0x3BC PUSH1 0xC DUP4 PUSH2 0x378 JUMP JUMPDEST SWAP2 POP PUSH2 0x3C7 DUP3 PUSH2 0x388 JUMP JUMPDEST PUSH1 0x20 DUP3 ADD SWAP1 POP SWAP2 SWAP1 POP JUMP JUMPDEST PUSH0 PUSH1 0x20 DUP3 ADD SWAP1 POP DUP2 DUP2 SUB PUSH0 DUP4 ADD MSTORE PUSH2 0x3E9 DUP2 PUSH2 0x3B0 JUMP JUMPDEST SWAP1 POP SWAP2 SWAP1 POP JUMP INVALID LOG2 PUSH5 0x6970667358 0x22 SLT KECCAK256 DUP5 0x22 SLOAD SWAP4 CLZ 0xD2 RETURN RETURNDATASIZE DUP6 DELEGATECALL 0x2B BLOBBASEFEE PC 0xCD ADDRESS DUP2 SUB 0xCC COINBASE BALANCE 0xD3 0xD0 0xB4 EQ 0xF7 0xED RJUMP 0x50AC CALLCODE 0xEF 0x4D PUSH5 0x736F6C6343 STOP ADDMOD 0x1F STOP CALLER "
		},
		"gasEstimates": {
			"creation": {
				"codeDepositCost": "212400",
				"executionCost": "255",
				"totalCost": "212655"
			},
			"external": {
				"callLowLevel(address,uint256)": "infinite",
				"callNormal(address,uint256)": "infinite"
			}
		},
		"methodIdentifiers": {
			"callLowLevel(address,uint256)": "407d43b2",
			"callNormal(address,uint256)": "b46cfd51"
		}
	},
	"abi": [
		{
			"inputs": [
				{
					"internalType": "address",
					"name": "_target",
					"type": "address"
				},
				{
					"internalType": "uint256",
					"name": "_val",
					"type": "uint256"
				}
			],
			"name": "callLowLevel",
			"outputs": [],
			"stateMutability": "nonpayable",
			"type": "function"
		},
		{
			"inputs": [
				{
					"internalType": "address",
					"name": "_target",
					"type": "address"
				},
				{
					"internalType": "uint256",
					"name": "_val",
					"type": "uint256"
				}
			],
			"name": "callNormal",
			"outputs": [],
			"stateMutability": "nonpayable",
			"type": "function"
		}
	]
}