{
	"data": {
		"bytecode": {
			"linkReferences": {},
			"object": "6080604052348015600e575f5ffd5b506103628061001c5f395ff3fe608060405234801561000f575f5ffd5b5060043610610034575f3560e01c8063501c185114610038578063ae53789b14610059575b5f5ffd5b610040610075565b6040516100509493929190610203565b60405180910390f35b610073600480360381019061006e91906102c8565b6100cf565b005b5f805f015f9054906101000a900467ffffffffffffffff1690805f0160089054906101000a900467ffffffffffffffff1690805f0160109054906101000a900460ff1690805f0160119054906101000a900460ff16905084565b60405180608001604052808567ffffffffffffffff1681526020018467ffffffffffffffff1681526020018360ff1681526020018215158152505f5f820151815f015f6101000a81548167ffffffffffffffff021916908367ffffffffffffffff1602179055506020820151815f0160086101000a81548167ffffffffffffffff021916908367ffffffffffffffff1602179055506040820151815f0160106101000a81548160ff021916908360ff1602179055506060820151815f0160116101000a81548160ff02191690831515021790555090505050505050565b5f67ffffffffffffffff82169050919050565b6101c8816101ac565b82525050565b5f60ff82169050919050565b6101e3816101ce565b82525050565b5f8115159050919050565b6101fd816101e9565b82525050565b5f6080820190506102165f8301876101bf565b61022360208301866101bf565b61023060408301856101da565b61023d60608301846101f4565b95945050505050565b5f5ffd5b610253816101ac565b811461025d575f5ffd5b50565b5f8135905061026e8161024a565b92915050565b61027d816101ce565b8114610287575f5ffd5b50565b5f8135905061029881610274565b92915050565b6102a7816101e9565b81146102b1575f5ffd5b50565b5f813590506102c28161029e565b92915050565b5f5f5f5f608085870312156102e0576102df610246565b5b5f6102ed87828801610260565b94505060206102fe87828801610260565b935050604061030f8782880161028a565b9250506060610320878288016102b4565b9150509295919450925056fea264697066735822122010e8e018d77c3a5efc592838c9ad62501a494a781907854df06da91e5cf84cc064736f6c634300081f0033",
			"opcodes": "PUSH1 0x80 PUSH1 0x40 MSTORE CALLVALUE DUP1 ISZERO PUSH1 0xE JUMPI PUSH0 PUSH0 REVERT JUMPDEST POP PUSH2 0x362 DUP1 PUSH2 0x1C PUSH0 CODECOPY PUSH0 RETURN INVALID PUSH1 0x80 PUSH1 0x40 MSTORE CALLVALUE DUP1 ISZERO PUSH2 0xF JUMPI PUSH0 PUSH0 REVERT JUMPDEST POP PUSH1 0x4 CALLDATASIZE LT PUSH2 0x34 JUMPI PUSH0 CALLDATALOAD PUSH1 0xE0 SHR DUP1 PUSH4 0x501C1851 EQ PUSH2 0x38 JUMPI DUP1 PUSH4 0xAE53789B EQ PUSH2 0x59 JUMPI JUMPDEST PUSH0 PUSH0 REVERT JUMPDEST PUSH2 0x40 PUSH2 0x75 JUMP JUMPDEST PUSH1 0x40 MLOAD PUSH2 0x50 SWAP5 SWAP4 SWAP3 SWAP2 SWAP1 PUSH2 0x203 JUMP JUMPDEST PUSH1 0x40 MLOAD DUP1 SWAP2 SUB SWAP1 RETURN JUMPDEST PUSH2 0x73 PUSH1 0x4 DUP1 CALLDATASIZE SUB DUP2 ADD SWAP1 PUSH2 0x6E SWAP2 SWAP1 PUSH2 0x2C8 JUMP JUMPDEST PUSH2 0xCF JUMP JUMPDEST STOP JUMPDEST PUSH0 DUP1 PUSH0 ADD PUSH0 SWAP1 SLOAD SWAP1 PUSH2 0x100 EXP SWAP1 DIV PUSH8 0xFFFFFFFFFFFFFFFF AND SWAP1 DUP1 PUSH0 ADD PUSH1 0x8 SWAP1 SLOAD SWAP1 PUSH2 0x100 EXP SWAP1 DIV PUSH8 0xFFFFFFFFFFFFFFFF AND SWAP1 DUP1 PUSH0 ADD PUSH1 0x10 SWAP1 SLOAD SWAP1 PUSH2 0x100 EXP SWAP1 DIV PUSH1 0xFF AND SWAP1 DUP1 PUSH0 ADD PUSH1 0x11 SWAP1 SLOAD SWAP1 PUSH2 0x100 EXP SWAP1 DIV PUSH1 0xFF AND SWAP1 POP DUP5 JUMP JUMPDEST PUSH1 0x40 MLOAD DUP1 PUSH1 0x80 ADD PUSH1 0x40 MSTORE DUP1 DUP6 PUSH8 0xFFFFFFFFFFFFFFFF AND DUP2 MSTORE PUSH1 0x20 ADD DUP5 PUSH8 0xFFFFFFFFFFFFFFFF AND DUP2 MSTORE PUSH1 0x20 ADD DUP4 PUSH1 0xFF AND DUP2 MSTORE PUSH1 0x20 ADD DUP3 ISZERO ISZERO DUP2 MSTORE POP PUSH0 PUSH0 DUP3 ADD MLOAD DUP2 PUSH0 ADD PUSH0 PUSH2 0x100 EXP DUP2 SLOAD DUP2 PUSH8 0xFFFFFFFFFFFFFFFF MUL NOT AND SWAP1 DUP4 PUSH8 0xFFFFFFFFFFFFFFFF AND MUL OR SWAP1 SSTORE POP PUSH1 0x20 DUP3 ADD MLOAD DUP2 PUSH0 ADD PUSH1 0x8 PUSH2 0x100 EXP DUP2 SLOAD DUP2 PUSH8 0xFFFFFFFFFFFFFFFF MUL NOT AND SWAP1 DUP4 PUSH8 0xFFFFFFFFFFFFFFFF AND MUL OR SWAP1 SSTORE POP PUSH1 0x40 DUP3 ADD MLOAD DUP2 PUSH0 ADD PUSH1 0x10 PUSH2 0x100 EXP DUP2 SLOAD DUP2 PUSH1 0xFF MUL NOT AND SWAP1 DUP4 PUSH1 0xFF AND MUL OR SWAP1 SSTORE POP PUSH1 0x60 DUP3 ADD MLOAD DUP2 PUSH0 ADD PUSH1 0x11 PUSH2 0x100 EXP DUP2 SLOAD DUP2 PUSH1 0xFF MUL NOT AND SWAP1 DUP4 ISZERO ISZERO MUL OR SWAP1 SSTORE POP SWAP1 POP POP POP POP POP POP JUMP JUMPDEST PUSH0 PUSH8 0xFFFFFFFFFFFFFFFF DUP3 AND SWAP1 POP SWAP2 SWAP1 POP JUMP JUMPDEST PUSH2 0x1C8 DUP2 PUSH2 0x1AC JUMP JUMPDEST DUP3 MSTORE POP POP JUMP JUMPDEST PUSH0 PUSH1 0xFF DUP3 AND SWAP1 POP SWAP2 SWAP1 POP JUMP JUMPDEST PUSH2 0x1E3 DUP2 PUSH2 0x1CE JUMP JUMPDEST DUP3 MSTORE POP POP JUMP JUMPDEST PUSH0 DUP2 ISZERO ISZERO SWAP1 POP SWAP2 SWAP1 POP JUMP JUMPDEST PUSH2 0x1FD DUP2 PUSH2 0x1E9 JUMP JUMPDEST DUP3 MSTORE POP POP JUMP JUMPDEST PUSH0 PUSH1 0x80 DUP3 ADD SWAP1 POP PUSH2 0x216 PUSH0 DUP4 ADD DUP8 PUSH2 0x1BF JUMP JUMPDEST PUSH2 0x223 PUSH1 0x20 DUP4 ADD DUP7 PUSH2 0x1BF JUMP JUMPDEST PUSH2 0x230 PUSH1 0x40 DUP4 ADD DUP6 PUSH2 0x1DA JUMP JUMPDEST PUSH2 0x23D PUSH1 0x60 DUP4 ADD DUP5 PUSH2 0x1F4 JUMP JUMPDEST SWAP6 SWAP5 POP POP POP POP POP JUMP JUMPDEST PUSH0 PUSH0 REVERT JUMPDEST PUSH2 0x253 DUP2 PUSH2 0x1AC JUMP JUMPDEST DUP2 EQ PUSH2 0x25D JUMPI PUSH0 PUSH0 REVERT JUMPDEST POP JUMP JUMPDEST PUSH0 DUP2 CALLDATALOAD SWAP1 POP PUSH2 0x26E DUP2 PUSH2 0x24A JUMP JUMPDEST SWAP3 SWAP2 POP POP JUMP JUMPDEST PUSH2 0x27D DUP2 PUSH2 0x1CE JUMP JUMPDEST DUP2 EQ PUSH2 0x287 JUMPI PUSH0 PUSH0 REVERT JUMPDEST POP JUMP JUMPDEST PUSH0 DUP2 CALLDATALOAD SWAP1 POP PUSH2 0x298 DUP2 PUSH2 0x274 JUMP JUMPDEST SWAP3 SWAP2 POP POP JUMP JUMPDEST PUSH2 0x2A7 DUP2 PUSH2 0x1E9 JUMP JUMPDEST DUP2 EQ PUSH2 0x2B1 JUMPI PUSH0 PUSH0 REVERT JUMPDEST POP JUMP JUMPDEST PUSH0 DUP2 CALLDATALOAD SWAP1 POP PUSH2 0x2C2 DUP2 PUSH2 0x29E JUMP JUMPDEST SWAP3 SWAP2 POP POP JUMP JUMPDEST PUSH0 PUSH0 PUSH0 PUSH0 PUSH1 0x80 DUP6 DUP8 SUB SLT ISZERO PUSH2 0x2E0 JUMPI PUSH2 0x2DF PUSH2 0x246 JUMP JUMPDEST JUMPDEST PUSH0 PUSH2 0x2ED DUP8 DUP3 DUP9 ADD PUSH2 0x260 JUMP JUMPDEST SWAP5 POP POP PUSH1 0x20 PUSH2 0x2FE DUP8 DUP3 DUP9 ADD PUSH2 0x260 JUMP JUMPDEST SWAP4 POP POP PUSH1 0x40 PUSH2 0x30F DUP8 DUP3 DUP9 ADD PUSH2 0x28A JUMP JUMPDEST SWAP3 POP POP PUSH1 0x60 PUSH2 0x320 DUP8 DUP3 DUP9 ADD PUSH2 0x2B4 JUMP JUMPDEST SWAP2 POP POP SWAP3 SWAP6 SWAP2 SWAP5 POP SWAP3 POP JUMP INVALID LOG2 PUSH5 0x6970667358 0x22 SLT KECCAK256 LT 0xE8 RJUMP 0x18D7 PUSH29 0x3A5EFC592838C9AD62501A494A781907854DF06DA91E5CF84CC064736F PUSH13 0x634300081F0033000000000000 "
		},
		"gasEstimates": {
			"creation": {
				"codeDepositCost": "173200",
				"executionCost": "218",
				"totalCost": "173418"
			},
			"external": {
				"sysConfig()": "infinite",
				"updateConfig(uint64,uint64,uint8,bool)": "infinite"
			}
		},
		"methodIdentifiers": {
			"sysConfig()": "501c1851",
			"updateConfig(uint64,uint64,uint8,bool)": "ae53789b"
		}
	},
	"abi": [
		{
			"inputs": [],
			"name": "sysConfig",
			"outputs": [
				{
					"internalType": "uint64",
					"name": "startTime",
					"type": "uint64"
				},
				{
					"internalType": "uint64",
					"name": "endTime",
					"type": "uint64"
				},
				{
					"internalType": "uint8",
					"name": "mode",
					"type": "uint8"
				},
				{
					"internalType": "bool",
					"name": "isActive",
					"type": "bool"
				}
			],
			"stateMutability": "view",
			"type": "function"
		},
		{
			"inputs": [
				{
					"internalType": "uint64",
					"name": "_startTime",
					"type": "uint64"
				},
				{
					"internalType": "uint64",
					"name": "_endTime",
					"type": "uint64"
				},
				{
					"internalType": "uint8",
					"name": "_mode",
					"type": "uint8"
				},
				{
					"internalType": "bool",
					"name": "_isActive",
					"type": "bool"
				}
			],
			"name": "updateConfig",
			"outputs": [],
			"stateMutability": "nonpayable",
			"type": "function"
		}
	]
}