{
	"data": {
		"bytecode": {
			"linkReferences": {},
			"object": "6080604052348015600e575f5ffd5b50610ab48061001c5f395ff3fe608060405234801561000f575f5ffd5b506004361061004a575f3560e01c806352efea6e1461004e57806373d4a13a1461005857806392399c0414610076578063e5c1ec8914610080575b5f5ffd5b61005661009c565b005b6100606100aa565b60405161006d919061043e565b60405180910390f35b61007e610135565b005b61009a6004803603810190610095919061059b565b610343565b005b5f5f6100a89190610376565b565b5f80546100b69061060f565b80601f01602080910402602001604051908101604052809291908181526020018280546100e29061060f565b801561012d5780601f106101045761010080835404028352916020019161012d565b820191905f5260205f20905b81548152906001019060200180831161011057829003601f168201915b505050505081565b5f5f80546101429061060f565b905090505f5f90505b60028261015891906106a2565b81101561033f575f5f82815461016d9061060f565b811061017c5761017b6106d2565b5b81546001161561019957905f5260205f2090602091828204019190065b9054901a7f01000000000000000000000000000000000000000000000000000000000000000290505f826001856101d091906106ff565b6101da91906106ff565b81546101e59061060f565b81106101f4576101f36106d2565b5b81546001161561021157905f5260205f2090602091828204019190065b9054901a7f0100000000000000000000000000000000000000000000000000000000000000025f8381546102449061060f565b8110610253576102526106d2565b5b81546001161561027057905f5260205f2090602091828204019190065b601f036101000a81548160ff021916907f010000000000000000000000000000000000000000000000000000000000000084040217905550805f836001866102b891906106ff565b6102c291906106ff565b81546102cd9061060f565b81106102dc576102db6106d2565b5b8154600116156102f957905f5260205f2090602091828204019190065b601f036101000a81548160ff021916907f01000000000000000000000000000000000000000000000000000000000000008404021790555050808060010191505061014b565b5050565b5f816040516020016103569291906107fe565b6040516020818303038152906040525f908161037291906109af565b5050565b5080546103829061060f565b5f825580601f1061039357506103b0565b601f0160209004905f5260205f20908101906103af91906103b3565b5b50565b5b808211156103ca575f815f9055506001016103b4565b5090565b5f81519050919050565b5f82825260208201905092915050565b8281835e5f83830152505050565b5f601f19601f8301169050919050565b5f610410826103ce565b61041a81856103d8565b935061042a8185602086016103e8565b610433816103f6565b840191505092915050565b5f6020820190508181035f8301526104568184610406565b905092915050565b5f604051905090565b5f5ffd5b5f5ffd5b5f5ffd5b5f5ffd5b7f4e487b71000000000000000000000000000000000000000000000000000000005f52604160045260245ffd5b6104ad826103f6565b810181811067ffffffffffffffff821117156104cc576104cb610477565b5b80604052505050565b5f6104de61045e565b90506104ea82826104a4565b919050565b5f67ffffffffffffffff82111561050957610508610477565b5b610512826103f6565b9050602081019050919050565b828183375f83830152505050565b5f61053f61053a846104ef565b6104d5565b90508281526020810184848401111561055b5761055a610473565b5b61056684828561051f565b509392505050565b5f82601f8301126105825761058161046f565b5b813561059284826020860161052d565b91505092915050565b5f602082840312156105b0576105af610467565b5b5f82013567ffffffffffffffff8111156105cd576105cc61046b565b5b6105d98482850161056e565b91505092915050565b7f4e487b71000000000000000000000000000000000000000000000000000000005f52602260045260245ffd5b5f600282049050600182168061062657607f821691505b602082108103610639576106386105e2565b5b50919050565b5f819050919050565b7f4e487b71000000000000000000000000000000000000000000000000000000005f52601260045260245ffd5b7f4e487b71000000000000000000000000000000000000000000000000000000005f52601160045260245ffd5b5f6106ac8261063f565b91506106b78361063f565b9250826106c7576106c6610648565b5b828204905092915050565b7f4e487b71000000000000000000000000000000000000000000000000000000005f52603260045260245ffd5b5f6107098261063f565b91506107148361063f565b925082820390508181111561072c5761072b610675565b5b92915050565b5f81905092915050565b5f819050815f5260205f209050919050565b5f815461075a8161060f565b6107648186610732565b9450600182165f811461077e5760018114610793576107c5565b60ff19831686528115158202860193506107c5565b61079c8561073c565b5f5b838110156107bd5781548189015260018201915060208101905061079e565b838801955050505b50505092915050565b5f6107d8826103ce565b6107e28185610732565b93506107f28185602086016103e8565b80840191505092915050565b5f610809828561074e565b915061081582846107ce565b91508190509392505050565b5f6020601f8301049050919050565b5f82821b905092915050565b5f6008830261086b7fffffffffffffffffffffffffffffffffffffffffffffffffffffffffffffffff82610830565b6108758683610830565b95508019841693508086168417925050509392505050565b5f819050919050565b5f6108b06108ab6108a68461063f565b61088d565b61063f565b9050919050565b5f819050919050565b6108c983610896565b6108dd6108d5826108b7565b84845461083c565b825550505050565b5f5f905090565b6108f46108e5565b6108ff8184846108c0565b505050565b5b81811015610922576109175f826108ec565b600181019050610905565b5050565b601f821115610967576109388161073c565b61094184610821565b81016020851015610950578190505b61096461095c85610821565b830182610904565b50505b505050565b5f82821c905092915050565b5f6109875f198460080261096c565b1980831691505092915050565b5f61099f8383610978565b9150826002028217905092915050565b6109b8826103ce565b67ffffffffffffffff8111156109d1576109d0610477565b5b6109db825461060f565b6109e6828285610926565b5f60209050601f831160018114610a17575f8415610a05578287015190505b610a0f8582610994565b865550610a76565b601f198416610a258661073c565b5f5b82811015610a4c57848901518255600182019150602085019450602081019050610a27565b86831015610a695784890151610a65601f891682610978565b8355505b6001600288020188555050505b50505050505056fea264697066735822122012229921212ed48a5e0218f30f874cb63d4f4f0229c60123c9224bbaf4bf51a564736f6c634300081f0033",
			"opcodes": "PUSH1 0x80 PUSH1 0x40 MSTORE CALLVALUE DUP1 ISZERO PUSH1 0xE JUMPI PUSH0 PUSH0 REVERT JUMPDEST POP PUSH2 0xAB4 DUP1 PUSH2 0x1C PUSH0 CODECOPY PUSH0 RETURN INVALID PUSH1 0x80 PUSH1 0x40 MSTORE CALLVALUE DUP1 ISZERO PUSH2 0xF JUMPI PUSH0 PUSH0 REVERT JUMPDEST POP PUSH1 0x4 CALLDATASIZE LT PUSH2 0x4A JUMPI PUSH0 CALLDATALOAD PUSH1 0xE0 SHR DUP1 PUSH4 0x52EFEA6E EQ PUSH2 0x4E JUMPI DUP1 PUSH4 0x73D4A13A EQ PUSH2 0x58 JUMPI DUP1 PUSH4 0x92399C04 EQ PUSH2 0x76 JUMPI DUP1 PUSH4 0xE5C1EC89 EQ PUSH2 0x80 JUMPI JUMPDEST PUSH0 PUSH0 REVERT JUMPDEST PUSH2 0x56 PUSH2 0x9C JUMP JUMPDEST STOP JUMPDEST PUSH2 0x60 PUSH2 0xAA JUMP JUMPDEST PUSH1 0x40 MLOAD PUSH2 0x6D SWAP2 SWAP1 PUSH2 0x43E JUMP JUMPDEST PUSH1 0x40 MLOAD DUP1 SWAP2 SUB SWAP1 RETURN JUMPDEST PUSH2 0x7E PUSH2 0x135 JUMP JUMPDEST STOP JUMPDEST PUSH2 0x9A PUSH1 0x4 DUP1 CALLDATASIZE SUB DUP2 ADD SWAP1 PUSH2 0x95 SWAP2 SWAP1 PUSH2 0x59B JUMP JUMPDEST PUSH2 0x343 JUMP JUMPDEST STOP JUMPDEST PUSH0 PUSH0 PUSH2 0xA8 SWAP2 SWAP1 PUSH2 0x376 JUMP JUMPDEST JUMP JUMPDEST PUSH0 DUP1 SLOAD PUSH2 0xB6 SWAP1 PUSH2 0x60F JUMP JUMPDEST DUP1 PUSH1 0x1F ADD PUSH1 0x20 DUP1 SWAP2 DIV MUL PUSH1 0x20 ADD PUSH1 0x40 MLOAD SWAP1 DUP2 ADD PUSH1 0x40 MSTORE DUP1 SWAP3 SWAP2 SWAP1 DUP2 DUP2 MSTORE PUSH1 0x20 ADD DUP3 DUP1 SLOAD PUSH2 0xE2 SWAP1 PUSH2 0x60F JUMP JUMPDEST DUP1 ISZERO PUSH2 0x12D JUMPI DUP1 PUSH1 0x1F LT PUSH2 0x104 JUMPI PUSH2 0x100 DUP1 DUP4 SLOAD DIV MUL DUP4 MSTORE SWAP2 PUSH1 0x20 ADD SWAP2 PUSH2 0x12D JUMP JUMPDEST DUP3 ADD SWAP2 SWAP1 PUSH0 MSTORE PUSH1 0x20 PUSH0 KECCAK256 SWAP1 JUMPDEST DUP2 SLOAD DUP2 MSTORE SWAP1 PUSH1 0x1 ADD SWAP1 PUSH1 0x20 ADD DUP1 DUP4 GT PUSH2 0x110 JUMPI DUP3 SWAP1 SUB PUSH1 0x1F AND DUP3 ADD SWAP2 JUMPDEST POP POP POP POP POP DUP2 JUMP JUMPDEST PUSH0 PUSH0 DUP1 SLOAD PUSH2 0x142 SWAP1 PUSH2 0x60F JUMP JUMPDEST SWAP1 POP SWAP1 POP PUSH0 PUSH0 SWAP1 POP JUMPDEST PUSH1 0x2 DUP3 PUSH2 0x158 SWAP2 SWAP1 PUSH2 0x6A2 JUMP JUMPDEST DUP2 LT ISZERO PUSH2 0x33F JUMPI PUSH0 PUSH0 DUP3 DUP2 SLOAD PUSH2 0x16D SWAP1 PUSH2 0x60F JUMP JUMPDEST DUP2 LT PUSH2 0x17C JUMPI PUSH2 0x17B PUSH2 0x6D2 JUMP JUMPDEST JUMPDEST DUP2 SLOAD PUSH1 0x1 AND ISZERO PUSH2 0x199 JUMPI SWAP1 PUSH0 MSTORE PUSH1 0x20 PUSH0 KECCAK256 SWAP1 PUSH1 0x20 SWAP2 DUP3 DUP3 DIV ADD SWAP2 SWAP1 MOD JUMPDEST SWAP1 SLOAD SWAP1 BYTE PUSH32 0x100000000000000000000000000000000000000000000000000000000000000 MUL SWAP1 POP PUSH0 DUP3 PUSH1 0x1 DUP6 PUSH2 0x1D0 SWAP2 SWAP1 PUSH2 0x6FF JUMP JUMPDEST PUSH2 0x1DA SWAP2 SWAP1 PUSH2 0x6FF JUMP JUMPDEST DUP2 SLOAD PUSH2 0x1E5 SWAP1 PUSH2 0x60F JUMP JUMPDEST DUP2 LT PUSH2 0x1F4 JUMPI PUSH2 0x1F3 PUSH2 0x6D2 JUMP JUMPDEST JUMPDEST DUP2 SLOAD PUSH1 0x1 AND ISZERO PUSH2 0x211 JUMPI SWAP1 PUSH0 MSTORE PUSH1 0x20 PUSH0 KECCAK256 SWAP1 PUSH1 0x20 SWAP2 DUP3 DUP3 DIV ADD SWAP2 SWAP1 MOD JUMPDEST SWAP1 SLOAD SWAP1 BYTE PUSH32 0x100000000000000000000000000000000000000000000000000000000000000 MUL PUSH0 DUP4 DUP2 SLOAD PUSH2 0x244 SWAP1 PUSH2 0x60F JUMP JUMPDEST DUP2 LT PUSH2 0x253 JUMPI PUSH2 0x252 PUSH2 0x6D2 JUMP JUMPDEST JUMPDEST DUP2 SLOAD PUSH1 0x1 AND ISZERO PUSH2 0x270 JUMPI SWAP1 PUSH0 MSTORE PUSH1 0x20 PUSH0 KECCAK256 SWAP1 PUSH1 0x20 SWAP2 DUP3 DUP3 DIV ADD SWAP2 SWAP1 MOD JUMPDEST PUSH1 0x1F SUB PUSH2 0x100 EXP DUP2 SLOAD DUP2 PUSH1 0xFF MUL NOT AND SWAP1 PUSH32 0x100000000000000000000000000000000000000000000000000000000000000 DUP5 DIV MUL OR SWAP1 SSTORE POP DUP1 PUSH0 DUP4 PUSH1 0x1 DUP7 PUSH2 0x2B8 SWAP2 SWAP1 PUSH2 0x6FF JUMP JUMPDEST PUSH2 0x2C2 SWAP2 SWAP1 PUSH2 0x6FF JUMP JUMPDEST DUP2 SLOAD PUSH2 0x2CD SWAP1 PUSH2 0x60F JUMP JUMPDEST DUP2 LT PUSH2 0x2DC JUMPI PUSH2 0x2DB PUSH2 0x6D2 JUMP JUMPDEST JUMPDEST DUP2 SLOAD PUSH1 0x1 AND ISZERO PUSH2 0x2F9 JUMPI SWAP1 PUSH0 MSTORE PUSH1 0x20 PUSH0 KECCAK256 SWAP1 PUSH1 0x20 SWAP2 DUP3 DUP3 DIV ADD SWAP2 SWAP1 MOD JUMPDEST PUSH1 0x1F SUB PUSH2 0x100 EXP DUP2 SLOAD DUP2 PUSH1 0xFF MUL NOT AND SWAP1 PUSH32 0x100000000000000000000000000000000000000000000000000000000000000 DUP5 DIV MUL OR SWAP1 SSTORE POP POP DUP1 DUP1 PUSH1 0x1 ADD SWAP2 POP POP PUSH2 0x14B JUMP JUMPDEST POP POP JUMP JUMPDEST PUSH0 DUP2 PUSH1 0x40 MLOAD PUSH1 0x20 ADD PUSH2 0x356 SWAP3 SWAP2 SWAP1 PUSH2 0x7FE JUMP JUMPDEST PUSH1 0x40 MLOAD PUSH1 0x20 DUP2 DUP4 SUB SUB DUP2 MSTORE SWAP1 PUSH1 0x40 MSTORE PUSH0 SWAP1 DUP2 PUSH2 0x372 SWAP2 SWAP1 PUSH2 0x9AF JUMP JUMPDEST POP POP JUMP JUMPDEST POP DUP1 SLOAD PUSH2 0x382 SWAP1 PUSH2 0x60F JUMP JUMPDEST PUSH0 DUP3 SSTORE DUP1 PUSH1 0x1F LT PUSH2 0x393 JUMPI POP PUSH2 0x3B0 JUMP JUMPDEST PUSH1 0x1F ADD PUSH1 0x20 SWAP1 DIV SWAP1 PUSH0 MSTORE PUSH1 0x20 PUSH0 KECCAK256 SWAP1 DUP2 ADD SWAP1 PUSH2 0x3AF SWAP2 SWAP1 PUSH2 0x3B3 JUMP JUMPDEST JUMPDEST POP JUMP JUMPDEST JUMPDEST DUP1 DUP3 GT ISZERO PUSH2 0x3CA JUMPI PUSH0 DUP2 PUSH0 SWAP1 SSTORE POP PUSH1 0x1 ADD PUSH2 0x3B4 JUMP JUMPDEST POP SWAP1 JUMP JUMPDEST PUSH0 DUP2 MLOAD SWAP1 POP SWAP2 SWAP1 POP JUMP JUMPDEST PUSH0 DUP3 DUP3 MSTORE PUSH1 0x20 DUP3 ADD SWAP1 POP SWAP3 SWAP2 POP POP JUMP JUMPDEST DUP3 DUP2 DUP4 MCOPY PUSH0 DUP4 DUP4 ADD MSTORE POP POP POP JUMP JUMPDEST PUSH0 PUSH1 0x1F NOT PUSH1 0x1F DUP4 ADD AND SWAP1 POP SWAP2 SWAP1 POP JUMP JUMPDEST PUSH0 PUSH2 0x410 DUP3 PUSH2 0x3CE JUMP JUMPDEST PUSH2 0x41A DUP2 DUP6 PUSH2 0x3D8 JUMP JUMPDEST SWAP4 POP PUSH2 0x42A DUP2 DUP6 PUSH1 0x20 DUP7 ADD PUSH2 0x3E8 JUMP JUMPDEST PUSH2 0x433 DUP2 PUSH2 0x3F6 JUMP JUMPDEST DUP5 ADD SWAP2 POP POP SWAP3 SWAP2 POP POP JUMP JUMPDEST PUSH0 PUSH1 0x20 DUP3 ADD SWAP1 POP DUP2 DUP2 SUB PUSH0 DUP4 ADD MSTORE PUSH2 0x456 DUP2 DUP5 PUSH2 0x406 JUMP JUMPDEST SWAP1 POP SWAP3 SWAP2 POP POP JUMP JUMPDEST PUSH0 PUSH1 0x40 MLOAD SWAP1 POP SWAP1 JUMP JUMPDEST PUSH0 PUSH0 REVERT JUMPDEST PUSH0 PUSH0 REVERT JUMPDEST PUSH0 PUSH0 REVERT JUMPDEST PUSH0 PUSH0 REVERT JUMPDEST PUSH32 0x4E487B7100000000000000000000000000000000000000000000000000000000 PUSH0 MSTORE PUSH1 0x41 PUSH1 0x4 MSTORE PUSH1 0x24 PUSH0 REVERT JUMPDEST PUSH2 0x4AD DUP3 PUSH2 0x3F6 JUMP JUMPDEST DUP2 ADD DUP2 DUP2 LT PUSH8 0xFFFFFFFFFFFFFFFF DUP3 GT OR ISZERO PUSH2 0x4CC JUMPI PUSH2 0x4CB PUSH2 0x477 JUMP JUMPDEST JUMPDEST DUP1 PUSH1 0x40 MSTORE POP POP POP JUMP JUMPDEST PUSH0 PUSH2 0x4DE PUSH2 0x45E JUMP JUMPDEST SWAP1 POP PUSH2 0x4EA DUP3 DUP3 PUSH2 0x4A4 JUMP JUMPDEST SWAP2 SWAP1 POP JUMP JUMPDEST PUSH0 PUSH8 0xFFFFFFFFFFFFFFFF DUP3 GT ISZERO PUSH2 0x509 JUMPI PUSH2 0x508 PUSH2 0x477 JUMP JUMPDEST JUMPDEST PUSH2 0x512 DUP3 PUSH2 0x3F6 JUMP JUMPDEST SWAP1 POP PUSH1 0x20 DUP2 ADD SWAP1 POP SWAP2 SWAP1 POP JUMP JUMPDEST DUP3 DUP2 DUP4 CALLDATACOPY PUSH0 DUP4 DUP4 ADD MSTORE POP POP POP JUMP JUMPDEST PUSH0 PUSH2 0x53F PUSH2 0x53A DUP5 PUSH2 0x4EF JUMP JUMPDEST PUSH2 0x4D5 JUMP JUMPDEST SWAP1 POP DUP3 DUP2 MSTORE PUSH1 0x20 DUP2 ADD DUP5 DUP5 DUP5 ADD GT ISZERO PUSH2 0x55B JUMPI PUSH2 0x55A PUSH2 0x473 JUMP JUMPDEST JUMPDEST PUSH2 0x566 DUP5 DUP3 DUP6 PUSH2 0x51F JUMP JUMPDEST POP SWAP4 SWAP3 POP POP POP JUMP JUMPDEST PUSH0 DUP3 PUSH1 0x1F DUP4 ADD SLT PUSH2 0x582 JUMPI PUSH2 0x581 PUSH2 0x46F JUMP JUMPDEST JUMPDEST DUP2 CALLDATALOAD PUSH2 0x592 DUP5 DUP3 PUSH1 0x20 DUP7 ADD PUSH2 0x52D JUMP JUMPDEST SWAP2 POP POP SWAP3 SWAP2 POP POP JUMP JUMPDEST PUSH0 PUSH1 0x20 DUP3 DUP5 SUB SLT ISZERO PUSH2 0x5B0 JUMPI PUSH2 0x5AF PUSH2 0x467 JUMP JUMPDEST JUMPDEST PUSH0 DUP3 ADD CALLDATALOAD PUSH8 0xFFFFFFFFFFFFFFFF DUP2 GT ISZERO PUSH2 0x5CD JUMPI PUSH2 0x5CC PUSH2 0x46B JUMP JUMPDEST JUMPDEST PUSH2 0x5D9 DUP5 DUP3 DUP6 ADD PUSH2 0x56E JUMP JUMPDEST SWAP2 POP POP SWAP3 SWAP2 POP POP JUMP JUMPDEST PUSH32 0x4E487B7100000000000000000000000000000000000000000000000000000000 PUSH0 MSTORE PUSH1 0x22 PUSH1 0x4 MSTORE PUSH1 0x24 PUSH0 REVERT JUMPDEST PUSH0 PUSH1 0x2 DUP3 DIV SWAP1 POP PUSH1 0x1 DUP3 AND DUP1 PUSH2 0x626 JUMPI PUSH1 0x7F DUP3 AND SWAP2 POP JUMPDEST PUSH1 0x20 DUP3 LT DUP2 SUB PUSH2 0x639 JUMPI PUSH2 0x638 PUSH2 0x5E2 JUMP JUMPDEST JUMPDEST POP SWAP2 SWAP1 POP JUMP JUMPDEST PUSH0 DUP2 SWAP1 POP SWAP2 SWAP1 POP JUMP JUMPDEST PUSH32 0x4E487B7100000000000000000000000000000000000000000000000000000000 PUSH0 MSTORE PUSH1 0x12 PUSH1 0x4 MSTORE PUSH1 0x24 PUSH0 REVERT JUMPDEST PUSH32 0x4E487B7100000000000000000000000000000000000000000000000000000000 PUSH0 MSTORE PUSH1 0x11 PUSH1 0x4 MSTORE PUSH1 0x24 PUSH0 REVERT JUMPDEST PUSH0 PUSH2 0x6AC DUP3 PUSH2 0x63F JUMP JUMPDEST SWAP2 POP PUSH2 0x6B7 DUP4 PUSH2 0x63F JUMP JUMPDEST SWAP3 POP DUP3 PUSH2 0x6C7 JUMPI PUSH2 0x6C6 PUSH2 0x648 JUMP JUMPDEST JUMPDEST DUP3 DUP3 DIV SWAP1 POP SWAP3 SWAP2 POP POP JUMP JUMPDEST PUSH32 0x4E487B7100000000000000000000000000000000000000000000000000000000 PUSH0 MSTORE PUSH1 0x32 PUSH1 0x4 MSTORE PUSH1 0x24 PUSH0 REVERT JUMPDEST PUSH0 PUSH2 0x709 DUP3 PUSH2 0x63F JUMP JUMPDEST SWAP2 POP PUSH2 0x714 DUP4 PUSH2 0x63F JUMP JUMPDEST SWAP3 POP DUP3 DUP3 SUB SWAP1 POP DUP2 DUP2 GT ISZERO PUSH2 0x72C JUMPI PUSH2 0x72B PUSH2 0x675 JUMP JUMPDEST JUMPDEST SWAP3 SWAP2 POP POP JUMP JUMPDEST PUSH0 DUP2 SWAP1 POP SWAP3 SWAP2 POP POP JUMP JUMPDEST PUSH0 DUP2 SWAP1 POP DUP2 PUSH0 MSTORE PUSH1 0x20 PUSH0 KECCAK256 SWAP1 POP SWAP2 SWAP1 POP JUMP JUMPDEST PUSH0 DUP2 SLOAD PUSH2 0x75A DUP2 PUSH2 0x60F JUMP JUMPDEST PUSH2 0x764 DUP2 DUP7 PUSH2 0x732 JUMP JUMPDEST SWAP5 POP PUSH1 0x1 DUP3 AND PUSH0 DUP2 EQ PUSH2 0x77E JUMPI PUSH1 0x1 DUP2 EQ PUSH2 0x793 JUMPI PUSH2 0x7C5 JUMP JUMPDEST PUSH1 0xFF NOT DUP4 AND DUP7 MSTORE DUP2 ISZERO ISZERO DUP3 MUL DUP7 ADD SWAP4 POP PUSH2 0x7C5 JUMP JUMPDEST PUSH2 0x79C DUP6 PUSH2 0x73C JUMP JUMPDEST PUSH0 JUMPDEST DUP4 DUP2 LT ISZERO PUSH2 0x7BD JUMPI DUP2 SLOAD DUP2 DUP10 ADD MSTORE PUSH1 0x1 DUP3 ADD SWAP2 POP PUSH1 0x20 DUP2 ADD SWAP1 POP PUSH2 0x79E JUMP JUMPDEST DUP4 DUP9 ADD SWAP6 POP POP POP JUMPDEST POP POP POP SWAP3 SWAP2 POP POP JUMP JUMPDEST PUSH0 PUSH2 0x7D8 DUP3 PUSH2 0x3CE JUMP JUMPDEST PUSH2 0x7E2 DUP2 DUP6 PUSH2 0x732 JUMP JUMPDEST SWAP4 POP PUSH2 0x7F2 DUP2 DUP6 PUSH1 0x20 DUP7 ADD PUSH2 0x3E8 JUMP JUMPDEST DUP1 DUP5 ADD SWAP2 POP POP SWAP3 SWAP2 POP POP JUMP JUMPDEST PUSH0 PUSH2 0x809 DUP3 DUP6 PUSH2 0x74E JUMP JUMPDEST SWAP2 POP PUSH2 0x815 DUP3 DUP5 PUSH2 0x7CE JUMP JUMPDEST SWAP2 POP DUP2 SWAP1 POP SWAP4 SWAP3 POP POP POP JUMP JUMPDEST PUSH0 PUSH1 0x20 PUSH1 0x1F DUP4 ADD DIV SWAP1 POP SWAP2 SWAP1 POP JUMP JUMPDEST PUSH0 DUP3 DUP3 SHL SWAP1 POP SWAP3 SWAP2 POP POP JUMP JUMPDEST PUSH0 PUSH1 0x8 DUP4 MUL PUSH2 0x86B PUSH32 0xFFFFFFFFFFFFFFFFFFFFFFFFFFFFFFFFFFFFFFFFFFFFFFFFFFFFFFFFFFFFFFFF DUP3 PUSH2 0x830 JUMP JUMPDEST PUSH2 0x875 DUP7 DUP4 PUSH2 0x830 JUMP JUMPDEST SWAP6 POP DUP1 NOT DUP5 AND SWAP4 POP DUP1 DUP7 AND DUP5 OR SWAP3 POP POP POP SWAP4 SWAP3 POP POP POP JUMP JUMPDEST PUSH0 DUP2 SWAP1 POP SWAP2 SWAP1 POP JUMP JUMPDEST PUSH0 PUSH2 0x8B0 PUSH2 0x8AB PUSH2 0x8A6 DUP5 PUSH2 0x63F JUMP JUMPDEST PUSH2 0x88D JUMP JUMPDEST PUSH2 0x63F JUMP JUMPDEST SWAP1 POP SWAP2 SWAP1 POP JUMP JUMPDEST PUSH0 DUP2 SWAP1 POP SWAP2 SWAP1 POP JUMP JUMPDEST PUSH2 0x8C9 DUP4 PUSH2 0x896 JUMP JUMPDEST PUSH2 0x8DD PUSH2 0x8D5 DUP3 PUSH2 0x8B7 JUMP JUMPDEST DUP5 DUP5 SLOAD PUSH2 0x83C JUMP JUMPDEST DUP3 SSTORE POP POP POP POP JUMP JUMPDEST PUSH0 PUSH0 SWAP1 POP SWAP1 JUMP JUMPDEST PUSH2 0x8F4 PUSH2 0x8E5 JUMP JUMPDEST PUSH2 0x8FF DUP2 DUP5 DUP5 PUSH2 0x8C0 JUMP JUMPDEST POP POP POP JUMP JUMPDEST JUMPDEST DUP2 DUP2 LT ISZERO PUSH2 0x922 JUMPI PUSH2 0x917 PUSH0 DUP3 PUSH2 0x8EC JUMP JUMPDEST PUSH1 0x1 DUP2 ADD SWAP1 POP PUSH2 0x905 JUMP JUMPDEST POP POP JUMP JUMPDEST PUSH1 0x1F DUP3 GT ISZERO PUSH2 0x967 JUMPI PUSH2 0x938 DUP2 PUSH2 0x73C JUMP JUMPDEST PUSH2 0x941 DUP5 PUSH2 0x821 JUMP JUMPDEST DUP2 ADD PUSH1 0x20 DUP6 LT ISZERO PUSH2 0x950 JUMPI DUP2 SWAP1 POP JUMPDEST PUSH2 0x964 PUSH2 0x95C DUP6 PUSH2 0x821 JUMP JUMPDEST DUP4 ADD DUP3 PUSH2 0x904 JUMP JUMPDEST POP POP JUMPDEST POP POP POP JUMP JUMPDEST PUSH0 DUP3 DUP3 SHR SWAP1 POP SWAP3 SWAP2 POP POP JUMP JUMPDEST PUSH0 PUSH2 0x987 PUSH0 NOT DUP5 PUSH1 0x8 MUL PUSH2 0x96C JUMP JUMPDEST NOT DUP1 DUP4 AND SWAP2 POP POP SWAP3 SWAP2 POP POP JUMP JUMPDEST PUSH0 PUSH2 0x99F DUP4 DUP4 PUSH2 0x978 JUMP JUMPDEST SWAP2 POP DUP3 PUSH1 0x2 MUL DUP3 OR SWAP1 POP SWAP3 SWAP2 POP POP JUMP JUMPDEST PUSH2 0x9B8 DUP3 PUSH2 0x3CE JUMP JUMPDEST PUSH8 0xFFFFFFFFFFFFFFFF DUP2 GT ISZERO PUSH2 0x9D1 JUMPI PUSH2 0x9D0 PUSH2 0x477 JUMP JUMPDEST JUMPDEST PUSH2 0x9DB DUP3 SLOAD PUSH2 0x60F JUMP JUMPDEST PUSH2 0x9E6 DUP3 DUP3 DUP6 PUSH2 0x926 JUMP JUMPDEST PUSH0 PUSH1 0x20 SWAP1 POP PUSH1 0x1F DUP4 GT PUSH1 0x1 DUP2 EQ PUSH2 0xA17 JUMPI PUSH0 DUP5 ISZERO PUSH2 0xA05 JUMPI DUP3 DUP8 ADD MLOAD SWAP1 POP JUMPDEST PUSH2 0xA0F DUP6 DUP3 PUSH2 0x994 JUMP JUMPDEST DUP7 SSTORE POP PUSH2 0xA76 JUMP JUMPDEST PUSH1 0x1F NOT DUP5 AND PUSH2 0xA25 DUP7 PUSH2 0x73C JUMP JUMPDEST PUSH0 JUMPDEST DUP3 DUP2 LT ISZERO PUSH2 0xA4C JUMPI DUP5 DUP10 ADD MLOAD DUP3 SSTORE PUSH1 0x1 DUP3 ADD SWAP2 POP PUSH1 0x20 DUP6 ADD SWAP5 POP PUSH1 0x20 DUP2 ADD SWAP1 POP PUSH2 0xA27 JUMP JUMPDEST DUP7 DUP4 LT ISZERO PUSH2 0xA69 JUMPI DUP5 DUP10 ADD MLOAD PUSH2 0xA65 PUSH1 0x1F DUP10 AND DUP3 PUSH2 0x978 JUMP JUMPDEST DUP4 SSTORE POP JUMPDEST PUSH1 0x1 PUSH1 0x2 DUP9 MUL ADD DUP9 SSTORE POP POP POP JUMPDEST POP POP POP POP POP POP JUMP INVALID LOG2 PUSH5 0x6970667358 0x22 SLT KECCAK256 SLT 0x22 SWAP10 0x21 0x21 0x2E 0xD4 DUP11 MCOPY MUL XOR RETURN 0xF DUP8 0x4C 0xB6 RETURNDATASIZE 0x4F 0x4F MUL 0x29 0xC6 ADD 0x23 0xC9 0x22 0x4B 0xBA DELEGATECALL 0xBF MLOAD 0xA5 PUSH5 0x736F6C6343 STOP ADDMOD 0x1F STOP CALLER "
		},
		"gasEstimates": {
			"creation": {
				"codeDepositCost": "548000",
				"executionCost": "579",
				"totalCost": "548579"
			},
			"external": {
				"appendBytes(bytes)": "infinite",
				"clear()": "infinite",
				"data()": "infinite",
				"reverse()": "infinite"
			}
		},
		"methodIdentifiers": {
			"appendBytes(bytes)": "e5c1ec89",
			"clear()": "52efea6e",
			"data()": "73d4a13a",
			"reverse()": "92399c04"
		}
	},
	"abi": [
		{
			"inputs": [
				{
					"internalType": "bytes",
					"name": "newData",
					"type": "bytes"
				}
			],
			"name": "appendBytes",
			"outputs": [],
			"stateMutability": "nonpayable",
			"type": "function"
		},
		{
			"inputs": [],
			"name": "clear",
			"outputs": [],
			"stateMutability": "nonpayable",
			"type": "function"
		},
		{
			"inputs": [],
			"name": "data",
			"outputs": [
				{
					"internalType": "bytes",
					"name": "",
					"type": "bytes"
				}
			],
			"stateMutability": "view",
			"type": "function"
		},
		{
			"inputs": [],
			"name": "reverse",
			"outputs": [],
			"stateMutability": "nonpayable",
			"type": "function"
		}
	]
}