{
	"data": {
		"bytecode": {
			"linkReferences": {},
			"object": "6080604052348015600e575f5ffd5b506103cc8061001c5f395ff3fe608060405234801561000f575f5ffd5b5060043610610055575f3560e01c8063233f7037146100595780633ef5e44514610089578063505fb46c146100b9578063771602f7146100e9578063abcc11d814610119575b5f5ffd5b610073600480360381019061006e91906101e1565b610137565b604051610080919061021b565b60405180910390f35b6100a3600480360381019061009e9190610234565b61014c565b6040516100b0919061021b565b60405180910390f35b6100d360048036038101906100ce9190610272565b610161565b6040516100e0919061021b565b60405180910390f35b61010360048036038101906100fe9190610234565b610189565b604051610110919061021b565b60405180910390f35b6101216101a5565b60405161012e919061021b565b60405180910390f35b5f815f5461014591906102ef565b9050919050565b5f81836101599190610330565b905092915050565b5f81838561016f9190610363565b6101799190610363565b5f819055505f5490509392505050565b5f81836101969190610363565b5f819055505f54905092915050565b5f5481565b5f5ffd5b5f819050919050565b6101c0816101ae565b81146101ca575f5ffd5b50565b5f813590506101db816101b7565b92915050565b5f602082840312156101f6576101f56101aa565b5b5f610203848285016101cd565b91505092915050565b610215816101ae565b82525050565b5f60208201905061022e5f83018461020c565b92915050565b5f5f6040838503121561024a576102496101aa565b5b5f610257858286016101cd565b9250506020610268858286016101cd565b9150509250929050565b5f5f5f60608486031215610289576102886101aa565b5b5f610296868287016101cd565b93505060206102a7868287016101cd565b92505060406102b8868287016101cd565b9150509250925092565b7f4e487b71000000000000000000000000000000000000000000000000000000005f52601160045260245ffd5b5f6102f9826101ae565b9150610304836101ae565b9250828202610312816101ae565b91508282048414831517610329576103286102c2565b5b5092915050565b5f61033a826101ae565b9150610345836101ae565b925082820390508181111561035d5761035c6102c2565b5b92915050565b5f61036d826101ae565b9150610378836101ae565b92508282019050808211156103905761038f6102c2565b5b9291505056fea26469706673582212207cf4ea07b8c7ba56a605db2feba423dd250976bec08af8f668308c0f9f91cb0a64736f6c634300081f0033",
			"opcodes": "PUSH1 0x80 PUSH1 0x40 MSTORE CALLVALUE DUP1 ISZERO PUSH1 0xE JUMPI PUSH0 PUSH0 REVERT JUMPDEST POP PUSH2 0x3CC DUP1 PUSH2 0x1C PUSH0 CODECOPY PUSH0 RETURN INVALID PUSH1 0x80 PUSH1 0x40 MSTORE CALLVALUE DUP1 ISZERO PUSH2 0xF JUMPI PUSH0 PUSH0 REVERT JUMPDEST POP PUSH1 0x4 CALLDATASIZE LT PUSH2 0x55 JUMPI PUSH0 CALLDATALOAD PUSH1 0xE0 SHR DUP1 PUSH4 0x233F7037 EQ PUSH2 0x59 JUMPI DUP1 PUSH4 0x3EF5E445 EQ PUSH2 0x89 JUMPI DUP1 PUSH4 0x505FB46C EQ PUSH2 0xB9 JUMPI DUP1 PUSH4 0x771602F7 EQ PUSH2 0xE9 JUMPI DUP1 PUSH4 0xABCC11D8 EQ PUSH2 0x119 JUMPI JUMPDEST PUSH0 PUSH0 REVERT JUMPDEST PUSH2 0x73 PUSH1 0x4 DUP1 CALLDATASIZE SUB DUP2 ADD SWAP1 PUSH2 0x6E SWAP2 SWAP1 PUSH2 0x1E1 JUMP JUMPDEST PUSH2 0x137 JUMP JUMPDEST PUSH1 0x40 MLOAD PUSH2 0x80 SWAP2 SWAP1 PUSH2 0x21B JUMP JUMPDEST PUSH1 0x40 MLOAD DUP1 SWAP2 SUB SWAP1 RETURN JUMPDEST PUSH2 0xA3 PUSH1 0x4 DUP1 CALLDATASIZE SUB DUP2 ADD SWAP1 PUSH2 0x9E SWAP2 SWAP1 PUSH2 0x234 JUMP JUMPDEST PUSH2 0x14C JUMP JUMPDEST PUSH1 0x40 MLOAD PUSH2 0xB0 SWAP2 SWAP1 PUSH2 0x21B JUMP JUMPDEST PUSH1 0x40 MLOAD DUP1 SWAP2 SUB SWAP1 RETURN JUMPDEST PUSH2 0xD3 PUSH1 0x4 DUP1 CALLDATASIZE SUB DUP2 ADD SWAP1 PUSH2 0xCE SWAP2 SWAP1 PUSH2 0x272 JUMP JUMPDEST PUSH2 0x161 JUMP JUMPDEST PUSH1 0x40 MLOAD PUSH2 0xE0 SWAP2 SWAP1 PUSH2 0x21B JUMP JUMPDEST PUSH1 0x40 MLOAD DUP1 SWAP2 SUB SWAP1 RETURN JUMPDEST PUSH2 0x103 PUSH1 0x4 DUP1 CALLDATASIZE SUB DUP2 ADD SWAP1 PUSH2 0xFE SWAP2 SWAP1 PUSH2 0x234 JUMP JUMPDEST PUSH2 0x189 JUMP JUMPDEST PUSH1 0x40 MLOAD PUSH2 0x110 SWAP2 SWAP1 PUSH2 0x21B JUMP JUMPDEST PUSH1 0x40 MLOAD DUP1 SWAP2 SUB SWAP1 RETURN JUMPDEST PUSH2 0x121 PUSH2 0x1A5 JUMP JUMPDEST PUSH1 0x40 MLOAD PUSH2 0x12E SWAP2 SWAP1 PUSH2 0x21B JUMP JUMPDEST PUSH1 0x40 MLOAD DUP1 SWAP2 SUB SWAP1 RETURN JUMPDEST PUSH0 DUP2 PUSH0 SLOAD PUSH2 0x145 SWAP2 SWAP1 PUSH2 0x2EF JUMP JUMPDEST SWAP1 POP SWAP2 SWAP1 POP JUMP JUMPDEST PUSH0 DUP2 DUP4 PUSH2 0x159 SWAP2 SWAP1 PUSH2 0x330 JUMP JUMPDEST SWAP1 POP SWAP3 SWAP2 POP POP JUMP JUMPDEST PUSH0 DUP2 DUP4 DUP6 PUSH2 0x16F SWAP2 SWAP1 PUSH2 0x363 JUMP JUMPDEST PUSH2 0x179 SWAP2 SWAP1 PUSH2 0x363 JUMP JUMPDEST PUSH0 DUP2 SWAP1 SSTORE POP PUSH0 SLOAD SWAP1 POP SWAP4 SWAP3 POP POP POP JUMP JUMPDEST PUSH0 DUP2 DUP4 PUSH2 0x196 SWAP2 SWAP1 PUSH2 0x363 JUMP JUMPDEST PUSH0 DUP2 SWAP1 SSTORE POP PUSH0 SLOAD SWAP1 POP SWAP3 SWAP2 POP POP JUMP JUMPDEST PUSH0 SLOAD DUP2 JUMP JUMPDEST PUSH0 PUSH0 REVERT JUMPDEST PUSH0 DUP2 SWAP1 POP SWAP2 SWAP1 POP JUMP JUMPDEST PUSH2 0x1C0 DUP2 PUSH2 0x1AE JUMP JUMPDEST DUP2 EQ PUSH2 0x1CA JUMPI PUSH0 PUSH0 REVERT JUMPDEST POP JUMP JUMPDEST PUSH0 DUP2 CALLDATALOAD SWAP1 POP PUSH2 0x1DB DUP2 PUSH2 0x1B7 JUMP JUMPDEST SWAP3 SWAP2 POP POP JUMP JUMPDEST PUSH0 PUSH1 0x20 DUP3 DUP5 SUB SLT ISZERO PUSH2 0x1F6 JUMPI PUSH2 0x1F5 PUSH2 0x1AA JUMP JUMPDEST JUMPDEST PUSH0 PUSH2 0x203 DUP5 DUP3 DUP6 ADD PUSH2 0x1CD JUMP JUMPDEST SWAP2 POP POP SWAP3 SWAP2 POP POP JUMP JUMPDEST PUSH2 0x215 DUP2 PUSH2 0x1AE JUMP JUMPDEST DUP3 MSTORE POP POP JUMP JUMPDEST PUSH0 PUSH1 0x20 DUP3 ADD SWAP1 POP PUSH2 0x22E PUSH0 DUP4 ADD DUP5 PUSH2 0x20C JUMP JUMPDEST SWAP3 SWAP2 POP POP JUMP JUMPDEST PUSH0 PUSH0 PUSH1 0x40 DUP4 DUP6 SUB SLT ISZERO PUSH2 0x24A JUMPI PUSH2 0x249 PUSH2 0x1AA JUMP JUMPDEST JUMPDEST PUSH0 PUSH2 0x257 DUP6 DUP3 DUP7 ADD PUSH2 0x1CD JUMP JUMPDEST SWAP3 POP POP PUSH1 0x20 PUSH2 0x268 DUP6 DUP3 DUP7 ADD PUSH2 0x1CD JUMP JUMPDEST SWAP2 POP POP SWAP3 POP SWAP3 SWAP1 POP JUMP JUMPDEST PUSH0 PUSH0 PUSH0 PUSH1 0x60 DUP5 DUP7 SUB SLT ISZERO PUSH2 0x289 JUMPI PUSH2 0x288 PUSH2 0x1AA JUMP JUMPDEST JUMPDEST PUSH0 PUSH2 0x296 DUP7 DUP3 DUP8 ADD PUSH2 0x1CD JUMP JUMPDEST SWAP4 POP POP PUSH1 0x20 PUSH2 0x2A7 DUP7 DUP3 DUP8 ADD PUSH2 0x1CD JUMP JUMPDEST SWAP3 POP POP PUSH1 0x40 PUSH2 0x2B8 DUP7 DUP3 DUP8 ADD PUSH2 0x1CD JUMP JUMPDEST SWAP2 POP POP SWAP3 POP SWAP3 POP SWAP3 JUMP JUMPDEST PUSH32 0x4E487B7100000000000000000000000000000000000000000000000000000000 PUSH0 MSTORE PUSH1 0x11 PUSH1 0x4 MSTORE PUSH1 0x24 PUSH0 REVERT JUMPDEST PUSH0 PUSH2 0x2F9 DUP3 PUSH2 0x1AE JUMP JUMPDEST SWAP2 POP PUSH2 0x304 DUP4 PUSH2 0x1AE JUMP JUMPDEST SWAP3 POP DUP3 DUP3 MUL PUSH2 0x312 DUP2 PUSH2 0x1AE JUMP JUMPDEST SWAP2 POP DUP3 DUP3 DIV DUP5 EQ DUP4 ISZERO OR PUSH2 0x329 JUMPI PUSH2 0x328 PUSH2 0x2C2 JUMP JUMPDEST JUMPDEST POP SWAP3 SWAP2 POP POP JUMP JUMPDEST PUSH0 PUSH2 0x33A DUP3 PUSH2 0x1AE JUMP JUMPDEST SWAP2 POP PUSH2 0x345 DUP4 PUSH2 0x1AE JUMP JUMPDEST SWAP3 POP DUP3 DUP3 SUB SWAP1 POP DUP2 DUP2 GT ISZERO PUSH2 0x35D JUMPI PUSH2 0x35C PUSH2 0x2C2 JUMP JUMPDEST JUMPDEST SWAP3 SWAP2 POP POP JUMP JUMPDEST PUSH0 PUSH2 0x36D DUP3 PUSH2 0x1AE JUMP JUMPDEST SWAP2 POP PUSH2 0x378 DUP4 PUSH2 0x1AE JUMP JUMPDEST SWAP3 POP DUP3 DUP3 ADD SWAP1 POP DUP1 DUP3 GT ISZERO PUSH2 0x390 JUMPI PUSH2 0x38F PUSH2 0x2C2 JUMP JUMPDEST JUMPDEST SWAP3 SWAP2 POP POP JUMP INVALID LOG2 PUSH5 0x6970667358 0x22 SLT KECCAK256 PUSH29 0xF4EA07B8C7BA56A605DB2FEBA423DD250976BEC08AF8F668308C0F9F91 0xCB EXP PUSH5 0x736F6C6343 STOP ADDMOD 0x1F STOP CALLER "
		},
		"gasEstimates": {
			"creation": {
				"codeDepositCost": "194400",
				"executionCost": "236",
				"totalCost": "194636"
			},
			"external": {
				"add(uint256,uint256)": "infinite",
				"add(uint256,uint256,uint256)": "infinite",
				"lastResult()": "2490",
				"multiplyByLast(uint256)": "infinite",
				"subtract(uint256,uint256)": "infinite"
			}
		},
		"methodIdentifiers": {
			"add(uint256,uint256)": "771602f7",
			"add(uint256,uint256,uint256)": "505fb46c",
			"lastResult()": "abcc11d8",
			"multiplyByLast(uint256)": "233f7037",
			"subtract(uint256,uint256)": "3ef5e445"
		}
	},
	"abi": [
		{
			"inputs": [
				{
					"internalType": "uint256",
					"name": "a",
					"type": "uint256"
				},
				{
					"internalType": "uint256",
					"name": "b",
					"type": "uint256"
				},
				{
					"internalType": "uint256",
					"name": "c",
					"type": "uint256"
				}
			],
			"name": "add",
			"outputs": [
				{
					"internalType": "uint256",
					"name": "",
					"type": "uint256"
				}
			],
			"stateMutability": "nonpayable",
			"type": "function"
		},
		{
			"inputs": [
				{
					"internalType": "uint256",
					"name": "a",
					"type": "uint256"
				},
				{
					"internalType": "uint256",
					"name": "b",
					"type": "uint256"
				}
			],
			"name": "add",
			"outputs": [
				{
					"internalType": "uint256",
					"name": "",
					"type": "uint256"
				}
			],
			"stateMutability": "nonpayable",
			"type": "function"
		},
		{
			"inputs": [],
			"name": "lastResult",
			"outputs": [
				{
					"internalType": "uint256",
					"name": "",
					"type": "uint256"
				}
			],
			"stateMutability": "view",
			"type": "function"
		},
		{
			"inputs": [
				{
					"internalType": "uint256",
					"name": "a",
					"type": "uint256"
				}
			],
			"name": "multiplyByLast",
			"outputs": [
				{
					"internalType": "uint256",
					"name": "",
					"type": "uint256"
				}
			],
			"stateMutability": "view",
			"type": "function"
		},
		{
			"inputs": [
				{
					"internalType": "uint256",
					"name": "a",
					"type": "uint256"
				},
				{
					"internalType": "uint256",
					"name": "b",
					"type": "uint256"
				}
			],
			"name": "subtract",
			"outputs": [
				{
					"internalType": "uint256",
					"name": "",
					"type": "uint256"
				}
			],
			"stateMutability": "pure",
			"type": "function"
		}
	]
}