{
	"data": {
		"bytecode": {
			"linkReferences": {},
			"object": "6080604052348015600e575f5ffd5b506101e48061001c5f395ff3fe608060405234801561000f575f5ffd5b5060043610610055575f3560e01c806341d9e6ce146100595780635121459b146100775780637de7654d14610081578063d5f966d51461009f578063fa9bdd85146100bd575b5f5ffd5b6100616100db565b60405161006e9190610195565b60405180910390f35b61007f6100ec565b005b610089610114565b6040516100969190610195565b60405180910390f35b6100a761013f565b6040516100b49190610195565b60405180910390f35b6100c5610169565b6040516100d29190610195565b60405180910390f35b5f5f9054906101000a900460ff1681565b5f5f9054906101000a900460ff16155f5f6101000a81548160ff021916908315150217905550565b5f5f5f9054906101000a900460ff16801561013a57505f60019054906101000a900460ff165b905090565b5f5f5f9054906101000a900460ff168061016457505f60019054906101000a900460ff165b905090565b5f60019054906101000a900460ff1681565b5f8115159050919050565b61018f8161017b565b82525050565b5f6020820190506101a85f830184610186565b9291505056fea26469706673582212207db9470204bf434f30d855f553f9eb18c1dc0e2815e79ddb1eea78296082c79064736f6c634300081f0033",
			"opcodes": "PUSH1 0x80 PUSH1 0x40 MSTORE CALLVALUE DUP1 ISZERO PUSH1 0xE JUMPI PUSH0 PUSH0 REVERT JUMPDEST POP PUSH2 0x1E4 DUP1 PUSH2 0x1C PUSH0 CODECOPY PUSH0 RETURN INVALID PUSH1 0x80 PUSH1 0x40 MSTORE CALLVALUE DUP1 ISZERO PUSH2 0xF JUMPI PUSH0 PUSH0 REVERT JUMPDEST POP PUSH1 0x4 CALLDATASIZE LT PUSH2 0x55 JUMPI PUSH0 CALLDATALOAD PUSH1 0xE0 SHR DUP1 PUSH4 0x41D9E6CE EQ PUSH2 0x59 JUMPI DUP1 PUSH4 0x5121459B EQ PUSH2 0x77 JUMPI DUP1 PUSH4 0x7DE7654D EQ PUSH2 0x81 JUMPI DUP1 PUSH4 0xD5F966D5 EQ PUSH2 0x9F JUMPI DUP1 PUSH4 0xFA9BDD85 EQ PUSH2 0xBD JUMPI JUMPDEST PUSH0 PUSH0 REVERT JUMPDEST PUSH2 0x61 PUSH2 0xDB JUMP JUMPDEST PUSH1 0x40 MLOAD PUSH2 0x6E SWAP2 SWAP1 PUSH2 0x195 JUMP JUMPDEST PUSH1 0x40 MLOAD DUP1 SWAP2 SUB SWAP1 RETURN JUMPDEST PUSH2 0x7F PUSH2 0xEC JUMP JUMPDEST STOP JUMPDEST PUSH2 0x89 PUSH2 0x114 JUMP JUMPDEST PUSH1 0x40 MLOAD PUSH2 0x96 SWAP2 SWAP1 PUSH2 0x195 JUMP JUMPDEST PUSH1 0x40 MLOAD DUP1 SWAP2 SUB SWAP1 RETURN JUMPDEST PUSH2 0xA7 PUSH2 0x13F JUMP JUMPDEST PUSH1 0x40 MLOAD PUSH2 0xB4 SWAP2 SWAP1 PUSH2 0x195 JUMP JUMPDEST PUSH1 0x40 MLOAD DUP1 SWAP2 SUB SWAP1 RETURN JUMPDEST PUSH2 0xC5 PUSH2 0x169 JUMP JUMPDEST PUSH1 0x40 MLOAD PUSH2 0xD2 SWAP2 SWAP1 PUSH2 0x195 JUMP JUMPDEST PUSH1 0x40 MLOAD DUP1 SWAP2 SUB SWAP1 RETURN JUMPDEST PUSH0 PUSH0 SWAP1 SLOAD SWAP1 PUSH2 0x100 EXP SWAP1 DIV PUSH1 0xFF AND DUP2 JUMP JUMPDEST PUSH0 PUSH0 SWAP1 SLOAD SWAP1 PUSH2 0x100 EXP SWAP1 DIV PUSH1 0xFF AND ISZERO PUSH0 PUSH0 PUSH2 0x100 EXP DUP2 SLOAD DUP2 PUSH1 0xFF MUL NOT AND SWAP1 DUP4 ISZERO ISZERO MUL OR SWAP1 SSTORE POP JUMP JUMPDEST PUSH0 PUSH0 PUSH0 SWAP1 SLOAD SWAP1 PUSH2 0x100 EXP SWAP1 DIV PUSH1 0xFF AND DUP1 ISZERO PUSH2 0x13A JUMPI POP PUSH0 PUSH1 0x1 SWAP1 SLOAD SWAP1 PUSH2 0x100 EXP SWAP1 DIV PUSH1 0xFF AND JUMPDEST SWAP1 POP SWAP1 JUMP JUMPDEST PUSH0 PUSH0 PUSH0 SWAP1 SLOAD SWAP1 PUSH2 0x100 EXP SWAP1 DIV PUSH1 0xFF AND DUP1 PUSH2 0x164 JUMPI POP PUSH0 PUSH1 0x1 SWAP1 SLOAD SWAP1 PUSH2 0x100 EXP SWAP1 DIV PUSH1 0xFF AND JUMPDEST SWAP1 POP SWAP1 JUMP JUMPDEST PUSH0 PUSH1 0x1 SWAP1 SLOAD SWAP1 PUSH2 0x100 EXP SWAP1 DIV PUSH1 0xFF AND DUP2 JUMP JUMPDEST PUSH0 DUP2 ISZERO ISZERO SWAP1 POP SWAP2 SWAP1 POP JUMP JUMPDEST PUSH2 0x18F DUP2 PUSH2 0x17B JUMP JUMPDEST DUP3 MSTORE POP POP JUMP JUMPDEST PUSH0 PUSH1 0x20 DUP3 ADD SWAP1 POP PUSH2 0x1A8 PUSH0 DUP4 ADD DUP5 PUSH2 0x186 JUMP JUMPDEST SWAP3 SWAP2 POP POP JUMP INVALID LOG2 PUSH5 0x6970667358 0x22 SLT KECCAK256 PUSH30 0xB9470204BF434F30D855F553F9EB18C1DC0E2815E79DDB1EEA78296082C7 SWAP1 PUSH5 0x736F6C6343 STOP ADDMOD 0x1F STOP CALLER "
		},
		"gasEstimates": {
			"creation": {
				"codeDepositCost": "96800",
				"executionCost": "145",
				"totalCost": "96945"
			},
			"external": {
				"allFeaturesEnabled()": "4704",
				"anyFeatureEnabled()": "4723",
				"feature1Enabled()": "2443",
				"feature2Enabled()": "2582",
				"toggleFeature1()": "26545"
			}
		},
		"methodIdentifiers": {
			"allFeaturesEnabled()": "7de7654d",
			"anyFeatureEnabled()": "d5f966d5",
			"feature1Enabled()": "41d9e6ce",
			"feature2Enabled()": "fa9bdd85",
			"toggleFeature1()": "5121459b"
		}
	},
	"abi": [
		{
			"inputs": [],
			"name": "allFeaturesEnabled",
			"outputs": [
				{
					"internalType": "bool",
					"name": "",
					"type": "bool"
				}
			],
			"stateMutability": "view",
			"type": "function"
		},
		{
			"inputs": [],
			"name": "anyFeatureEnabled",
			"outputs": [
				{
					"internalType": "bool",
					"name": "",
					"type": "bool"
				}
			],
			"stateMutability": "view",
			"type": "function"
		},
		{
			"inputs": [],
			"name": "feature1Enabled",
			"outputs": [
				{
					"internalType": "bool",
					"name": "",
					"type": "bool"
				}
			],
			"stateMutability": "view",
			"type": "function"
		},
		{
			"inputs": [],
			"name": "feature2Enabled",
			"outputs": [
				{
					"internalType": "bool",
					"name": "",
					"type": "bool"
				}
			],
			"stateMutability": "view",
			"type": "function"
		},
		{
			"inputs": [],
			"name": "toggleFeature1",
			"outputs": [],
			"stateMutability": "nonpayable",
			"type": "function"
		}
	]
}