{
	"data": {
		"bytecode": {
			"linkReferences": {},
			"object": "6080604052348015600e575f5ffd5b5061072f8061001c5f395ff3fe608060405234801561000f575f5ffd5b5060043610610086575f3560e01c8063826926791161005957806382692679146100c65780638456cb59146100d05780638d4e4083146100da578063b187bd26146100f857610086565b8063392e53cd1461008a5780633f4ba83a146100a85780636823b073146100b25780638129fc1c146100bc575b5f5ffd5b610092610116565b60405161009f91906103f8565b60405180910390f35b6100b0610128565b005b6100ba61018f565b005b6100c46101fa565b005b6100ce610265565b005b6100d8610352565b005b6100e26103bb565b6040516100ef91906103f8565b60405180910390f35b6101006103cd565b60405161010d91906103f8565b60405180910390f35b5f60019054906101000a900460ff1681565b5f5f9054906101000a900460ff16610175576040517f08c379a000000000000000000000000000000000000000000000000000000000815260040161016c9061046b565b60405180910390fd5b5f5f5f6101000a81548160ff021916908315150217905550565b5f60029054906101000a900460ff16156101de576040517f08c379a00000000000000000000000000000000000000000000000000000000081526004016101d5906104d3565b60405180910390fd5b60015f60026101000a81548160ff021916908315150217905550565b5f60019054906101000a900460ff1615610249576040517f08c379a00000000000000000000000000000000000000000000000000000000081526004016102409061053b565b60405180910390fd5b60015f60016101000a81548160ff021916908315150217905550565b5f60019054906101000a900460ff166102b3576040517f08c379a00000000000000000000000000000000000000000000000000000000081526004016102aa906105a3565b60405180910390fd5b5f5f9054906101000a900460ff1615610301576040517f08c379a00000000000000000000000000000000000000000000000000000000081526004016102f89061060b565b60405180910390fd5b5f60029054906101000a900460ff1615610350576040517f08c379a000000000000000000000000000000000000000000000000000000000815260040161034790610673565b60405180910390fd5b565b5f5f9054906101000a900460ff16156103a0576040517f08c379a0000000000000000000000000000000000000000000000000000000008152600401610397906106db565b60405180910390fd5b60015f5f6101000a81548160ff021916908315150217905550565b5f60029054906101000a900460ff1681565b5f5f9054906101000a900460ff1681565b5f8115159050919050565b6103f2816103de565b82525050565b5f60208201905061040b5f8301846103e9565b92915050565b5f82825260208201905092915050565b7f4e6f7420706175736564000000000000000000000000000000000000000000005f82015250565b5f610455600a83610411565b915061046082610421565b602082019050919050565b5f6020820190508181035f83015261048281610449565b9050919050565b7f416c72656164792046696e616c697a65640000000000000000000000000000005f82015250565b5f6104bd601183610411565b91506104c882610489565b602082019050919050565b5f6020820190508181035f8301526104ea816104b1565b9050919050565b7f416c726561647920696e697469616c697a6564000000000000000000000000005f82015250565b5f610525601383610411565b9150610530826104f1565b602082019050919050565b5f6020820190508181035f83015261055281610519565b9050919050565b7f4e6f7420696e697469616c697a656400000000000000000000000000000000005f82015250565b5f61058d600f83610411565b915061059882610559565b602082019050919050565b5f6020820190508181035f8301526105ba81610581565b9050919050565b7f436f6e74726163742069732070617573656400000000000000000000000000005f82015250565b5f6105f5601283610411565b9150610600826105c1565b602082019050919050565b5f6020820190508181035f830152610622816105e9565b9050919050565b7f436f6e74726163742069732066696e616c697a656400000000000000000000005f82015250565b5f61065d601583610411565b915061066882610629565b602082019050919050565b5f6020820190508181035f83015261068a81610651565b9050919050565b7f416c7265616479207061757365640000000000000000000000000000000000005f82015250565b5f6106c5600e83610411565b91506106d082610691565b602082019050919050565b5f6020820190508181035f8301526106f2816106b9565b905091905056fea26469706673582212203dbeb66b48c4b1ed63ec66b8e4a589b26ff81beb661d5512a6a821612459e97064736f6c634300081f0033",
			"opcodes": "PUSH1 0x80 PUSH1 0x40 MSTORE CALLVALUE DUP1 ISZERO PUSH1 0xE JUMPI PUSH0 PUSH0 REVERT JUMPDEST POP PUSH2 0x72F DUP1 PUSH2 0x1C PUSH0 CODECOPY PUSH0 RETURN INVALID PUSH1 0x80 PUSH1 0x40 MSTORE CALLVALUE DUP1 ISZERO PUSH2 0xF JUMPI PUSH0 PUSH0 REVERT JUMPDEST POP PUSH1 0x4 CALLDATASIZE LT PUSH2 0x86 JUMPI PUSH0 CALLDATALOAD PUSH1 0xE0 SHR DUP1 PUSH4 0x82692679 GT PUSH2 0x59 JUMPI DUP1 PUSH4 0x82692679 EQ PUSH2 0xC6 JUMPI DUP1 PUSH4 0x8456CB59 EQ PUSH2 0xD0 JUMPI DUP1 PUSH4 0x8D4E4083 EQ PUSH2 0xDA JUMPI DUP1 PUSH4 0xB187BD26 EQ PUSH2 0xF8 JUMPI PUSH2 0x86 JUMP JUMPDEST DUP1 PUSH4 0x392E53CD EQ PUSH2 0x8A JUMPI DUP1 PUSH4 0x3F4BA83A EQ PUSH2 0xA8 JUMPI DUP1 PUSH4 0x6823B073 EQ PUSH2 0xB2 JUMPI DUP1 PUSH4 0x8129FC1C EQ PUSH2 0xBC JUMPI JUMPDEST PUSH0 PUSH0 REVERT JUMPDEST PUSH2 0x92 PUSH2 0x116 JUMP JUMPDEST PUSH1 0x40 MLOAD PUSH2 0x9F SWAP2 SWAP1 PUSH2 0x3F8 JUMP JUMPDEST PUSH1 0x40 MLOAD DUP1 SWAP2 SUB SWAP1 RETURN JUMPDEST PUSH2 0xB0 PUSH2 0x128 JUMP JUMPDEST STOP JUMPDEST PUSH2 0xBA PUSH2 0x18F JUMP JUMPDEST STOP JUMPDEST PUSH2 0xC4 PUSH2 0x1FA JUMP JUMPDEST STOP JUMPDEST PUSH2 0xCE PUSH2 0x265 JUMP JUMPDEST STOP JUMPDEST PUSH2 0xD8 PUSH2 0x352 JUMP JUMPDEST STOP JUMPDEST PUSH2 0xE2 PUSH2 0x3BB JUMP JUMPDEST PUSH1 0x40 MLOAD PUSH2 0xEF SWAP2 SWAP1 PUSH2 0x3F8 JUMP JUMPDEST PUSH1 0x40 MLOAD DUP1 SWAP2 SUB SWAP1 RETURN JUMPDEST PUSH2 0x100 PUSH2 0x3CD JUMP JUMPDEST PUSH1 0x40 MLOAD PUSH2 0x10D SWAP2 SWAP1 PUSH2 0x3F8 JUMP JUMPDEST PUSH1 0x40 MLOAD DUP1 SWAP2 SUB SWAP1 RETURN JUMPDEST PUSH0 PUSH1 0x1 SWAP1 SLOAD SWAP1 PUSH2 0x100 EXP SWAP1 DIV PUSH1 0xFF AND DUP2 JUMP JUMPDEST PUSH0 PUSH0 SWAP1 SLOAD SWAP1 PUSH2 0x100 EXP SWAP1 DIV PUSH1 0xFF AND PUSH2 0x175 JUMPI PUSH1 0x40 MLOAD PUSH32 0x8C379A000000000000000000000000000000000000000000000000000000000 DUP2 MSTORE PUSH1 0x4 ADD PUSH2 0x16C SWAP1 PUSH2 0x46B JUMP JUMPDEST PUSH1 0x40 MLOAD DUP1 SWAP2 SUB SWAP1 REVERT JUMPDEST PUSH0 PUSH0 PUSH0 PUSH2 0x100 EXP DUP2 SLOAD DUP2 PUSH1 0xFF MUL NOT AND SWAP1 DUP4 ISZERO ISZERO MUL OR SWAP1 SSTORE POP JUMP JUMPDEST PUSH0 PUSH1 0x2 SWAP1 SLOAD SWAP1 PUSH2 0x100 EXP SWAP1 DIV PUSH1 0xFF AND ISZERO PUSH2 0x1DE JUMPI PUSH1 0x40 MLOAD PUSH32 0x8C379A000000000000000000000000000000000000000000000000000000000 DUP2 MSTORE PUSH1 0x4 ADD PUSH2 0x1D5 SWAP1 PUSH2 0x4D3 JUMP JUMPDEST PUSH1 0x40 MLOAD DUP1 SWAP2 SUB SWAP1 REVERT JUMPDEST PUSH1 0x1 PUSH0 PUSH1 0x2 PUSH2 0x100 EXP DUP2 SLOAD DUP2 PUSH1 0xFF MUL NOT AND SWAP1 DUP4 ISZERO ISZERO MUL OR SWAP1 SSTORE POP JUMP JUMPDEST PUSH0 PUSH1 0x1 SWAP1 SLOAD SWAP1 PUSH2 0x100 EXP SWAP1 DIV PUSH1 0xFF AND ISZERO PUSH2 0x249 JUMPI PUSH1 0x40 MLOAD PUSH32 0x8C379A000000000000000000000000000000000000000000000000000000000 DUP2 MSTORE PUSH1 0x4 ADD PUSH2 0x240 SWAP1 PUSH2 0x53B JUMP JUMPDEST PUSH1 0x40 MLOAD DUP1 SWAP2 SUB SWAP1 REVERT JUMPDEST PUSH1 0x1 PUSH0 PUSH1 0x1 PUSH2 0x100 EXP DUP2 SLOAD DUP2 PUSH1 0xFF MUL NOT AND SWAP1 DUP4 ISZERO ISZERO MUL OR SWAP1 SSTORE POP JUMP JUMPDEST PUSH0 PUSH1 0x1 SWAP1 SLOAD SWAP1 PUSH2 0x100 EXP SWAP1 DIV PUSH1 0xFF AND PUSH2 0x2B3 JUMPI PUSH1 0x40 MLOAD PUSH32 0x8C379A000000000000000000000000000000000000000000000000000000000 DUP2 MSTORE PUSH1 0x4 ADD PUSH2 0x2AA SWAP1 PUSH2 0x5A3 JUMP JUMPDEST PUSH1 0x40 MLOAD DUP1 SWAP2 SUB SWAP1 REVERT JUMPDEST PUSH0 PUSH0 SWAP1 SLOAD SWAP1 PUSH2 0x100 EXP SWAP1 DIV PUSH1 0xFF AND ISZERO PUSH2 0x301 JUMPI PUSH1 0x40 MLOAD PUSH32 0x8C379A000000000000000000000000000000000000000000000000000000000 DUP2 MSTORE PUSH1 0x4 ADD PUSH2 0x2F8 SWAP1 PUSH2 0x60B JUMP JUMPDEST PUSH1 0x40 MLOAD DUP1 SWAP2 SUB SWAP1 REVERT JUMPDEST PUSH0 PUSH1 0x2 SWAP1 SLOAD SWAP1 PUSH2 0x100 EXP SWAP1 DIV PUSH1 0xFF AND ISZERO PUSH2 0x350 JUMPI PUSH1 0x40 MLOAD PUSH32 0x8C379A000000000000000000000000000000000000000000000000000000000 DUP2 MSTORE PUSH1 0x4 ADD PUSH2 0x347 SWAP1 PUSH2 0x673 JUMP JUMPDEST PUSH1 0x40 MLOAD DUP1 SWAP2 SUB SWAP1 REVERT JUMPDEST JUMP JUMPDEST PUSH0 PUSH0 SWAP1 SLOAD SWAP1 PUSH2 0x100 EXP SWAP1 DIV PUSH1 0xFF AND ISZERO PUSH2 0x3A0 JUMPI PUSH1 0x40 MLOAD PUSH32 0x8C379A000000000000000000000000000000000000000000000000000000000 DUP2 MSTORE PUSH1 0x4 ADD PUSH2 0x397 SWAP1 PUSH2 0x6DB JUMP JUMPDEST PUSH1 0x40 MLOAD DUP1 SWAP2 SUB SWAP1 REVERT JUMPDEST PUSH1 0x1 PUSH0 PUSH0 PUSH2 0x100 EXP DUP2 SLOAD DUP2 PUSH1 0xFF MUL NOT AND SWAP1 DUP4 ISZERO ISZERO MUL OR SWAP1 SSTORE POP JUMP JUMPDEST PUSH0 PUSH1 0x2 SWAP1 SLOAD SWAP1 PUSH2 0x100 EXP SWAP1 DIV PUSH1 0xFF AND DUP2 JUMP JUMPDEST PUSH0 PUSH0 SWAP1 SLOAD SWAP1 PUSH2 0x100 EXP SWAP1 DIV PUSH1 0xFF AND DUP2 JUMP JUMPDEST PUSH0 DUP2 ISZERO ISZERO SWAP1 POP SWAP2 SWAP1 POP JUMP JUMPDEST PUSH2 0x3F2 DUP2 PUSH2 0x3DE JUMP JUMPDEST DUP3 MSTORE POP POP JUMP JUMPDEST PUSH0 PUSH1 0x20 DUP3 ADD SWAP1 POP PUSH2 0x40B PUSH0 DUP4 ADD DUP5 PUSH2 0x3E9 JUMP JUMPDEST SWAP3 SWAP2 POP POP JUMP JUMPDEST PUSH0 DUP3 DUP3 MSTORE PUSH1 0x20 DUP3 ADD SWAP1 POP SWAP3 SWAP2 POP POP JUMP JUMPDEST PUSH32 0x4E6F742070617573656400000000000000000000000000000000000000000000 PUSH0 DUP3 ADD MSTORE POP JUMP JUMPDEST PUSH0 PUSH2 0x455 PUSH1 0xA DUP4 PUSH2 0x411 JUMP JUMPDEST SWAP2 POP PUSH2 0x460 DUP3 PUSH2 0x421 JUMP JUMPDEST PUSH1 0x20 DUP3 ADD SWAP1 POP SWAP2 SWAP1 POP JUMP JUMPDEST PUSH0 PUSH1 0x20 DUP3 ADD SWAP1 POP DUP2 DUP2 SUB PUSH0 DUP4 ADD MSTORE PUSH2 0x482 DUP2 PUSH2 0x449 JUMP JUMPDEST SWAP1 POP SWAP2 SWAP1 POP JUMP JUMPDEST PUSH32 0x416C72656164792046696E616C697A6564000000000000000000000000000000 PUSH0 DUP3 ADD MSTORE POP JUMP JUMPDEST PUSH0 PUSH2 0x4BD PUSH1 0x11 DUP4 PUSH2 0x411 JUMP JUMPDEST SWAP2 POP PUSH2 0x4C8 DUP3 PUSH2 0x489 JUMP JUMPDEST PUSH1 0x20 DUP3 ADD SWAP1 POP SWAP2 SWAP1 POP JUMP JUMPDEST PUSH0 PUSH1 0x20 DUP3 ADD SWAP1 POP DUP2 DUP2 SUB PUSH0 DUP4 ADD MSTORE PUSH2 0x4EA DUP2 PUSH2 0x4B1 JUMP JUMPDEST SWAP1 POP SWAP2 SWAP1 POP JUMP JUMPDEST PUSH32 0x416C726561647920696E697469616C697A656400000000000000000000000000 PUSH0 DUP3 ADD MSTORE POP JUMP JUMPDEST PUSH0 PUSH2 0x525 PUSH1 0x13 DUP4 PUSH2 0x411 JUMP JUMPDEST SWAP2 POP PUSH2 0x530 DUP3 PUSH2 0x4F1 JUMP JUMPDEST PUSH1 0x20 DUP3 ADD SWAP1 POP SWAP2 SWAP1 POP JUMP JUMPDEST PUSH0 PUSH1 0x20 DUP3 ADD SWAP1 POP DUP2 DUP2 SUB PUSH0 DUP4 ADD MSTORE PUSH2 0x552 DUP2 PUSH2 0x519 JUMP JUMPDEST SWAP1 POP SWAP2 SWAP1 POP JUMP JUMPDEST PUSH32 0x4E6F7420696E697469616C697A65640000000000000000000000000000000000 PUSH0 DUP3 ADD MSTORE POP JUMP JUMPDEST PUSH0 PUSH2 0x58D PUSH1 0xF DUP4 PUSH2 0x411 JUMP JUMPDEST SWAP2 POP PUSH2 0x598 DUP3 PUSH2 0x559 JUMP JUMPDEST PUSH1 0x20 DUP3 ADD SWAP1 POP SWAP2 SWAP1 POP JUMP JUMPDEST PUSH0 PUSH1 0x20 DUP3 ADD SWAP1 POP DUP2 DUP2 SUB PUSH0 DUP4 ADD MSTORE PUSH2 0x5BA DUP2 PUSH2 0x581 JUMP JUMPDEST SWAP1 POP SWAP2 SWAP1 POP JUMP JUMPDEST PUSH32 0x436F6E7472616374206973207061757365640000000000000000000000000000 PUSH0 DUP3 ADD MSTORE POP JUMP JUMPDEST PUSH0 PUSH2 0x5F5 PUSH1 0x12 DUP4 PUSH2 0x411 JUMP JUMPDEST SWAP2 POP PUSH2 0x600 DUP3 PUSH2 0x5C1 JUMP JUMPDEST PUSH1 0x20 DUP3 ADD SWAP1 POP SWAP2 SWAP1 POP JUMP JUMPDEST PUSH0 PUSH1 0x20 DUP3 ADD SWAP1 POP DUP2 DUP2 SUB PUSH0 DUP4 ADD MSTORE PUSH2 0x622 DUP2 PUSH2 0x5E9 JUMP JUMPDEST SWAP1 POP SWAP2 SWAP1 POP JUMP JUMPDEST PUSH32 0x436F6E74726163742069732066696E616C697A65640000000000000000000000 PUSH0 DUP3 ADD MSTORE POP JUMP JUMPDEST PUSH0 PUSH2 0x65D PUSH1 0x15 DUP4 PUSH2 0x411 JUMP JUMPDEST SWAP2 POP PUSH2 0x668 DUP3 PUSH2 0x629 JUMP JUMPDEST PUSH1 0x20 DUP3 ADD SWAP1 POP SWAP2 SWAP1 POP JUMP JUMPDEST PUSH0 PUSH1 0x20 DUP3 ADD SWAP1 POP DUP2 DUP2 SUB PUSH0 DUP4 ADD MSTORE PUSH2 0x68A DUP2 PUSH2 0x651 JUMP JUMPDEST SWAP1 POP SWAP2 SWAP1 POP JUMP JUMPDEST PUSH32 0x416C726561647920706175736564000000000000000000000000000000000000 PUSH0 DUP3 ADD MSTORE POP JUMP JUMPDEST PUSH0 PUSH2 0x6C5 PUSH1 0xE DUP4 PUSH2 0x411 JUMP JUMPDEST SWAP2 POP PUSH2 0x6D0 DUP3 PUSH2 0x691 JUMP JUMPDEST PUSH1 0x20 DUP3 ADD SWAP1 POP SWAP2 SWAP1 POP JUMP JUMPDEST PUSH0 PUSH1 0x20 DUP3 ADD SWAP1 POP DUP2 DUP2 SUB PUSH0 DUP4 ADD MSTORE PUSH2 0x6F2 DUP2 PUSH2 0x6B9 JUMP JUMPDEST SWAP1 POP SWAP2 SWAP1 POP JUMP INVALID LOG2 PUSH5 0x6970667358 0x22 SLT KECCAK256 RETURNDATASIZE 0xBE 0xB6 PUSH12 0x48C4B1ED63EC66B8E4A589B2 PUSH16 0xF81BEB661D5512A6A821612459E97064 PUSH20 0x6F6C634300081F00330000000000000000000000 "
		},
		"gasEstimates": {
			"creation": {
				"codeDepositCost": "367800",
				"executionCost": "403",
				"totalCost": "368203"
			},
			"external": {
				"Finalized()": "26709",
				"doSomething()": "6988",
				"initialize()": "26731",
				"isFinalized()": "2560",
				"isInitialized()": "2517",
				"isPaused()": "2531",
				"pause()": "26584",
				"unpause()": "26581"
			}
		},
		"methodIdentifiers": {
			"Finalized()": "6823b073",
			"doSomething()": "82692679",
			"initialize()": "8129fc1c",
			"isFinalized()": "8d4e4083",
			"isInitialized()": "392e53cd",
			"isPaused()": "b187bd26",
			"pause()": "8456cb59",
			"unpause()": "3f4ba83a"
		}
	},
	"abi": [
		{
			"inputs": [],
			"name": "Finalized",
			"outputs": [],
			"stateMutability": "nonpayable",
			"type": "function"
		},
		{
			"inputs": [],
			"name": "doSomething",
			"outputs": [],
			"stateMutability": "view",
			"type": "function"
		},
		{
			"inputs": [],
			"name": "initialize",
			"outputs": [],
			"stateMutability": "nonpayable",
			"type": "function"
		},
		{
			"inputs": [],
			"name": "isFinalized",
			"outputs": [
				{
					"internalType": "bool",
					"name": "",
					"type": "bool"
				}
			],
			"stateMutability": "view",
			"type": "function"
		},
		{
			"inputs": [],
			"name": "isInitialized",
			"outputs": [
				{
					"internalType": "bool",
					"name": "",
					"type": "bool"
				}
			],
			"stateMutability": "view",
			"type": "function"
		},
		{
			"inputs": [],
			"name": "isPaused",
			"outputs": [
				{
					"internalType": "bool",
					"name": "",
					"type": "bool"
				}
			],
			"stateMutability": "view",
			"type": "function"
		},
		{
			"inputs": [],
			"name": "pause",
			"outputs": [],
			"stateMutability": "nonpayable",
			"type": "function"
		},
		{
			"inputs": [],
			"name": "unpause",
			"outputs": [],
			"stateMutability": "nonpayable",
			"type": "function"
		}
	]
}