{
	"Day13_Phishing.sol": {
		"Attack": {
			"abi": [
				{
					"inputs": [
						{
							"internalType": "contract Phishable",
							"name": "_victim",
							"type": "address"
						}
					],
					"stateMutability": "nonpayable",
					"type": "constructor"
				},
				{
					"inputs": [],
					"name": "claimAirdrop",
					"outputs": [],
					"stateMutability": "nonpayable",
					"type": "function"
				},
				{
					"inputs": [],
					"name": "hacker",
					"outputs": [
						{
							"internalType": "address payable",
							"name": "",
							"type": "address"
						}
					],
					"stateMutability": "view",
					"type": "function"
				},
				{
					"inputs": [],
					"name": "victim",
					"outputs": [
						{
							"internalType": "contract Phishable",
							"name": "",
							"type": "address"
						}
					],
					"stateMutability": "view",
					"type": "function"
				}
			],
			"devdoc": {
				"kind": "dev",
				"methods": {},
				"version": 1
			},
			"evm": {
				"assembly": "    /* \"Day13_Phishing.sol\":628:1357  contract Attack {... */\n  mstore(0x40, 0x80)\n    /* \"Day13_Phishing.sol\":719:824  constructor(Phishable _victim) {... */\n  callvalue\n  dup1\n  iszero\n  tag_1\n  jumpi\n  revert(0x00, 0x00)\ntag_1:\n  pop\n  mload(0x40)\n  sub(codesize, bytecodeSize)\n  dup1\n  bytecodeSize\n  dup4\n  codecopy\n  dup2\n  dup2\n  add\n  0x40\n  mstore\n  dup2\n  add\n  swap1\n  tag_2\n  swap2\n  swap1\n  tag_3\n  jump\t// in\ntag_2:\n    /* \"Day13_Phishing.sol\":770:777  _victim */\n  dup1\n    /* \"Day13_Phishing.sol\":761:767  victim */\n  0x00\n  0x00\n    /* \"Day13_Phishing.sol\":761:777  victim = _victim */\n  0x0100\n  exp\n  dup2\n  sload\n  dup2\n  0xffffffffffffffffffffffffffffffffffffffff\n  mul\n  not\n  and\n  swap1\n  dup4\n  0xffffffffffffffffffffffffffffffffffffffff\n  and\n  mul\n  or\n  swap1\n  sstore\n  pop\n    /* \"Day13_Phishing.sol\":805:815  msg.sender */\n  caller\n    /* \"Day13_Phishing.sol\":788:794  hacker */\n  0x01\n  0x00\n    /* \"Day13_Phishing.sol\":788:816  hacker = payable(msg.sender) */\n  0x0100\n  exp\n  dup2\n  sload\n  dup2\n  0xffffffffffffffffffffffffffffffffffffffff\n  mul\n  not\n  and\n  swap1\n  dup4\n  0xffffffffffffffffffffffffffffffffffffffff\n  and\n  mul\n  or\n  swap1\n  sstore\n  pop\n    /* \"Day13_Phishing.sol\":719:824  constructor(Phishable _victim) {... */\n  pop\n    /* \"Day13_Phishing.sol\":628:1357  contract Attack {... */\n  jump(tag_6)\n    /* \"#utility.yul\":88:205   */\ntag_8:\n    /* \"#utility.yul\":197:198   */\n  0x00\n    /* \"#utility.yul\":194:195   */\n  0x00\n    /* \"#utility.yul\":187:199   */\n  revert\n    /* \"#utility.yul\":334:460   */\ntag_10:\n    /* \"#utility.yul\":371:378   */\n  0x00\n    /* \"#utility.yul\":411:453   */\n  0xffffffffffffffffffffffffffffffffffffffff\n    /* \"#utility.yul\":404:409   */\n  dup3\n    /* \"#utility.yul\":400:454   */\n  and\n    /* \"#utility.yul\":389:454   */\n  swap1\n  pop\n    /* \"#utility.yul\":334:460   */\n  swap2\n  swap1\n  pop\n  jump\t// out\n    /* \"#utility.yul\":466:562   */\ntag_11:\n    /* \"#utility.yul\":503:510   */\n  0x00\n    /* \"#utility.yul\":532:556   */\n  tag_21\n    /* \"#utility.yul\":550:555   */\n  dup3\n    /* \"#utility.yul\":532:556   */\n  tag_10\n  jump\t// in\ntag_21:\n    /* \"#utility.yul\":521:556   */\n  swap1\n  pop\n    /* \"#utility.yul\":466:562   */\n  swap2\n  swap1\n  pop\n  jump\t// out\n    /* \"#utility.yul\":568:680   */\ntag_12:\n    /* \"#utility.yul\":621:628   */\n  0x00\n    /* \"#utility.yul\":650:674   */\n  tag_23\n    /* \"#utility.yul\":668:673   */\n  dup3\n    /* \"#utility.yul\":650:674   */\n  tag_11\n  jump\t// in\ntag_23:\n    /* \"#utility.yul\":639:674   */\n  swap1\n  pop\n    /* \"#utility.yul\":568:680   */\n  swap2\n  swap1\n  pop\n  jump\t// out\n    /* \"#utility.yul\":686:840   */\ntag_13:\n    /* \"#utility.yul\":775:815   */\n  tag_25\n    /* \"#utility.yul\":809:814   */\n  dup2\n    /* \"#utility.yul\":775:815   */\n  tag_12\n  jump\t// in\ntag_25:\n    /* \"#utility.yul\":768:773   */\n  dup2\n    /* \"#utility.yul\":765:816   */\n  eq\n    /* \"#utility.yul\":755:834   */\n  tag_26\n  jumpi\n    /* \"#utility.yul\":830:831   */\n  0x00\n    /* \"#utility.yul\":827:828   */\n  0x00\n    /* \"#utility.yul\":820:832   */\n  revert\n    /* \"#utility.yul\":755:834   */\ntag_26:\n    /* \"#utility.yul\":686:840   */\n  pop\n  jump\t// out\n    /* \"#utility.yul\":846:1021   */\ntag_14:\n    /* \"#utility.yul\":919:924   */\n  0x00\n    /* \"#utility.yul\":950:956   */\n  dup2\n    /* \"#utility.yul\":944:957   */\n  mload\n    /* \"#utility.yul\":935:957   */\n  swap1\n  pop\n    /* \"#utility.yul\":966:1015   */\n  tag_28\n    /* \"#utility.yul\":1009:1014   */\n  dup2\n    /* \"#utility.yul\":966:1015   */\n  tag_13\n  jump\t// in\ntag_28:\n    /* \"#utility.yul\":846:1021   */\n  swap3\n  swap2\n  pop\n  pop\n  jump\t// out\n    /* \"#utility.yul\":1027:1410   */\ntag_3:\n    /* \"#utility.yul\":1113:1119   */\n  0x00\n    /* \"#utility.yul\":1162:1164   */\n  0x20\n    /* \"#utility.yul\":1150:1159   */\n  dup3\n    /* \"#utility.yul\":1141:1148   */\n  dup5\n    /* \"#utility.yul\":1137:1160   */\n  sub\n    /* \"#utility.yul\":1133:1165   */\n  slt\n    /* \"#utility.yul\":1130:1249   */\n  iszero\n  tag_30\n  jumpi\n    /* \"#utility.yul\":1168:1247   */\n  tag_31\n  tag_8\n  jump\t// in\ntag_31:\n    /* \"#utility.yul\":1130:1249   */\ntag_30:\n    /* \"#utility.yul\":1288:1289   */\n  0x00\n    /* \"#utility.yul\":1313:1393   */\n  tag_32\n    /* \"#utility.yul\":1385:1392   */\n  dup5\n    /* \"#utility.yul\":1376:1382   */\n  dup3\n    /* \"#utility.yul\":1365:1374   */\n  dup6\n    /* \"#utility.yul\":1361:1383   */\n  add\n    /* \"#utility.yul\":1313:1393   */\n  tag_14\n  jump\t// in\ntag_32:\n    /* \"#utility.yul\":1303:1393   */\n  swap2\n  pop\n    /* \"#utility.yul\":1259:1403   */\n  pop\n    /* \"#utility.yul\":1027:1410   */\n  swap3\n  swap2\n  pop\n  pop\n  jump\t// out\n    /* \"Day13_Phishing.sol\":628:1357  contract Attack {... */\ntag_6:\n  dataSize(sub_0)\n  dup1\n  dataOffset(sub_0)\n  0x00\n  codecopy\n  0x00\n  return\nstop\n\nsub_0: assembly {\n        /* \"Day13_Phishing.sol\":628:1357  contract Attack {... */\n      mstore(0x40, 0x80)\n      callvalue\n      dup1\n      iszero\n      tag_1\n      jumpi\n      revert(0x00, 0x00)\n    tag_1:\n      pop\n      jumpi(tag_2, lt(calldatasize, 0x04))\n      shr(0xe0, calldataload(0x00))\n      dup1\n      0x38d1af2d\n      eq\n      tag_3\n      jumpi\n      dup1\n      0x5b88349d\n      eq\n      tag_4\n      jumpi\n      dup1\n      0x930c2003\n      eq\n      tag_5\n      jumpi\n    tag_2:\n      revert(0x00, 0x00)\n        /* \"Day13_Phishing.sol\":681:710  address payable public hacker */\n    tag_3:\n      tag_6\n      tag_7\n      jump\t// in\n    tag_6:\n      mload(0x40)\n      tag_8\n      swap2\n      swap1\n      tag_9\n      jump\t// in\n    tag_8:\n      mload(0x40)\n      dup1\n      swap2\n      sub\n      swap1\n      return\n        /* \"Day13_Phishing.sol\":913:1354  function claimAirdrop() public {... */\n    tag_4:\n      tag_10\n      tag_11\n      jump\t// in\n    tag_10:\n      stop\n        /* \"Day13_Phishing.sol\":651:674  Phishable public victim */\n    tag_5:\n      tag_12\n      tag_13\n      jump\t// in\n    tag_12:\n      mload(0x40)\n      tag_14\n      swap2\n      swap1\n      tag_15\n      jump\t// in\n    tag_14:\n      mload(0x40)\n      dup1\n      swap2\n      sub\n      swap1\n      return\n        /* \"Day13_Phishing.sol\":681:710  address payable public hacker */\n    tag_7:\n      0x01\n      0x00\n      swap1\n      sload\n      swap1\n      0x0100\n      exp\n      swap1\n      div\n      0xffffffffffffffffffffffffffffffffffffffff\n      and\n      dup2\n      jump\t// out\n        /* \"Day13_Phishing.sol\":913:1354  function claimAirdrop() public {... */\n    tag_11:\n        /* \"Day13_Phishing.sol\":1320:1326  victim */\n      0x00\n      0x00\n      swap1\n      sload\n      swap1\n      0x0100\n      exp\n      swap1\n      div\n      0xffffffffffffffffffffffffffffffffffffffff\n      and\n        /* \"Day13_Phishing.sol\":1320:1338  victim.withdrawAll */\n      0xffffffffffffffffffffffffffffffffffffffff\n      and\n      0xfa09e630\n        /* \"Day13_Phishing.sol\":1339:1345  hacker */\n      0x01\n      0x00\n      swap1\n      sload\n      swap1\n      0x0100\n      exp\n      swap1\n      div\n      0xffffffffffffffffffffffffffffffffffffffff\n      and\n        /* \"Day13_Phishing.sol\":1320:1346  victim.withdrawAll(hacker) */\n      mload(0x40)\n      dup3\n      0xffffffff\n      and\n      0xe0\n      shl\n      dup2\n      mstore\n      0x04\n      add\n      tag_17\n      swap2\n      swap1\n      tag_18\n      jump\t// in\n    tag_17:\n      0x00\n      mload(0x40)\n      dup1\n      dup4\n      sub\n      dup2\n      0x00\n      dup8\n      dup1\n      extcodesize\n      iszero\n      dup1\n      iszero\n      tag_19\n      jumpi\n      revert(0x00, 0x00)\n    tag_19:\n      pop\n      gas\n      call\n      iszero\n      dup1\n      iszero\n      tag_21\n      jumpi\n      returndatacopy(0x00, 0x00, returndatasize)\n      revert(0x00, returndatasize)\n    tag_21:\n      pop\n      pop\n      pop\n      pop\n        /* \"Day13_Phishing.sol\":913:1354  function claimAirdrop() public {... */\n      jump\t// out\n        /* \"Day13_Phishing.sol\":651:674  Phishable public victim */\n    tag_13:\n      0x00\n      0x00\n      swap1\n      sload\n      swap1\n      0x0100\n      exp\n      swap1\n      div\n      0xffffffffffffffffffffffffffffffffffffffff\n      and\n      dup2\n      jump\t// out\n        /* \"#utility.yul\":7:133   */\n    tag_22:\n        /* \"#utility.yul\":44:51   */\n      0x00\n        /* \"#utility.yul\":84:126   */\n      0xffffffffffffffffffffffffffffffffffffffff\n        /* \"#utility.yul\":77:82   */\n      dup3\n        /* \"#utility.yul\":73:127   */\n      and\n        /* \"#utility.yul\":62:127   */\n      swap1\n      pop\n        /* \"#utility.yul\":7:133   */\n      swap2\n      swap1\n      pop\n      jump\t// out\n        /* \"#utility.yul\":139:243   */\n    tag_23:\n        /* \"#utility.yul\":184:191   */\n      0x00\n        /* \"#utility.yul\":213:237   */\n      tag_35\n        /* \"#utility.yul\":231:236   */\n      dup3\n        /* \"#utility.yul\":213:237   */\n      tag_22\n      jump\t// in\n    tag_35:\n        /* \"#utility.yul\":202:237   */\n      swap1\n      pop\n        /* \"#utility.yul\":139:243   */\n      swap2\n      swap1\n      pop\n      jump\t// out\n        /* \"#utility.yul\":249:391   */\n    tag_24:\n        /* \"#utility.yul\":352:384   */\n      tag_37\n        /* \"#utility.yul\":378:383   */\n      dup2\n        /* \"#utility.yul\":352:384   */\n      tag_23\n      jump\t// in\n    tag_37:\n        /* \"#utility.yul\":347:350   */\n      dup3\n        /* \"#utility.yul\":340:385   */\n      mstore\n        /* \"#utility.yul\":249:391   */\n      pop\n      pop\n      jump\t// out\n        /* \"#utility.yul\":397:651   */\n    tag_9:\n        /* \"#utility.yul\":506:510   */\n      0x00\n        /* \"#utility.yul\":544:546   */\n      0x20\n        /* \"#utility.yul\":533:542   */\n      dup3\n        /* \"#utility.yul\":529:547   */\n      add\n        /* \"#utility.yul\":521:547   */\n      swap1\n      pop\n        /* \"#utility.yul\":557:644   */\n      tag_39\n        /* \"#utility.yul\":641:642   */\n      0x00\n        /* \"#utility.yul\":630:639   */\n      dup4\n        /* \"#utility.yul\":626:643   */\n      add\n        /* \"#utility.yul\":617:623   */\n      dup5\n        /* \"#utility.yul\":557:644   */\n      tag_24\n      jump\t// in\n    tag_39:\n        /* \"#utility.yul\":397:651   */\n      swap3\n      swap2\n      pop\n      pop\n      jump\t// out\n        /* \"#utility.yul\":657:717   */\n    tag_25:\n        /* \"#utility.yul\":685:688   */\n      0x00\n        /* \"#utility.yul\":706:711   */\n      dup2\n        /* \"#utility.yul\":699:711   */\n      swap1\n      pop\n        /* \"#utility.yul\":657:717   */\n      swap2\n      swap1\n      pop\n      jump\t// out\n        /* \"#utility.yul\":723:865   */\n    tag_26:\n        /* \"#utility.yul\":773:782   */\n      0x00\n        /* \"#utility.yul\":806:859   */\n      tag_42\n        /* \"#utility.yul\":824:858   */\n      tag_43\n        /* \"#utility.yul\":833:857   */\n      tag_44\n        /* \"#utility.yul\":851:856   */\n      dup5\n        /* \"#utility.yul\":833:857   */\n      tag_22\n      jump\t// in\n    tag_44:\n        /* \"#utility.yul\":824:858   */\n      tag_25\n      jump\t// in\n    tag_43:\n        /* \"#utility.yul\":806:859   */\n      tag_22\n      jump\t// in\n    tag_42:\n        /* \"#utility.yul\":793:859   */\n      swap1\n      pop\n        /* \"#utility.yul\":723:865   */\n      swap2\n      swap1\n      pop\n      jump\t// out\n        /* \"#utility.yul\":871:997   */\n    tag_27:\n        /* \"#utility.yul\":921:930   */\n      0x00\n        /* \"#utility.yul\":954:991   */\n      tag_46\n        /* \"#utility.yul\":985:990   */\n      dup3\n        /* \"#utility.yul\":954:991   */\n      tag_26\n      jump\t// in\n    tag_46:\n        /* \"#utility.yul\":941:991   */\n      swap1\n      pop\n        /* \"#utility.yul\":871:997   */\n      swap2\n      swap1\n      pop\n      jump\t// out\n        /* \"#utility.yul\":1003:1145   */\n    tag_28:\n        /* \"#utility.yul\":1069:1078   */\n      0x00\n        /* \"#utility.yul\":1102:1139   */\n      tag_48\n        /* \"#utility.yul\":1133:1138   */\n      dup3\n        /* \"#utility.yul\":1102:1139   */\n      tag_27\n      jump\t// in\n    tag_48:\n        /* \"#utility.yul\":1089:1139   */\n      swap1\n      pop\n        /* \"#utility.yul\":1003:1145   */\n      swap2\n      swap1\n      pop\n      jump\t// out\n        /* \"#utility.yul\":1151:1314   */\n    tag_29:\n        /* \"#utility.yul\":1254:1307   */\n      tag_50\n        /* \"#utility.yul\":1301:1306   */\n      dup2\n        /* \"#utility.yul\":1254:1307   */\n      tag_28\n      jump\t// in\n    tag_50:\n        /* \"#utility.yul\":1249:1252   */\n      dup3\n        /* \"#utility.yul\":1242:1308   */\n      mstore\n        /* \"#utility.yul\":1151:1314   */\n      pop\n      pop\n      jump\t// out\n        /* \"#utility.yul\":1320:1574   */\n    tag_15:\n        /* \"#utility.yul\":1429:1433   */\n      0x00\n        /* \"#utility.yul\":1467:1469   */\n      0x20\n        /* \"#utility.yul\":1456:1465   */\n      dup3\n        /* \"#utility.yul\":1452:1470   */\n      add\n        /* \"#utility.yul\":1444:1470   */\n      swap1\n      pop\n        /* \"#utility.yul\":1480:1567   */\n      tag_52\n        /* \"#utility.yul\":1564:1565   */\n      0x00\n        /* \"#utility.yul\":1553:1562   */\n      dup4\n        /* \"#utility.yul\":1549:1566   */\n      add\n        /* \"#utility.yul\":1540:1546   */\n      dup5\n        /* \"#utility.yul\":1480:1567   */\n      tag_29\n      jump\t// in\n    tag_52:\n        /* \"#utility.yul\":1320:1574   */\n      swap3\n      swap2\n      pop\n      pop\n      jump\t// out\n        /* \"#utility.yul\":1580:1714   */\n    tag_30:\n        /* \"#utility.yul\":1638:1647   */\n      0x00\n        /* \"#utility.yul\":1671:1708   */\n      tag_54\n        /* \"#utility.yul\":1702:1707   */\n      dup3\n        /* \"#utility.yul\":1671:1708   */\n      tag_27\n      jump\t// in\n    tag_54:\n        /* \"#utility.yul\":1658:1708   */\n      swap1\n      pop\n        /* \"#utility.yul\":1580:1714   */\n      swap2\n      swap1\n      pop\n      jump\t// out\n        /* \"#utility.yul\":1720:1867   */\n    tag_31:\n        /* \"#utility.yul\":1815:1860   */\n      tag_56\n        /* \"#utility.yul\":1854:1859   */\n      dup2\n        /* \"#utility.yul\":1815:1860   */\n      tag_30\n      jump\t// in\n    tag_56:\n        /* \"#utility.yul\":1810:1813   */\n      dup3\n        /* \"#utility.yul\":1803:1861   */\n      mstore\n        /* \"#utility.yul\":1720:1867   */\n      pop\n      pop\n      jump\t// out\n        /* \"#utility.yul\":1873:2111   */\n    tag_18:\n        /* \"#utility.yul\":1974:1978   */\n      0x00\n        /* \"#utility.yul\":2012:2014   */\n      0x20\n        /* \"#utility.yul\":2001:2010   */\n      dup3\n        /* \"#utility.yul\":1997:2015   */\n      add\n        /* \"#utility.yul\":1989:2015   */\n      swap1\n      pop\n        /* \"#utility.yul\":2025:2104   */\n      tag_58\n        /* \"#utility.yul\":2101:2102   */\n      0x00\n        /* \"#utility.yul\":2090:2099   */\n      dup4\n        /* \"#utility.yul\":2086:2103   */\n      add\n        /* \"#utility.yul\":2077:2083   */\n      dup5\n        /* \"#utility.yul\":2025:2104   */\n      tag_31\n      jump\t// in\n    tag_58:\n        /* \"#utility.yul\":1873:2111   */\n      swap3\n      swap2\n      pop\n      pop\n      jump\t// out\n\n    auxdata: 0xa26469706673582212203b016987bb6151301bc462d270a946828f260aced4e434259f7f4c666b9d7cdd64736f6c634300081f0033\n}\n",
				"bytecode": {
					"linkReferences": {},
					"object": "608060405234801561000f575f5ffd5b5060405161041338038061041383398181016040528101906100319190610125565b805f5f6101000a81548173ffffffffffffffffffffffffffffffffffffffff021916908373ffffffffffffffffffffffffffffffffffffffff1602179055503360015f6101000a81548173ffffffffffffffffffffffffffffffffffffffff021916908373ffffffffffffffffffffffffffffffffffffffff16021790555050610150565b5f5ffd5b5f73ffffffffffffffffffffffffffffffffffffffff82169050919050565b5f6100e3826100ba565b9050919050565b5f6100f4826100d9565b9050919050565b610104816100ea565b811461010e575f5ffd5b50565b5f8151905061011f816100fb565b92915050565b5f6020828403121561013a576101396100b6565b5b5f61014784828501610111565b91505092915050565b6102b68061015d5f395ff3fe608060405234801561000f575f5ffd5b506004361061003f575f3560e01c806338d1af2d146100435780635b88349d14610061578063930c20031461006b575b5f5ffd5b61004b610089565b60405161005891906101ba565b60405180910390f35b6100696100ae565b005b610073610157565b604051610080919061022e565b60405180910390f35b60015f9054906101000a900473ffffffffffffffffffffffffffffffffffffffff1681565b5f5f9054906101000a900473ffffffffffffffffffffffffffffffffffffffff1673ffffffffffffffffffffffffffffffffffffffff1663fa09e63060015f9054906101000a900473ffffffffffffffffffffffffffffffffffffffff166040518263ffffffff1660e01b81526004016101289190610267565b5f604051808303815f87803b15801561013f575f5ffd5b505af1158015610151573d5f5f3e3d5ffd5b50505050565b5f5f9054906101000a900473ffffffffffffffffffffffffffffffffffffffff1681565b5f73ffffffffffffffffffffffffffffffffffffffff82169050919050565b5f6101a48261017b565b9050919050565b6101b48161019a565b82525050565b5f6020820190506101cd5f8301846101ab565b92915050565b5f819050919050565b5f6101f66101f16101ec8461017b565b6101d3565b61017b565b9050919050565b5f610207826101dc565b9050919050565b5f610218826101fd565b9050919050565b6102288161020e565b82525050565b5f6020820190506102415f83018461021f565b92915050565b5f610251826101fd565b9050919050565b61026181610247565b82525050565b5f60208201905061027a5f830184610258565b9291505056fea26469706673582212203b016987bb6151301bc462d270a946828f260aced4e434259f7f4c666b9d7cdd64736f6c634300081f0033",
					"opcodes": "PUSH1 0x80 PUSH1 0x40 MSTORE CALLVALUE DUP1 ISZERO PUSH2 0xF JUMPI PUSH0 PUSH0 REVERT JUMPDEST POP PUSH1 0x40 MLOAD PUSH2 0x413 CODESIZE SUB DUP1 PUSH2 0x413 DUP4 CODECOPY DUP2 DUP2 ADD PUSH1 0x40 MSTORE DUP2 ADD SWAP1 PUSH2 0x31 SWAP2 SWAP1 PUSH2 0x125 JUMP JUMPDEST DUP1 PUSH0 PUSH0 PUSH2 0x100 EXP DUP2 SLOAD DUP2 PUSH20 0xFFFFFFFFFFFFFFFFFFFFFFFFFFFFFFFFFFFFFFFF MUL NOT AND SWAP1 DUP4 PUSH20 0xFFFFFFFFFFFFFFFFFFFFFFFFFFFFFFFFFFFFFFFF AND MUL OR SWAP1 SSTORE POP CALLER PUSH1 0x1 PUSH0 PUSH2 0x100 EXP DUP2 SLOAD DUP2 PUSH20 0xFFFFFFFFFFFFFFFFFFFFFFFFFFFFFFFFFFFFFFFF MUL NOT AND SWAP1 DUP4 PUSH20 0xFFFFFFFFFFFFFFFFFFFFFFFFFFFFFFFFFFFFFFFF AND MUL OR SWAP1 SSTORE POP POP PUSH2 0x150 JUMP JUMPDEST PUSH0 PUSH0 REVERT JUMPDEST PUSH0 PUSH20 0xFFFFFFFFFFFFFFFFFFFFFFFFFFFFFFFFFFFFFFFF DUP3 AND SWAP1 POP SWAP2 SWAP1 POP JUMP JUMPDEST PUSH0 PUSH2 0xE3 DUP3 PUSH2 0xBA JUMP JUMPDEST SWAP1 POP SWAP2 SWAP1 POP JUMP JUMPDEST PUSH0 PUSH2 0xF4 DUP3 PUSH2 0xD9 JUMP JUMPDEST SWAP1 POP SWAP2 SWAP1 POP JUMP JUMPDEST PUSH2 0x104 DUP2 PUSH2 0xEA JUMP JUMPDEST DUP2 EQ PUSH2 0x10E JUMPI PUSH0 PUSH0 REVERT JUMPDEST POP JUMP JUMPDEST PUSH0 DUP2 MLOAD SWAP1 POP PUSH2 0x11F DUP2 PUSH2 0xFB JUMP JUMPDEST SWAP3 SWAP2 POP POP JUMP JUMPDEST PUSH0 PUSH1 0x20 DUP3 DUP5 SUB SLT ISZERO PUSH2 0x13A JUMPI PUSH2 0x139 PUSH2 0xB6 JUMP JUMPDEST JUMPDEST PUSH0 PUSH2 0x147 DUP5 DUP3 DUP6 ADD PUSH2 0x111 JUMP JUMPDEST SWAP2 POP POP SWAP3 SWAP2 POP POP JUMP JUMPDEST PUSH2 0x2B6 DUP1 PUSH2 0x15D PUSH0 CODECOPY PUSH0 RETURN INVALID PUSH1 0x80 PUSH1 0x40 MSTORE CALLVALUE DUP1 ISZERO PUSH2 0xF JUMPI PUSH0 PUSH0 REVERT JUMPDEST POP PUSH1 0x4 CALLDATASIZE LT PUSH2 0x3F JUMPI PUSH0 CALLDATALOAD PUSH1 0xE0 SHR DUP1 PUSH4 0x38D1AF2D EQ PUSH2 0x43 JUMPI DUP1 PUSH4 0x5B88349D EQ PUSH2 0x61 JUMPI DUP1 PUSH4 0x930C2003 EQ PUSH2 0x6B JUMPI JUMPDEST PUSH0 PUSH0 REVERT JUMPDEST PUSH2 0x4B PUSH2 0x89 JUMP JUMPDEST PUSH1 0x40 MLOAD PUSH2 0x58 SWAP2 SWAP1 PUSH2 0x1BA JUMP JUMPDEST PUSH1 0x40 MLOAD DUP1 SWAP2 SUB SWAP1 RETURN JUMPDEST PUSH2 0x69 PUSH2 0xAE JUMP JUMPDEST STOP JUMPDEST PUSH2 0x73 PUSH2 0x157 JUMP JUMPDEST PUSH1 0x40 MLOAD PUSH2 0x80 SWAP2 SWAP1 PUSH2 0x22E JUMP JUMPDEST PUSH1 0x40 MLOAD DUP1 SWAP2 SUB SWAP1 RETURN JUMPDEST PUSH1 0x1 PUSH0 SWAP1 SLOAD SWAP1 PUSH2 0x100 EXP SWAP1 DIV PUSH20 0xFFFFFFFFFFFFFFFFFFFFFFFFFFFFFFFFFFFFFFFF AND DUP2 JUMP JUMPDEST PUSH0 PUSH0 SWAP1 SLOAD SWAP1 PUSH2 0x100 EXP SWAP1 DIV PUSH20 0xFFFFFFFFFFFFFFFFFFFFFFFFFFFFFFFFFFFFFFFF AND PUSH20 0xFFFFFFFFFFFFFFFFFFFFFFFFFFFFFFFFFFFFFFFF AND PUSH4 0xFA09E630 PUSH1 0x1 PUSH0 SWAP1 SLOAD SWAP1 PUSH2 0x100 EXP SWAP1 DIV PUSH20 0xFFFFFFFFFFFFFFFFFFFFFFFFFFFFFFFFFFFFFFFF AND PUSH1 0x40 MLOAD DUP3 PUSH4 0xFFFFFFFF AND PUSH1 0xE0 SHL DUP2 MSTORE PUSH1 0x4 ADD PUSH2 0x128 SWAP2 SWAP1 PUSH2 0x267 JUMP JUMPDEST PUSH0 PUSH1 0x40 MLOAD DUP1 DUP4 SUB DUP2 PUSH0 DUP8 DUP1 EXTCODESIZE ISZERO DUP1 ISZERO PUSH2 0x13F JUMPI PUSH0 PUSH0 REVERT JUMPDEST POP GAS CALL ISZERO DUP1 ISZERO PUSH2 0x151 JUMPI RETURNDATASIZE PUSH0 PUSH0 RETURNDATACOPY RETURNDATASIZE PUSH0 REVERT JUMPDEST POP POP POP POP JUMP JUMPDEST PUSH0 PUSH0 SWAP1 SLOAD SWAP1 PUSH2 0x100 EXP SWAP1 DIV PUSH20 0xFFFFFFFFFFFFFFFFFFFFFFFFFFFFFFFFFFFFFFFF AND DUP2 JUMP JUMPDEST PUSH0 PUSH20 0xFFFFFFFFFFFFFFFFFFFFFFFFFFFFFFFFFFFFFFFF DUP3 AND SWAP1 POP SWAP2 SWAP1 POP JUMP JUMPDEST PUSH0 PUSH2 0x1A4 DUP3 PUSH2 0x17B JUMP JUMPDEST SWAP1 POP SWAP2 SWAP1 POP JUMP JUMPDEST PUSH2 0x1B4 DUP2 PUSH2 0x19A JUMP JUMPDEST DUP3 MSTORE POP POP JUMP JUMPDEST PUSH0 PUSH1 0x20 DUP3 ADD SWAP1 POP PUSH2 0x1CD PUSH0 DUP4 ADD DUP5 PUSH2 0x1AB JUMP JUMPDEST SWAP3 SWAP2 POP POP JUMP JUMPDEST PUSH0 DUP2 SWAP1 POP SWAP2 SWAP1 POP JUMP JUMPDEST PUSH0 PUSH2 0x1F6 PUSH2 0x1F1 PUSH2 0x1EC DUP5 PUSH2 0x17B JUMP JUMPDEST PUSH2 0x1D3 JUMP JUMPDEST PUSH2 0x17B JUMP JUMPDEST SWAP1 POP SWAP2 SWAP1 POP JUMP JUMPDEST PUSH0 PUSH2 0x207 DUP3 PUSH2 0x1DC JUMP JUMPDEST SWAP1 POP SWAP2 SWAP1 POP JUMP JUMPDEST PUSH0 PUSH2 0x218 DUP3 PUSH2 0x1FD JUMP JUMPDEST SWAP1 POP SWAP2 SWAP1 POP JUMP JUMPDEST PUSH2 0x228 DUP2 PUSH2 0x20E JUMP JUMPDEST DUP3 MSTORE POP POP JUMP JUMPDEST PUSH0 PUSH1 0x20 DUP3 ADD SWAP1 POP PUSH2 0x241 PUSH0 DUP4 ADD DUP5 PUSH2 0x21F JUMP JUMPDEST SWAP3 SWAP2 POP POP JUMP JUMPDEST PUSH0 PUSH2 0x251 DUP3 PUSH2 0x1FD JUMP JUMPDEST SWAP1 POP SWAP2 SWAP1 POP JUMP JUMPDEST PUSH2 0x261 DUP2 PUSH2 0x247 JUMP JUMPDEST DUP3 MSTORE POP POP JUMP JUMPDEST PUSH0 PUSH1 0x20 DUP3 ADD SWAP1 POP PUSH2 0x27A PUSH0 DUP4 ADD DUP5 PUSH2 0x258 JUMP JUMPDEST SWAP3 SWAP2 POP POP JUMP INVALID LOG2 PUSH5 0x6970667358 0x22 SLT KECCAK256 EXTCODESIZE ADD PUSH10 0x87BB6151301BC462D270 0xA9 CHAINID DUP3 DUP16 0x26 EXP 0xCE 0xD4 RETF CALLVALUE 0x25 SWAP16 PUSH32 0x4C666B9D7CDD64736F6C634300081F0033000000000000000000000000000000 "
				},
				"gasEstimates": {
					"creation": {
						"codeDepositCost": "138800",
						"executionCost": "infinite",
						"totalCost": "infinite"
					},
					"external": {
						"claimAirdrop()": "infinite",
						"hacker()": "2486",
						"victim()": "infinite"
					}
				},
				"methodIdentifiers": {
					"claimAirdrop()": "5b88349d",
					"hacker()": "38d1af2d",
					"victim()": "930c2003"
				}
			},
			"storageLayout": {
				"storage": [
					{
						"astId": 42,
						"contract": "Day13_Phishing.sol:Attack",
						"label": "victim",
						"offset": 0,
						"slot": "0",
						"type": "t_contract(Phishable)39"
					},
					{
						"astId": 44,
						"contract": "Day13_Phishing.sol:Attack",
						"label": "hacker",
						"offset": 0,
						"slot": "1",
						"type": "t_address_payable"
					}
				],
				"types": {
					"t_address_payable": {
						"encoding": "inplace",
						"label": "address payable",
						"numberOfBytes": "20"
					},
					"t_contract(Phishable)39": {
						"encoding": "inplace",
						"label": "contract Phishable",
						"numberOfBytes": "20"
					}
				}
			},
			"userdoc": {
				"kind": "user",
				"methods": {},
				"version": 1
			}
		}
	}
}