{
	"Day12_Reentrancy.sol": {
		"EtherStore": {
			"abi": [
				{
					"inputs": [
						{
							"internalType": "address",
							"name": "",
							"type": "address"
						}
					],
					"name": "balances",
					"outputs": [
						{
							"internalType": "uint256",
							"name": "",
							"type": "uint256"
						}
					],
					"stateMutability": "view",
					"type": "function"
				},
				{
					"inputs": [],
					"name": "deposit",
					"outputs": [],
					"stateMutability": "payable",
					"type": "function"
				},
				{
					"inputs": [],
					"name": "getBalance",
					"outputs": [
						{
							"internalType": "uint256",
							"name": "",
							"type": "uint256"
						}
					],
					"stateMutability": "view",
					"type": "function"
				},
				{
					"inputs": [],
					"name": "withdraw",
					"outputs": [],
					"stateMutability": "nonpayable",
					"type": "function"
				}
			],
			"devdoc": {
				"kind": "dev",
				"methods": {},
				"version": 1
			},
			"evm": {
				"assembly": "    /* \"Day12_Reentrancy.sol\":109:1057  contract EtherStore {... */\n  mstore(0x40, 0x80)\n  callvalue\n  dup1\n  iszero\n  tag_1\n  jumpi\n  revert(0x00, 0x00)\ntag_1:\n  pop\n  dataSize(sub_0)\n  dup1\n  dataOffset(sub_0)\n  0x00\n  codecopy\n  0x00\n  return\nstop\n\nsub_0: assembly {\n        /* \"Day12_Reentrancy.sol\":109:1057  contract EtherStore {... */\n      mstore(0x40, 0x80)\n      jumpi(tag_1, lt(calldatasize, 0x04))\n      shr(0xe0, calldataload(0x00))\n      dup1\n      0x12065fe0\n      eq\n      tag_2\n      jumpi\n      dup1\n      0x27e235e3\n      eq\n      tag_3\n      jumpi\n      dup1\n      0x3ccfd60b\n      eq\n      tag_4\n      jumpi\n      dup1\n      0xd0e30db0\n      eq\n      tag_5\n      jumpi\n    tag_1:\n      revert(0x00, 0x00)\n        /* \"Day12_Reentrancy.sol\":955:1054  function getBalance() public view returns (uint256) {... */\n    tag_2:\n      callvalue\n      dup1\n      iszero\n      tag_6\n      jumpi\n      revert(0x00, 0x00)\n    tag_6:\n      pop\n      tag_7\n      tag_8\n      jump\t// in\n    tag_7:\n      mload(0x40)\n      tag_9\n      swap2\n      swap1\n      tag_10\n      jump\t// in\n    tag_9:\n      mload(0x40)\n      dup1\n      swap2\n      sub\n      swap1\n      return\n        /* \"Day12_Reentrancy.sol\":136:179  mapping(address => uint256) public balances */\n    tag_3:\n      callvalue\n      dup1\n      iszero\n      tag_11\n      jumpi\n      revert(0x00, 0x00)\n    tag_11:\n      pop\n      tag_12\n      0x04\n      dup1\n      calldatasize\n      sub\n      dup2\n      add\n      swap1\n      tag_13\n      swap2\n      swap1\n      tag_14\n      jump\t// in\n    tag_13:\n      tag_15\n      jump\t// in\n    tag_12:\n      mload(0x40)\n      tag_16\n      swap2\n      swap1\n      tag_10\n      jump\t// in\n    tag_16:\n      mload(0x40)\n      dup1\n      swap2\n      sub\n      swap1\n      return\n        /* \"Day12_Reentrancy.sol\":339:917  function withdraw() public {... */\n    tag_4:\n      callvalue\n      dup1\n      iszero\n      tag_17\n      jumpi\n      revert(0x00, 0x00)\n    tag_17:\n      pop\n      tag_18\n      tag_19\n      jump\t// in\n    tag_18:\n      stop\n        /* \"Day12_Reentrancy.sol\":209:295  function deposit() public payable {... */\n    tag_5:\n      tag_20\n      tag_21\n      jump\t// in\n    tag_20:\n      stop\n        /* \"Day12_Reentrancy.sol\":955:1054  function getBalance() public view returns (uint256) {... */\n    tag_8:\n        /* \"Day12_Reentrancy.sol\":998:1005  uint256 */\n      0x00\n        /* \"Day12_Reentrancy.sol\":1025:1046  address(this).balance */\n      selfbalance\n        /* \"Day12_Reentrancy.sol\":1018:1046  return address(this).balance */\n      swap1\n      pop\n        /* \"Day12_Reentrancy.sol\":955:1054  function getBalance() public view returns (uint256) {... */\n      swap1\n      jump\t// out\n        /* \"Day12_Reentrancy.sol\":136:179  mapping(address => uint256) public balances */\n    tag_15:\n      mstore(0x20, 0x00)\n      dup1\n      0x00\n      mstore\n      keccak256(0x00, 0x40)\n      0x00\n      swap2\n      pop\n      swap1\n      pop\n      sload\n      dup2\n      jump\t// out\n        /* \"Day12_Reentrancy.sol\":339:917  function withdraw() public {... */\n    tag_19:\n        /* \"Day12_Reentrancy.sol\":377:388  uint256 bal */\n      0x00\n        /* \"Day12_Reentrancy.sol\":391:399  balances */\n      0x00\n        /* \"Day12_Reentrancy.sol\":391:411  balances[msg.sender] */\n      0x00\n        /* \"Day12_Reentrancy.sol\":400:410  msg.sender */\n      caller\n        /* \"Day12_Reentrancy.sol\":391:411  balances[msg.sender] */\n      0xffffffffffffffffffffffffffffffffffffffff\n      and\n      0xffffffffffffffffffffffffffffffffffffffff\n      and\n      dup2\n      mstore\n      0x20\n      add\n      swap1\n      dup2\n      mstore\n      0x20\n      add\n      0x00\n      keccak256\n      sload\n        /* \"Day12_Reentrancy.sol\":377:411  uint256 bal = balances[msg.sender] */\n      swap1\n      pop\n        /* \"Day12_Reentrancy.sol\":436:437  0 */\n      0x00\n        /* \"Day12_Reentrancy.sol\":430:433  bal */\n      dup2\n        /* \"Day12_Reentrancy.sol\":430:437  bal > 0 */\n      gt\n        /* \"Day12_Reentrancy.sol\":422:438  require(bal > 0) */\n      tag_24\n      jumpi\n      revert(0x00, 0x00)\n    tag_24:\n        /* \"Day12_Reentrancy.sol\":569:578  bool sent */\n      0x00\n        /* \"Day12_Reentrancy.sol\":584:594  msg.sender */\n      caller\n        /* \"Day12_Reentrancy.sol\":584:599  msg.sender.call */\n      0xffffffffffffffffffffffffffffffffffffffff\n      and\n        /* \"Day12_Reentrancy.sol\":607:610  bal */\n      dup3\n        /* \"Day12_Reentrancy.sol\":584:615  msg.sender.call{value: bal}(\"\") */\n      mload(0x40)\n      tag_25\n      swap1\n      tag_26\n      jump\t// in\n    tag_25:\n      0x00\n      mload(0x40)\n      dup1\n      dup4\n      sub\n      dup2\n      dup6\n      dup8\n      gas\n      call\n      swap3\n      pop\n      pop\n      pop\n      returndatasize\n      dup1\n      0x00\n      dup2\n      eq\n      tag_29\n      jumpi\n      mload(0x40)\n      swap2\n      pop\n      and(add(returndatasize, 0x3f), not(0x1f))\n      dup3\n      add\n      0x40\n      mstore\n      returndatasize\n      dup3\n      mstore\n      returndatasize\n      0x00\n      0x20\n      dup5\n      add\n      returndatacopy\n      jump(tag_28)\n    tag_29:\n      0x60\n      swap2\n      pop\n    tag_28:\n      pop\n        /* \"Day12_Reentrancy.sol\":568:615  (bool sent, ) = msg.sender.call{value: bal}(\"\") */\n      pop\n      swap1\n      pop\n        /* \"Day12_Reentrancy.sol\":634:638  sent */\n      dup1\n        /* \"Day12_Reentrancy.sol\":626:663  require(sent, \"Failed to send Ether\") */\n      tag_30\n      jumpi\n      mload(0x40)\n      0x08c379a000000000000000000000000000000000000000000000000000000000\n      dup2\n      mstore\n      0x04\n      add\n      tag_31\n      swap1\n      tag_32\n      jump\t// in\n    tag_31:\n      mload(0x40)\n      dup1\n      swap2\n      sub\n      swap1\n      revert\n    tag_30:\n        /* \"Day12_Reentrancy.sol\":908:909  0 */\n      0x00\n        /* \"Day12_Reentrancy.sol\":885:893  balances */\n      0x00\n        /* \"Day12_Reentrancy.sol\":885:905  balances[msg.sender] */\n      0x00\n        /* \"Day12_Reentrancy.sol\":894:904  msg.sender */\n      caller\n        /* \"Day12_Reentrancy.sol\":885:905  balances[msg.sender] */\n      0xffffffffffffffffffffffffffffffffffffffff\n      and\n      0xffffffffffffffffffffffffffffffffffffffff\n      and\n      dup2\n      mstore\n      0x20\n      add\n      swap1\n      dup2\n      mstore\n      0x20\n      add\n      0x00\n      keccak256\n        /* \"Day12_Reentrancy.sol\":885:909  balances[msg.sender] = 0 */\n      dup2\n      swap1\n      sstore\n      pop\n        /* \"Day12_Reentrancy.sol\":366:917  {... */\n      pop\n      pop\n        /* \"Day12_Reentrancy.sol\":339:917  function withdraw() public {... */\n      jump\t// out\n        /* \"Day12_Reentrancy.sol\":209:295  function deposit() public payable {... */\n    tag_21:\n        /* \"Day12_Reentrancy.sol\":278:287  msg.value */\n      callvalue\n        /* \"Day12_Reentrancy.sol\":254:262  balances */\n      0x00\n        /* \"Day12_Reentrancy.sol\":254:274  balances[msg.sender] */\n      0x00\n        /* \"Day12_Reentrancy.sol\":263:273  msg.sender */\n      caller\n        /* \"Day12_Reentrancy.sol\":254:274  balances[msg.sender] */\n      0xffffffffffffffffffffffffffffffffffffffff\n      and\n      0xffffffffffffffffffffffffffffffffffffffff\n      and\n      dup2\n      mstore\n      0x20\n      add\n      swap1\n      dup2\n      mstore\n      0x20\n      add\n      0x00\n      keccak256\n      0x00\n        /* \"Day12_Reentrancy.sol\":254:287  balances[msg.sender] += msg.value */\n      dup3\n      dup3\n      sload\n      tag_34\n      swap2\n      swap1\n      tag_35\n      jump\t// in\n    tag_34:\n      swap3\n      pop\n      pop\n      dup2\n      swap1\n      sstore\n      pop\n        /* \"Day12_Reentrancy.sol\":209:295  function deposit() public payable {... */\n      jump\t// out\n        /* \"#utility.yul\":7:84   */\n    tag_36:\n        /* \"#utility.yul\":44:51   */\n      0x00\n        /* \"#utility.yul\":73:78   */\n      dup2\n        /* \"#utility.yul\":62:78   */\n      swap1\n      pop\n        /* \"#utility.yul\":7:84   */\n      swap2\n      swap1\n      pop\n      jump\t// out\n        /* \"#utility.yul\":90:208   */\n    tag_37:\n        /* \"#utility.yul\":177:201   */\n      tag_55\n        /* \"#utility.yul\":195:200   */\n      dup2\n        /* \"#utility.yul\":177:201   */\n      tag_36\n      jump\t// in\n    tag_55:\n        /* \"#utility.yul\":172:175   */\n      dup3\n        /* \"#utility.yul\":165:202   */\n      mstore\n        /* \"#utility.yul\":90:208   */\n      pop\n      pop\n      jump\t// out\n        /* \"#utility.yul\":214:436   */\n    tag_10:\n        /* \"#utility.yul\":307:311   */\n      0x00\n        /* \"#utility.yul\":345:347   */\n      0x20\n        /* \"#utility.yul\":334:343   */\n      dup3\n        /* \"#utility.yul\":330:348   */\n      add\n        /* \"#utility.yul\":322:348   */\n      swap1\n      pop\n        /* \"#utility.yul\":358:429   */\n      tag_57\n        /* \"#utility.yul\":426:427   */\n      0x00\n        /* \"#utility.yul\":415:424   */\n      dup4\n        /* \"#utility.yul\":411:428   */\n      add\n        /* \"#utility.yul\":402:408   */\n      dup5\n        /* \"#utility.yul\":358:429   */\n      tag_37\n      jump\t// in\n    tag_57:\n        /* \"#utility.yul\":214:436   */\n      swap3\n      swap2\n      pop\n      pop\n      jump\t// out\n        /* \"#utility.yul\":523:640   */\n    tag_39:\n        /* \"#utility.yul\":632:633   */\n      0x00\n        /* \"#utility.yul\":629:630   */\n      0x00\n        /* \"#utility.yul\":622:634   */\n      revert\n        /* \"#utility.yul\":769:895   */\n    tag_41:\n        /* \"#utility.yul\":806:813   */\n      0x00\n        /* \"#utility.yul\":846:888   */\n      0xffffffffffffffffffffffffffffffffffffffff\n        /* \"#utility.yul\":839:844   */\n      dup3\n        /* \"#utility.yul\":835:889   */\n      and\n        /* \"#utility.yul\":824:889   */\n      swap1\n      pop\n        /* \"#utility.yul\":769:895   */\n      swap2\n      swap1\n      pop\n      jump\t// out\n        /* \"#utility.yul\":901:997   */\n    tag_42:\n        /* \"#utility.yul\":938:945   */\n      0x00\n        /* \"#utility.yul\":967:991   */\n      tag_63\n        /* \"#utility.yul\":985:990   */\n      dup3\n        /* \"#utility.yul\":967:991   */\n      tag_41\n      jump\t// in\n    tag_63:\n        /* \"#utility.yul\":956:991   */\n      swap1\n      pop\n        /* \"#utility.yul\":901:997   */\n      swap2\n      swap1\n      pop\n      jump\t// out\n        /* \"#utility.yul\":1003:1125   */\n    tag_43:\n        /* \"#utility.yul\":1076:1100   */\n      tag_65\n        /* \"#utility.yul\":1094:1099   */\n      dup2\n        /* \"#utility.yul\":1076:1100   */\n      tag_42\n      jump\t// in\n    tag_65:\n        /* \"#utility.yul\":1069:1074   */\n      dup2\n        /* \"#utility.yul\":1066:1101   */\n      eq\n        /* \"#utility.yul\":1056:1119   */\n      tag_66\n      jumpi\n        /* \"#utility.yul\":1115:1116   */\n      0x00\n        /* \"#utility.yul\":1112:1113   */\n      0x00\n        /* \"#utility.yul\":1105:1117   */\n      revert\n        /* \"#utility.yul\":1056:1119   */\n    tag_66:\n        /* \"#utility.yul\":1003:1125   */\n      pop\n      jump\t// out\n        /* \"#utility.yul\":1131:1270   */\n    tag_44:\n        /* \"#utility.yul\":1177:1182   */\n      0x00\n        /* \"#utility.yul\":1215:1221   */\n      dup2\n        /* \"#utility.yul\":1202:1222   */\n      calldataload\n        /* \"#utility.yul\":1193:1222   */\n      swap1\n      pop\n        /* \"#utility.yul\":1231:1264   */\n      tag_68\n        /* \"#utility.yul\":1258:1263   */\n      dup2\n        /* \"#utility.yul\":1231:1264   */\n      tag_43\n      jump\t// in\n    tag_68:\n        /* \"#utility.yul\":1131:1270   */\n      swap3\n      swap2\n      pop\n      pop\n      jump\t// out\n        /* \"#utility.yul\":1276:1605   */\n    tag_14:\n        /* \"#utility.yul\":1335:1341   */\n      0x00\n        /* \"#utility.yul\":1384:1386   */\n      0x20\n        /* \"#utility.yul\":1372:1381   */\n      dup3\n        /* \"#utility.yul\":1363:1370   */\n      dup5\n        /* \"#utility.yul\":1359:1382   */\n      sub\n        /* \"#utility.yul\":1355:1387   */\n      slt\n        /* \"#utility.yul\":1352:1471   */\n      iszero\n      tag_70\n      jumpi\n        /* \"#utility.yul\":1390:1469   */\n      tag_71\n      tag_39\n      jump\t// in\n    tag_71:\n        /* \"#utility.yul\":1352:1471   */\n    tag_70:\n        /* \"#utility.yul\":1510:1511   */\n      0x00\n        /* \"#utility.yul\":1535:1588   */\n      tag_72\n        /* \"#utility.yul\":1580:1587   */\n      dup5\n        /* \"#utility.yul\":1571:1577   */\n      dup3\n        /* \"#utility.yul\":1560:1569   */\n      dup6\n        /* \"#utility.yul\":1556:1578   */\n      add\n        /* \"#utility.yul\":1535:1588   */\n      tag_44\n      jump\t// in\n    tag_72:\n        /* \"#utility.yul\":1525:1588   */\n      swap2\n      pop\n        /* \"#utility.yul\":1481:1598   */\n      pop\n        /* \"#utility.yul\":1276:1605   */\n      swap3\n      swap2\n      pop\n      pop\n      jump\t// out\n        /* \"#utility.yul\":1611:1758   */\n    tag_45:\n        /* \"#utility.yul\":1712:1723   */\n      0x00\n        /* \"#utility.yul\":1749:1752   */\n      dup2\n        /* \"#utility.yul\":1734:1752   */\n      swap1\n      pop\n        /* \"#utility.yul\":1611:1758   */\n      swap3\n      swap2\n      pop\n      pop\n      jump\t// out\n        /* \"#utility.yul\":1764:1878   */\n    tag_46:\n      pop\n      jump\t// out\n        /* \"#utility.yul\":1884:2282   */\n    tag_47:\n        /* \"#utility.yul\":2043:2046   */\n      0x00\n        /* \"#utility.yul\":2064:2147   */\n      tag_76\n        /* \"#utility.yul\":2145:2146   */\n      0x00\n        /* \"#utility.yul\":2140:2143   */\n      dup4\n        /* \"#utility.yul\":2064:2147   */\n      tag_45\n      jump\t// in\n    tag_76:\n        /* \"#utility.yul\":2057:2147   */\n      swap2\n      pop\n        /* \"#utility.yul\":2156:2249   */\n      tag_77\n        /* \"#utility.yul\":2245:2248   */\n      dup3\n        /* \"#utility.yul\":2156:2249   */\n      tag_46\n      jump\t// in\n    tag_77:\n        /* \"#utility.yul\":2274:2275   */\n      0x00\n        /* \"#utility.yul\":2269:2272   */\n      dup3\n        /* \"#utility.yul\":2265:2276   */\n      add\n        /* \"#utility.yul\":2258:2276   */\n      swap1\n      pop\n        /* \"#utility.yul\":1884:2282   */\n      swap2\n      swap1\n      pop\n      jump\t// out\n        /* \"#utility.yul\":2288:2667   */\n    tag_26:\n        /* \"#utility.yul\":2472:2475   */\n      0x00\n        /* \"#utility.yul\":2494:2641   */\n      tag_79\n        /* \"#utility.yul\":2637:2640   */\n      dup3\n        /* \"#utility.yul\":2494:2641   */\n      tag_47\n      jump\t// in\n    tag_79:\n        /* \"#utility.yul\":2487:2641   */\n      swap2\n      pop\n        /* \"#utility.yul\":2658:2661   */\n      dup2\n        /* \"#utility.yul\":2651:2661   */\n      swap1\n      pop\n        /* \"#utility.yul\":2288:2667   */\n      swap2\n      swap1\n      pop\n      jump\t// out\n        /* \"#utility.yul\":2673:2842   */\n    tag_48:\n        /* \"#utility.yul\":2757:2768   */\n      0x00\n        /* \"#utility.yul\":2791:2797   */\n      dup3\n        /* \"#utility.yul\":2786:2789   */\n      dup3\n        /* \"#utility.yul\":2779:2798   */\n      mstore\n        /* \"#utility.yul\":2831:2835   */\n      0x20\n        /* \"#utility.yul\":2826:2829   */\n      dup3\n        /* \"#utility.yul\":2822:2836   */\n      add\n        /* \"#utility.yul\":2807:2836   */\n      swap1\n      pop\n        /* \"#utility.yul\":2673:2842   */\n      swap3\n      swap2\n      pop\n      pop\n      jump\t// out\n        /* \"#utility.yul\":2848:3018   */\n    tag_49:\n        /* \"#utility.yul\":2988:3010   */\n      0x4661696c656420746f2073656e64204574686572000000000000000000000000\n        /* \"#utility.yul\":2984:2985   */\n      0x00\n        /* \"#utility.yul\":2976:2982   */\n      dup3\n        /* \"#utility.yul\":2972:2986   */\n      add\n        /* \"#utility.yul\":2965:3011   */\n      mstore\n        /* \"#utility.yul\":2848:3018   */\n      pop\n      jump\t// out\n        /* \"#utility.yul\":3024:3390   */\n    tag_50:\n        /* \"#utility.yul\":3166:3169   */\n      0x00\n        /* \"#utility.yul\":3187:3254   */\n      tag_83\n        /* \"#utility.yul\":3251:3253   */\n      0x14\n        /* \"#utility.yul\":3246:3249   */\n      dup4\n        /* \"#utility.yul\":3187:3254   */\n      tag_48\n      jump\t// in\n    tag_83:\n        /* \"#utility.yul\":3180:3254   */\n      swap2\n      pop\n        /* \"#utility.yul\":3263:3356   */\n      tag_84\n        /* \"#utility.yul\":3352:3355   */\n      dup3\n        /* \"#utility.yul\":3263:3356   */\n      tag_49\n      jump\t// in\n    tag_84:\n        /* \"#utility.yul\":3381:3383   */\n      0x20\n        /* \"#utility.yul\":3376:3379   */\n      dup3\n        /* \"#utility.yul\":3372:3384   */\n      add\n        /* \"#utility.yul\":3365:3384   */\n      swap1\n      pop\n        /* \"#utility.yul\":3024:3390   */\n      swap2\n      swap1\n      pop\n      jump\t// out\n        /* \"#utility.yul\":3396:3815   */\n    tag_32:\n        /* \"#utility.yul\":3562:3566   */\n      0x00\n        /* \"#utility.yul\":3600:3602   */\n      0x20\n        /* \"#utility.yul\":3589:3598   */\n      dup3\n        /* \"#utility.yul\":3585:3603   */\n      add\n        /* \"#utility.yul\":3577:3603   */\n      swap1\n      pop\n        /* \"#utility.yul\":3649:3658   */\n      dup2\n        /* \"#utility.yul\":3643:3647   */\n      dup2\n        /* \"#utility.yul\":3639:3659   */\n      sub\n        /* \"#utility.yul\":3635:3636   */\n      0x00\n        /* \"#utility.yul\":3624:3633   */\n      dup4\n        /* \"#utility.yul\":3620:3637   */\n      add\n        /* \"#utility.yul\":3613:3660   */\n      mstore\n        /* \"#utility.yul\":3677:3808   */\n      tag_86\n        /* \"#utility.yul\":3803:3807   */\n      dup2\n        /* \"#utility.yul\":3677:3808   */\n      tag_50\n      jump\t// in\n    tag_86:\n        /* \"#utility.yul\":3669:3808   */\n      swap1\n      pop\n        /* \"#utility.yul\":3396:3815   */\n      swap2\n      swap1\n      pop\n      jump\t// out\n        /* \"#utility.yul\":3821:4001   */\n    tag_51:\n        /* \"#utility.yul\":3869:3946   */\n      0x4e487b7100000000000000000000000000000000000000000000000000000000\n        /* \"#utility.yul\":3866:3867   */\n      0x00\n        /* \"#utility.yul\":3859:3947   */\n      mstore\n        /* \"#utility.yul\":3966:3970   */\n      0x11\n        /* \"#utility.yul\":3963:3964   */\n      0x04\n        /* \"#utility.yul\":3956:3971   */\n      mstore\n        /* \"#utility.yul\":3990:3994   */\n      0x24\n        /* \"#utility.yul\":3987:3988   */\n      0x00\n        /* \"#utility.yul\":3980:3995   */\n      revert\n        /* \"#utility.yul\":4007:4198   */\n    tag_35:\n        /* \"#utility.yul\":4047:4050   */\n      0x00\n        /* \"#utility.yul\":4066:4086   */\n      tag_89\n        /* \"#utility.yul\":4084:4085   */\n      dup3\n        /* \"#utility.yul\":4066:4086   */\n      tag_36\n      jump\t// in\n    tag_89:\n        /* \"#utility.yul\":4061:4086   */\n      swap2\n      pop\n        /* \"#utility.yul\":4100:4120   */\n      tag_90\n        /* \"#utility.yul\":4118:4119   */\n      dup4\n        /* \"#utility.yul\":4100:4120   */\n      tag_36\n      jump\t// in\n    tag_90:\n        /* \"#utility.yul\":4095:4120   */\n      swap3\n      pop\n        /* \"#utility.yul\":4143:4144   */\n      dup3\n        /* \"#utility.yul\":4140:4141   */\n      dup3\n        /* \"#utility.yul\":4136:4145   */\n      add\n        /* \"#utility.yul\":4129:4145   */\n      swap1\n      pop\n        /* \"#utility.yul\":4164:4167   */\n      dup1\n        /* \"#utility.yul\":4161:4162   */\n      dup3\n        /* \"#utility.yul\":4158:4168   */\n      gt\n        /* \"#utility.yul\":4155:4191   */\n      iszero\n      tag_91\n      jumpi\n        /* \"#utility.yul\":4171:4189   */\n      tag_92\n      tag_51\n      jump\t// in\n    tag_92:\n        /* \"#utility.yul\":4155:4191   */\n    tag_91:\n        /* \"#utility.yul\":4007:4198   */\n      swap3\n      swap2\n      pop\n      pop\n      jump\t// out\n\n    auxdata: 0xa2646970667358221220b95ff06f9aaa330689040b2a219ff022d135ce2622c8f66c6016a306bec092fa64736f6c634300081f0033\n}\n",
				"bytecode": {
					"linkReferences": {},
					"object": "6080604052348015600e575f5ffd5b506104788061001c5f395ff3fe60806040526004361061003e575f3560e01c806312065fe01461004257806327e235e31461006c5780633ccfd60b146100a8578063d0e30db0146100be575b5f5ffd5b34801561004d575f5ffd5b506100566100c8565b6040516100639190610287565b60405180910390f35b348015610077575f5ffd5b50610092600480360381019061008d91906102fe565b6100cf565b60405161009f9190610287565b60405180910390f35b3480156100b3575f5ffd5b506100bc6100e3565b005b6100c661021b565b005b5f47905090565b5f602052805f5260405f205f915090505481565b5f5f5f3373ffffffffffffffffffffffffffffffffffffffff1673ffffffffffffffffffffffffffffffffffffffff1681526020019081526020015f205490505f811161012e575f5ffd5b5f3373ffffffffffffffffffffffffffffffffffffffff168260405161015390610356565b5f6040518083038185875af1925050503d805f811461018d576040519150601f19603f3d011682016040523d82523d5f602084013e610192565b606091505b50509050806101d6576040517f08c379a00000000000000000000000000000000000000000000000000000000081526004016101cd906103c4565b60405180910390fd5b5f5f5f3373ffffffffffffffffffffffffffffffffffffffff1673ffffffffffffffffffffffffffffffffffffffff1681526020019081526020015f20819055505050565b345f5f3373ffffffffffffffffffffffffffffffffffffffff1673ffffffffffffffffffffffffffffffffffffffff1681526020019081526020015f205f828254610266919061040f565b92505081905550565b5f819050919050565b6102818161026f565b82525050565b5f60208201905061029a5f830184610278565b92915050565b5f5ffd5b5f73ffffffffffffffffffffffffffffffffffffffff82169050919050565b5f6102cd826102a4565b9050919050565b6102dd816102c3565b81146102e7575f5ffd5b50565b5f813590506102f8816102d4565b92915050565b5f60208284031215610313576103126102a0565b5b5f610320848285016102ea565b91505092915050565b5f81905092915050565b50565b5f6103415f83610329565b915061034c82610333565b5f82019050919050565b5f61036082610336565b9150819050919050565b5f82825260208201905092915050565b7f4661696c656420746f2073656e642045746865720000000000000000000000005f82015250565b5f6103ae60148361036a565b91506103b98261037a565b602082019050919050565b5f6020820190508181035f8301526103db816103a2565b9050919050565b7f4e487b71000000000000000000000000000000000000000000000000000000005f52601160045260245ffd5b5f6104198261026f565b91506104248361026f565b925082820190508082111561043c5761043b6103e2565b5b9291505056fea2646970667358221220b95ff06f9aaa330689040b2a219ff022d135ce2622c8f66c6016a306bec092fa64736f6c634300081f0033",
					"opcodes": "PUSH1 0x80 PUSH1 0x40 MSTORE CALLVALUE DUP1 ISZERO PUSH1 0xE JUMPI PUSH0 PUSH0 REVERT JUMPDEST POP PUSH2 0x478 DUP1 PUSH2 0x1C PUSH0 CODECOPY PUSH0 RETURN INVALID PUSH1 0x80 PUSH1 0x40 MSTORE PUSH1 0x4 CALLDATASIZE LT PUSH2 0x3E JUMPI PUSH0 CALLDATALOAD PUSH1 0xE0 SHR DUP1 PUSH4 0x12065FE0 EQ PUSH2 0x42 JUMPI DUP1 PUSH4 0x27E235E3 EQ PUSH2 0x6C JUMPI DUP1 PUSH4 0x3CCFD60B EQ PUSH2 0xA8 JUMPI DUP1 PUSH4 0xD0E30DB0 EQ PUSH2 0xBE JUMPI JUMPDEST PUSH0 PUSH0 REVERT JUMPDEST CALLVALUE DUP1 ISZERO PUSH2 0x4D JUMPI PUSH0 PUSH0 REVERT JUMPDEST POP PUSH2 0x56 PUSH2 0xC8 JUMP JUMPDEST PUSH1 0x40 MLOAD PUSH2 0x63 SWAP2 SWAP1 PUSH2 0x287 JUMP JUMPDEST PUSH1 0x40 MLOAD DUP1 SWAP2 SUB SWAP1 RETURN JUMPDEST CALLVALUE DUP1 ISZERO PUSH2 0x77 JUMPI PUSH0 PUSH0 REVERT JUMPDEST POP PUSH2 0x92 PUSH1 0x4 DUP1 CALLDATASIZE SUB DUP2 ADD SWAP1 PUSH2 0x8D SWAP2 SWAP1 PUSH2 0x2FE JUMP JUMPDEST PUSH2 0xCF JUMP JUMPDEST PUSH1 0x40 MLOAD PUSH2 0x9F SWAP2 SWAP1 PUSH2 0x287 JUMP JUMPDEST PUSH1 0x40 MLOAD DUP1 SWAP2 SUB SWAP1 RETURN JUMPDEST CALLVALUE DUP1 ISZERO PUSH2 0xB3 JUMPI PUSH0 PUSH0 REVERT JUMPDEST POP PUSH2 0xBC PUSH2 0xE3 JUMP JUMPDEST STOP JUMPDEST PUSH2 0xC6 PUSH2 0x21B JUMP JUMPDEST STOP JUMPDEST PUSH0 SELFBALANCE SWAP1 POP SWAP1 JUMP JUMPDEST PUSH0 PUSH1 0x20 MSTORE DUP1 PUSH0 MSTORE PUSH1 0x40 PUSH0 KECCAK256 PUSH0 SWAP2 POP SWAP1 POP SLOAD DUP2 JUMP JUMPDEST PUSH0 PUSH0 PUSH0 CALLER PUSH20 0xFFFFFFFFFFFFFFFFFFFFFFFFFFFFFFFFFFFFFFFF AND PUSH20 0xFFFFFFFFFFFFFFFFFFFFFFFFFFFFFFFFFFFFFFFF AND DUP2 MSTORE PUSH1 0x20 ADD SWAP1 DUP2 MSTORE PUSH1 0x20 ADD PUSH0 KECCAK256 SLOAD SWAP1 POP PUSH0 DUP2 GT PUSH2 0x12E JUMPI PUSH0 PUSH0 REVERT JUMPDEST PUSH0 CALLER PUSH20 0xFFFFFFFFFFFFFFFFFFFFFFFFFFFFFFFFFFFFFFFF AND DUP3 PUSH1 0x40 MLOAD PUSH2 0x153 SWAP1 PUSH2 0x356 JUMP JUMPDEST PUSH0 PUSH1 0x40 MLOAD DUP1 DUP4 SUB DUP2 DUP6 DUP8 GAS CALL SWAP3 POP POP POP RETURNDATASIZE DUP1 PUSH0 DUP2 EQ PUSH2 0x18D JUMPI PUSH1 0x40 MLOAD SWAP2 POP PUSH1 0x1F NOT PUSH1 0x3F RETURNDATASIZE ADD AND DUP3 ADD PUSH1 0x40 MSTORE RETURNDATASIZE DUP3 MSTORE RETURNDATASIZE PUSH0 PUSH1 0x20 DUP5 ADD RETURNDATACOPY PUSH2 0x192 JUMP JUMPDEST PUSH1 0x60 SWAP2 POP JUMPDEST POP POP SWAP1 POP DUP1 PUSH2 0x1D6 JUMPI PUSH1 0x40 MLOAD PUSH32 0x8C379A000000000000000000000000000000000000000000000000000000000 DUP2 MSTORE PUSH1 0x4 ADD PUSH2 0x1CD SWAP1 PUSH2 0x3C4 JUMP JUMPDEST PUSH1 0x40 MLOAD DUP1 SWAP2 SUB SWAP1 REVERT JUMPDEST PUSH0 PUSH0 PUSH0 CALLER PUSH20 0xFFFFFFFFFFFFFFFFFFFFFFFFFFFFFFFFFFFFFFFF AND PUSH20 0xFFFFFFFFFFFFFFFFFFFFFFFFFFFFFFFFFFFFFFFF AND DUP2 MSTORE PUSH1 0x20 ADD SWAP1 DUP2 MSTORE PUSH1 0x20 ADD PUSH0 KECCAK256 DUP2 SWAP1 SSTORE POP POP POP JUMP JUMPDEST CALLVALUE PUSH0 PUSH0 CALLER PUSH20 0xFFFFFFFFFFFFFFFFFFFFFFFFFFFFFFFFFFFFFFFF AND PUSH20 0xFFFFFFFFFFFFFFFFFFFFFFFFFFFFFFFFFFFFFFFF AND DUP2 MSTORE PUSH1 0x20 ADD SWAP1 DUP2 MSTORE PUSH1 0x20 ADD PUSH0 KECCAK256 PUSH0 DUP3 DUP3 SLOAD PUSH2 0x266 SWAP2 SWAP1 PUSH2 0x40F JUMP JUMPDEST SWAP3 POP POP DUP2 SWAP1 SSTORE POP JUMP JUMPDEST PUSH0 DUP2 SWAP1 POP SWAP2 SWAP1 POP JUMP JUMPDEST PUSH2 0x281 DUP2 PUSH2 0x26F JUMP JUMPDEST DUP3 MSTORE POP POP JUMP JUMPDEST PUSH0 PUSH1 0x20 DUP3 ADD SWAP1 POP PUSH2 0x29A PUSH0 DUP4 ADD DUP5 PUSH2 0x278 JUMP JUMPDEST SWAP3 SWAP2 POP POP JUMP JUMPDEST PUSH0 PUSH0 REVERT JUMPDEST PUSH0 PUSH20 0xFFFFFFFFFFFFFFFFFFFFFFFFFFFFFFFFFFFFFFFF DUP3 AND SWAP1 POP SWAP2 SWAP1 POP JUMP JUMPDEST PUSH0 PUSH2 0x2CD DUP3 PUSH2 0x2A4 JUMP JUMPDEST SWAP1 POP SWAP2 SWAP1 POP JUMP JUMPDEST PUSH2 0x2DD DUP2 PUSH2 0x2C3 JUMP JUMPDEST DUP2 EQ PUSH2 0x2E7 JUMPI PUSH0 PUSH0 REVERT JUMPDEST POP JUMP JUMPDEST PUSH0 DUP2 CALLDATALOAD SWAP1 POP PUSH2 0x2F8 DUP2 PUSH2 0x2D4 JUMP JUMPDEST SWAP3 SWAP2 POP POP JUMP JUMPDEST PUSH0 PUSH1 0x20 DUP3 DUP5 SUB SLT ISZERO PUSH2 0x313 JUMPI PUSH2 0x312 PUSH2 0x2A0 JUMP JUMPDEST JUMPDEST PUSH0 PUSH2 0x320 DUP5 DUP3 DUP6 ADD PUSH2 0x2EA JUMP JUMPDEST SWAP2 POP POP SWAP3 SWAP2 POP POP JUMP JUMPDEST PUSH0 DUP2 SWAP1 POP SWAP3 SWAP2 POP POP JUMP JUMPDEST POP JUMP JUMPDEST PUSH0 PUSH2 0x341 PUSH0 DUP4 PUSH2 0x329 JUMP JUMPDEST SWAP2 POP PUSH2 0x34C DUP3 PUSH2 0x333 JUMP JUMPDEST PUSH0 DUP3 ADD SWAP1 POP SWAP2 SWAP1 POP JUMP JUMPDEST PUSH0 PUSH2 0x360 DUP3 PUSH2 0x336 JUMP JUMPDEST SWAP2 POP DUP2 SWAP1 POP SWAP2 SWAP1 POP JUMP JUMPDEST PUSH0 DUP3 DUP3 MSTORE PUSH1 0x20 DUP3 ADD SWAP1 POP SWAP3 SWAP2 POP POP JUMP JUMPDEST PUSH32 0x4661696C656420746F2073656E64204574686572000000000000000000000000 PUSH0 DUP3 ADD MSTORE POP JUMP JUMPDEST PUSH0 PUSH2 0x3AE PUSH1 0x14 DUP4 PUSH2 0x36A JUMP JUMPDEST SWAP2 POP PUSH2 0x3B9 DUP3 PUSH2 0x37A JUMP JUMPDEST PUSH1 0x20 DUP3 ADD SWAP1 POP SWAP2 SWAP1 POP JUMP JUMPDEST PUSH0 PUSH1 0x20 DUP3 ADD SWAP1 POP DUP2 DUP2 SUB PUSH0 DUP4 ADD MSTORE PUSH2 0x3DB DUP2 PUSH2 0x3A2 JUMP JUMPDEST SWAP1 POP SWAP2 SWAP1 POP JUMP JUMPDEST PUSH32 0x4E487B7100000000000000000000000000000000000000000000000000000000 PUSH0 MSTORE PUSH1 0x11 PUSH1 0x4 MSTORE PUSH1 0x24 PUSH0 REVERT JUMPDEST PUSH0 PUSH2 0x419 DUP3 PUSH2 0x26F JUMP JUMPDEST SWAP2 POP PUSH2 0x424 DUP4 PUSH2 0x26F JUMP JUMPDEST SWAP3 POP DUP3 DUP3 ADD SWAP1 POP DUP1 DUP3 GT ISZERO PUSH2 0x43C JUMPI PUSH2 0x43B PUSH2 0x3E2 JUMP JUMPDEST JUMPDEST SWAP3 SWAP2 POP POP JUMP INVALID LOG2 PUSH5 0x6970667358 0x22 SLT KECCAK256 0xB9 PUSH0 CREATE PUSH16 0x9AAA330689040B2A219FF022D135CE26 0x22 0xC8 0xF6 PUSH13 0x6016A306BEC092FA64736F6C63 NUMBER STOP ADDMOD 0x1F STOP CALLER "
				},
				"gasEstimates": {
					"creation": {
						"codeDepositCost": "228800",
						"executionCost": "267",
						"totalCost": "229067"
					},
					"external": {
						"balances(address)": "2801",
						"deposit()": "infinite",
						"getBalance()": "312",
						"withdraw()": "infinite"
					}
				},
				"methodIdentifiers": {
					"balances(address)": "27e235e3",
					"deposit()": "d0e30db0",
					"getBalance()": "12065fe0",
					"withdraw()": "3ccfd60b"
				}
			},
			"storageLayout": {
				"storage": [
					{
						"astId": 5,
						"contract": "Day12_Reentrancy.sol:EtherStore",
						"label": "balances",
						"offset": 0,
						"slot": "0",
						"type": "t_mapping(t_address,t_uint256)"
					}
				],
				"types": {
					"t_address": {
						"encoding": "inplace",
						"label": "address",
						"numberOfBytes": "20"
					},
					"t_mapping(t_address,t_uint256)": {
						"encoding": "mapping",
						"key": "t_address",
						"label": "mapping(address => uint256)",
						"numberOfBytes": "32",
						"value": "t_uint256"
					},
					"t_uint256": {
						"encoding": "inplace",
						"label": "uint256",
						"numberOfBytes": "32"
					}
				}
			},
			"userdoc": {
				"kind": "user",
				"methods": {},
				"version": 1
			}
		}
	}
}