{
	"Day5_Events.sol": {
		"EventLogger": {
			"abi": [
				{
					"inputs": [],
					"stateMutability": "nonpayable",
					"type": "constructor"
				},
				{
					"anonymous": false,
					"inputs": [
						{
							"indexed": true,
							"internalType": "uint256",
							"name": "deviceId",
							"type": "uint256"
						},
						{
							"indexed": false,
							"internalType": "uint256",
							"name": "temperature",
							"type": "uint256"
						},
						{
							"indexed": true,
							"internalType": "address",
							"name": "operator",
							"type": "address"
						}
					],
					"name": "DataUpdated",
					"type": "event"
				},
				{
					"anonymous": false,
					"inputs": [
						{
							"indexed": true,
							"internalType": "uint256",
							"name": "deviceId",
							"type": "uint256"
						},
						{
							"indexed": false,
							"internalType": "uint256",
							"name": "temperature",
							"type": "uint256"
						},
						{
							"indexed": false,
							"internalType": "string",
							"name": "message",
							"type": "string"
						}
					],
					"name": "HighTempAlert",
					"type": "event"
				},
				{
					"inputs": [],
					"name": "owner",
					"outputs": [
						{
							"internalType": "address",
							"name": "",
							"type": "address"
						}
					],
					"stateMutability": "view",
					"type": "function"
				},
				{
					"inputs": [
						{
							"internalType": "uint256",
							"name": "",
							"type": "uint256"
						}
					],
					"name": "sensors",
					"outputs": [
						{
							"internalType": "uint16",
							"name": "temperature",
							"type": "uint16"
						},
						{
							"internalType": "bool",
							"name": "isValid",
							"type": "bool"
						}
					],
					"stateMutability": "view",
					"type": "function"
				},
				{
					"inputs": [
						{
							"internalType": "uint256",
							"name": "_id",
							"type": "uint256"
						},
						{
							"internalType": "uint16",
							"name": "_temp",
							"type": "uint16"
						}
					],
					"name": "updateData",
					"outputs": [],
					"stateMutability": "nonpayable",
					"type": "function"
				}
			],
			"devdoc": {
				"kind": "dev",
				"methods": {},
				"version": 1
			},
			"evm": {
				"assembly": "    /* \"Day5_Events.sol\":60:1248  contract EventLogger {... */\n  mstore(0x40, 0x80)\n    /* \"Day5_Events.sol\":629:666  constructor() { owner = msg.sender; } */\n  callvalue\n  dup1\n  iszero\n  tag_1\n  jumpi\n  revert(0x00, 0x00)\ntag_1:\n  pop\n    /* \"Day5_Events.sol\":653:663  msg.sender */\n  caller\n    /* \"Day5_Events.sol\":645:650  owner */\n  0x01\n  0x00\n    /* \"Day5_Events.sol\":645:663  owner = msg.sender */\n  0x0100\n  exp\n  dup2\n  sload\n  dup2\n  0xffffffffffffffffffffffffffffffffffffffff\n  mul\n  not\n  and\n  swap1\n  dup4\n  0xffffffffffffffffffffffffffffffffffffffff\n  and\n  mul\n  or\n  swap1\n  sstore\n  pop\n    /* \"Day5_Events.sol\":60:1248  contract EventLogger {... */\n  dataSize(sub_0)\n  dup1\n  dataOffset(sub_0)\n  0x00\n  codecopy\n  0x00\n  return\nstop\n\nsub_0: assembly {\n        /* \"Day5_Events.sol\":60:1248  contract EventLogger {... */\n      mstore(0x40, 0x80)\n      callvalue\n      dup1\n      iszero\n      tag_1\n      jumpi\n      revert(0x00, 0x00)\n    tag_1:\n      pop\n      jumpi(tag_2, lt(calldatasize, 0x04))\n      shr(0xe0, calldataload(0x00))\n      dup1\n      0x06c8fd88\n      eq\n      tag_3\n      jumpi\n      dup1\n      0x412f2e82\n      eq\n      tag_4\n      jumpi\n      dup1\n      0x8da5cb5b\n      eq\n      tag_5\n      jumpi\n    tag_2:\n      revert(0x00, 0x00)\n        /* \"Day5_Events.sol\":674:1245  function updateData(uint256 _id, uint16 _temp) public {... */\n    tag_3:\n      tag_6\n      0x04\n      dup1\n      calldatasize\n      sub\n      dup2\n      add\n      swap1\n      tag_7\n      swap2\n      swap1\n      tag_8\n      jump\t// in\n    tag_7:\n      tag_9\n      jump\t// in\n    tag_6:\n      stop\n        /* \"Day5_Events.sol\":548:593  mapping(uint256 => SensorData) public sensors */\n    tag_4:\n      tag_10\n      0x04\n      dup1\n      calldatasize\n      sub\n      dup2\n      add\n      swap1\n      tag_11\n      swap2\n      swap1\n      tag_12\n      jump\t// in\n    tag_11:\n      tag_13\n      jump\t// in\n    tag_10:\n      mload(0x40)\n      tag_14\n      swap3\n      swap2\n      swap1\n      tag_15\n      jump\t// in\n    tag_14:\n      mload(0x40)\n      dup1\n      swap2\n      sub\n      swap1\n      return\n        /* \"Day5_Events.sol\":600:620  address public owner */\n    tag_5:\n      tag_16\n      tag_17\n      jump\t// in\n    tag_16:\n      mload(0x40)\n      tag_18\n      swap2\n      swap1\n      tag_19\n      jump\t// in\n    tag_18:\n      mload(0x40)\n      dup1\n      swap2\n      sub\n      swap1\n      return\n        /* \"Day5_Events.sol\":674:1245  function updateData(uint256 _id, uint16 _temp) public {... */\n    tag_9:\n        /* \"Day5_Events.sol\":761:766  owner */\n      0x01\n      0x00\n      swap1\n      sload\n      swap1\n      0x0100\n      exp\n      swap1\n      div\n      0xffffffffffffffffffffffffffffffffffffffff\n      and\n        /* \"Day5_Events.sol\":747:766  msg.sender == owner */\n      0xffffffffffffffffffffffffffffffffffffffff\n      and\n        /* \"Day5_Events.sol\":747:757  msg.sender */\n      caller\n        /* \"Day5_Events.sol\":747:766  msg.sender == owner */\n      0xffffffffffffffffffffffffffffffffffffffff\n      and\n      eq\n        /* \"Day5_Events.sol\":739:780  require(msg.sender == owner, \"Auth Fail\") */\n      tag_21\n      jumpi\n      mload(0x40)\n      0x08c379a000000000000000000000000000000000000000000000000000000000\n      dup2\n      mstore\n      0x04\n      add\n      tag_22\n      swap1\n      tag_23\n      jump\t// in\n    tag_22:\n      mload(0x40)\n      dup1\n      swap2\n      sub\n      swap1\n      revert\n    tag_21:\n        /* \"Day5_Events.sol\":843:866  SensorData(_temp, true) */\n      mload(0x40)\n      dup1\n      0x40\n      add\n      0x40\n      mstore\n      dup1\n        /* \"Day5_Events.sol\":854:859  _temp */\n      dup3\n        /* \"Day5_Events.sol\":843:866  SensorData(_temp, true) */\n      0xffff\n      and\n      dup2\n      mstore\n      0x20\n      add\n        /* \"Day5_Events.sol\":861:865  true */\n      0x01\n        /* \"Day5_Events.sol\":843:866  SensorData(_temp, true) */\n      iszero\n      iszero\n      dup2\n      mstore\n      pop\n        /* \"Day5_Events.sol\":828:835  sensors */\n      0x00\n        /* \"Day5_Events.sol\":828:840  sensors[_id] */\n      0x00\n        /* \"Day5_Events.sol\":836:839  _id */\n      dup5\n        /* \"Day5_Events.sol\":828:840  sensors[_id] */\n      dup2\n      mstore\n      0x20\n      add\n      swap1\n      dup2\n      mstore\n      0x20\n      add\n      0x00\n      keccak256\n        /* \"Day5_Events.sol\":828:866  sensors[_id] = SensorData(_temp, true) */\n      0x00\n      dup3\n      add\n      mload\n      dup2\n      0x00\n      add\n      exp(0x0100, 0x00)\n      dup2\n      sload\n      dup2\n      0xffff\n      mul\n      not\n      and\n      swap1\n      dup4\n      0xffff\n      and\n      mul\n      or\n      swap1\n      sstore\n      pop\n      0x20\n      dup3\n      add\n      mload\n      dup2\n      0x00\n      add\n      exp(0x0100, 0x02)\n      dup2\n      sload\n      dup2\n      0xff\n      mul\n      not\n      and\n      swap1\n      dup4\n      iszero\n      iszero\n      mul\n      or\n      swap1\n      sstore\n      pop\n      swap1\n      pop\n      pop\n        /* \"Day5_Events.sol\":1048:1058  msg.sender */\n      caller\n        /* \"Day5_Events.sol\":1024:1059  DataUpdated(_id, _temp, msg.sender) */\n      0xffffffffffffffffffffffffffffffffffffffff\n      and\n        /* \"Day5_Events.sol\":1036:1039  _id */\n      dup3\n        /* \"Day5_Events.sol\":1024:1059  DataUpdated(_id, _temp, msg.sender) */\n      0xfd5be87648a25e0ea4d16a062bb0949c09669bd10406ec7745f5edc219e676ce\n        /* \"Day5_Events.sol\":1041:1046  _temp */\n      dup4\n        /* \"Day5_Events.sol\":1024:1059  DataUpdated(_id, _temp, msg.sender) */\n      mload(0x40)\n      tag_24\n      swap2\n      swap1\n      tag_25\n      jump\t// in\n    tag_24:\n      mload(0x40)\n      dup1\n      swap2\n      sub\n      swap1\n      log3\n        /* \"Day5_Events.sol\":1124:1128  5000 */\n      0x1388\n        /* \"Day5_Events.sol\":1116:1121  _temp */\n      dup2\n        /* \"Day5_Events.sol\":1116:1128  _temp > 5000 */\n      0xffff\n      and\n      gt\n        /* \"Day5_Events.sol\":1112:1238  if (_temp > 5000) { // 假设 50.00 度是阈值... */\n      iszero\n      tag_26\n      jumpi\n        /* \"Day5_Events.sol\":1193:1196  _id */\n      dup2\n        /* \"Day5_Events.sol\":1179:1226  HighTempAlert(_id, _temp, \"Warning: Overheat!\") */\n      0x26b6eb0f148e9b15d386c734ccfea4670cc6109b4c994fb69061de5aa4c538db\n        /* \"Day5_Events.sol\":1198:1203  _temp */\n      dup3\n        /* \"Day5_Events.sol\":1179:1226  HighTempAlert(_id, _temp, \"Warning: Overheat!\") */\n      mload(0x40)\n      tag_27\n      swap2\n      swap1\n      tag_28\n      jump\t// in\n    tag_27:\n      mload(0x40)\n      dup1\n      swap2\n      sub\n      swap1\n      log2\n        /* \"Day5_Events.sol\":1112:1238  if (_temp > 5000) { // 假设 50.00 度是阈值... */\n    tag_26:\n        /* \"Day5_Events.sol\":674:1245  function updateData(uint256 _id, uint16 _temp) public {... */\n      pop\n      pop\n      jump\t// out\n        /* \"Day5_Events.sol\":548:593  mapping(uint256 => SensorData) public sensors */\n    tag_13:\n      mstore(0x20, 0x00)\n      dup1\n      0x00\n      mstore\n      keccak256(0x00, 0x40)\n      0x00\n      swap2\n      pop\n      swap1\n      pop\n      dup1\n      0x00\n      add\n      0x00\n      swap1\n      sload\n      swap1\n      0x0100\n      exp\n      swap1\n      div\n      0xffff\n      and\n      swap1\n      dup1\n      0x00\n      add\n      0x02\n      swap1\n      sload\n      swap1\n      0x0100\n      exp\n      swap1\n      div\n      0xff\n      and\n      swap1\n      pop\n      dup3\n      jump\t// out\n        /* \"Day5_Events.sol\":600:620  address public owner */\n    tag_17:\n      0x01\n      0x00\n      swap1\n      sload\n      swap1\n      0x0100\n      exp\n      swap1\n      div\n      0xffffffffffffffffffffffffffffffffffffffff\n      and\n      dup2\n      jump\t// out\n        /* \"#utility.yul\":88:205   */\n    tag_30:\n        /* \"#utility.yul\":197:198   */\n      0x00\n        /* \"#utility.yul\":194:195   */\n      0x00\n        /* \"#utility.yul\":187:199   */\n      revert\n        /* \"#utility.yul\":334:411   */\n    tag_32:\n        /* \"#utility.yul\":371:378   */\n      0x00\n        /* \"#utility.yul\":400:405   */\n      dup2\n        /* \"#utility.yul\":389:405   */\n      swap1\n      pop\n        /* \"#utility.yul\":334:411   */\n      swap2\n      swap1\n      pop\n      jump\t// out\n        /* \"#utility.yul\":417:539   */\n    tag_33:\n        /* \"#utility.yul\":490:514   */\n      tag_58\n        /* \"#utility.yul\":508:513   */\n      dup2\n        /* \"#utility.yul\":490:514   */\n      tag_32\n      jump\t// in\n    tag_58:\n        /* \"#utility.yul\":483:488   */\n      dup2\n        /* \"#utility.yul\":480:515   */\n      eq\n        /* \"#utility.yul\":470:533   */\n      tag_59\n      jumpi\n        /* \"#utility.yul\":529:530   */\n      0x00\n        /* \"#utility.yul\":526:527   */\n      0x00\n        /* \"#utility.yul\":519:531   */\n      revert\n        /* \"#utility.yul\":470:533   */\n    tag_59:\n        /* \"#utility.yul\":417:539   */\n      pop\n      jump\t// out\n        /* \"#utility.yul\":545:684   */\n    tag_34:\n        /* \"#utility.yul\":591:596   */\n      0x00\n        /* \"#utility.yul\":629:635   */\n      dup2\n        /* \"#utility.yul\":616:636   */\n      calldataload\n        /* \"#utility.yul\":607:636   */\n      swap1\n      pop\n        /* \"#utility.yul\":645:678   */\n      tag_61\n        /* \"#utility.yul\":672:677   */\n      dup2\n        /* \"#utility.yul\":645:678   */\n      tag_33\n      jump\t// in\n    tag_61:\n        /* \"#utility.yul\":545:684   */\n      swap3\n      swap2\n      pop\n      pop\n      jump\t// out\n        /* \"#utility.yul\":690:779   */\n    tag_35:\n        /* \"#utility.yul\":726:733   */\n      0x00\n        /* \"#utility.yul\":766:772   */\n      0xffff\n        /* \"#utility.yul\":759:764   */\n      dup3\n        /* \"#utility.yul\":755:773   */\n      and\n        /* \"#utility.yul\":744:773   */\n      swap1\n      pop\n        /* \"#utility.yul\":690:779   */\n      swap2\n      swap1\n      pop\n      jump\t// out\n        /* \"#utility.yul\":785:905   */\n    tag_36:\n        /* \"#utility.yul\":857:880   */\n      tag_64\n        /* \"#utility.yul\":874:879   */\n      dup2\n        /* \"#utility.yul\":857:880   */\n      tag_35\n      jump\t// in\n    tag_64:\n        /* \"#utility.yul\":850:855   */\n      dup2\n        /* \"#utility.yul\":847:881   */\n      eq\n        /* \"#utility.yul\":837:899   */\n      tag_65\n      jumpi\n        /* \"#utility.yul\":895:896   */\n      0x00\n        /* \"#utility.yul\":892:893   */\n      0x00\n        /* \"#utility.yul\":885:897   */\n      revert\n        /* \"#utility.yul\":837:899   */\n    tag_65:\n        /* \"#utility.yul\":785:905   */\n      pop\n      jump\t// out\n        /* \"#utility.yul\":911:1048   */\n    tag_37:\n        /* \"#utility.yul\":956:961   */\n      0x00\n        /* \"#utility.yul\":994:1000   */\n      dup2\n        /* \"#utility.yul\":981:1001   */\n      calldataload\n        /* \"#utility.yul\":972:1001   */\n      swap1\n      pop\n        /* \"#utility.yul\":1010:1042   */\n      tag_67\n        /* \"#utility.yul\":1036:1041   */\n      dup2\n        /* \"#utility.yul\":1010:1042   */\n      tag_36\n      jump\t// in\n    tag_67:\n        /* \"#utility.yul\":911:1048   */\n      swap3\n      swap2\n      pop\n      pop\n      jump\t// out\n        /* \"#utility.yul\":1054:1526   */\n    tag_8:\n        /* \"#utility.yul\":1121:1127   */\n      0x00\n        /* \"#utility.yul\":1129:1135   */\n      0x00\n        /* \"#utility.yul\":1178:1180   */\n      0x40\n        /* \"#utility.yul\":1166:1175   */\n      dup4\n        /* \"#utility.yul\":1157:1164   */\n      dup6\n        /* \"#utility.yul\":1153:1176   */\n      sub\n        /* \"#utility.yul\":1149:1181   */\n      slt\n        /* \"#utility.yul\":1146:1265   */\n      iszero\n      tag_69\n      jumpi\n        /* \"#utility.yul\":1184:1263   */\n      tag_70\n      tag_30\n      jump\t// in\n    tag_70:\n        /* \"#utility.yul\":1146:1265   */\n    tag_69:\n        /* \"#utility.yul\":1304:1305   */\n      0x00\n        /* \"#utility.yul\":1329:1382   */\n      tag_71\n        /* \"#utility.yul\":1374:1381   */\n      dup6\n        /* \"#utility.yul\":1365:1371   */\n      dup3\n        /* \"#utility.yul\":1354:1363   */\n      dup7\n        /* \"#utility.yul\":1350:1372   */\n      add\n        /* \"#utility.yul\":1329:1382   */\n      tag_34\n      jump\t// in\n    tag_71:\n        /* \"#utility.yul\":1319:1382   */\n      swap3\n      pop\n        /* \"#utility.yul\":1275:1392   */\n      pop\n        /* \"#utility.yul\":1431:1433   */\n      0x20\n        /* \"#utility.yul\":1457:1509   */\n      tag_72\n        /* \"#utility.yul\":1501:1508   */\n      dup6\n        /* \"#utility.yul\":1492:1498   */\n      dup3\n        /* \"#utility.yul\":1481:1490   */\n      dup7\n        /* \"#utility.yul\":1477:1499   */\n      add\n        /* \"#utility.yul\":1457:1509   */\n      tag_37\n      jump\t// in\n    tag_72:\n        /* \"#utility.yul\":1447:1509   */\n      swap2\n      pop\n        /* \"#utility.yul\":1402:1519   */\n      pop\n        /* \"#utility.yul\":1054:1526   */\n      swap3\n      pop\n      swap3\n      swap1\n      pop\n      jump\t// out\n        /* \"#utility.yul\":1532:1861   */\n    tag_12:\n        /* \"#utility.yul\":1591:1597   */\n      0x00\n        /* \"#utility.yul\":1640:1642   */\n      0x20\n        /* \"#utility.yul\":1628:1637   */\n      dup3\n        /* \"#utility.yul\":1619:1626   */\n      dup5\n        /* \"#utility.yul\":1615:1638   */\n      sub\n        /* \"#utility.yul\":1611:1643   */\n      slt\n        /* \"#utility.yul\":1608:1727   */\n      iszero\n      tag_74\n      jumpi\n        /* \"#utility.yul\":1646:1725   */\n      tag_75\n      tag_30\n      jump\t// in\n    tag_75:\n        /* \"#utility.yul\":1608:1727   */\n    tag_74:\n        /* \"#utility.yul\":1766:1767   */\n      0x00\n        /* \"#utility.yul\":1791:1844   */\n      tag_76\n        /* \"#utility.yul\":1836:1843   */\n      dup5\n        /* \"#utility.yul\":1827:1833   */\n      dup3\n        /* \"#utility.yul\":1816:1825   */\n      dup6\n        /* \"#utility.yul\":1812:1834   */\n      add\n        /* \"#utility.yul\":1791:1844   */\n      tag_34\n      jump\t// in\n    tag_76:\n        /* \"#utility.yul\":1781:1844   */\n      swap2\n      pop\n        /* \"#utility.yul\":1737:1854   */\n      pop\n        /* \"#utility.yul\":1532:1861   */\n      swap3\n      swap2\n      pop\n      pop\n      jump\t// out\n        /* \"#utility.yul\":1867:1982   */\n    tag_38:\n        /* \"#utility.yul\":1952:1975   */\n      tag_78\n        /* \"#utility.yul\":1969:1974   */\n      dup2\n        /* \"#utility.yul\":1952:1975   */\n      tag_35\n      jump\t// in\n    tag_78:\n        /* \"#utility.yul\":1947:1950   */\n      dup3\n        /* \"#utility.yul\":1940:1976   */\n      mstore\n        /* \"#utility.yul\":1867:1982   */\n      pop\n      pop\n      jump\t// out\n        /* \"#utility.yul\":1988:2078   */\n    tag_39:\n        /* \"#utility.yul\":2022:2029   */\n      0x00\n        /* \"#utility.yul\":2065:2070   */\n      dup2\n        /* \"#utility.yul\":2058:2071   */\n      iszero\n        /* \"#utility.yul\":2051:2072   */\n      iszero\n        /* \"#utility.yul\":2040:2072   */\n      swap1\n      pop\n        /* \"#utility.yul\":1988:2078   */\n      swap2\n      swap1\n      pop\n      jump\t// out\n        /* \"#utility.yul\":2084:2193   */\n    tag_40:\n        /* \"#utility.yul\":2165:2186   */\n      tag_81\n        /* \"#utility.yul\":2180:2185   */\n      dup2\n        /* \"#utility.yul\":2165:2186   */\n      tag_39\n      jump\t// in\n    tag_81:\n        /* \"#utility.yul\":2160:2163   */\n      dup3\n        /* \"#utility.yul\":2153:2187   */\n      mstore\n        /* \"#utility.yul\":2084:2193   */\n      pop\n      pop\n      jump\t// out\n        /* \"#utility.yul\":2199:2515   */\n    tag_15:\n        /* \"#utility.yul\":2312:2316   */\n      0x00\n        /* \"#utility.yul\":2350:2352   */\n      0x40\n        /* \"#utility.yul\":2339:2348   */\n      dup3\n        /* \"#utility.yul\":2335:2353   */\n      add\n        /* \"#utility.yul\":2327:2353   */\n      swap1\n      pop\n        /* \"#utility.yul\":2363:2432   */\n      tag_83\n        /* \"#utility.yul\":2429:2430   */\n      0x00\n        /* \"#utility.yul\":2418:2427   */\n      dup4\n        /* \"#utility.yul\":2414:2431   */\n      add\n        /* \"#utility.yul\":2405:2411   */\n      dup6\n        /* \"#utility.yul\":2363:2432   */\n      tag_38\n      jump\t// in\n    tag_83:\n        /* \"#utility.yul\":2442:2508   */\n      tag_84\n        /* \"#utility.yul\":2504:2506   */\n      0x20\n        /* \"#utility.yul\":2493:2502   */\n      dup4\n        /* \"#utility.yul\":2489:2507   */\n      add\n        /* \"#utility.yul\":2480:2486   */\n      dup5\n        /* \"#utility.yul\":2442:2508   */\n      tag_40\n      jump\t// in\n    tag_84:\n        /* \"#utility.yul\":2199:2515   */\n      swap4\n      swap3\n      pop\n      pop\n      pop\n      jump\t// out\n        /* \"#utility.yul\":2521:2647   */\n    tag_41:\n        /* \"#utility.yul\":2558:2565   */\n      0x00\n        /* \"#utility.yul\":2598:2640   */\n      0xffffffffffffffffffffffffffffffffffffffff\n        /* \"#utility.yul\":2591:2596   */\n      dup3\n        /* \"#utility.yul\":2587:2641   */\n      and\n        /* \"#utility.yul\":2576:2641   */\n      swap1\n      pop\n        /* \"#utility.yul\":2521:2647   */\n      swap2\n      swap1\n      pop\n      jump\t// out\n        /* \"#utility.yul\":2653:2749   */\n    tag_42:\n        /* \"#utility.yul\":2690:2697   */\n      0x00\n        /* \"#utility.yul\":2719:2743   */\n      tag_87\n        /* \"#utility.yul\":2737:2742   */\n      dup3\n        /* \"#utility.yul\":2719:2743   */\n      tag_41\n      jump\t// in\n    tag_87:\n        /* \"#utility.yul\":2708:2743   */\n      swap1\n      pop\n        /* \"#utility.yul\":2653:2749   */\n      swap2\n      swap1\n      pop\n      jump\t// out\n        /* \"#utility.yul\":2755:2873   */\n    tag_43:\n        /* \"#utility.yul\":2842:2866   */\n      tag_89\n        /* \"#utility.yul\":2860:2865   */\n      dup2\n        /* \"#utility.yul\":2842:2866   */\n      tag_42\n      jump\t// in\n    tag_89:\n        /* \"#utility.yul\":2837:2840   */\n      dup3\n        /* \"#utility.yul\":2830:2867   */\n      mstore\n        /* \"#utility.yul\":2755:2873   */\n      pop\n      pop\n      jump\t// out\n        /* \"#utility.yul\":2879:3101   */\n    tag_19:\n        /* \"#utility.yul\":2972:2976   */\n      0x00\n        /* \"#utility.yul\":3010:3012   */\n      0x20\n        /* \"#utility.yul\":2999:3008   */\n      dup3\n        /* \"#utility.yul\":2995:3013   */\n      add\n        /* \"#utility.yul\":2987:3013   */\n      swap1\n      pop\n        /* \"#utility.yul\":3023:3094   */\n      tag_91\n        /* \"#utility.yul\":3091:3092   */\n      0x00\n        /* \"#utility.yul\":3080:3089   */\n      dup4\n        /* \"#utility.yul\":3076:3093   */\n      add\n        /* \"#utility.yul\":3067:3073   */\n      dup5\n        /* \"#utility.yul\":3023:3094   */\n      tag_43\n      jump\t// in\n    tag_91:\n        /* \"#utility.yul\":2879:3101   */\n      swap3\n      swap2\n      pop\n      pop\n      jump\t// out\n        /* \"#utility.yul\":3107:3276   */\n    tag_44:\n        /* \"#utility.yul\":3191:3202   */\n      0x00\n        /* \"#utility.yul\":3225:3231   */\n      dup3\n        /* \"#utility.yul\":3220:3223   */\n      dup3\n        /* \"#utility.yul\":3213:3232   */\n      mstore\n        /* \"#utility.yul\":3265:3269   */\n      0x20\n        /* \"#utility.yul\":3260:3263   */\n      dup3\n        /* \"#utility.yul\":3256:3270   */\n      add\n        /* \"#utility.yul\":3241:3270   */\n      swap1\n      pop\n        /* \"#utility.yul\":3107:3276   */\n      swap3\n      swap2\n      pop\n      pop\n      jump\t// out\n        /* \"#utility.yul\":3282:3441   */\n    tag_45:\n        /* \"#utility.yul\":3422:3433   */\n      0x41757468204661696c0000000000000000000000000000000000000000000000\n        /* \"#utility.yul\":3418:3419   */\n      0x00\n        /* \"#utility.yul\":3410:3416   */\n      dup3\n        /* \"#utility.yul\":3406:3420   */\n      add\n        /* \"#utility.yul\":3399:3434   */\n      mstore\n        /* \"#utility.yul\":3282:3441   */\n      pop\n      jump\t// out\n        /* \"#utility.yul\":3447:3812   */\n    tag_46:\n        /* \"#utility.yul\":3589:3592   */\n      0x00\n        /* \"#utility.yul\":3610:3676   */\n      tag_95\n        /* \"#utility.yul\":3674:3675   */\n      0x09\n        /* \"#utility.yul\":3669:3672   */\n      dup4\n        /* \"#utility.yul\":3610:3676   */\n      tag_44\n      jump\t// in\n    tag_95:\n        /* \"#utility.yul\":3603:3676   */\n      swap2\n      pop\n        /* \"#utility.yul\":3685:3778   */\n      tag_96\n        /* \"#utility.yul\":3774:3777   */\n      dup3\n        /* \"#utility.yul\":3685:3778   */\n      tag_45\n      jump\t// in\n    tag_96:\n        /* \"#utility.yul\":3803:3805   */\n      0x20\n        /* \"#utility.yul\":3798:3801   */\n      dup3\n        /* \"#utility.yul\":3794:3806   */\n      add\n        /* \"#utility.yul\":3787:3806   */\n      swap1\n      pop\n        /* \"#utility.yul\":3447:3812   */\n      swap2\n      swap1\n      pop\n      jump\t// out\n        /* \"#utility.yul\":3818:4237   */\n    tag_23:\n        /* \"#utility.yul\":3984:3988   */\n      0x00\n        /* \"#utility.yul\":4022:4024   */\n      0x20\n        /* \"#utility.yul\":4011:4020   */\n      dup3\n        /* \"#utility.yul\":4007:4025   */\n      add\n        /* \"#utility.yul\":3999:4025   */\n      swap1\n      pop\n        /* \"#utility.yul\":4071:4080   */\n      dup2\n        /* \"#utility.yul\":4065:4069   */\n      dup2\n        /* \"#utility.yul\":4061:4081   */\n      sub\n        /* \"#utility.yul\":4057:4058   */\n      0x00\n        /* \"#utility.yul\":4046:4055   */\n      dup4\n        /* \"#utility.yul\":4042:4059   */\n      add\n        /* \"#utility.yul\":4035:4082   */\n      mstore\n        /* \"#utility.yul\":4099:4230   */\n      tag_98\n        /* \"#utility.yul\":4225:4229   */\n      dup2\n        /* \"#utility.yul\":4099:4230   */\n      tag_46\n      jump\t// in\n    tag_98:\n        /* \"#utility.yul\":4091:4230   */\n      swap1\n      pop\n        /* \"#utility.yul\":3818:4237   */\n      swap2\n      swap1\n      pop\n      jump\t// out\n        /* \"#utility.yul\":4243:4303   */\n    tag_47:\n        /* \"#utility.yul\":4271:4274   */\n      0x00\n        /* \"#utility.yul\":4292:4297   */\n      dup2\n        /* \"#utility.yul\":4285:4297   */\n      swap1\n      pop\n        /* \"#utility.yul\":4243:4303   */\n      swap2\n      swap1\n      pop\n      jump\t// out\n        /* \"#utility.yul\":4309:4449   */\n    tag_48:\n        /* \"#utility.yul\":4358:4367   */\n      0x00\n        /* \"#utility.yul\":4391:4443   */\n      tag_101\n        /* \"#utility.yul\":4409:4442   */\n      tag_102\n        /* \"#utility.yul\":4418:4441   */\n      tag_103\n        /* \"#utility.yul\":4435:4440   */\n      dup5\n        /* \"#utility.yul\":4418:4441   */\n      tag_35\n      jump\t// in\n    tag_103:\n        /* \"#utility.yul\":4409:4442   */\n      tag_47\n      jump\t// in\n    tag_102:\n        /* \"#utility.yul\":4391:4443   */\n      tag_32\n      jump\t// in\n    tag_101:\n        /* \"#utility.yul\":4378:4443   */\n      swap1\n      pop\n        /* \"#utility.yul\":4309:4449   */\n      swap2\n      swap1\n      pop\n      jump\t// out\n        /* \"#utility.yul\":4455:4584   */\n    tag_49:\n        /* \"#utility.yul\":4541:4577   */\n      tag_105\n        /* \"#utility.yul\":4571:4576   */\n      dup2\n        /* \"#utility.yul\":4541:4577   */\n      tag_48\n      jump\t// in\n    tag_105:\n        /* \"#utility.yul\":4536:4539   */\n      dup3\n        /* \"#utility.yul\":4529:4578   */\n      mstore\n        /* \"#utility.yul\":4455:4584   */\n      pop\n      pop\n      jump\t// out\n        /* \"#utility.yul\":4590:4810   */\n    tag_25:\n        /* \"#utility.yul\":4682:4686   */\n      0x00\n        /* \"#utility.yul\":4720:4722   */\n      0x20\n        /* \"#utility.yul\":4709:4718   */\n      dup3\n        /* \"#utility.yul\":4705:4723   */\n      add\n        /* \"#utility.yul\":4697:4723   */\n      swap1\n      pop\n        /* \"#utility.yul\":4733:4803   */\n      tag_107\n        /* \"#utility.yul\":4800:4801   */\n      0x00\n        /* \"#utility.yul\":4789:4798   */\n      dup4\n        /* \"#utility.yul\":4785:4802   */\n      add\n        /* \"#utility.yul\":4776:4782   */\n      dup5\n        /* \"#utility.yul\":4733:4803   */\n      tag_49\n      jump\t// in\n    tag_107:\n        /* \"#utility.yul\":4590:4810   */\n      swap3\n      swap2\n      pop\n      pop\n      jump\t// out\n        /* \"#utility.yul\":4816:4984   */\n    tag_50:\n        /* \"#utility.yul\":4956:4976   */\n      0x5761726e696e673a204f76657268656174210000000000000000000000000000\n        /* \"#utility.yul\":4952:4953   */\n      0x00\n        /* \"#utility.yul\":4944:4950   */\n      dup3\n        /* \"#utility.yul\":4940:4954   */\n      add\n        /* \"#utility.yul\":4933:4977   */\n      mstore\n        /* \"#utility.yul\":4816:4984   */\n      pop\n      jump\t// out\n        /* \"#utility.yul\":4990:5356   */\n    tag_51:\n        /* \"#utility.yul\":5132:5135   */\n      0x00\n        /* \"#utility.yul\":5153:5220   */\n      tag_110\n        /* \"#utility.yul\":5217:5219   */\n      0x12\n        /* \"#utility.yul\":5212:5215   */\n      dup4\n        /* \"#utility.yul\":5153:5220   */\n      tag_44\n      jump\t// in\n    tag_110:\n        /* \"#utility.yul\":5146:5220   */\n      swap2\n      pop\n        /* \"#utility.yul\":5229:5322   */\n      tag_111\n        /* \"#utility.yul\":5318:5321   */\n      dup3\n        /* \"#utility.yul\":5229:5322   */\n      tag_50\n      jump\t// in\n    tag_111:\n        /* \"#utility.yul\":5347:5349   */\n      0x20\n        /* \"#utility.yul\":5342:5345   */\n      dup3\n        /* \"#utility.yul\":5338:5350   */\n      add\n        /* \"#utility.yul\":5331:5350   */\n      swap1\n      pop\n        /* \"#utility.yul\":4990:5356   */\n      swap2\n      swap1\n      pop\n      jump\t// out\n        /* \"#utility.yul\":5362:5889   */\n    tag_28:\n        /* \"#utility.yul\":5555:5559   */\n      0x00\n        /* \"#utility.yul\":5593:5595   */\n      0x40\n        /* \"#utility.yul\":5582:5591   */\n      dup3\n        /* \"#utility.yul\":5578:5596   */\n      add\n        /* \"#utility.yul\":5570:5596   */\n      swap1\n      pop\n        /* \"#utility.yul\":5606:5676   */\n      tag_113\n        /* \"#utility.yul\":5673:5674   */\n      0x00\n        /* \"#utility.yul\":5662:5671   */\n      dup4\n        /* \"#utility.yul\":5658:5675   */\n      add\n        /* \"#utility.yul\":5649:5655   */\n      dup5\n        /* \"#utility.yul\":5606:5676   */\n      tag_49\n      jump\t// in\n    tag_113:\n        /* \"#utility.yul\":5723:5732   */\n      dup2\n        /* \"#utility.yul\":5717:5721   */\n      dup2\n        /* \"#utility.yul\":5713:5733   */\n      sub\n        /* \"#utility.yul\":5708:5710   */\n      0x20\n        /* \"#utility.yul\":5697:5706   */\n      dup4\n        /* \"#utility.yul\":5693:5711   */\n      add\n        /* \"#utility.yul\":5686:5734   */\n      mstore\n        /* \"#utility.yul\":5751:5882   */\n      tag_114\n        /* \"#utility.yul\":5877:5881   */\n      dup2\n        /* \"#utility.yul\":5751:5882   */\n      tag_51\n      jump\t// in\n    tag_114:\n        /* \"#utility.yul\":5743:5882   */\n      swap1\n      pop\n        /* \"#utility.yul\":5362:5889   */\n      swap3\n      swap2\n      pop\n      pop\n      jump\t// out\n\n    auxdata: 0xa2646970667358221220e464dd1eeb63b014551e0fa28db85ab6698e967c4536b1d2ae6e626cb19a5c0464736f6c634300081f0033\n}\n",
				"bytecode": {
					"linkReferences": {},
					"object": "6080604052348015600e575f5ffd5b503360015f6101000a81548173ffffffffffffffffffffffffffffffffffffffff021916908373ffffffffffffffffffffffffffffffffffffffff1602179055506105978061005c5f395ff3fe608060405234801561000f575f5ffd5b506004361061003f575f3560e01c806306c8fd8814610043578063412f2e821461005f5780638da5cb5b14610090575b5f5ffd5b61005d60048036038101906100589190610310565b6100ae565b005b6100796004803603810190610074919061034e565b610245565b6040516100879291906103a2565b60405180910390f35b61009861027d565b6040516100a59190610408565b60405180910390f35b60015f9054906101000a900473ffffffffffffffffffffffffffffffffffffffff1673ffffffffffffffffffffffffffffffffffffffff163373ffffffffffffffffffffffffffffffffffffffff161461013d576040517f08c379a00000000000000000000000000000000000000000000000000000000081526004016101349061047b565b60405180910390fd5b60405180604001604052808261ffff168152602001600115158152505f5f8481526020019081526020015f205f820151815f015f6101000a81548161ffff021916908361ffff1602179055506020820151815f0160026101000a81548160ff0219169083151502179055509050503373ffffffffffffffffffffffffffffffffffffffff16827ffd5be87648a25e0ea4d16a062bb0949c09669bd10406ec7745f5edc219e676ce836040516101f291906104d2565b60405180910390a36113888161ffff16111561024157817f26b6eb0f148e9b15d386c734ccfea4670cc6109b4c994fb69061de5aa4c538db826040516102389190610535565b60405180910390a25b5050565b5f602052805f5260405f205f91509050805f015f9054906101000a900461ffff1690805f0160029054906101000a900460ff16905082565b60015f9054906101000a900473ffffffffffffffffffffffffffffffffffffffff1681565b5f5ffd5b5f819050919050565b6102b8816102a6565b81146102c2575f5ffd5b50565b5f813590506102d3816102af565b92915050565b5f61ffff82169050919050565b6102ef816102d9565b81146102f9575f5ffd5b50565b5f8135905061030a816102e6565b92915050565b5f5f60408385031215610326576103256102a2565b5b5f610333858286016102c5565b9250506020610344858286016102fc565b9150509250929050565b5f60208284031215610363576103626102a2565b5b5f610370848285016102c5565b91505092915050565b610382816102d9565b82525050565b5f8115159050919050565b61039c81610388565b82525050565b5f6040820190506103b55f830185610379565b6103c26020830184610393565b9392505050565b5f73ffffffffffffffffffffffffffffffffffffffff82169050919050565b5f6103f2826103c9565b9050919050565b610402816103e8565b82525050565b5f60208201905061041b5f8301846103f9565b92915050565b5f82825260208201905092915050565b7f41757468204661696c00000000000000000000000000000000000000000000005f82015250565b5f610465600983610421565b915061047082610431565b602082019050919050565b5f6020820190508181035f83015261049281610459565b9050919050565b5f819050919050565b5f6104bc6104b76104b2846102d9565b610499565b6102a6565b9050919050565b6104cc816104a2565b82525050565b5f6020820190506104e55f8301846104c3565b92915050565b7f5761726e696e673a204f766572686561742100000000000000000000000000005f82015250565b5f61051f601283610421565b915061052a826104eb565b602082019050919050565b5f6040820190506105485f8301846104c3565b818103602083015261055981610513565b90509291505056fea2646970667358221220e464dd1eeb63b014551e0fa28db85ab6698e967c4536b1d2ae6e626cb19a5c0464736f6c634300081f0033",
					"opcodes": "PUSH1 0x80 PUSH1 0x40 MSTORE CALLVALUE DUP1 ISZERO PUSH1 0xE JUMPI PUSH0 PUSH0 REVERT JUMPDEST POP CALLER PUSH1 0x1 PUSH0 PUSH2 0x100 EXP DUP2 SLOAD DUP2 PUSH20 0xFFFFFFFFFFFFFFFFFFFFFFFFFFFFFFFFFFFFFFFF MUL NOT AND SWAP1 DUP4 PUSH20 0xFFFFFFFFFFFFFFFFFFFFFFFFFFFFFFFFFFFFFFFF AND MUL OR SWAP1 SSTORE POP PUSH2 0x597 DUP1 PUSH2 0x5C PUSH0 CODECOPY PUSH0 RETURN INVALID PUSH1 0x80 PUSH1 0x40 MSTORE CALLVALUE DUP1 ISZERO PUSH2 0xF JUMPI PUSH0 PUSH0 REVERT JUMPDEST POP PUSH1 0x4 CALLDATASIZE LT PUSH2 0x3F JUMPI PUSH0 CALLDATALOAD PUSH1 0xE0 SHR DUP1 PUSH4 0x6C8FD88 EQ PUSH2 0x43 JUMPI DUP1 PUSH4 0x412F2E82 EQ PUSH2 0x5F JUMPI DUP1 PUSH4 0x8DA5CB5B EQ PUSH2 0x90 JUMPI JUMPDEST PUSH0 PUSH0 REVERT JUMPDEST PUSH2 0x5D PUSH1 0x4 DUP1 CALLDATASIZE SUB DUP2 ADD SWAP1 PUSH2 0x58 SWAP2 SWAP1 PUSH2 0x310 JUMP JUMPDEST PUSH2 0xAE JUMP JUMPDEST STOP JUMPDEST PUSH2 0x79 PUSH1 0x4 DUP1 CALLDATASIZE SUB DUP2 ADD SWAP1 PUSH2 0x74 SWAP2 SWAP1 PUSH2 0x34E JUMP JUMPDEST PUSH2 0x245 JUMP JUMPDEST PUSH1 0x40 MLOAD PUSH2 0x87 SWAP3 SWAP2 SWAP1 PUSH2 0x3A2 JUMP JUMPDEST PUSH1 0x40 MLOAD DUP1 SWAP2 SUB SWAP1 RETURN JUMPDEST PUSH2 0x98 PUSH2 0x27D JUMP JUMPDEST PUSH1 0x40 MLOAD PUSH2 0xA5 SWAP2 SWAP1 PUSH2 0x408 JUMP JUMPDEST PUSH1 0x40 MLOAD DUP1 SWAP2 SUB SWAP1 RETURN JUMPDEST PUSH1 0x1 PUSH0 SWAP1 SLOAD SWAP1 PUSH2 0x100 EXP SWAP1 DIV PUSH20 0xFFFFFFFFFFFFFFFFFFFFFFFFFFFFFFFFFFFFFFFF AND PUSH20 0xFFFFFFFFFFFFFFFFFFFFFFFFFFFFFFFFFFFFFFFF AND CALLER PUSH20 0xFFFFFFFFFFFFFFFFFFFFFFFFFFFFFFFFFFFFFFFF AND EQ PUSH2 0x13D JUMPI PUSH1 0x40 MLOAD PUSH32 0x8C379A000000000000000000000000000000000000000000000000000000000 DUP2 MSTORE PUSH1 0x4 ADD PUSH2 0x134 SWAP1 PUSH2 0x47B JUMP JUMPDEST PUSH1 0x40 MLOAD DUP1 SWAP2 SUB SWAP1 REVERT JUMPDEST PUSH1 0x40 MLOAD DUP1 PUSH1 0x40 ADD PUSH1 0x40 MSTORE DUP1 DUP3 PUSH2 0xFFFF AND DUP2 MSTORE PUSH1 0x20 ADD PUSH1 0x1 ISZERO ISZERO DUP2 MSTORE POP PUSH0 PUSH0 DUP5 DUP2 MSTORE PUSH1 0x20 ADD SWAP1 DUP2 MSTORE PUSH1 0x20 ADD PUSH0 KECCAK256 PUSH0 DUP3 ADD MLOAD DUP2 PUSH0 ADD PUSH0 PUSH2 0x100 EXP DUP2 SLOAD DUP2 PUSH2 0xFFFF MUL NOT AND SWAP1 DUP4 PUSH2 0xFFFF AND MUL OR SWAP1 SSTORE POP PUSH1 0x20 DUP3 ADD MLOAD DUP2 PUSH0 ADD PUSH1 0x2 PUSH2 0x100 EXP DUP2 SLOAD DUP2 PUSH1 0xFF MUL NOT AND SWAP1 DUP4 ISZERO ISZERO MUL OR SWAP1 SSTORE POP SWAP1 POP POP CALLER PUSH20 0xFFFFFFFFFFFFFFFFFFFFFFFFFFFFFFFFFFFFFFFF AND DUP3 PUSH32 0xFD5BE87648A25E0EA4D16A062BB0949C09669BD10406EC7745F5EDC219E676CE DUP4 PUSH1 0x40 MLOAD PUSH2 0x1F2 SWAP2 SWAP1 PUSH2 0x4D2 JUMP JUMPDEST PUSH1 0x40 MLOAD DUP1 SWAP2 SUB SWAP1 LOG3 PUSH2 0x1388 DUP2 PUSH2 0xFFFF AND GT ISZERO PUSH2 0x241 JUMPI DUP2 PUSH32 0x26B6EB0F148E9B15D386C734CCFEA4670CC6109B4C994FB69061DE5AA4C538DB DUP3 PUSH1 0x40 MLOAD PUSH2 0x238 SWAP2 SWAP1 PUSH2 0x535 JUMP JUMPDEST PUSH1 0x40 MLOAD DUP1 SWAP2 SUB SWAP1 LOG2 JUMPDEST POP POP JUMP JUMPDEST PUSH0 PUSH1 0x20 MSTORE DUP1 PUSH0 MSTORE PUSH1 0x40 PUSH0 KECCAK256 PUSH0 SWAP2 POP SWAP1 POP DUP1 PUSH0 ADD PUSH0 SWAP1 SLOAD SWAP1 PUSH2 0x100 EXP SWAP1 DIV PUSH2 0xFFFF AND SWAP1 DUP1 PUSH0 ADD PUSH1 0x2 SWAP1 SLOAD SWAP1 PUSH2 0x100 EXP SWAP1 DIV PUSH1 0xFF AND SWAP1 POP DUP3 JUMP JUMPDEST PUSH1 0x1 PUSH0 SWAP1 SLOAD SWAP1 PUSH2 0x100 EXP SWAP1 DIV PUSH20 0xFFFFFFFFFFFFFFFFFFFFFFFFFFFFFFFFFFFFFFFF AND DUP2 JUMP JUMPDEST PUSH0 PUSH0 REVERT JUMPDEST PUSH0 DUP2 SWAP1 POP SWAP2 SWAP1 POP JUMP JUMPDEST PUSH2 0x2B8 DUP2 PUSH2 0x2A6 JUMP JUMPDEST DUP2 EQ PUSH2 0x2C2 JUMPI PUSH0 PUSH0 REVERT JUMPDEST POP JUMP JUMPDEST PUSH0 DUP2 CALLDATALOAD SWAP1 POP PUSH2 0x2D3 DUP2 PUSH2 0x2AF JUMP JUMPDEST SWAP3 SWAP2 POP POP JUMP JUMPDEST PUSH0 PUSH2 0xFFFF DUP3 AND SWAP1 POP SWAP2 SWAP1 POP JUMP JUMPDEST PUSH2 0x2EF DUP2 PUSH2 0x2D9 JUMP JUMPDEST DUP2 EQ PUSH2 0x2F9 JUMPI PUSH0 PUSH0 REVERT JUMPDEST POP JUMP JUMPDEST PUSH0 DUP2 CALLDATALOAD SWAP1 POP PUSH2 0x30A DUP2 PUSH2 0x2E6 JUMP JUMPDEST SWAP3 SWAP2 POP POP JUMP JUMPDEST PUSH0 PUSH0 PUSH1 0x40 DUP4 DUP6 SUB SLT ISZERO PUSH2 0x326 JUMPI PUSH2 0x325 PUSH2 0x2A2 JUMP JUMPDEST JUMPDEST PUSH0 PUSH2 0x333 DUP6 DUP3 DUP7 ADD PUSH2 0x2C5 JUMP JUMPDEST SWAP3 POP POP PUSH1 0x20 PUSH2 0x344 DUP6 DUP3 DUP7 ADD PUSH2 0x2FC JUMP JUMPDEST SWAP2 POP POP SWAP3 POP SWAP3 SWAP1 POP JUMP JUMPDEST PUSH0 PUSH1 0x20 DUP3 DUP5 SUB SLT ISZERO PUSH2 0x363 JUMPI PUSH2 0x362 PUSH2 0x2A2 JUMP JUMPDEST JUMPDEST PUSH0 PUSH2 0x370 DUP5 DUP3 DUP6 ADD PUSH2 0x2C5 JUMP JUMPDEST SWAP2 POP POP SWAP3 SWAP2 POP POP JUMP JUMPDEST PUSH2 0x382 DUP2 PUSH2 0x2D9 JUMP JUMPDEST DUP3 MSTORE POP POP JUMP JUMPDEST PUSH0 DUP2 ISZERO ISZERO SWAP1 POP SWAP2 SWAP1 POP JUMP JUMPDEST PUSH2 0x39C DUP2 PUSH2 0x388 JUMP JUMPDEST DUP3 MSTORE POP POP JUMP JUMPDEST PUSH0 PUSH1 0x40 DUP3 ADD SWAP1 POP PUSH2 0x3B5 PUSH0 DUP4 ADD DUP6 PUSH2 0x379 JUMP JUMPDEST PUSH2 0x3C2 PUSH1 0x20 DUP4 ADD DUP5 PUSH2 0x393 JUMP JUMPDEST SWAP4 SWAP3 POP POP POP JUMP JUMPDEST PUSH0 PUSH20 0xFFFFFFFFFFFFFFFFFFFFFFFFFFFFFFFFFFFFFFFF DUP3 AND SWAP1 POP SWAP2 SWAP1 POP JUMP JUMPDEST PUSH0 PUSH2 0x3F2 DUP3 PUSH2 0x3C9 JUMP JUMPDEST SWAP1 POP SWAP2 SWAP1 POP JUMP JUMPDEST PUSH2 0x402 DUP2 PUSH2 0x3E8 JUMP JUMPDEST DUP3 MSTORE POP POP JUMP JUMPDEST PUSH0 PUSH1 0x20 DUP3 ADD SWAP1 POP PUSH2 0x41B PUSH0 DUP4 ADD DUP5 PUSH2 0x3F9 JUMP JUMPDEST SWAP3 SWAP2 POP POP JUMP JUMPDEST PUSH0 DUP3 DUP3 MSTORE PUSH1 0x20 DUP3 ADD SWAP1 POP SWAP3 SWAP2 POP POP JUMP JUMPDEST PUSH32 0x41757468204661696C0000000000000000000000000000000000000000000000 PUSH0 DUP3 ADD MSTORE POP JUMP JUMPDEST PUSH0 PUSH2 0x465 PUSH1 0x9 DUP4 PUSH2 0x421 JUMP JUMPDEST SWAP2 POP PUSH2 0x470 DUP3 PUSH2 0x431 JUMP JUMPDEST PUSH1 0x20 DUP3 ADD SWAP1 POP SWAP2 SWAP1 POP JUMP JUMPDEST PUSH0 PUSH1 0x20 DUP3 ADD SWAP1 POP DUP2 DUP2 SUB PUSH0 DUP4 ADD MSTORE PUSH2 0x492 DUP2 PUSH2 0x459 JUMP JUMPDEST SWAP1 POP SWAP2 SWAP1 POP JUMP JUMPDEST PUSH0 DUP2 SWAP1 POP SWAP2 SWAP1 POP JUMP JUMPDEST PUSH0 PUSH2 0x4BC PUSH2 0x4B7 PUSH2 0x4B2 DUP5 PUSH2 0x2D9 JUMP JUMPDEST PUSH2 0x499 JUMP JUMPDEST PUSH2 0x2A6 JUMP JUMPDEST SWAP1 POP SWAP2 SWAP1 POP JUMP JUMPDEST PUSH2 0x4CC DUP2 PUSH2 0x4A2 JUMP JUMPDEST DUP3 MSTORE POP POP JUMP JUMPDEST PUSH0 PUSH1 0x20 DUP3 ADD SWAP1 POP PUSH2 0x4E5 PUSH0 DUP4 ADD DUP5 PUSH2 0x4C3 JUMP JUMPDEST SWAP3 SWAP2 POP POP JUMP JUMPDEST PUSH32 0x5761726E696E673A204F76657268656174210000000000000000000000000000 PUSH0 DUP3 ADD MSTORE POP JUMP JUMPDEST PUSH0 PUSH2 0x51F PUSH1 0x12 DUP4 PUSH2 0x421 JUMP JUMPDEST SWAP2 POP PUSH2 0x52A DUP3 PUSH2 0x4EB JUMP JUMPDEST PUSH1 0x20 DUP3 ADD SWAP1 POP SWAP2 SWAP1 POP JUMP JUMPDEST PUSH0 PUSH1 0x40 DUP3 ADD SWAP1 POP PUSH2 0x548 PUSH0 DUP4 ADD DUP5 PUSH2 0x4C3 JUMP JUMPDEST DUP2 DUP2 SUB PUSH1 0x20 DUP4 ADD MSTORE PUSH2 0x559 DUP2 PUSH2 0x513 JUMP JUMPDEST SWAP1 POP SWAP3 SWAP2 POP POP JUMP INVALID LOG2 PUSH5 0x6970667358 0x22 SLT KECCAK256 RETF PUSH5 0xDD1EEB63B0 EQ SSTORE CLZ 0xF LOG2 DUP14 0xB8 GAS 0xB6 PUSH10 0x8E967C4536B1D2AE6E62 PUSH13 0xB19A5C0464736F6C634300081F STOP CALLER "
				},
				"gasEstimates": {
					"creation": {
						"codeDepositCost": "286200",
						"executionCost": "24587",
						"totalCost": "310787"
					},
					"external": {
						"owner()": "2530",
						"sensors(uint256)": "5109",
						"updateData(uint256,uint16)": "infinite"
					}
				},
				"methodIdentifiers": {
					"owner()": "8da5cb5b",
					"sensors(uint256)": "412f2e82",
					"updateData(uint256,uint16)": "06c8fd88"
				}
			},
			"storageLayout": {
				"storage": [
					{
						"astId": 27,
						"contract": "Day5_Events.sol:EventLogger",
						"label": "sensors",
						"offset": 0,
						"slot": "0",
						"type": "t_mapping(t_uint256,t_struct(SensorData)22_storage)"
					},
					{
						"astId": 29,
						"contract": "Day5_Events.sol:EventLogger",
						"label": "owner",
						"offset": 0,
						"slot": "1",
						"type": "t_address"
					}
				],
				"types": {
					"t_address": {
						"encoding": "inplace",
						"label": "address",
						"numberOfBytes": "20"
					},
					"t_bool": {
						"encoding": "inplace",
						"label": "bool",
						"numberOfBytes": "1"
					},
					"t_mapping(t_uint256,t_struct(SensorData)22_storage)": {
						"encoding": "mapping",
						"key": "t_uint256",
						"label": "mapping(uint256 => struct EventLogger.SensorData)",
						"numberOfBytes": "32",
						"value": "t_struct(SensorData)22_storage"
					},
					"t_struct(SensorData)22_storage": {
						"encoding": "inplace",
						"label": "struct EventLogger.SensorData",
						"members": [
							{
								"astId": 19,
								"contract": "Day5_Events.sol:EventLogger",
								"label": "temperature",
								"offset": 0,
								"slot": "0",
								"type": "t_uint16"
							},
							{
								"astId": 21,
								"contract": "Day5_Events.sol:EventLogger",
								"label": "isValid",
								"offset": 2,
								"slot": "0",
								"type": "t_bool"
							}
						],
						"numberOfBytes": "32"
					},
					"t_uint16": {
						"encoding": "inplace",
						"label": "uint16",
						"numberOfBytes": "2"
					},
					"t_uint256": {
						"encoding": "inplace",
						"label": "uint256",
						"numberOfBytes": "32"
					}
				}
			},
			"userdoc": {
				"kind": "user",
				"methods": {},
				"version": 1
			}
		}
	}
}