{
	"Day7_TrafficLight.sol": {
		"TrafficLight": {
			"abi": [
				{
					"inputs": [],
					"stateMutability": "nonpayable",
					"type": "constructor"
				},
				{
					"anonymous": false,
					"inputs": [
						{
							"indexed": false,
							"internalType": "enum TrafficLight.State",
							"name": "newState",
							"type": "uint8"
						},
						{
							"indexed": false,
							"internalType": "uint256",
							"name": "timestamp",
							"type": "uint256"
						}
					],
					"name": "LightChanged",
					"type": "event"
				},
				{
					"inputs": [],
					"name": "currentState",
					"outputs": [
						{
							"internalType": "enum TrafficLight.State",
							"name": "",
							"type": "uint8"
						}
					],
					"stateMutability": "view",
					"type": "function"
				},
				{
					"inputs": [],
					"name": "lastChangeTime",
					"outputs": [
						{
							"internalType": "uint256",
							"name": "",
							"type": "uint256"
						}
					],
					"stateMutability": "view",
					"type": "function"
				},
				{
					"inputs": [],
					"name": "nextState",
					"outputs": [],
					"stateMutability": "nonpayable",
					"type": "function"
				}
			],
			"devdoc": {
				"kind": "dev",
				"methods": {},
				"version": 1
			},
			"evm": {
				"assembly": "    /* \"Day7_TrafficLight.sol\":59:1075  contract TrafficLight{... */\n  mstore(0x40, 0x80)\n    /* \"Day7_TrafficLight.sol\":260:361  constructor(){... */\n  callvalue\n  dup1\n  iszero\n  tag_1\n  jumpi\n  revert(0x00, 0x00)\ntag_1:\n  pop\n    /* \"Day7_TrafficLight.sol\":299:308  State.Red */\n  0x00\n    /* \"Day7_TrafficLight.sol\":284:296  currentState */\n  0x00\n  0x00\n    /* \"Day7_TrafficLight.sol\":284:308  currentState = State.Red */\n  0x0100\n  exp\n  dup2\n  sload\n  dup2\n  0xff\n  mul\n  not\n  and\n  swap1\n  dup4\n  0x02\n  dup2\n  gt\n  iszero\n  tag_4\n  jumpi\n  tag_5\n  tag_6\n  jump\t// in\ntag_5:\ntag_4:\n  mul\n  or\n  swap1\n  sstore\n  pop\n    /* \"Day7_TrafficLight.sol\":336:351  block.timestamp */\n  timestamp\n    /* \"Day7_TrafficLight.sol\":319:333  lastChangeTime */\n  0x01\n    /* \"Day7_TrafficLight.sol\":319:351  lastChangeTime = block.timestamp */\n  dup2\n  swap1\n  sstore\n  pop\n    /* \"Day7_TrafficLight.sol\":59:1075  contract TrafficLight{... */\n  jump(tag_7)\n    /* \"#utility.yul\":7:187   */\ntag_6:\n    /* \"#utility.yul\":55:132   */\n  0x4e487b7100000000000000000000000000000000000000000000000000000000\n    /* \"#utility.yul\":52:53   */\n  0x00\n    /* \"#utility.yul\":45:133   */\n  mstore\n    /* \"#utility.yul\":152:156   */\n  0x21\n    /* \"#utility.yul\":149:150   */\n  0x04\n    /* \"#utility.yul\":142:157   */\n  mstore\n    /* \"#utility.yul\":176:180   */\n  0x24\n    /* \"#utility.yul\":173:174   */\n  0x00\n    /* \"#utility.yul\":166:181   */\n  revert\n    /* \"Day7_TrafficLight.sol\":59:1075  contract TrafficLight{... */\ntag_7:\n  dataSize(sub_0)\n  dup1\n  dataOffset(sub_0)\n  0x00\n  codecopy\n  0x00\n  return\nstop\n\nsub_0: assembly {\n        /* \"Day7_TrafficLight.sol\":59:1075  contract TrafficLight{... */\n      mstore(0x40, 0x80)\n      callvalue\n      dup1\n      iszero\n      tag_1\n      jumpi\n      revert(0x00, 0x00)\n    tag_1:\n      pop\n      jumpi(tag_2, lt(calldatasize, 0x04))\n      shr(0xe0, calldataload(0x00))\n      dup1\n      0x0c3f6acf\n      eq\n      tag_3\n      jumpi\n      dup1\n      0x14007c6d\n      eq\n      tag_4\n      jumpi\n      dup1\n      0xec40247f\n      eq\n      tag_5\n      jumpi\n    tag_2:\n      revert(0x00, 0x00)\n        /* \"Day7_TrafficLight.sol\":126:151  State public currentState */\n    tag_3:\n      tag_6\n      tag_7\n      jump\t// in\n    tag_6:\n      mload(0x40)\n      tag_8\n      swap2\n      swap1\n      tag_9\n      jump\t// in\n    tag_8:\n      mload(0x40)\n      dup1\n      swap2\n      sub\n      swap1\n      return\n        /* \"Day7_TrafficLight.sol\":369:1070  function nextState() public {... */\n    tag_4:\n      tag_10\n      tag_11\n      jump\t// in\n    tag_10:\n      stop\n        /* \"Day7_TrafficLight.sol\":160:189  uint256 public lastChangeTime */\n    tag_5:\n      tag_12\n      tag_13\n      jump\t// in\n    tag_12:\n      mload(0x40)\n      tag_14\n      swap2\n      swap1\n      tag_15\n      jump\t// in\n    tag_14:\n      mload(0x40)\n      dup1\n      swap2\n      sub\n      swap1\n      return\n        /* \"Day7_TrafficLight.sol\":126:151  State public currentState */\n    tag_7:\n      0x00\n      0x00\n      swap1\n      sload\n      swap1\n      0x0100\n      exp\n      swap1\n      div\n      0xff\n      and\n      dup2\n      jump\t// out\n        /* \"Day7_TrafficLight.sol\":369:1070  function nextState() public {... */\n    tag_11:\n        /* \"Day7_TrafficLight.sol\":408:427  uint256 timeElapsed */\n      0x00\n        /* \"Day7_TrafficLight.sol\":448:462  lastChangeTime */\n      sload(0x01)\n        /* \"Day7_TrafficLight.sol\":430:445  block.timestamp */\n      timestamp\n        /* \"Day7_TrafficLight.sol\":430:462  block.timestamp - lastChangeTime */\n      tag_17\n      swap2\n      swap1\n      tag_18\n      jump\t// in\n    tag_17:\n        /* \"Day7_TrafficLight.sol\":408:462  uint256 timeElapsed = block.timestamp - lastChangeTime */\n      swap1\n      pop\n        /* \"Day7_TrafficLight.sol\":493:502  State.Red */\n      0x00\n        /* \"Day7_TrafficLight.sol\":477:502  currentState == State.Red */\n      0x02\n      dup2\n      gt\n      iszero\n      tag_19\n      jumpi\n      tag_20\n      tag_21\n      jump\t// in\n    tag_20:\n    tag_19:\n        /* \"Day7_TrafficLight.sol\":477:489  currentState */\n      0x00\n      0x00\n      swap1\n      sload\n      swap1\n      0x0100\n      exp\n      swap1\n      div\n      0xff\n      and\n        /* \"Day7_TrafficLight.sol\":477:502  currentState == State.Red */\n      0x02\n      dup2\n      gt\n      iszero\n      tag_22\n      jumpi\n      tag_23\n      tag_21\n      jump\t// in\n    tag_23:\n    tag_22:\n      sub\n        /* \"Day7_TrafficLight.sol\":473:1010  if (currentState == State.Red ) {... */\n      tag_24\n      jumpi\n        /* \"Day7_TrafficLight.sol\":543:545  10 */\n      0x0a\n        /* \"Day7_TrafficLight.sol\":528:539  timeElapsed */\n      dup2\n        /* \"Day7_TrafficLight.sol\":528:545  timeElapsed >= 10 */\n      lt\n      iszero\n        /* \"Day7_TrafficLight.sol\":520:576  require(timeElapsed >= 10, \"Red light: Wait more time!\") */\n      tag_25\n      jumpi\n      mload(0x40)\n      0x08c379a000000000000000000000000000000000000000000000000000000000\n      dup2\n      mstore\n      0x04\n      add\n      tag_26\n      swap1\n      tag_27\n      jump\t// in\n    tag_26:\n      mload(0x40)\n      dup1\n      swap2\n      sub\n      swap1\n      revert\n    tag_25:\n        /* \"Day7_TrafficLight.sol\":606:617  State.Green */\n      0x01\n        /* \"Day7_TrafficLight.sol\":591:603  currentState */\n      0x00\n      0x00\n        /* \"Day7_TrafficLight.sol\":591:617  currentState = State.Green */\n      0x0100\n      exp\n      dup2\n      sload\n      dup2\n      0xff\n      mul\n      not\n      and\n      swap1\n      dup4\n      0x02\n      dup2\n      gt\n      iszero\n      tag_28\n      jumpi\n      tag_29\n      tag_21\n      jump\t// in\n    tag_29:\n    tag_28:\n      mul\n      or\n      swap1\n      sstore\n      pop\n        /* \"Day7_TrafficLight.sol\":473:1010  if (currentState == State.Red ) {... */\n      jump(tag_30)\n    tag_24:\n        /* \"Day7_TrafficLight.sol\":679:690  State.Green */\n      0x01\n        /* \"Day7_TrafficLight.sol\":663:690  currentState == State.Green */\n      0x02\n      dup2\n      gt\n      iszero\n      tag_31\n      jumpi\n      tag_32\n      tag_21\n      jump\t// in\n    tag_32:\n    tag_31:\n        /* \"Day7_TrafficLight.sol\":663:675  currentState */\n      0x00\n      0x00\n      swap1\n      sload\n      swap1\n      0x0100\n      exp\n      swap1\n      div\n      0xff\n      and\n        /* \"Day7_TrafficLight.sol\":663:690  currentState == State.Green */\n      0x02\n      dup2\n      gt\n      iszero\n      tag_33\n      jumpi\n      tag_34\n      tag_21\n      jump\t// in\n    tag_34:\n    tag_33:\n      sub\n        /* \"Day7_TrafficLight.sol\":659:1010  if (currentState == State.Green) {... */\n      tag_35\n      jumpi\n        /* \"Day7_TrafficLight.sol\":730:732  10 */\n      0x0a\n        /* \"Day7_TrafficLight.sol\":715:726  timeElapsed */\n      dup2\n        /* \"Day7_TrafficLight.sol\":715:732  timeElapsed >= 10 */\n      lt\n      iszero\n        /* \"Day7_TrafficLight.sol\":707:765  require(timeElapsed >= 10, \"Green light: Wait more time!\") */\n      tag_36\n      jumpi\n      mload(0x40)\n      0x08c379a000000000000000000000000000000000000000000000000000000000\n      dup2\n      mstore\n      0x04\n      add\n      tag_37\n      swap1\n      tag_38\n      jump\t// in\n    tag_37:\n      mload(0x40)\n      dup1\n      swap2\n      sub\n      swap1\n      revert\n    tag_36:\n        /* \"Day7_TrafficLight.sol\":795:807  State.Yellow */\n      0x02\n        /* \"Day7_TrafficLight.sol\":780:792  currentState */\n      0x00\n      0x00\n        /* \"Day7_TrafficLight.sol\":780:807  currentState = State.Yellow */\n      0x0100\n      exp\n      dup2\n      sload\n      dup2\n      0xff\n      mul\n      not\n      and\n      swap1\n      dup4\n      0x02\n      dup2\n      gt\n      iszero\n      tag_39\n      jumpi\n      tag_40\n      tag_21\n      jump\t// in\n    tag_40:\n    tag_39:\n      mul\n      or\n      swap1\n      sstore\n      pop\n        /* \"Day7_TrafficLight.sol\":659:1010  if (currentState == State.Green) {... */\n      jump(tag_41)\n    tag_35:\n        /* \"Day7_TrafficLight.sol\":868:880  State.Yellow */\n      0x02\n        /* \"Day7_TrafficLight.sol\":852:880  currentState == State.Yellow */\n      dup1\n      dup2\n      gt\n      iszero\n      tag_42\n      jumpi\n      tag_43\n      tag_21\n      jump\t// in\n    tag_43:\n    tag_42:\n        /* \"Day7_TrafficLight.sol\":852:864  currentState */\n      0x00\n      0x00\n      swap1\n      sload\n      swap1\n      0x0100\n      exp\n      swap1\n      div\n      0xff\n      and\n        /* \"Day7_TrafficLight.sol\":852:880  currentState == State.Yellow */\n      0x02\n      dup2\n      gt\n      iszero\n      tag_44\n      jumpi\n      tag_45\n      tag_21\n      jump\t// in\n    tag_45:\n    tag_44:\n      sub\n        /* \"Day7_TrafficLight.sol\":848:1010  if (currentState == State.Yellow ) {... */\n      tag_46\n      jumpi\n        /* \"Day7_TrafficLight.sol\":921:923  10 */\n      0x0a\n        /* \"Day7_TrafficLight.sol\":906:917  timeElapsed */\n      dup2\n        /* \"Day7_TrafficLight.sol\":906:923  timeElapsed >= 10 */\n      lt\n      iszero\n        /* \"Day7_TrafficLight.sol\":898:957  require(timeElapsed >= 10, \"Yellow light: Wait more time!\") */\n      tag_47\n      jumpi\n      mload(0x40)\n      0x08c379a000000000000000000000000000000000000000000000000000000000\n      dup2\n      mstore\n      0x04\n      add\n      tag_48\n      swap1\n      tag_49\n      jump\t// in\n    tag_48:\n      mload(0x40)\n      dup1\n      swap2\n      sub\n      swap1\n      revert\n    tag_47:\n        /* \"Day7_TrafficLight.sol\":987:996  State.Red */\n      0x00\n        /* \"Day7_TrafficLight.sol\":972:984  currentState */\n      0x00\n      0x00\n        /* \"Day7_TrafficLight.sol\":972:996  currentState = State.Red */\n      0x0100\n      exp\n      dup2\n      sload\n      dup2\n      0xff\n      mul\n      not\n      and\n      swap1\n      dup4\n      0x02\n      dup2\n      gt\n      iszero\n      tag_50\n      jumpi\n      tag_51\n      tag_21\n      jump\t// in\n    tag_51:\n    tag_50:\n      mul\n      or\n      swap1\n      sstore\n      pop\n        /* \"Day7_TrafficLight.sol\":848:1010  if (currentState == State.Yellow ) {... */\n    tag_46:\n        /* \"Day7_TrafficLight.sol\":659:1010  if (currentState == State.Green) {... */\n    tag_41:\n        /* \"Day7_TrafficLight.sol\":473:1010  if (currentState == State.Red ) {... */\n    tag_30:\n        /* \"Day7_TrafficLight.sol\":1049:1064  block.timestamp */\n      timestamp\n        /* \"Day7_TrafficLight.sol\":1032:1046  lastChangeTime */\n      0x01\n        /* \"Day7_TrafficLight.sol\":1032:1064  lastChangeTime = block.timestamp */\n      dup2\n      swap1\n      sstore\n      pop\n        /* \"Day7_TrafficLight.sol\":397:1070  {... */\n      pop\n        /* \"Day7_TrafficLight.sol\":369:1070  function nextState() public {... */\n      jump\t// out\n        /* \"Day7_TrafficLight.sol\":160:189  uint256 public lastChangeTime */\n    tag_13:\n      sload(0x01)\n      dup2\n      jump\t// out\n        /* \"#utility.yul\":7:187   */\n    tag_21:\n        /* \"#utility.yul\":55:132   */\n      0x4e487b7100000000000000000000000000000000000000000000000000000000\n        /* \"#utility.yul\":52:53   */\n      0x00\n        /* \"#utility.yul\":45:133   */\n      mstore\n        /* \"#utility.yul\":152:156   */\n      0x21\n        /* \"#utility.yul\":149:150   */\n      0x04\n        /* \"#utility.yul\":142:157   */\n      mstore\n        /* \"#utility.yul\":176:180   */\n      0x24\n        /* \"#utility.yul\":173:174   */\n      0x00\n        /* \"#utility.yul\":166:181   */\n      revert\n        /* \"#utility.yul\":193:305   */\n    tag_52:\n        /* \"#utility.yul\":273:274   */\n      0x03\n        /* \"#utility.yul\":266:271   */\n      dup2\n        /* \"#utility.yul\":263:275   */\n      lt\n        /* \"#utility.yul\":253:299   */\n      tag_69\n      jumpi\n        /* \"#utility.yul\":279:297   */\n      tag_70\n      tag_21\n      jump\t// in\n    tag_70:\n        /* \"#utility.yul\":253:299   */\n    tag_69:\n        /* \"#utility.yul\":193:305   */\n      pop\n      jump\t// out\n        /* \"#utility.yul\":311:436   */\n    tag_53:\n        /* \"#utility.yul\":355:362   */\n      0x00\n        /* \"#utility.yul\":384:389   */\n      dup2\n        /* \"#utility.yul\":373:389   */\n      swap1\n      pop\n        /* \"#utility.yul\":390:430   */\n      tag_72\n        /* \"#utility.yul\":424:429   */\n      dup3\n        /* \"#utility.yul\":390:430   */\n      tag_52\n      jump\t// in\n    tag_72:\n        /* \"#utility.yul\":311:436   */\n      swap2\n      swap1\n      pop\n      jump\t// out\n        /* \"#utility.yul\":442:567   */\n    tag_54:\n        /* \"#utility.yul\":497:506   */\n      0x00\n        /* \"#utility.yul\":530:561   */\n      tag_74\n        /* \"#utility.yul\":555:560   */\n      dup3\n        /* \"#utility.yul\":530:561   */\n      tag_53\n      jump\t// in\n    tag_74:\n        /* \"#utility.yul\":517:561   */\n      swap1\n      pop\n        /* \"#utility.yul\":442:567   */\n      swap2\n      swap1\n      pop\n      jump\t// out\n        /* \"#utility.yul\":573:714   */\n    tag_55:\n        /* \"#utility.yul\":665:707   */\n      tag_76\n        /* \"#utility.yul\":701:706   */\n      dup2\n        /* \"#utility.yul\":665:707   */\n      tag_54\n      jump\t// in\n    tag_76:\n        /* \"#utility.yul\":660:663   */\n      dup3\n        /* \"#utility.yul\":653:708   */\n      mstore\n        /* \"#utility.yul\":573:714   */\n      pop\n      pop\n      jump\t// out\n        /* \"#utility.yul\":720:952   */\n    tag_9:\n        /* \"#utility.yul\":818:822   */\n      0x00\n        /* \"#utility.yul\":856:858   */\n      0x20\n        /* \"#utility.yul\":845:854   */\n      dup3\n        /* \"#utility.yul\":841:859   */\n      add\n        /* \"#utility.yul\":833:859   */\n      swap1\n      pop\n        /* \"#utility.yul\":869:945   */\n      tag_78\n        /* \"#utility.yul\":942:943   */\n      0x00\n        /* \"#utility.yul\":931:940   */\n      dup4\n        /* \"#utility.yul\":927:944   */\n      add\n        /* \"#utility.yul\":918:924   */\n      dup5\n        /* \"#utility.yul\":869:945   */\n      tag_55\n      jump\t// in\n    tag_78:\n        /* \"#utility.yul\":720:952   */\n      swap3\n      swap2\n      pop\n      pop\n      jump\t// out\n        /* \"#utility.yul\":958:1035   */\n    tag_56:\n        /* \"#utility.yul\":995:1002   */\n      0x00\n        /* \"#utility.yul\":1024:1029   */\n      dup2\n        /* \"#utility.yul\":1013:1029   */\n      swap1\n      pop\n        /* \"#utility.yul\":958:1035   */\n      swap2\n      swap1\n      pop\n      jump\t// out\n        /* \"#utility.yul\":1041:1159   */\n    tag_57:\n        /* \"#utility.yul\":1128:1152   */\n      tag_81\n        /* \"#utility.yul\":1146:1151   */\n      dup2\n        /* \"#utility.yul\":1128:1152   */\n      tag_56\n      jump\t// in\n    tag_81:\n        /* \"#utility.yul\":1123:1126   */\n      dup3\n        /* \"#utility.yul\":1116:1153   */\n      mstore\n        /* \"#utility.yul\":1041:1159   */\n      pop\n      pop\n      jump\t// out\n        /* \"#utility.yul\":1165:1387   */\n    tag_15:\n        /* \"#utility.yul\":1258:1262   */\n      0x00\n        /* \"#utility.yul\":1296:1298   */\n      0x20\n        /* \"#utility.yul\":1285:1294   */\n      dup3\n        /* \"#utility.yul\":1281:1299   */\n      add\n        /* \"#utility.yul\":1273:1299   */\n      swap1\n      pop\n        /* \"#utility.yul\":1309:1380   */\n      tag_83\n        /* \"#utility.yul\":1377:1378   */\n      0x00\n        /* \"#utility.yul\":1366:1375   */\n      dup4\n        /* \"#utility.yul\":1362:1379   */\n      add\n        /* \"#utility.yul\":1353:1359   */\n      dup5\n        /* \"#utility.yul\":1309:1380   */\n      tag_57\n      jump\t// in\n    tag_83:\n        /* \"#utility.yul\":1165:1387   */\n      swap3\n      swap2\n      pop\n      pop\n      jump\t// out\n        /* \"#utility.yul\":1393:1573   */\n    tag_58:\n        /* \"#utility.yul\":1441:1518   */\n      0x4e487b7100000000000000000000000000000000000000000000000000000000\n        /* \"#utility.yul\":1438:1439   */\n      0x00\n        /* \"#utility.yul\":1431:1519   */\n      mstore\n        /* \"#utility.yul\":1538:1542   */\n      0x11\n        /* \"#utility.yul\":1535:1536   */\n      0x04\n        /* \"#utility.yul\":1528:1543   */\n      mstore\n        /* \"#utility.yul\":1562:1566   */\n      0x24\n        /* \"#utility.yul\":1559:1560   */\n      0x00\n        /* \"#utility.yul\":1552:1567   */\n      revert\n        /* \"#utility.yul\":1579:1773   */\n    tag_18:\n        /* \"#utility.yul\":1619:1623   */\n      0x00\n        /* \"#utility.yul\":1639:1659   */\n      tag_86\n        /* \"#utility.yul\":1657:1658   */\n      dup3\n        /* \"#utility.yul\":1639:1659   */\n      tag_56\n      jump\t// in\n    tag_86:\n        /* \"#utility.yul\":1634:1659   */\n      swap2\n      pop\n        /* \"#utility.yul\":1673:1693   */\n      tag_87\n        /* \"#utility.yul\":1691:1692   */\n      dup4\n        /* \"#utility.yul\":1673:1693   */\n      tag_56\n      jump\t// in\n    tag_87:\n        /* \"#utility.yul\":1668:1693   */\n      swap3\n      pop\n        /* \"#utility.yul\":1717:1718   */\n      dup3\n        /* \"#utility.yul\":1714:1715   */\n      dup3\n        /* \"#utility.yul\":1710:1719   */\n      sub\n        /* \"#utility.yul\":1702:1719   */\n      swap1\n      pop\n        /* \"#utility.yul\":1741:1742   */\n      dup2\n        /* \"#utility.yul\":1735:1739   */\n      dup2\n        /* \"#utility.yul\":1732:1743   */\n      gt\n        /* \"#utility.yul\":1729:1766   */\n      iszero\n      tag_88\n      jumpi\n        /* \"#utility.yul\":1746:1764   */\n      tag_89\n      tag_58\n      jump\t// in\n    tag_89:\n        /* \"#utility.yul\":1729:1766   */\n    tag_88:\n        /* \"#utility.yul\":1579:1773   */\n      swap3\n      swap2\n      pop\n      pop\n      jump\t// out\n        /* \"#utility.yul\":1779:1948   */\n    tag_59:\n        /* \"#utility.yul\":1863:1874   */\n      0x00\n        /* \"#utility.yul\":1897:1903   */\n      dup3\n        /* \"#utility.yul\":1892:1895   */\n      dup3\n        /* \"#utility.yul\":1885:1904   */\n      mstore\n        /* \"#utility.yul\":1937:1941   */\n      0x20\n        /* \"#utility.yul\":1932:1935   */\n      dup3\n        /* \"#utility.yul\":1928:1942   */\n      add\n        /* \"#utility.yul\":1913:1942   */\n      swap1\n      pop\n        /* \"#utility.yul\":1779:1948   */\n      swap3\n      swap2\n      pop\n      pop\n      jump\t// out\n        /* \"#utility.yul\":1954:2130   */\n    tag_60:\n        /* \"#utility.yul\":2094:2122   */\n      0x526564206c696768743a2057616974206d6f72652074696d6521000000000000\n        /* \"#utility.yul\":2090:2091   */\n      0x00\n        /* \"#utility.yul\":2082:2088   */\n      dup3\n        /* \"#utility.yul\":2078:2092   */\n      add\n        /* \"#utility.yul\":2071:2123   */\n      mstore\n        /* \"#utility.yul\":1954:2130   */\n      pop\n      jump\t// out\n        /* \"#utility.yul\":2136:2502   */\n    tag_61:\n        /* \"#utility.yul\":2278:2281   */\n      0x00\n        /* \"#utility.yul\":2299:2366   */\n      tag_93\n        /* \"#utility.yul\":2363:2365   */\n      0x1a\n        /* \"#utility.yul\":2358:2361   */\n      dup4\n        /* \"#utility.yul\":2299:2366   */\n      tag_59\n      jump\t// in\n    tag_93:\n        /* \"#utility.yul\":2292:2366   */\n      swap2\n      pop\n        /* \"#utility.yul\":2375:2468   */\n      tag_94\n        /* \"#utility.yul\":2464:2467   */\n      dup3\n        /* \"#utility.yul\":2375:2468   */\n      tag_60\n      jump\t// in\n    tag_94:\n        /* \"#utility.yul\":2493:2495   */\n      0x20\n        /* \"#utility.yul\":2488:2491   */\n      dup3\n        /* \"#utility.yul\":2484:2496   */\n      add\n        /* \"#utility.yul\":2477:2496   */\n      swap1\n      pop\n        /* \"#utility.yul\":2136:2502   */\n      swap2\n      swap1\n      pop\n      jump\t// out\n        /* \"#utility.yul\":2508:2927   */\n    tag_27:\n        /* \"#utility.yul\":2674:2678   */\n      0x00\n        /* \"#utility.yul\":2712:2714   */\n      0x20\n        /* \"#utility.yul\":2701:2710   */\n      dup3\n        /* \"#utility.yul\":2697:2715   */\n      add\n        /* \"#utility.yul\":2689:2715   */\n      swap1\n      pop\n        /* \"#utility.yul\":2761:2770   */\n      dup2\n        /* \"#utility.yul\":2755:2759   */\n      dup2\n        /* \"#utility.yul\":2751:2771   */\n      sub\n        /* \"#utility.yul\":2747:2748   */\n      0x00\n        /* \"#utility.yul\":2736:2745   */\n      dup4\n        /* \"#utility.yul\":2732:2749   */\n      add\n        /* \"#utility.yul\":2725:2772   */\n      mstore\n        /* \"#utility.yul\":2789:2920   */\n      tag_96\n        /* \"#utility.yul\":2915:2919   */\n      dup2\n        /* \"#utility.yul\":2789:2920   */\n      tag_61\n      jump\t// in\n    tag_96:\n        /* \"#utility.yul\":2781:2920   */\n      swap1\n      pop\n        /* \"#utility.yul\":2508:2927   */\n      swap2\n      swap1\n      pop\n      jump\t// out\n        /* \"#utility.yul\":2933:3111   */\n    tag_62:\n        /* \"#utility.yul\":3073:3103   */\n      0x477265656e206c696768743a2057616974206d6f72652074696d652100000000\n        /* \"#utility.yul\":3069:3070   */\n      0x00\n        /* \"#utility.yul\":3061:3067   */\n      dup3\n        /* \"#utility.yul\":3057:3071   */\n      add\n        /* \"#utility.yul\":3050:3104   */\n      mstore\n        /* \"#utility.yul\":2933:3111   */\n      pop\n      jump\t// out\n        /* \"#utility.yul\":3117:3483   */\n    tag_63:\n        /* \"#utility.yul\":3259:3262   */\n      0x00\n        /* \"#utility.yul\":3280:3347   */\n      tag_99\n        /* \"#utility.yul\":3344:3346   */\n      0x1c\n        /* \"#utility.yul\":3339:3342   */\n      dup4\n        /* \"#utility.yul\":3280:3347   */\n      tag_59\n      jump\t// in\n    tag_99:\n        /* \"#utility.yul\":3273:3347   */\n      swap2\n      pop\n        /* \"#utility.yul\":3356:3449   */\n      tag_100\n        /* \"#utility.yul\":3445:3448   */\n      dup3\n        /* \"#utility.yul\":3356:3449   */\n      tag_62\n      jump\t// in\n    tag_100:\n        /* \"#utility.yul\":3474:3476   */\n      0x20\n        /* \"#utility.yul\":3469:3472   */\n      dup3\n        /* \"#utility.yul\":3465:3477   */\n      add\n        /* \"#utility.yul\":3458:3477   */\n      swap1\n      pop\n        /* \"#utility.yul\":3117:3483   */\n      swap2\n      swap1\n      pop\n      jump\t// out\n        /* \"#utility.yul\":3489:3908   */\n    tag_38:\n        /* \"#utility.yul\":3655:3659   */\n      0x00\n        /* \"#utility.yul\":3693:3695   */\n      0x20\n        /* \"#utility.yul\":3682:3691   */\n      dup3\n        /* \"#utility.yul\":3678:3696   */\n      add\n        /* \"#utility.yul\":3670:3696   */\n      swap1\n      pop\n        /* \"#utility.yul\":3742:3751   */\n      dup2\n        /* \"#utility.yul\":3736:3740   */\n      dup2\n        /* \"#utility.yul\":3732:3752   */\n      sub\n        /* \"#utility.yul\":3728:3729   */\n      0x00\n        /* \"#utility.yul\":3717:3726   */\n      dup4\n        /* \"#utility.yul\":3713:3730   */\n      add\n        /* \"#utility.yul\":3706:3753   */\n      mstore\n        /* \"#utility.yul\":3770:3901   */\n      tag_102\n        /* \"#utility.yul\":3896:3900   */\n      dup2\n        /* \"#utility.yul\":3770:3901   */\n      tag_63\n      jump\t// in\n    tag_102:\n        /* \"#utility.yul\":3762:3901   */\n      swap1\n      pop\n        /* \"#utility.yul\":3489:3908   */\n      swap2\n      swap1\n      pop\n      jump\t// out\n        /* \"#utility.yul\":3914:4093   */\n    tag_64:\n        /* \"#utility.yul\":4054:4085   */\n      0x59656c6c6f77206c696768743a2057616974206d6f72652074696d6521000000\n        /* \"#utility.yul\":4050:4051   */\n      0x00\n        /* \"#utility.yul\":4042:4048   */\n      dup3\n        /* \"#utility.yul\":4038:4052   */\n      add\n        /* \"#utility.yul\":4031:4086   */\n      mstore\n        /* \"#utility.yul\":3914:4093   */\n      pop\n      jump\t// out\n        /* \"#utility.yul\":4099:4465   */\n    tag_65:\n        /* \"#utility.yul\":4241:4244   */\n      0x00\n        /* \"#utility.yul\":4262:4329   */\n      tag_105\n        /* \"#utility.yul\":4326:4328   */\n      0x1d\n        /* \"#utility.yul\":4321:4324   */\n      dup4\n        /* \"#utility.yul\":4262:4329   */\n      tag_59\n      jump\t// in\n    tag_105:\n        /* \"#utility.yul\":4255:4329   */\n      swap2\n      pop\n        /* \"#utility.yul\":4338:4431   */\n      tag_106\n        /* \"#utility.yul\":4427:4430   */\n      dup3\n        /* \"#utility.yul\":4338:4431   */\n      tag_64\n      jump\t// in\n    tag_106:\n        /* \"#utility.yul\":4456:4458   */\n      0x20\n        /* \"#utility.yul\":4451:4454   */\n      dup3\n        /* \"#utility.yul\":4447:4459   */\n      add\n        /* \"#utility.yul\":4440:4459   */\n      swap1\n      pop\n        /* \"#utility.yul\":4099:4465   */\n      swap2\n      swap1\n      pop\n      jump\t// out\n        /* \"#utility.yul\":4471:4890   */\n    tag_49:\n        /* \"#utility.yul\":4637:4641   */\n      0x00\n        /* \"#utility.yul\":4675:4677   */\n      0x20\n        /* \"#utility.yul\":4664:4673   */\n      dup3\n        /* \"#utility.yul\":4660:4678   */\n      add\n        /* \"#utility.yul\":4652:4678   */\n      swap1\n      pop\n        /* \"#utility.yul\":4724:4733   */\n      dup2\n        /* \"#utility.yul\":4718:4722   */\n      dup2\n        /* \"#utility.yul\":4714:4734   */\n      sub\n        /* \"#utility.yul\":4710:4711   */\n      0x00\n        /* \"#utility.yul\":4699:4708   */\n      dup4\n        /* \"#utility.yul\":4695:4712   */\n      add\n        /* \"#utility.yul\":4688:4735   */\n      mstore\n        /* \"#utility.yul\":4752:4883   */\n      tag_108\n        /* \"#utility.yul\":4878:4882   */\n      dup2\n        /* \"#utility.yul\":4752:4883   */\n      tag_65\n      jump\t// in\n    tag_108:\n        /* \"#utility.yul\":4744:4883   */\n      swap1\n      pop\n        /* \"#utility.yul\":4471:4890   */\n      swap2\n      swap1\n      pop\n      jump\t// out\n\n    auxdata: 0xa264697066735822122080b25c37193f773845103376fe92488908101ce3b5fcc1bd180477bd0f66b6cb64736f6c634300081f0033\n}\n",
				"bytecode": {
					"linkReferences": {},
					"object": "6080604052348015600e575f5ffd5b505f5f5f6101000a81548160ff02191690836002811115602f57602e603f565b5b021790555042600181905550606c565b7f4e487b71000000000000000000000000000000000000000000000000000000005f52602160045260245ffd5b610552806100795f395ff3fe608060405234801561000f575f5ffd5b506004361061003f575f3560e01c80630c3f6acf1461004357806314007c6d14610061578063ec40247f1461006b575b5f5ffd5b61004b610089565b604051610058919061032a565b60405180910390f35b61006961009a565b005b6100736102b1565b604051610080919061035b565b60405180910390f35b5f5f9054906101000a900460ff1681565b5f600154426100a991906103a1565b90505f60028111156100be576100bd6102b7565b5b5f5f9054906101000a900460ff1660028111156100de576100dd6102b7565b5b0361015557600a811015610127576040517f08c379a000000000000000000000000000000000000000000000000000000000815260040161011e9061042e565b60405180910390fd5b60015f5f6101000a81548160ff0219169083600281111561014b5761014a6102b7565b5b02179055506102a7565b60016002811115610169576101686102b7565b5b5f5f9054906101000a900460ff166002811115610189576101886102b7565b5b0361020057600a8110156101d2576040517f08c379a00000000000000000000000000000000000000000000000000000000081526004016101c990610496565b60405180910390fd5b60025f5f6101000a81548160ff021916908360028111156101f6576101f56102b7565b5b02179055506102a6565b600280811115610213576102126102b7565b5b5f5f9054906101000a900460ff166002811115610233576102326102b7565b5b036102a557600a81101561027c576040517f08c379a0000000000000000000000000000000000000000000000000000000008152600401610273906104fe565b60405180910390fd5b5f5f5f6101000a81548160ff0219169083600281111561029f5761029e6102b7565b5b02179055505b5b5b4260018190555050565b60015481565b7f4e487b71000000000000000000000000000000000000000000000000000000005f52602160045260245ffd5b600381106102f5576102f46102b7565b5b50565b5f819050610305826102e4565b919050565b5f610314826102f8565b9050919050565b6103248161030a565b82525050565b5f60208201905061033d5f83018461031b565b92915050565b5f819050919050565b61035581610343565b82525050565b5f60208201905061036e5f83018461034c565b92915050565b7f4e487b71000000000000000000000000000000000000000000000000000000005f52601160045260245ffd5b5f6103ab82610343565b91506103b683610343565b92508282039050818111156103ce576103cd610374565b5b92915050565b5f82825260208201905092915050565b7f526564206c696768743a2057616974206d6f72652074696d65210000000000005f82015250565b5f610418601a836103d4565b9150610423826103e4565b602082019050919050565b5f6020820190508181035f8301526104458161040c565b9050919050565b7f477265656e206c696768743a2057616974206d6f72652074696d6521000000005f82015250565b5f610480601c836103d4565b915061048b8261044c565b602082019050919050565b5f6020820190508181035f8301526104ad81610474565b9050919050565b7f59656c6c6f77206c696768743a2057616974206d6f72652074696d65210000005f82015250565b5f6104e8601d836103d4565b91506104f3826104b4565b602082019050919050565b5f6020820190508181035f830152610515816104dc565b905091905056fea264697066735822122080b25c37193f773845103376fe92488908101ce3b5fcc1bd180477bd0f66b6cb64736f6c634300081f0033",
					"opcodes": "PUSH1 0x80 PUSH1 0x40 MSTORE CALLVALUE DUP1 ISZERO PUSH1 0xE JUMPI PUSH0 PUSH0 REVERT JUMPDEST POP PUSH0 PUSH0 PUSH0 PUSH2 0x100 EXP DUP2 SLOAD DUP2 PUSH1 0xFF MUL NOT AND SWAP1 DUP4 PUSH1 0x2 DUP2 GT ISZERO PUSH1 0x2F JUMPI PUSH1 0x2E PUSH1 0x3F JUMP JUMPDEST JUMPDEST MUL OR SWAP1 SSTORE POP TIMESTAMP PUSH1 0x1 DUP2 SWAP1 SSTORE POP PUSH1 0x6C JUMP JUMPDEST PUSH32 0x4E487B7100000000000000000000000000000000000000000000000000000000 PUSH0 MSTORE PUSH1 0x21 PUSH1 0x4 MSTORE PUSH1 0x24 PUSH0 REVERT JUMPDEST PUSH2 0x552 DUP1 PUSH2 0x79 PUSH0 CODECOPY PUSH0 RETURN INVALID PUSH1 0x80 PUSH1 0x40 MSTORE CALLVALUE DUP1 ISZERO PUSH2 0xF JUMPI PUSH0 PUSH0 REVERT JUMPDEST POP PUSH1 0x4 CALLDATASIZE LT PUSH2 0x3F JUMPI PUSH0 CALLDATALOAD PUSH1 0xE0 SHR DUP1 PUSH4 0xC3F6ACF EQ PUSH2 0x43 JUMPI DUP1 PUSH4 0x14007C6D EQ PUSH2 0x61 JUMPI DUP1 PUSH4 0xEC40247F EQ PUSH2 0x6B JUMPI JUMPDEST PUSH0 PUSH0 REVERT JUMPDEST PUSH2 0x4B PUSH2 0x89 JUMP JUMPDEST PUSH1 0x40 MLOAD PUSH2 0x58 SWAP2 SWAP1 PUSH2 0x32A JUMP JUMPDEST PUSH1 0x40 MLOAD DUP1 SWAP2 SUB SWAP1 RETURN JUMPDEST PUSH2 0x69 PUSH2 0x9A JUMP JUMPDEST STOP JUMPDEST PUSH2 0x73 PUSH2 0x2B1 JUMP JUMPDEST PUSH1 0x40 MLOAD PUSH2 0x80 SWAP2 SWAP1 PUSH2 0x35B JUMP JUMPDEST PUSH1 0x40 MLOAD DUP1 SWAP2 SUB SWAP1 RETURN JUMPDEST PUSH0 PUSH0 SWAP1 SLOAD SWAP1 PUSH2 0x100 EXP SWAP1 DIV PUSH1 0xFF AND DUP2 JUMP JUMPDEST PUSH0 PUSH1 0x1 SLOAD TIMESTAMP PUSH2 0xA9 SWAP2 SWAP1 PUSH2 0x3A1 JUMP JUMPDEST SWAP1 POP PUSH0 PUSH1 0x2 DUP2 GT ISZERO PUSH2 0xBE JUMPI PUSH2 0xBD PUSH2 0x2B7 JUMP JUMPDEST JUMPDEST PUSH0 PUSH0 SWAP1 SLOAD SWAP1 PUSH2 0x100 EXP SWAP1 DIV PUSH1 0xFF AND PUSH1 0x2 DUP2 GT ISZERO PUSH2 0xDE JUMPI PUSH2 0xDD PUSH2 0x2B7 JUMP JUMPDEST JUMPDEST SUB PUSH2 0x155 JUMPI PUSH1 0xA DUP2 LT ISZERO PUSH2 0x127 JUMPI PUSH1 0x40 MLOAD PUSH32 0x8C379A000000000000000000000000000000000000000000000000000000000 DUP2 MSTORE PUSH1 0x4 ADD PUSH2 0x11E SWAP1 PUSH2 0x42E JUMP JUMPDEST PUSH1 0x40 MLOAD DUP1 SWAP2 SUB SWAP1 REVERT JUMPDEST PUSH1 0x1 PUSH0 PUSH0 PUSH2 0x100 EXP DUP2 SLOAD DUP2 PUSH1 0xFF MUL NOT AND SWAP1 DUP4 PUSH1 0x2 DUP2 GT ISZERO PUSH2 0x14B JUMPI PUSH2 0x14A PUSH2 0x2B7 JUMP JUMPDEST JUMPDEST MUL OR SWAP1 SSTORE POP PUSH2 0x2A7 JUMP JUMPDEST PUSH1 0x1 PUSH1 0x2 DUP2 GT ISZERO PUSH2 0x169 JUMPI PUSH2 0x168 PUSH2 0x2B7 JUMP JUMPDEST JUMPDEST PUSH0 PUSH0 SWAP1 SLOAD SWAP1 PUSH2 0x100 EXP SWAP1 DIV PUSH1 0xFF AND PUSH1 0x2 DUP2 GT ISZERO PUSH2 0x189 JUMPI PUSH2 0x188 PUSH2 0x2B7 JUMP JUMPDEST JUMPDEST SUB PUSH2 0x200 JUMPI PUSH1 0xA DUP2 LT ISZERO PUSH2 0x1D2 JUMPI PUSH1 0x40 MLOAD PUSH32 0x8C379A000000000000000000000000000000000000000000000000000000000 DUP2 MSTORE PUSH1 0x4 ADD PUSH2 0x1C9 SWAP1 PUSH2 0x496 JUMP JUMPDEST PUSH1 0x40 MLOAD DUP1 SWAP2 SUB SWAP1 REVERT JUMPDEST PUSH1 0x2 PUSH0 PUSH0 PUSH2 0x100 EXP DUP2 SLOAD DUP2 PUSH1 0xFF MUL NOT AND SWAP1 DUP4 PUSH1 0x2 DUP2 GT ISZERO PUSH2 0x1F6 JUMPI PUSH2 0x1F5 PUSH2 0x2B7 JUMP JUMPDEST JUMPDEST MUL OR SWAP1 SSTORE POP PUSH2 0x2A6 JUMP JUMPDEST PUSH1 0x2 DUP1 DUP2 GT ISZERO PUSH2 0x213 JUMPI PUSH2 0x212 PUSH2 0x2B7 JUMP JUMPDEST JUMPDEST PUSH0 PUSH0 SWAP1 SLOAD SWAP1 PUSH2 0x100 EXP SWAP1 DIV PUSH1 0xFF AND PUSH1 0x2 DUP2 GT ISZERO PUSH2 0x233 JUMPI PUSH2 0x232 PUSH2 0x2B7 JUMP JUMPDEST JUMPDEST SUB PUSH2 0x2A5 JUMPI PUSH1 0xA DUP2 LT ISZERO PUSH2 0x27C JUMPI PUSH1 0x40 MLOAD PUSH32 0x8C379A000000000000000000000000000000000000000000000000000000000 DUP2 MSTORE PUSH1 0x4 ADD PUSH2 0x273 SWAP1 PUSH2 0x4FE JUMP JUMPDEST PUSH1 0x40 MLOAD DUP1 SWAP2 SUB SWAP1 REVERT JUMPDEST PUSH0 PUSH0 PUSH0 PUSH2 0x100 EXP DUP2 SLOAD DUP2 PUSH1 0xFF MUL NOT AND SWAP1 DUP4 PUSH1 0x2 DUP2 GT ISZERO PUSH2 0x29F JUMPI PUSH2 0x29E PUSH2 0x2B7 JUMP JUMPDEST JUMPDEST MUL OR SWAP1 SSTORE POP JUMPDEST JUMPDEST JUMPDEST TIMESTAMP PUSH1 0x1 DUP2 SWAP1 SSTORE POP POP JUMP JUMPDEST PUSH1 0x1 SLOAD DUP2 JUMP JUMPDEST PUSH32 0x4E487B7100000000000000000000000000000000000000000000000000000000 PUSH0 MSTORE PUSH1 0x21 PUSH1 0x4 MSTORE PUSH1 0x24 PUSH0 REVERT JUMPDEST PUSH1 0x3 DUP2 LT PUSH2 0x2F5 JUMPI PUSH2 0x2F4 PUSH2 0x2B7 JUMP JUMPDEST JUMPDEST POP JUMP JUMPDEST PUSH0 DUP2 SWAP1 POP PUSH2 0x305 DUP3 PUSH2 0x2E4 JUMP JUMPDEST SWAP2 SWAP1 POP JUMP JUMPDEST PUSH0 PUSH2 0x314 DUP3 PUSH2 0x2F8 JUMP JUMPDEST SWAP1 POP SWAP2 SWAP1 POP JUMP JUMPDEST PUSH2 0x324 DUP2 PUSH2 0x30A JUMP JUMPDEST DUP3 MSTORE POP POP JUMP JUMPDEST PUSH0 PUSH1 0x20 DUP3 ADD SWAP1 POP PUSH2 0x33D PUSH0 DUP4 ADD DUP5 PUSH2 0x31B JUMP JUMPDEST SWAP3 SWAP2 POP POP JUMP JUMPDEST PUSH0 DUP2 SWAP1 POP SWAP2 SWAP1 POP JUMP JUMPDEST PUSH2 0x355 DUP2 PUSH2 0x343 JUMP JUMPDEST DUP3 MSTORE POP POP JUMP JUMPDEST PUSH0 PUSH1 0x20 DUP3 ADD SWAP1 POP PUSH2 0x36E PUSH0 DUP4 ADD DUP5 PUSH2 0x34C JUMP JUMPDEST SWAP3 SWAP2 POP POP JUMP JUMPDEST PUSH32 0x4E487B7100000000000000000000000000000000000000000000000000000000 PUSH0 MSTORE PUSH1 0x11 PUSH1 0x4 MSTORE PUSH1 0x24 PUSH0 REVERT JUMPDEST PUSH0 PUSH2 0x3AB DUP3 PUSH2 0x343 JUMP JUMPDEST SWAP2 POP PUSH2 0x3B6 DUP4 PUSH2 0x343 JUMP JUMPDEST SWAP3 POP DUP3 DUP3 SUB SWAP1 POP DUP2 DUP2 GT ISZERO PUSH2 0x3CE JUMPI PUSH2 0x3CD PUSH2 0x374 JUMP JUMPDEST JUMPDEST SWAP3 SWAP2 POP POP JUMP JUMPDEST PUSH0 DUP3 DUP3 MSTORE PUSH1 0x20 DUP3 ADD SWAP1 POP SWAP3 SWAP2 POP POP JUMP JUMPDEST PUSH32 0x526564206C696768743A2057616974206D6F72652074696D6521000000000000 PUSH0 DUP3 ADD MSTORE POP JUMP JUMPDEST PUSH0 PUSH2 0x418 PUSH1 0x1A DUP4 PUSH2 0x3D4 JUMP JUMPDEST SWAP2 POP PUSH2 0x423 DUP3 PUSH2 0x3E4 JUMP JUMPDEST PUSH1 0x20 DUP3 ADD SWAP1 POP SWAP2 SWAP1 POP JUMP JUMPDEST PUSH0 PUSH1 0x20 DUP3 ADD SWAP1 POP DUP2 DUP2 SUB PUSH0 DUP4 ADD MSTORE PUSH2 0x445 DUP2 PUSH2 0x40C JUMP JUMPDEST SWAP1 POP SWAP2 SWAP1 POP JUMP JUMPDEST PUSH32 0x477265656E206C696768743A2057616974206D6F72652074696D652100000000 PUSH0 DUP3 ADD MSTORE POP JUMP JUMPDEST PUSH0 PUSH2 0x480 PUSH1 0x1C DUP4 PUSH2 0x3D4 JUMP JUMPDEST SWAP2 POP PUSH2 0x48B DUP3 PUSH2 0x44C JUMP JUMPDEST PUSH1 0x20 DUP3 ADD SWAP1 POP SWAP2 SWAP1 POP JUMP JUMPDEST PUSH0 PUSH1 0x20 DUP3 ADD SWAP1 POP DUP2 DUP2 SUB PUSH0 DUP4 ADD MSTORE PUSH2 0x4AD DUP2 PUSH2 0x474 JUMP JUMPDEST SWAP1 POP SWAP2 SWAP1 POP JUMP JUMPDEST PUSH32 0x59656C6C6F77206C696768743A2057616974206D6F72652074696D6521000000 PUSH0 DUP3 ADD MSTORE POP JUMP JUMPDEST PUSH0 PUSH2 0x4E8 PUSH1 0x1D DUP4 PUSH2 0x3D4 JUMP JUMPDEST SWAP2 POP PUSH2 0x4F3 DUP3 PUSH2 0x4B4 JUMP JUMPDEST PUSH1 0x20 DUP3 ADD SWAP1 POP SWAP2 SWAP1 POP JUMP JUMPDEST PUSH0 PUSH1 0x20 DUP3 ADD SWAP1 POP DUP2 DUP2 SUB PUSH0 DUP4 ADD MSTORE PUSH2 0x515 DUP2 PUSH2 0x4DC JUMP JUMPDEST SWAP1 POP SWAP2 SWAP1 POP JUMP INVALID LOG2 PUSH5 0x6970667358 0x22 SLT KECCAK256 DUP1 0xB2 TLOAD CALLDATACOPY NOT EXTCODEHASH PUSH24 0x3845103376FE92488908101CE3B5FCC1BD180477BD0F66B6 0xCB PUSH5 0x736F6C6343 STOP ADDMOD 0x1F STOP CALLER "
				},
				"gasEstimates": {
					"creation": {
						"codeDepositCost": "272400",
						"executionCost": "46719",
						"totalCost": "319119"
					},
					"external": {
						"currentState()": "2531",
						"lastChangeTime()": "2447",
						"nextState()": "infinite"
					}
				},
				"methodIdentifiers": {
					"currentState()": "0c3f6acf",
					"lastChangeTime()": "ec40247f",
					"nextState()": "14007c6d"
				}
			},
			"storageLayout": {
				"storage": [
					{
						"astId": 8,
						"contract": "Day7_TrafficLight.sol:TrafficLight",
						"label": "currentState",
						"offset": 0,
						"slot": "0",
						"type": "t_enum(State)5"
					},
					{
						"astId": 10,
						"contract": "Day7_TrafficLight.sol:TrafficLight",
						"label": "lastChangeTime",
						"offset": 0,
						"slot": "1",
						"type": "t_uint256"
					}
				],
				"types": {
					"t_enum(State)5": {
						"encoding": "inplace",
						"label": "enum TrafficLight.State",
						"numberOfBytes": "1"
					},
					"t_uint256": {
						"encoding": "inplace",
						"label": "uint256",
						"numberOfBytes": "32"
					}
				}
			},
			"userdoc": {
				"kind": "user",
				"methods": {},
				"version": 1
			}
		}
	}
}