{
	"Day_3.sensor.sol": {
		"SensorLogger": {
			"abi": [
				{
					"inputs": [
						{
							"internalType": "uint256",
							"name": "_deviceId",
							"type": "uint256"
						}
					],
					"name": "getTemperature",
					"outputs": [
						{
							"internalType": "uint16",
							"name": "",
							"type": "uint16"
						}
					],
					"stateMutability": "view",
					"type": "function"
				},
				{
					"inputs": [
						{
							"internalType": "uint256",
							"name": "",
							"type": "uint256"
						}
					],
					"name": "sensors",
					"outputs": [
						{
							"internalType": "uint8",
							"name": "id",
							"type": "uint8"
						},
						{
							"internalType": "uint16",
							"name": "temperature",
							"type": "uint16"
						},
						{
							"internalType": "uint32",
							"name": "timestamp",
							"type": "uint32"
						},
						{
							"internalType": "bool",
							"name": "isValid",
							"type": "bool"
						}
					],
					"stateMutability": "view",
					"type": "function"
				},
				{
					"inputs": [
						{
							"internalType": "uint256",
							"name": "_deviceId",
							"type": "uint256"
						},
						{
							"internalType": "uint16",
							"name": "_temp",
							"type": "uint16"
						}
					],
					"name": "updateData",
					"outputs": [],
					"stateMutability": "nonpayable",
					"type": "function"
				}
			],
			"devdoc": {
				"kind": "dev",
				"methods": {},
				"version": 1
			},
			"evm": {
				"assembly": "    /* \"Day_3.sensor.sol\":60:1918  contract SensorLogger {... */\n  mstore(0x40, 0x80)\n  callvalue\n  dup1\n  iszero\n  tag_1\n  jumpi\n  revert(0x00, 0x00)\ntag_1:\n  pop\n  dataSize(sub_0)\n  dup1\n  dataOffset(sub_0)\n  0x00\n  codecopy\n  0x00\n  return\nstop\n\nsub_0: assembly {\n        /* \"Day_3.sensor.sol\":60:1918  contract SensorLogger {... */\n      mstore(0x40, 0x80)\n      callvalue\n      dup1\n      iszero\n      tag_1\n      jumpi\n      revert(0x00, 0x00)\n    tag_1:\n      pop\n      jumpi(tag_2, lt(calldatasize, 0x04))\n      shr(0xe0, calldataload(0x00))\n      dup1\n      0x06c8fd88\n      eq\n      tag_3\n      jumpi\n      dup1\n      0x24e27d7e\n      eq\n      tag_4\n      jumpi\n      dup1\n      0x412f2e82\n      eq\n      tag_5\n      jumpi\n    tag_2:\n      revert(0x00, 0x00)\n        /* \"Day_3.sensor.sol\":805:1284  function updateData(uint256 _deviceId, uint16 _temp) public {... */\n    tag_3:\n      tag_6\n      0x04\n      dup1\n      calldatasize\n      sub\n      dup2\n      add\n      swap1\n      tag_7\n      swap2\n      swap1\n      tag_8\n      jump\t// in\n    tag_7:\n      tag_9\n      jump\t// in\n    tag_6:\n      stop\n        /* \"Day_3.sensor.sol\":1496:1915  function getTemperature(uint256 _deviceId) public view returns (uint16) {... */\n    tag_4:\n      tag_10\n      0x04\n      dup1\n      calldatasize\n      sub\n      dup2\n      add\n      swap1\n      tag_11\n      swap2\n      swap1\n      tag_12\n      jump\t// in\n    tag_11:\n      tag_13\n      jump\t// in\n    tag_10:\n      mload(0x40)\n      tag_14\n      swap2\n      swap1\n      tag_15\n      jump\t// in\n    tag_14:\n      mload(0x40)\n      dup1\n      swap2\n      sub\n      swap1\n      return\n        /* \"Day_3.sensor.sol\":705:750  mapping(uint256 => SensorData) public sensors */\n    tag_5:\n      tag_16\n      0x04\n      dup1\n      calldatasize\n      sub\n      dup2\n      add\n      swap1\n      tag_17\n      swap2\n      swap1\n      tag_12\n      jump\t// in\n    tag_17:\n      tag_18\n      jump\t// in\n    tag_16:\n      mload(0x40)\n      tag_19\n      swap5\n      swap4\n      swap3\n      swap2\n      swap1\n      tag_20\n      jump\t// in\n    tag_19:\n      mload(0x40)\n      dup1\n      swap2\n      sub\n      swap1\n      return\n        /* \"Day_3.sensor.sol\":805:1284  function updateData(uint256 _deviceId, uint16 _temp) public {... */\n    tag_9:\n        /* \"Day_3.sensor.sol\":938:939  0 */\n      0x00\n        /* \"Day_3.sensor.sol\":926:935  _deviceId */\n      dup3\n        /* \"Day_3.sensor.sol\":926:939  _deviceId > 0 */\n      gt\n        /* \"Day_3.sensor.sol\":918:961  require(_deviceId > 0, \"Invalid Device ID\") */\n      tag_22\n      jumpi\n      mload(0x40)\n      0x08c379a000000000000000000000000000000000000000000000000000000000\n      dup2\n      mstore\n      0x04\n      add\n      tag_23\n      swap1\n      tag_24\n      jump\t// in\n    tag_23:\n      mload(0x40)\n      dup1\n      swap2\n      sub\n      swap1\n      revert\n    tag_22:\n        /* \"Day_3.sensor.sol\":1108:1276  SensorData({... */\n      mload(0x40)\n      dup1\n      0x80\n      add\n      0x40\n      mstore\n      dup1\n        /* \"Day_3.sensor.sol\":1144:1153  _deviceId */\n      dup4\n        /* \"Day_3.sensor.sol\":1108:1276  SensorData({... */\n      0xff\n      and\n      dup2\n      mstore\n      0x20\n      add\n        /* \"Day_3.sensor.sol\":1182:1187  _temp */\n      dup3\n        /* \"Day_3.sensor.sol\":1108:1276  SensorData({... */\n      0xffff\n      and\n      dup2\n      mstore\n      0x20\n      add\n        /* \"Day_3.sensor.sol\":1220:1235  block.timestamp */\n      timestamp\n        /* \"Day_3.sensor.sol\":1108:1276  SensorData({... */\n      0xffffffff\n      and\n      dup2\n      mstore\n      0x20\n      add\n        /* \"Day_3.sensor.sol\":1260:1264  true */\n      0x01\n        /* \"Day_3.sensor.sol\":1108:1276  SensorData({... */\n      iszero\n      iszero\n      dup2\n      mstore\n      pop\n        /* \"Day_3.sensor.sol\":1087:1094  sensors */\n      0x00\n        /* \"Day_3.sensor.sol\":1087:1105  sensors[_deviceId] */\n      0x00\n        /* \"Day_3.sensor.sol\":1095:1104  _deviceId */\n      dup5\n        /* \"Day_3.sensor.sol\":1087:1105  sensors[_deviceId] */\n      dup2\n      mstore\n      0x20\n      add\n      swap1\n      dup2\n      mstore\n      0x20\n      add\n      0x00\n      keccak256\n        /* \"Day_3.sensor.sol\":1087:1276  sensors[_deviceId] = SensorData({... */\n      0x00\n      dup3\n      add\n      mload\n      dup2\n      0x00\n      add\n      exp(0x0100, 0x00)\n      dup2\n      sload\n      dup2\n      0xff\n      mul\n      not\n      and\n      swap1\n      dup4\n      0xff\n      and\n      mul\n      or\n      swap1\n      sstore\n      pop\n      0x20\n      dup3\n      add\n      mload\n      dup2\n      0x00\n      add\n      exp(0x0100, 0x01)\n      dup2\n      sload\n      dup2\n      0xffff\n      mul\n      not\n      and\n      swap1\n      dup4\n      0xffff\n      and\n      mul\n      or\n      swap1\n      sstore\n      pop\n      0x40\n      dup3\n      add\n      mload\n      dup2\n      0x00\n      add\n      exp(0x0100, 0x03)\n      dup2\n      sload\n      dup2\n      0xffffffff\n      mul\n      not\n      and\n      swap1\n      dup4\n      0xffffffff\n      and\n      mul\n      or\n      swap1\n      sstore\n      pop\n      0x60\n      dup3\n      add\n      mload\n      dup2\n      0x00\n      add\n      exp(0x0100, 0x07)\n      dup2\n      sload\n      dup2\n      0xff\n      mul\n      not\n      and\n      swap1\n      dup4\n      iszero\n      iszero\n      mul\n      or\n      swap1\n      sstore\n      pop\n      swap1\n      pop\n      pop\n        /* \"Day_3.sensor.sol\":805:1284  function updateData(uint256 _deviceId, uint16 _temp) public {... */\n      pop\n      pop\n      jump\t// out\n        /* \"Day_3.sensor.sol\":1496:1915  function getTemperature(uint256 _deviceId) public view returns (uint16) {... */\n    tag_13:\n        /* \"Day_3.sensor.sol\":1560:1566  uint16 */\n      0x00\n        /* \"Day_3.sensor.sol\":1632:1654  SensorData memory data */\n      0x00\n        /* \"Day_3.sensor.sol\":1657:1664  sensors */\n      0x00\n        /* \"Day_3.sensor.sol\":1657:1675  sensors[_deviceId] */\n      0x00\n        /* \"Day_3.sensor.sol\":1665:1674  _deviceId */\n      dup5\n        /* \"Day_3.sensor.sol\":1657:1675  sensors[_deviceId] */\n      dup2\n      mstore\n      0x20\n      add\n      swap1\n      dup2\n      mstore\n      0x20\n      add\n      0x00\n      keccak256\n        /* \"Day_3.sensor.sol\":1632:1675  SensorData memory data = sensors[_deviceId] */\n      mload(0x40)\n      dup1\n      0x80\n      add\n      0x40\n      mstore\n      swap1\n      dup2\n      0x00\n      dup3\n      add\n      0x00\n      swap1\n      sload\n      swap1\n      0x0100\n      exp\n      swap1\n      div\n      0xff\n      and\n      0xff\n      and\n      0xff\n      and\n      dup2\n      mstore\n      0x20\n      add\n      0x00\n      dup3\n      add\n      0x01\n      swap1\n      sload\n      swap1\n      0x0100\n      exp\n      swap1\n      div\n      0xffff\n      and\n      0xffff\n      and\n      0xffff\n      and\n      dup2\n      mstore\n      0x20\n      add\n      0x00\n      dup3\n      add\n      0x03\n      swap1\n      sload\n      swap1\n      0x0100\n      exp\n      swap1\n      div\n      0xffffffff\n      and\n      0xffffffff\n      and\n      0xffffffff\n      and\n      dup2\n      mstore\n      0x20\n      add\n      0x00\n      dup3\n      add\n      0x07\n      swap1\n      sload\n      swap1\n      0x0100\n      exp\n      swap1\n      div\n      0xff\n      and\n      iszero\n      iszero\n      iszero\n      iszero\n      dup2\n      mstore\n      pop\n      pop\n      swap1\n      pop\n        /* \"Day_3.sensor.sol\":1781:1785  data */\n      dup1\n        /* \"Day_3.sensor.sol\":1781:1793  data.isValid */\n      0x60\n      add\n      mload\n        /* \"Day_3.sensor.sol\":1777:1908  if (data.isValid) {... */\n      iszero\n      tag_26\n      jumpi\n        /* \"Day_3.sensor.sol\":1817:1821  data */\n      dup1\n        /* \"Day_3.sensor.sol\":1817:1833  data.temperature */\n      0x20\n      add\n      mload\n        /* \"Day_3.sensor.sol\":1810:1833  return data.temperature */\n      swap2\n      pop\n      pop\n      jump(tag_25)\n        /* \"Day_3.sensor.sol\":1777:1908  if (data.isValid) {... */\n    tag_26:\n        /* \"Day_3.sensor.sol\":1873:1874  0 */\n      0x00\n        /* \"Day_3.sensor.sol\":1866:1874  return 0 */\n      swap2\n      pop\n      pop\n        /* \"Day_3.sensor.sol\":1496:1915  function getTemperature(uint256 _deviceId) public view returns (uint16) {... */\n    tag_25:\n      swap2\n      swap1\n      pop\n      jump\t// out\n        /* \"Day_3.sensor.sol\":705:750  mapping(uint256 => SensorData) public sensors */\n    tag_18:\n      mstore(0x20, 0x00)\n      dup1\n      0x00\n      mstore\n      keccak256(0x00, 0x40)\n      0x00\n      swap2\n      pop\n      swap1\n      pop\n      dup1\n      0x00\n      add\n      0x00\n      swap1\n      sload\n      swap1\n      0x0100\n      exp\n      swap1\n      div\n      0xff\n      and\n      swap1\n      dup1\n      0x00\n      add\n      0x01\n      swap1\n      sload\n      swap1\n      0x0100\n      exp\n      swap1\n      div\n      0xffff\n      and\n      swap1\n      dup1\n      0x00\n      add\n      0x03\n      swap1\n      sload\n      swap1\n      0x0100\n      exp\n      swap1\n      div\n      0xffffffff\n      and\n      swap1\n      dup1\n      0x00\n      add\n      0x07\n      swap1\n      sload\n      swap1\n      0x0100\n      exp\n      swap1\n      div\n      0xff\n      and\n      swap1\n      pop\n      dup5\n      jump\t// out\n        /* \"#utility.yul\":88:205   */\n    tag_29:\n        /* \"#utility.yul\":197:198   */\n      0x00\n        /* \"#utility.yul\":194:195   */\n      0x00\n        /* \"#utility.yul\":187:199   */\n      revert\n        /* \"#utility.yul\":334:411   */\n    tag_31:\n        /* \"#utility.yul\":371:378   */\n      0x00\n        /* \"#utility.yul\":400:405   */\n      dup2\n        /* \"#utility.yul\":389:405   */\n      swap1\n      pop\n        /* \"#utility.yul\":334:411   */\n      swap2\n      swap1\n      pop\n      jump\t// out\n        /* \"#utility.yul\":417:539   */\n    tag_32:\n        /* \"#utility.yul\":490:514   */\n      tag_53\n        /* \"#utility.yul\":508:513   */\n      dup2\n        /* \"#utility.yul\":490:514   */\n      tag_31\n      jump\t// in\n    tag_53:\n        /* \"#utility.yul\":483:488   */\n      dup2\n        /* \"#utility.yul\":480:515   */\n      eq\n        /* \"#utility.yul\":470:533   */\n      tag_54\n      jumpi\n        /* \"#utility.yul\":529:530   */\n      0x00\n        /* \"#utility.yul\":526:527   */\n      0x00\n        /* \"#utility.yul\":519:531   */\n      revert\n        /* \"#utility.yul\":470:533   */\n    tag_54:\n        /* \"#utility.yul\":417:539   */\n      pop\n      jump\t// out\n        /* \"#utility.yul\":545:684   */\n    tag_33:\n        /* \"#utility.yul\":591:596   */\n      0x00\n        /* \"#utility.yul\":629:635   */\n      dup2\n        /* \"#utility.yul\":616:636   */\n      calldataload\n        /* \"#utility.yul\":607:636   */\n      swap1\n      pop\n        /* \"#utility.yul\":645:678   */\n      tag_56\n        /* \"#utility.yul\":672:677   */\n      dup2\n        /* \"#utility.yul\":645:678   */\n      tag_32\n      jump\t// in\n    tag_56:\n        /* \"#utility.yul\":545:684   */\n      swap3\n      swap2\n      pop\n      pop\n      jump\t// out\n        /* \"#utility.yul\":690:779   */\n    tag_34:\n        /* \"#utility.yul\":726:733   */\n      0x00\n        /* \"#utility.yul\":766:772   */\n      0xffff\n        /* \"#utility.yul\":759:764   */\n      dup3\n        /* \"#utility.yul\":755:773   */\n      and\n        /* \"#utility.yul\":744:773   */\n      swap1\n      pop\n        /* \"#utility.yul\":690:779   */\n      swap2\n      swap1\n      pop\n      jump\t// out\n        /* \"#utility.yul\":785:905   */\n    tag_35:\n        /* \"#utility.yul\":857:880   */\n      tag_59\n        /* \"#utility.yul\":874:879   */\n      dup2\n        /* \"#utility.yul\":857:880   */\n      tag_34\n      jump\t// in\n    tag_59:\n        /* \"#utility.yul\":850:855   */\n      dup2\n        /* \"#utility.yul\":847:881   */\n      eq\n        /* \"#utility.yul\":837:899   */\n      tag_60\n      jumpi\n        /* \"#utility.yul\":895:896   */\n      0x00\n        /* \"#utility.yul\":892:893   */\n      0x00\n        /* \"#utility.yul\":885:897   */\n      revert\n        /* \"#utility.yul\":837:899   */\n    tag_60:\n        /* \"#utility.yul\":785:905   */\n      pop\n      jump\t// out\n        /* \"#utility.yul\":911:1048   */\n    tag_36:\n        /* \"#utility.yul\":956:961   */\n      0x00\n        /* \"#utility.yul\":994:1000   */\n      dup2\n        /* \"#utility.yul\":981:1001   */\n      calldataload\n        /* \"#utility.yul\":972:1001   */\n      swap1\n      pop\n        /* \"#utility.yul\":1010:1042   */\n      tag_62\n        /* \"#utility.yul\":1036:1041   */\n      dup2\n        /* \"#utility.yul\":1010:1042   */\n      tag_35\n      jump\t// in\n    tag_62:\n        /* \"#utility.yul\":911:1048   */\n      swap3\n      swap2\n      pop\n      pop\n      jump\t// out\n        /* \"#utility.yul\":1054:1526   */\n    tag_8:\n        /* \"#utility.yul\":1121:1127   */\n      0x00\n        /* \"#utility.yul\":1129:1135   */\n      0x00\n        /* \"#utility.yul\":1178:1180   */\n      0x40\n        /* \"#utility.yul\":1166:1175   */\n      dup4\n        /* \"#utility.yul\":1157:1164   */\n      dup6\n        /* \"#utility.yul\":1153:1176   */\n      sub\n        /* \"#utility.yul\":1149:1181   */\n      slt\n        /* \"#utility.yul\":1146:1265   */\n      iszero\n      tag_64\n      jumpi\n        /* \"#utility.yul\":1184:1263   */\n      tag_65\n      tag_29\n      jump\t// in\n    tag_65:\n        /* \"#utility.yul\":1146:1265   */\n    tag_64:\n        /* \"#utility.yul\":1304:1305   */\n      0x00\n        /* \"#utility.yul\":1329:1382   */\n      tag_66\n        /* \"#utility.yul\":1374:1381   */\n      dup6\n        /* \"#utility.yul\":1365:1371   */\n      dup3\n        /* \"#utility.yul\":1354:1363   */\n      dup7\n        /* \"#utility.yul\":1350:1372   */\n      add\n        /* \"#utility.yul\":1329:1382   */\n      tag_33\n      jump\t// in\n    tag_66:\n        /* \"#utility.yul\":1319:1382   */\n      swap3\n      pop\n        /* \"#utility.yul\":1275:1392   */\n      pop\n        /* \"#utility.yul\":1431:1433   */\n      0x20\n        /* \"#utility.yul\":1457:1509   */\n      tag_67\n        /* \"#utility.yul\":1501:1508   */\n      dup6\n        /* \"#utility.yul\":1492:1498   */\n      dup3\n        /* \"#utility.yul\":1481:1490   */\n      dup7\n        /* \"#utility.yul\":1477:1499   */\n      add\n        /* \"#utility.yul\":1457:1509   */\n      tag_36\n      jump\t// in\n    tag_67:\n        /* \"#utility.yul\":1447:1509   */\n      swap2\n      pop\n        /* \"#utility.yul\":1402:1519   */\n      pop\n        /* \"#utility.yul\":1054:1526   */\n      swap3\n      pop\n      swap3\n      swap1\n      pop\n      jump\t// out\n        /* \"#utility.yul\":1532:1861   */\n    tag_12:\n        /* \"#utility.yul\":1591:1597   */\n      0x00\n        /* \"#utility.yul\":1640:1642   */\n      0x20\n        /* \"#utility.yul\":1628:1637   */\n      dup3\n        /* \"#utility.yul\":1619:1626   */\n      dup5\n        /* \"#utility.yul\":1615:1638   */\n      sub\n        /* \"#utility.yul\":1611:1643   */\n      slt\n        /* \"#utility.yul\":1608:1727   */\n      iszero\n      tag_69\n      jumpi\n        /* \"#utility.yul\":1646:1725   */\n      tag_70\n      tag_29\n      jump\t// in\n    tag_70:\n        /* \"#utility.yul\":1608:1727   */\n    tag_69:\n        /* \"#utility.yul\":1766:1767   */\n      0x00\n        /* \"#utility.yul\":1791:1844   */\n      tag_71\n        /* \"#utility.yul\":1836:1843   */\n      dup5\n        /* \"#utility.yul\":1827:1833   */\n      dup3\n        /* \"#utility.yul\":1816:1825   */\n      dup6\n        /* \"#utility.yul\":1812:1834   */\n      add\n        /* \"#utility.yul\":1791:1844   */\n      tag_33\n      jump\t// in\n    tag_71:\n        /* \"#utility.yul\":1781:1844   */\n      swap2\n      pop\n        /* \"#utility.yul\":1737:1854   */\n      pop\n        /* \"#utility.yul\":1532:1861   */\n      swap3\n      swap2\n      pop\n      pop\n      jump\t// out\n        /* \"#utility.yul\":1867:1982   */\n    tag_37:\n        /* \"#utility.yul\":1952:1975   */\n      tag_73\n        /* \"#utility.yul\":1969:1974   */\n      dup2\n        /* \"#utility.yul\":1952:1975   */\n      tag_34\n      jump\t// in\n    tag_73:\n        /* \"#utility.yul\":1947:1950   */\n      dup3\n        /* \"#utility.yul\":1940:1976   */\n      mstore\n        /* \"#utility.yul\":1867:1982   */\n      pop\n      pop\n      jump\t// out\n        /* \"#utility.yul\":1988:2206   */\n    tag_15:\n        /* \"#utility.yul\":2079:2083   */\n      0x00\n        /* \"#utility.yul\":2117:2119   */\n      0x20\n        /* \"#utility.yul\":2106:2115   */\n      dup3\n        /* \"#utility.yul\":2102:2120   */\n      add\n        /* \"#utility.yul\":2094:2120   */\n      swap1\n      pop\n        /* \"#utility.yul\":2130:2199   */\n      tag_75\n        /* \"#utility.yul\":2196:2197   */\n      0x00\n        /* \"#utility.yul\":2185:2194   */\n      dup4\n        /* \"#utility.yul\":2181:2198   */\n      add\n        /* \"#utility.yul\":2172:2178   */\n      dup5\n        /* \"#utility.yul\":2130:2199   */\n      tag_37\n      jump\t// in\n    tag_75:\n        /* \"#utility.yul\":1988:2206   */\n      swap3\n      swap2\n      pop\n      pop\n      jump\t// out\n        /* \"#utility.yul\":2212:2298   */\n    tag_38:\n        /* \"#utility.yul\":2247:2254   */\n      0x00\n        /* \"#utility.yul\":2287:2291   */\n      0xff\n        /* \"#utility.yul\":2280:2285   */\n      dup3\n        /* \"#utility.yul\":2276:2292   */\n      and\n        /* \"#utility.yul\":2265:2292   */\n      swap1\n      pop\n        /* \"#utility.yul\":2212:2298   */\n      swap2\n      swap1\n      pop\n      jump\t// out\n        /* \"#utility.yul\":2304:2416   */\n    tag_39:\n        /* \"#utility.yul\":2387:2409   */\n      tag_78\n        /* \"#utility.yul\":2403:2408   */\n      dup2\n        /* \"#utility.yul\":2387:2409   */\n      tag_38\n      jump\t// in\n    tag_78:\n        /* \"#utility.yul\":2382:2385   */\n      dup3\n        /* \"#utility.yul\":2375:2410   */\n      mstore\n        /* \"#utility.yul\":2304:2416   */\n      pop\n      pop\n      jump\t// out\n        /* \"#utility.yul\":2422:2515   */\n    tag_40:\n        /* \"#utility.yul\":2458:2465   */\n      0x00\n        /* \"#utility.yul\":2498:2508   */\n      0xffffffff\n        /* \"#utility.yul\":2491:2496   */\n      dup3\n        /* \"#utility.yul\":2487:2509   */\n      and\n        /* \"#utility.yul\":2476:2509   */\n      swap1\n      pop\n        /* \"#utility.yul\":2422:2515   */\n      swap2\n      swap1\n      pop\n      jump\t// out\n        /* \"#utility.yul\":2521:2636   */\n    tag_41:\n        /* \"#utility.yul\":2606:2629   */\n      tag_81\n        /* \"#utility.yul\":2623:2628   */\n      dup2\n        /* \"#utility.yul\":2606:2629   */\n      tag_40\n      jump\t// in\n    tag_81:\n        /* \"#utility.yul\":2601:2604   */\n      dup3\n        /* \"#utility.yul\":2594:2630   */\n      mstore\n        /* \"#utility.yul\":2521:2636   */\n      pop\n      pop\n      jump\t// out\n        /* \"#utility.yul\":2642:2732   */\n    tag_42:\n        /* \"#utility.yul\":2676:2683   */\n      0x00\n        /* \"#utility.yul\":2719:2724   */\n      dup2\n        /* \"#utility.yul\":2712:2725   */\n      iszero\n        /* \"#utility.yul\":2705:2726   */\n      iszero\n        /* \"#utility.yul\":2694:2726   */\n      swap1\n      pop\n        /* \"#utility.yul\":2642:2732   */\n      swap2\n      swap1\n      pop\n      jump\t// out\n        /* \"#utility.yul\":2738:2847   */\n    tag_43:\n        /* \"#utility.yul\":2819:2840   */\n      tag_84\n        /* \"#utility.yul\":2834:2839   */\n      dup2\n        /* \"#utility.yul\":2819:2840   */\n      tag_42\n      jump\t// in\n    tag_84:\n        /* \"#utility.yul\":2814:2817   */\n      dup3\n        /* \"#utility.yul\":2807:2841   */\n      mstore\n        /* \"#utility.yul\":2738:2847   */\n      pop\n      pop\n      jump\t// out\n        /* \"#utility.yul\":2853:3378   */\n    tag_20:\n        /* \"#utility.yul\":3016:3020   */\n      0x00\n        /* \"#utility.yul\":3054:3057   */\n      0x80\n        /* \"#utility.yul\":3043:3052   */\n      dup3\n        /* \"#utility.yul\":3039:3058   */\n      add\n        /* \"#utility.yul\":3031:3058   */\n      swap1\n      pop\n        /* \"#utility.yul\":3068:3135   */\n      tag_86\n        /* \"#utility.yul\":3132:3133   */\n      0x00\n        /* \"#utility.yul\":3121:3130   */\n      dup4\n        /* \"#utility.yul\":3117:3134   */\n      add\n        /* \"#utility.yul\":3108:3114   */\n      dup8\n        /* \"#utility.yul\":3068:3135   */\n      tag_39\n      jump\t// in\n    tag_86:\n        /* \"#utility.yul\":3145:3215   */\n      tag_87\n        /* \"#utility.yul\":3211:3213   */\n      0x20\n        /* \"#utility.yul\":3200:3209   */\n      dup4\n        /* \"#utility.yul\":3196:3214   */\n      add\n        /* \"#utility.yul\":3187:3193   */\n      dup7\n        /* \"#utility.yul\":3145:3215   */\n      tag_37\n      jump\t// in\n    tag_87:\n        /* \"#utility.yul\":3225:3295   */\n      tag_88\n        /* \"#utility.yul\":3291:3293   */\n      0x40\n        /* \"#utility.yul\":3280:3289   */\n      dup4\n        /* \"#utility.yul\":3276:3294   */\n      add\n        /* \"#utility.yul\":3267:3273   */\n      dup6\n        /* \"#utility.yul\":3225:3295   */\n      tag_41\n      jump\t// in\n    tag_88:\n        /* \"#utility.yul\":3305:3371   */\n      tag_89\n        /* \"#utility.yul\":3367:3369   */\n      0x60\n        /* \"#utility.yul\":3356:3365   */\n      dup4\n        /* \"#utility.yul\":3352:3370   */\n      add\n        /* \"#utility.yul\":3343:3349   */\n      dup5\n        /* \"#utility.yul\":3305:3371   */\n      tag_43\n      jump\t// in\n    tag_89:\n        /* \"#utility.yul\":2853:3378   */\n      swap6\n      swap5\n      pop\n      pop\n      pop\n      pop\n      pop\n      jump\t// out\n        /* \"#utility.yul\":3384:3553   */\n    tag_44:\n        /* \"#utility.yul\":3468:3479   */\n      0x00\n        /* \"#utility.yul\":3502:3508   */\n      dup3\n        /* \"#utility.yul\":3497:3500   */\n      dup3\n        /* \"#utility.yul\":3490:3509   */\n      mstore\n        /* \"#utility.yul\":3542:3546   */\n      0x20\n        /* \"#utility.yul\":3537:3540   */\n      dup3\n        /* \"#utility.yul\":3533:3547   */\n      add\n        /* \"#utility.yul\":3518:3547   */\n      swap1\n      pop\n        /* \"#utility.yul\":3384:3553   */\n      swap3\n      swap2\n      pop\n      pop\n      jump\t// out\n        /* \"#utility.yul\":3559:3726   */\n    tag_45:\n        /* \"#utility.yul\":3699:3718   */\n      0x496e76616c696420446576696365204944000000000000000000000000000000\n        /* \"#utility.yul\":3695:3696   */\n      0x00\n        /* \"#utility.yul\":3687:3693   */\n      dup3\n        /* \"#utility.yul\":3683:3697   */\n      add\n        /* \"#utility.yul\":3676:3719   */\n      mstore\n        /* \"#utility.yul\":3559:3726   */\n      pop\n      jump\t// out\n        /* \"#utility.yul\":3732:4098   */\n    tag_46:\n        /* \"#utility.yul\":3874:3877   */\n      0x00\n        /* \"#utility.yul\":3895:3962   */\n      tag_93\n        /* \"#utility.yul\":3959:3961   */\n      0x11\n        /* \"#utility.yul\":3954:3957   */\n      dup4\n        /* \"#utility.yul\":3895:3962   */\n      tag_44\n      jump\t// in\n    tag_93:\n        /* \"#utility.yul\":3888:3962   */\n      swap2\n      pop\n        /* \"#utility.yul\":3971:4064   */\n      tag_94\n        /* \"#utility.yul\":4060:4063   */\n      dup3\n        /* \"#utility.yul\":3971:4064   */\n      tag_45\n      jump\t// in\n    tag_94:\n        /* \"#utility.yul\":4089:4091   */\n      0x20\n        /* \"#utility.yul\":4084:4087   */\n      dup3\n        /* \"#utility.yul\":4080:4092   */\n      add\n        /* \"#utility.yul\":4073:4092   */\n      swap1\n      pop\n        /* \"#utility.yul\":3732:4098   */\n      swap2\n      swap1\n      pop\n      jump\t// out\n        /* \"#utility.yul\":4104:4523   */\n    tag_24:\n        /* \"#utility.yul\":4270:4274   */\n      0x00\n        /* \"#utility.yul\":4308:4310   */\n      0x20\n        /* \"#utility.yul\":4297:4306   */\n      dup3\n        /* \"#utility.yul\":4293:4311   */\n      add\n        /* \"#utility.yul\":4285:4311   */\n      swap1\n      pop\n        /* \"#utility.yul\":4357:4366   */\n      dup2\n        /* \"#utility.yul\":4351:4355   */\n      dup2\n        /* \"#utility.yul\":4347:4367   */\n      sub\n        /* \"#utility.yul\":4343:4344   */\n      0x00\n        /* \"#utility.yul\":4332:4341   */\n      dup4\n        /* \"#utility.yul\":4328:4345   */\n      add\n        /* \"#utility.yul\":4321:4368   */\n      mstore\n        /* \"#utility.yul\":4385:4516   */\n      tag_96\n        /* \"#utility.yul\":4511:4515   */\n      dup2\n        /* \"#utility.yul\":4385:4516   */\n      tag_46\n      jump\t// in\n    tag_96:\n        /* \"#utility.yul\":4377:4516   */\n      swap1\n      pop\n        /* \"#utility.yul\":4104:4523   */\n      swap2\n      swap1\n      pop\n      jump\t// out\n\n    auxdata: 0xa2646970667358221220b52664b029b264412535ea04b7b3e390e1d0df67a79e5db3b5371911a8c6c2f864736f6c634300081f0033\n}\n",
				"bytecode": {
					"linkReferences": {},
					"object": "6080604052348015600e575f5ffd5b5061052c8061001c5f395ff3fe608060405234801561000f575f5ffd5b506004361061003f575f3560e01c806306c8fd881461004357806324e27d7e1461005f578063412f2e821461008f575b5f5ffd5b61005d60048036038101906100589190610357565b6100c2565b005b61007960048036038101906100749190610395565b6101d1565b60405161008691906103cf565b60405180910390f35b6100a960048036038101906100a49190610395565b61028a565b6040516100b9949392919061043b565b60405180910390f35b5f8211610104576040517f08c379a00000000000000000000000000000000000000000000000000000000081526004016100fb906104d8565b60405180910390fd5b60405180608001604052808360ff1681526020018261ffff1681526020014263ffffffff168152602001600115158152505f5f8481526020019081526020015f205f820151815f015f6101000a81548160ff021916908360ff1602179055506020820151815f0160016101000a81548161ffff021916908361ffff1602179055506040820151815f0160036101000a81548163ffffffff021916908363ffffffff1602179055506060820151815f0160076101000a81548160ff0219169083151502179055509050505050565b5f5f5f5f8481526020019081526020015f206040518060800160405290815f82015f9054906101000a900460ff1660ff1660ff1681526020015f820160019054906101000a900461ffff1661ffff1661ffff1681526020015f820160039054906101000a900463ffffffff1663ffffffff1663ffffffff1681526020015f820160079054906101000a900460ff1615151515815250509050806060015115610280578060200151915050610285565b5f9150505b919050565b5f602052805f5260405f205f91509050805f015f9054906101000a900460ff1690805f0160019054906101000a900461ffff1690805f0160039054906101000a900463ffffffff1690805f0160079054906101000a900460ff16905084565b5f5ffd5b5f819050919050565b6102ff816102ed565b8114610309575f5ffd5b50565b5f8135905061031a816102f6565b92915050565b5f61ffff82169050919050565b61033681610320565b8114610340575f5ffd5b50565b5f813590506103518161032d565b92915050565b5f5f6040838503121561036d5761036c6102e9565b5b5f61037a8582860161030c565b925050602061038b85828601610343565b9150509250929050565b5f602082840312156103aa576103a96102e9565b5b5f6103b78482850161030c565b91505092915050565b6103c981610320565b82525050565b5f6020820190506103e25f8301846103c0565b92915050565b5f60ff82169050919050565b6103fd816103e8565b82525050565b5f63ffffffff82169050919050565b61041b81610403565b82525050565b5f8115159050919050565b61043581610421565b82525050565b5f60808201905061044e5f8301876103f4565b61045b60208301866103c0565b6104686040830185610412565b610475606083018461042c565b95945050505050565b5f82825260208201905092915050565b7f496e76616c6964204465766963652049440000000000000000000000000000005f82015250565b5f6104c260118361047e565b91506104cd8261048e565b602082019050919050565b5f6020820190508181035f8301526104ef816104b6565b905091905056fea2646970667358221220b52664b029b264412535ea04b7b3e390e1d0df67a79e5db3b5371911a8c6c2f864736f6c634300081f0033",
					"opcodes": "PUSH1 0x80 PUSH1 0x40 MSTORE CALLVALUE DUP1 ISZERO PUSH1 0xE JUMPI PUSH0 PUSH0 REVERT JUMPDEST POP PUSH2 0x52C DUP1 PUSH2 0x1C PUSH0 CODECOPY PUSH0 RETURN INVALID PUSH1 0x80 PUSH1 0x40 MSTORE CALLVALUE DUP1 ISZERO PUSH2 0xF JUMPI PUSH0 PUSH0 REVERT JUMPDEST POP PUSH1 0x4 CALLDATASIZE LT PUSH2 0x3F JUMPI PUSH0 CALLDATALOAD PUSH1 0xE0 SHR DUP1 PUSH4 0x6C8FD88 EQ PUSH2 0x43 JUMPI DUP1 PUSH4 0x24E27D7E EQ PUSH2 0x5F JUMPI DUP1 PUSH4 0x412F2E82 EQ PUSH2 0x8F JUMPI JUMPDEST PUSH0 PUSH0 REVERT JUMPDEST PUSH2 0x5D PUSH1 0x4 DUP1 CALLDATASIZE SUB DUP2 ADD SWAP1 PUSH2 0x58 SWAP2 SWAP1 PUSH2 0x357 JUMP JUMPDEST PUSH2 0xC2 JUMP JUMPDEST STOP JUMPDEST PUSH2 0x79 PUSH1 0x4 DUP1 CALLDATASIZE SUB DUP2 ADD SWAP1 PUSH2 0x74 SWAP2 SWAP1 PUSH2 0x395 JUMP JUMPDEST PUSH2 0x1D1 JUMP JUMPDEST PUSH1 0x40 MLOAD PUSH2 0x86 SWAP2 SWAP1 PUSH2 0x3CF JUMP JUMPDEST PUSH1 0x40 MLOAD DUP1 SWAP2 SUB SWAP1 RETURN JUMPDEST PUSH2 0xA9 PUSH1 0x4 DUP1 CALLDATASIZE SUB DUP2 ADD SWAP1 PUSH2 0xA4 SWAP2 SWAP1 PUSH2 0x395 JUMP JUMPDEST PUSH2 0x28A JUMP JUMPDEST PUSH1 0x40 MLOAD PUSH2 0xB9 SWAP5 SWAP4 SWAP3 SWAP2 SWAP1 PUSH2 0x43B JUMP JUMPDEST PUSH1 0x40 MLOAD DUP1 SWAP2 SUB SWAP1 RETURN JUMPDEST PUSH0 DUP3 GT PUSH2 0x104 JUMPI PUSH1 0x40 MLOAD PUSH32 0x8C379A000000000000000000000000000000000000000000000000000000000 DUP2 MSTORE PUSH1 0x4 ADD PUSH2 0xFB SWAP1 PUSH2 0x4D8 JUMP JUMPDEST PUSH1 0x40 MLOAD DUP1 SWAP2 SUB SWAP1 REVERT JUMPDEST PUSH1 0x40 MLOAD DUP1 PUSH1 0x80 ADD PUSH1 0x40 MSTORE DUP1 DUP4 PUSH1 0xFF AND DUP2 MSTORE PUSH1 0x20 ADD DUP3 PUSH2 0xFFFF AND DUP2 MSTORE PUSH1 0x20 ADD TIMESTAMP PUSH4 0xFFFFFFFF AND DUP2 MSTORE PUSH1 0x20 ADD PUSH1 0x1 ISZERO ISZERO DUP2 MSTORE POP PUSH0 PUSH0 DUP5 DUP2 MSTORE PUSH1 0x20 ADD SWAP1 DUP2 MSTORE PUSH1 0x20 ADD PUSH0 KECCAK256 PUSH0 DUP3 ADD MLOAD DUP2 PUSH0 ADD PUSH0 PUSH2 0x100 EXP DUP2 SLOAD DUP2 PUSH1 0xFF MUL NOT AND SWAP1 DUP4 PUSH1 0xFF AND MUL OR SWAP1 SSTORE POP PUSH1 0x20 DUP3 ADD MLOAD DUP2 PUSH0 ADD PUSH1 0x1 PUSH2 0x100 EXP DUP2 SLOAD DUP2 PUSH2 0xFFFF MUL NOT AND SWAP1 DUP4 PUSH2 0xFFFF AND MUL OR SWAP1 SSTORE POP PUSH1 0x40 DUP3 ADD MLOAD DUP2 PUSH0 ADD PUSH1 0x3 PUSH2 0x100 EXP DUP2 SLOAD DUP2 PUSH4 0xFFFFFFFF MUL NOT AND SWAP1 DUP4 PUSH4 0xFFFFFFFF AND MUL OR SWAP1 SSTORE POP PUSH1 0x60 DUP3 ADD MLOAD DUP2 PUSH0 ADD PUSH1 0x7 PUSH2 0x100 EXP DUP2 SLOAD DUP2 PUSH1 0xFF MUL NOT AND SWAP1 DUP4 ISZERO ISZERO MUL OR SWAP1 SSTORE POP SWAP1 POP POP POP POP JUMP JUMPDEST PUSH0 PUSH0 PUSH0 PUSH0 DUP5 DUP2 MSTORE PUSH1 0x20 ADD SWAP1 DUP2 MSTORE PUSH1 0x20 ADD PUSH0 KECCAK256 PUSH1 0x40 MLOAD DUP1 PUSH1 0x80 ADD PUSH1 0x40 MSTORE SWAP1 DUP2 PUSH0 DUP3 ADD PUSH0 SWAP1 SLOAD SWAP1 PUSH2 0x100 EXP SWAP1 DIV PUSH1 0xFF AND PUSH1 0xFF AND PUSH1 0xFF AND DUP2 MSTORE PUSH1 0x20 ADD PUSH0 DUP3 ADD PUSH1 0x1 SWAP1 SLOAD SWAP1 PUSH2 0x100 EXP SWAP1 DIV PUSH2 0xFFFF AND PUSH2 0xFFFF AND PUSH2 0xFFFF AND DUP2 MSTORE PUSH1 0x20 ADD PUSH0 DUP3 ADD PUSH1 0x3 SWAP1 SLOAD SWAP1 PUSH2 0x100 EXP SWAP1 DIV PUSH4 0xFFFFFFFF AND PUSH4 0xFFFFFFFF AND PUSH4 0xFFFFFFFF AND DUP2 MSTORE PUSH1 0x20 ADD PUSH0 DUP3 ADD PUSH1 0x7 SWAP1 SLOAD SWAP1 PUSH2 0x100 EXP SWAP1 DIV PUSH1 0xFF AND ISZERO ISZERO ISZERO ISZERO DUP2 MSTORE POP POP SWAP1 POP DUP1 PUSH1 0x60 ADD MLOAD ISZERO PUSH2 0x280 JUMPI DUP1 PUSH1 0x20 ADD MLOAD SWAP2 POP POP PUSH2 0x285 JUMP JUMPDEST PUSH0 SWAP2 POP POP JUMPDEST SWAP2 SWAP1 POP JUMP JUMPDEST PUSH0 PUSH1 0x20 MSTORE DUP1 PUSH0 MSTORE PUSH1 0x40 PUSH0 KECCAK256 PUSH0 SWAP2 POP SWAP1 POP DUP1 PUSH0 ADD PUSH0 SWAP1 SLOAD SWAP1 PUSH2 0x100 EXP SWAP1 DIV PUSH1 0xFF AND SWAP1 DUP1 PUSH0 ADD PUSH1 0x1 SWAP1 SLOAD SWAP1 PUSH2 0x100 EXP SWAP1 DIV PUSH2 0xFFFF AND SWAP1 DUP1 PUSH0 ADD PUSH1 0x3 SWAP1 SLOAD SWAP1 PUSH2 0x100 EXP SWAP1 DIV PUSH4 0xFFFFFFFF AND SWAP1 DUP1 PUSH0 ADD PUSH1 0x7 SWAP1 SLOAD SWAP1 PUSH2 0x100 EXP SWAP1 DIV PUSH1 0xFF AND SWAP1 POP DUP5 JUMP JUMPDEST PUSH0 PUSH0 REVERT JUMPDEST PUSH0 DUP2 SWAP1 POP SWAP2 SWAP1 POP JUMP JUMPDEST PUSH2 0x2FF DUP2 PUSH2 0x2ED JUMP JUMPDEST DUP2 EQ PUSH2 0x309 JUMPI PUSH0 PUSH0 REVERT JUMPDEST POP JUMP JUMPDEST PUSH0 DUP2 CALLDATALOAD SWAP1 POP PUSH2 0x31A DUP2 PUSH2 0x2F6 JUMP JUMPDEST SWAP3 SWAP2 POP POP JUMP JUMPDEST PUSH0 PUSH2 0xFFFF DUP3 AND SWAP1 POP SWAP2 SWAP1 POP JUMP JUMPDEST PUSH2 0x336 DUP2 PUSH2 0x320 JUMP JUMPDEST DUP2 EQ PUSH2 0x340 JUMPI PUSH0 PUSH0 REVERT JUMPDEST POP JUMP JUMPDEST PUSH0 DUP2 CALLDATALOAD SWAP1 POP PUSH2 0x351 DUP2 PUSH2 0x32D JUMP JUMPDEST SWAP3 SWAP2 POP POP JUMP JUMPDEST PUSH0 PUSH0 PUSH1 0x40 DUP4 DUP6 SUB SLT ISZERO PUSH2 0x36D JUMPI PUSH2 0x36C PUSH2 0x2E9 JUMP JUMPDEST JUMPDEST PUSH0 PUSH2 0x37A DUP6 DUP3 DUP7 ADD PUSH2 0x30C JUMP JUMPDEST SWAP3 POP POP PUSH1 0x20 PUSH2 0x38B DUP6 DUP3 DUP7 ADD PUSH2 0x343 JUMP JUMPDEST SWAP2 POP POP SWAP3 POP SWAP3 SWAP1 POP JUMP JUMPDEST PUSH0 PUSH1 0x20 DUP3 DUP5 SUB SLT ISZERO PUSH2 0x3AA JUMPI PUSH2 0x3A9 PUSH2 0x2E9 JUMP JUMPDEST JUMPDEST PUSH0 PUSH2 0x3B7 DUP5 DUP3 DUP6 ADD PUSH2 0x30C JUMP JUMPDEST SWAP2 POP POP SWAP3 SWAP2 POP POP JUMP JUMPDEST PUSH2 0x3C9 DUP2 PUSH2 0x320 JUMP JUMPDEST DUP3 MSTORE POP POP JUMP JUMPDEST PUSH0 PUSH1 0x20 DUP3 ADD SWAP1 POP PUSH2 0x3E2 PUSH0 DUP4 ADD DUP5 PUSH2 0x3C0 JUMP JUMPDEST SWAP3 SWAP2 POP POP JUMP JUMPDEST PUSH0 PUSH1 0xFF DUP3 AND SWAP1 POP SWAP2 SWAP1 POP JUMP JUMPDEST PUSH2 0x3FD DUP2 PUSH2 0x3E8 JUMP JUMPDEST DUP3 MSTORE POP POP JUMP JUMPDEST PUSH0 PUSH4 0xFFFFFFFF DUP3 AND SWAP1 POP SWAP2 SWAP1 POP JUMP JUMPDEST PUSH2 0x41B DUP2 PUSH2 0x403 JUMP JUMPDEST DUP3 MSTORE POP POP JUMP JUMPDEST PUSH0 DUP2 ISZERO ISZERO SWAP1 POP SWAP2 SWAP1 POP JUMP JUMPDEST PUSH2 0x435 DUP2 PUSH2 0x421 JUMP JUMPDEST DUP3 MSTORE POP POP JUMP JUMPDEST PUSH0 PUSH1 0x80 DUP3 ADD SWAP1 POP PUSH2 0x44E PUSH0 DUP4 ADD DUP8 PUSH2 0x3F4 JUMP JUMPDEST PUSH2 0x45B PUSH1 0x20 DUP4 ADD DUP7 PUSH2 0x3C0 JUMP JUMPDEST PUSH2 0x468 PUSH1 0x40 DUP4 ADD DUP6 PUSH2 0x412 JUMP JUMPDEST PUSH2 0x475 PUSH1 0x60 DUP4 ADD DUP5 PUSH2 0x42C JUMP JUMPDEST SWAP6 SWAP5 POP POP POP POP POP JUMP JUMPDEST PUSH0 DUP3 DUP3 MSTORE PUSH1 0x20 DUP3 ADD SWAP1 POP SWAP3 SWAP2 POP POP JUMP JUMPDEST PUSH32 0x496E76616C696420446576696365204944000000000000000000000000000000 PUSH0 DUP3 ADD MSTORE POP JUMP JUMPDEST PUSH0 PUSH2 0x4C2 PUSH1 0x11 DUP4 PUSH2 0x47E JUMP JUMPDEST SWAP2 POP PUSH2 0x4CD DUP3 PUSH2 0x48E JUMP JUMPDEST PUSH1 0x20 DUP3 ADD SWAP1 POP SWAP2 SWAP1 POP JUMP JUMPDEST PUSH0 PUSH1 0x20 DUP3 ADD SWAP1 POP DUP2 DUP2 SUB PUSH0 DUP4 ADD MSTORE PUSH2 0x4EF DUP2 PUSH2 0x4B6 JUMP JUMPDEST SWAP1 POP SWAP2 SWAP1 POP JUMP INVALID LOG2 PUSH5 0x6970667358 0x22 SLT KECCAK256 0xB5 0x26 PUSH5 0xB029B26441 0x25 CALLDATALOAD 0xEA DIV 0xB7 0xB3 CALLF 0x90E1 0xD0 0xDF PUSH8 0xA79E5DB3B5371911 0xA8 0xC6 0xC2 EXTCALL PUSH5 0x736F6C6343 STOP ADDMOD 0x1F STOP CALLER "
				},
				"gasEstimates": {
					"creation": {
						"codeDepositCost": "264800",
						"executionCost": "304",
						"totalCost": "265104"
					},
					"external": {
						"getTemperature(uint256)": "9593",
						"sensors(uint256)": "9735",
						"updateData(uint256,uint16)": "98052"
					}
				},
				"methodIdentifiers": {
					"getTemperature(uint256)": "24e27d7e",
					"sensors(uint256)": "412f2e82",
					"updateData(uint256,uint16)": "06c8fd88"
				}
			},
			"storageLayout": {
				"storage": [
					{
						"astId": 15,
						"contract": "Day_3.sensor.sol:SensorLogger",
						"label": "sensors",
						"offset": 0,
						"slot": "0",
						"type": "t_mapping(t_uint256,t_struct(SensorData)10_storage)"
					}
				],
				"types": {
					"t_bool": {
						"encoding": "inplace",
						"label": "bool",
						"numberOfBytes": "1"
					},
					"t_mapping(t_uint256,t_struct(SensorData)10_storage)": {
						"encoding": "mapping",
						"key": "t_uint256",
						"label": "mapping(uint256 => struct SensorLogger.SensorData)",
						"numberOfBytes": "32",
						"value": "t_struct(SensorData)10_storage"
					},
					"t_struct(SensorData)10_storage": {
						"encoding": "inplace",
						"label": "struct SensorLogger.SensorData",
						"members": [
							{
								"astId": 3,
								"contract": "Day_3.sensor.sol:SensorLogger",
								"label": "id",
								"offset": 0,
								"slot": "0",
								"type": "t_uint8"
							},
							{
								"astId": 5,
								"contract": "Day_3.sensor.sol:SensorLogger",
								"label": "temperature",
								"offset": 1,
								"slot": "0",
								"type": "t_uint16"
							},
							{
								"astId": 7,
								"contract": "Day_3.sensor.sol:SensorLogger",
								"label": "timestamp",
								"offset": 3,
								"slot": "0",
								"type": "t_uint32"
							},
							{
								"astId": 9,
								"contract": "Day_3.sensor.sol:SensorLogger",
								"label": "isValid",
								"offset": 7,
								"slot": "0",
								"type": "t_bool"
							}
						],
						"numberOfBytes": "32"
					},
					"t_uint16": {
						"encoding": "inplace",
						"label": "uint16",
						"numberOfBytes": "2"
					},
					"t_uint256": {
						"encoding": "inplace",
						"label": "uint256",
						"numberOfBytes": "32"
					},
					"t_uint32": {
						"encoding": "inplace",
						"label": "uint32",
						"numberOfBytes": "4"
					},
					"t_uint8": {
						"encoding": "inplace",
						"label": "uint8",
						"numberOfBytes": "1"
					}
				}
			},
			"userdoc": {
				"kind": "user",
				"methods": {},
				"version": 1
			}
		}
	}
}