{
	"Day6_IterableMapping.sol": {
		"SensorRegistry": {
			"abi": [
				{
					"anonymous": false,
					"inputs": [
						{
							"indexed": false,
							"internalType": "uint256",
							"name": "id",
							"type": "uint256"
						},
						{
							"indexed": false,
							"internalType": "string",
							"name": "location",
							"type": "string"
						}
					],
					"name": "SensorRegistered",
					"type": "event"
				},
				{
					"inputs": [],
					"name": "getAllSensorIds",
					"outputs": [
						{
							"internalType": "uint256[]",
							"name": "",
							"type": "uint256[]"
						}
					],
					"stateMutability": "view",
					"type": "function"
				},
				{
					"inputs": [],
					"name": "getSensorCount",
					"outputs": [
						{
							"internalType": "uint256",
							"name": "",
							"type": "uint256"
						}
					],
					"stateMutability": "view",
					"type": "function"
				},
				{
					"inputs": [
						{
							"internalType": "uint256",
							"name": "_id",
							"type": "uint256"
						},
						{
							"internalType": "string",
							"name": "_location",
							"type": "string"
						}
					],
					"name": "registerSensor",
					"outputs": [],
					"stateMutability": "nonpayable",
					"type": "function"
				},
				{
					"inputs": [
						{
							"internalType": "uint256",
							"name": "",
							"type": "uint256"
						}
					],
					"name": "sensorIds",
					"outputs": [
						{
							"internalType": "uint256",
							"name": "",
							"type": "uint256"
						}
					],
					"stateMutability": "view",
					"type": "function"
				},
				{
					"inputs": [
						{
							"internalType": "uint256",
							"name": "",
							"type": "uint256"
						}
					],
					"name": "sensors",
					"outputs": [
						{
							"internalType": "uint256",
							"name": "id",
							"type": "uint256"
						},
						{
							"internalType": "string",
							"name": "location",
							"type": "string"
						},
						{
							"internalType": "bool",
							"name": "isRegistered",
							"type": "bool"
						}
					],
					"stateMutability": "view",
					"type": "function"
				}
			],
			"devdoc": {
				"kind": "dev",
				"methods": {},
				"version": 1
			},
			"evm": {
				"assembly": "    /* \"Day6_IterableMapping.sol\":60:1600  contract SensorRegistry {... */\n  mstore(0x40, 0x80)\n  callvalue\n  dup1\n  iszero\n  tag_1\n  jumpi\n  revert(0x00, 0x00)\ntag_1:\n  pop\n  dataSize(sub_0)\n  dup1\n  dataOffset(sub_0)\n  0x00\n  codecopy\n  0x00\n  return\nstop\n\nsub_0: assembly {\n        /* \"Day6_IterableMapping.sol\":60:1600  contract SensorRegistry {... */\n      mstore(0x40, 0x80)\n      callvalue\n      dup1\n      iszero\n      tag_1\n      jumpi\n      revert(0x00, 0x00)\n    tag_1:\n      pop\n      jumpi(tag_2, lt(calldatasize, 0x04))\n      shr(0xe0, calldataload(0x00))\n      dup1\n      0x3c51b21f\n      eq\n      tag_3\n      jumpi\n      dup1\n      0x412f2e82\n      eq\n      tag_4\n      jumpi\n      dup1\n      0x6dc65f95\n      eq\n      tag_5\n      jumpi\n      dup1\n      0xb716f57b\n      eq\n      tag_6\n      jumpi\n      dup1\n      0xede823db\n      eq\n      tag_7\n      jumpi\n    tag_2:\n      revert(0x00, 0x00)\n        /* \"Day6_IterableMapping.sol\":1179:1277  function getSensorCount() public view returns (uint256) {... */\n    tag_3:\n      tag_8\n      tag_9\n      jump\t// in\n    tag_8:\n      mload(0x40)\n      tag_10\n      swap2\n      swap1\n      tag_11\n      jump\t// in\n    tag_10:\n      mload(0x40)\n      dup1\n      swap2\n      sub\n      swap1\n      return\n        /* \"Day6_IterableMapping.sol\":353:398  mapping(uint256 => SensorInfo) public sensors */\n    tag_4:\n      tag_12\n      0x04\n      dup1\n      calldatasize\n      sub\n      dup2\n      add\n      swap1\n      tag_13\n      swap2\n      swap1\n      tag_14\n      jump\t// in\n    tag_13:\n      tag_15\n      jump\t// in\n    tag_12:\n      mload(0x40)\n      tag_16\n      swap4\n      swap3\n      swap2\n      swap1\n      tag_17\n      jump\t// in\n    tag_16:\n      mload(0x40)\n      dup1\n      swap2\n      sub\n      swap1\n      return\n        /* \"Day6_IterableMapping.sol\":497:523  uint256[] public sensorIds */\n    tag_5:\n      tag_18\n      0x04\n      dup1\n      calldatasize\n      sub\n      dup2\n      add\n      swap1\n      tag_19\n      swap2\n      swap1\n      tag_14\n      jump\t// in\n    tag_19:\n      tag_20\n      jump\t// in\n    tag_18:\n      mload(0x40)\n      tag_21\n      swap2\n      swap1\n      tag_11\n      jump\t// in\n    tag_21:\n      mload(0x40)\n      dup1\n      swap2\n      sub\n      swap1\n      return\n        /* \"Day6_IterableMapping.sol\":634:1141  function registerSensor(uint256 _id, string memory _location) public {... */\n    tag_6:\n      tag_22\n      0x04\n      dup1\n      calldatasize\n      sub\n      dup2\n      add\n      swap1\n      tag_23\n      swap2\n      swap1\n      tag_24\n      jump\t// in\n    tag_23:\n      tag_25\n      jump\t// in\n    tag_22:\n      stop\n        /* \"Day6_IterableMapping.sol\":1496:1597  function getAllSensorIds() public view returns (uint256[] memory) {... */\n    tag_7:\n      tag_26\n      tag_27\n      jump\t// in\n    tag_26:\n      mload(0x40)\n      tag_28\n      swap2\n      swap1\n      tag_29\n      jump\t// in\n    tag_28:\n      mload(0x40)\n      dup1\n      swap2\n      sub\n      swap1\n      return\n        /* \"Day6_IterableMapping.sol\":1179:1277  function getSensorCount() public view returns (uint256) {... */\n    tag_9:\n        /* \"Day6_IterableMapping.sol\":1226:1233  uint256 */\n      0x00\n        /* \"Day6_IterableMapping.sol\":1253:1262  sensorIds */\n      0x01\n        /* \"Day6_IterableMapping.sol\":1253:1269  sensorIds.length */\n      dup1\n      sload\n      swap1\n      pop\n        /* \"Day6_IterableMapping.sol\":1246:1269  return sensorIds.length */\n      swap1\n      pop\n        /* \"Day6_IterableMapping.sol\":1179:1277  function getSensorCount() public view returns (uint256) {... */\n      swap1\n      jump\t// out\n        /* \"Day6_IterableMapping.sol\":353:398  mapping(uint256 => SensorInfo) public sensors */\n    tag_15:\n      mstore(0x20, 0x00)\n      dup1\n      0x00\n      mstore\n      keccak256(0x00, 0x40)\n      0x00\n      swap2\n      pop\n      swap1\n      pop\n      dup1\n      0x00\n      add\n      sload\n      swap1\n      dup1\n      0x01\n      add\n      dup1\n      sload\n      tag_31\n      swap1\n      tag_32\n      jump\t// in\n    tag_31:\n      dup1\n      0x1f\n      add\n      0x20\n      dup1\n      swap2\n      div\n      mul\n      0x20\n      add\n      mload(0x40)\n      swap1\n      dup2\n      add\n      0x40\n      mstore\n      dup1\n      swap3\n      swap2\n      swap1\n      dup2\n      dup2\n      mstore\n      0x20\n      add\n      dup3\n      dup1\n      sload\n      tag_33\n      swap1\n      tag_32\n      jump\t// in\n    tag_33:\n      dup1\n      iszero\n      tag_34\n      jumpi\n      dup1\n      0x1f\n      lt\n      tag_35\n      jumpi\n      0x0100\n      dup1\n      dup4\n      sload\n      div\n      mul\n      dup4\n      mstore\n      swap2\n      0x20\n      add\n      swap2\n      jump(tag_34)\n    tag_35:\n      dup3\n      add\n      swap2\n      swap1\n      0x00\n      mstore\n      keccak256(0x00, 0x20)\n      swap1\n    tag_36:\n      dup2\n      sload\n      dup2\n      mstore\n      swap1\n      0x01\n      add\n      swap1\n      0x20\n      add\n      dup1\n      dup4\n      gt\n      tag_36\n      jumpi\n      dup3\n      swap1\n      sub\n      0x1f\n      and\n      dup3\n      add\n      swap2\n    tag_34:\n      pop\n      pop\n      pop\n      pop\n      pop\n      swap1\n      dup1\n      0x02\n      add\n      0x00\n      swap1\n      sload\n      swap1\n      0x0100\n      exp\n      swap1\n      div\n      0xff\n      and\n      swap1\n      pop\n      dup4\n      jump\t// out\n        /* \"Day6_IterableMapping.sol\":497:523  uint256[] public sensorIds */\n    tag_20:\n      0x01\n      dup2\n      dup2\n      sload\n      dup2\n      lt\n      tag_37\n      jumpi\n      0x00\n      dup1\n      revert\n    tag_37:\n      swap1\n      0x00\n      mstore\n      keccak256(0x00, 0x20)\n      add\n      0x00\n      swap2\n      pop\n      swap1\n      pop\n      sload\n      dup2\n      jump\t// out\n        /* \"Day6_IterableMapping.sol\":634:1141  function registerSensor(uint256 _id, string memory _location) public {... */\n    tag_25:\n        /* \"Day6_IterableMapping.sol\":808:815  sensors */\n      0x00\n        /* \"Day6_IterableMapping.sol\":808:820  sensors[_id] */\n      0x00\n        /* \"Day6_IterableMapping.sol\":816:819  _id */\n      dup4\n        /* \"Day6_IterableMapping.sol\":808:820  sensors[_id] */\n      dup2\n      mstore\n      0x20\n      add\n      swap1\n      dup2\n      mstore\n      0x20\n      add\n      0x00\n      keccak256\n        /* \"Day6_IterableMapping.sol\":808:833  sensors[_id].isRegistered */\n      0x02\n      add\n      0x00\n      swap1\n      sload\n      swap1\n      0x0100\n      exp\n      swap1\n      div\n      0xff\n      and\n        /* \"Day6_IterableMapping.sol\":807:833  !sensors[_id].isRegistered */\n      iszero\n        /* \"Day6_IterableMapping.sol\":799:856  require(!sensors[_id].isRegistered, \"ID already exists!\") */\n      tag_40\n      jumpi\n      mload(0x40)\n      0x08c379a000000000000000000000000000000000000000000000000000000000\n      dup2\n      mstore\n      0x04\n      add\n      tag_41\n      swap1\n      tag_42\n      jump\t// in\n    tag_41:\n      mload(0x40)\n      dup1\n      swap2\n      sub\n      swap1\n      revert\n    tag_40:\n        /* \"Day6_IterableMapping.sol\":926:958  SensorInfo(_id, _location, true) */\n      mload(0x40)\n      dup1\n      0x60\n      add\n      0x40\n      mstore\n      dup1\n        /* \"Day6_IterableMapping.sol\":937:940  _id */\n      dup4\n        /* \"Day6_IterableMapping.sol\":926:958  SensorInfo(_id, _location, true) */\n      dup2\n      mstore\n      0x20\n      add\n        /* \"Day6_IterableMapping.sol\":942:951  _location */\n      dup3\n        /* \"Day6_IterableMapping.sol\":926:958  SensorInfo(_id, _location, true) */\n      dup2\n      mstore\n      0x20\n      add\n        /* \"Day6_IterableMapping.sol\":953:957  true */\n      0x01\n        /* \"Day6_IterableMapping.sol\":926:958  SensorInfo(_id, _location, true) */\n      iszero\n      iszero\n      dup2\n      mstore\n      pop\n        /* \"Day6_IterableMapping.sol\":911:918  sensors */\n      0x00\n        /* \"Day6_IterableMapping.sol\":911:923  sensors[_id] */\n      0x00\n        /* \"Day6_IterableMapping.sol\":919:922  _id */\n      dup5\n        /* \"Day6_IterableMapping.sol\":911:923  sensors[_id] */\n      dup2\n      mstore\n      0x20\n      add\n      swap1\n      dup2\n      mstore\n      0x20\n      add\n      0x00\n      keccak256\n        /* \"Day6_IterableMapping.sol\":911:958  sensors[_id] = SensorInfo(_id, _location, true) */\n      0x00\n      dup3\n      add\n      mload\n      dup2\n      0x00\n      add\n      sstore\n      0x20\n      dup3\n      add\n      mload\n      dup2\n      0x01\n      add\n      swap1\n      dup2\n      tag_43\n      swap2\n      swap1\n      tag_44\n      jump\t// in\n    tag_43:\n      pop\n      0x40\n      dup3\n      add\n      mload\n      dup2\n      0x02\n      add\n      exp(0x0100, 0x00)\n      dup2\n      sload\n      dup2\n      0xff\n      mul\n      not\n      and\n      swap1\n      dup4\n      iszero\n      iszero\n      mul\n      or\n      swap1\n      sstore\n      pop\n      swap1\n      pop\n      pop\n        /* \"Day6_IterableMapping.sol\":1038:1047  sensorIds */\n      0x01\n        /* \"Day6_IterableMapping.sol\":1053:1056  _id */\n      dup3\n        /* \"Day6_IterableMapping.sol\":1038:1057  sensorIds.push(_id) */\n      swap1\n      dup1\n      0x01\n      dup2\n      sload\n      add\n      dup1\n      dup3\n      sstore\n      dup1\n      swap2\n      pop\n      pop\n      0x01\n      swap1\n      sub\n      swap1\n      0x00\n      mstore\n      keccak256(0x00, 0x20)\n      add\n      0x00\n      swap1\n      swap2\n      swap1\n      swap2\n      swap1\n      swap2\n      pop\n      sstore\n        /* \"Day6_IterableMapping.sol\":1101:1133  SensorRegistered(_id, _location) */\n      0x7d4038cd43138956f698e4eb6ff9d74bed9a7abec62ba924794620a345e92a5f\n        /* \"Day6_IterableMapping.sol\":1118:1121  _id */\n      dup3\n        /* \"Day6_IterableMapping.sol\":1123:1132  _location */\n      dup3\n        /* \"Day6_IterableMapping.sol\":1101:1133  SensorRegistered(_id, _location) */\n      mload(0x40)\n      tag_46\n      swap3\n      swap2\n      swap1\n      tag_47\n      jump\t// in\n    tag_46:\n      mload(0x40)\n      dup1\n      swap2\n      sub\n      swap1\n      log1\n        /* \"Day6_IterableMapping.sol\":634:1141  function registerSensor(uint256 _id, string memory _location) public {... */\n      pop\n      pop\n      jump\t// out\n        /* \"Day6_IterableMapping.sol\":1496:1597  function getAllSensorIds() public view returns (uint256[] memory) {... */\n    tag_27:\n        /* \"Day6_IterableMapping.sol\":1544:1560  uint256[] memory */\n      0x60\n        /* \"Day6_IterableMapping.sol\":1580:1589  sensorIds */\n      0x01\n        /* \"Day6_IterableMapping.sol\":1573:1589  return sensorIds */\n      dup1\n      sload\n      dup1\n      0x20\n      mul\n      0x20\n      add\n      mload(0x40)\n      swap1\n      dup2\n      add\n      0x40\n      mstore\n      dup1\n      swap3\n      swap2\n      swap1\n      dup2\n      dup2\n      mstore\n      0x20\n      add\n      dup3\n      dup1\n      sload\n      dup1\n      iszero\n      tag_49\n      jumpi\n      0x20\n      mul\n      dup3\n      add\n      swap2\n      swap1\n      0x00\n      mstore\n      keccak256(0x00, 0x20)\n      swap1\n    tag_50:\n      dup2\n      sload\n      dup2\n      mstore\n      0x20\n      add\n      swap1\n      0x01\n      add\n      swap1\n      dup1\n      dup4\n      gt\n      tag_50\n      jumpi\n    tag_49:\n      pop\n      pop\n      pop\n      pop\n      pop\n      swap1\n      pop\n        /* \"Day6_IterableMapping.sol\":1496:1597  function getAllSensorIds() public view returns (uint256[] memory) {... */\n      swap1\n      jump\t// out\n        /* \"#utility.yul\":7:84   */\n    tag_51:\n        /* \"#utility.yul\":44:51   */\n      0x00\n        /* \"#utility.yul\":73:78   */\n      dup2\n        /* \"#utility.yul\":62:78   */\n      swap1\n      pop\n        /* \"#utility.yul\":7:84   */\n      swap2\n      swap1\n      pop\n      jump\t// out\n        /* \"#utility.yul\":90:208   */\n    tag_52:\n        /* \"#utility.yul\":177:201   */\n      tag_102\n        /* \"#utility.yul\":195:200   */\n      dup2\n        /* \"#utility.yul\":177:201   */\n      tag_51\n      jump\t// in\n    tag_102:\n        /* \"#utility.yul\":172:175   */\n      dup3\n        /* \"#utility.yul\":165:202   */\n      mstore\n        /* \"#utility.yul\":90:208   */\n      pop\n      pop\n      jump\t// out\n        /* \"#utility.yul\":214:436   */\n    tag_11:\n        /* \"#utility.yul\":307:311   */\n      0x00\n        /* \"#utility.yul\":345:347   */\n      0x20\n        /* \"#utility.yul\":334:343   */\n      dup3\n        /* \"#utility.yul\":330:348   */\n      add\n        /* \"#utility.yul\":322:348   */\n      swap1\n      pop\n        /* \"#utility.yul\":358:429   */\n      tag_104\n        /* \"#utility.yul\":426:427   */\n      0x00\n        /* \"#utility.yul\":415:424   */\n      dup4\n        /* \"#utility.yul\":411:428   */\n      add\n        /* \"#utility.yul\":402:408   */\n      dup5\n        /* \"#utility.yul\":358:429   */\n      tag_52\n      jump\t// in\n    tag_104:\n        /* \"#utility.yul\":214:436   */\n      swap3\n      swap2\n      pop\n      pop\n      jump\t// out\n        /* \"#utility.yul\":442:517   */\n    tag_53:\n        /* \"#utility.yul\":475:481   */\n      0x00\n        /* \"#utility.yul\":508:510   */\n      0x40\n        /* \"#utility.yul\":502:511   */\n      mload\n        /* \"#utility.yul\":492:511   */\n      swap1\n      pop\n        /* \"#utility.yul\":442:517   */\n      swap1\n      jump\t// out\n        /* \"#utility.yul\":523:640   */\n    tag_54:\n        /* \"#utility.yul\":632:633   */\n      0x00\n        /* \"#utility.yul\":629:630   */\n      0x00\n        /* \"#utility.yul\":622:634   */\n      revert\n        /* \"#utility.yul\":646:763   */\n    tag_55:\n        /* \"#utility.yul\":755:756   */\n      0x00\n        /* \"#utility.yul\":752:753   */\n      0x00\n        /* \"#utility.yul\":745:757   */\n      revert\n        /* \"#utility.yul\":769:891   */\n    tag_56:\n        /* \"#utility.yul\":842:866   */\n      tag_109\n        /* \"#utility.yul\":860:865   */\n      dup2\n        /* \"#utility.yul\":842:866   */\n      tag_51\n      jump\t// in\n    tag_109:\n        /* \"#utility.yul\":835:840   */\n      dup2\n        /* \"#utility.yul\":832:867   */\n      eq\n        /* \"#utility.yul\":822:885   */\n      tag_110\n      jumpi\n        /* \"#utility.yul\":881:882   */\n      0x00\n        /* \"#utility.yul\":878:879   */\n      0x00\n        /* \"#utility.yul\":871:883   */\n      revert\n        /* \"#utility.yul\":822:885   */\n    tag_110:\n        /* \"#utility.yul\":769:891   */\n      pop\n      jump\t// out\n        /* \"#utility.yul\":897:1036   */\n    tag_57:\n        /* \"#utility.yul\":943:948   */\n      0x00\n        /* \"#utility.yul\":981:987   */\n      dup2\n        /* \"#utility.yul\":968:988   */\n      calldataload\n        /* \"#utility.yul\":959:988   */\n      swap1\n      pop\n        /* \"#utility.yul\":997:1030   */\n      tag_112\n        /* \"#utility.yul\":1024:1029   */\n      dup2\n        /* \"#utility.yul\":997:1030   */\n      tag_56\n      jump\t// in\n    tag_112:\n        /* \"#utility.yul\":897:1036   */\n      swap3\n      swap2\n      pop\n      pop\n      jump\t// out\n        /* \"#utility.yul\":1042:1371   */\n    tag_14:\n        /* \"#utility.yul\":1101:1107   */\n      0x00\n        /* \"#utility.yul\":1150:1152   */\n      0x20\n        /* \"#utility.yul\":1138:1147   */\n      dup3\n        /* \"#utility.yul\":1129:1136   */\n      dup5\n        /* \"#utility.yul\":1125:1148   */\n      sub\n        /* \"#utility.yul\":1121:1153   */\n      slt\n        /* \"#utility.yul\":1118:1237   */\n      iszero\n      tag_114\n      jumpi\n        /* \"#utility.yul\":1156:1235   */\n      tag_115\n      tag_54\n      jump\t// in\n    tag_115:\n        /* \"#utility.yul\":1118:1237   */\n    tag_114:\n        /* \"#utility.yul\":1276:1277   */\n      0x00\n        /* \"#utility.yul\":1301:1354   */\n      tag_116\n        /* \"#utility.yul\":1346:1353   */\n      dup5\n        /* \"#utility.yul\":1337:1343   */\n      dup3\n        /* \"#utility.yul\":1326:1335   */\n      dup6\n        /* \"#utility.yul\":1322:1344   */\n      add\n        /* \"#utility.yul\":1301:1354   */\n      tag_57\n      jump\t// in\n    tag_116:\n        /* \"#utility.yul\":1291:1354   */\n      swap2\n      pop\n        /* \"#utility.yul\":1247:1364   */\n      pop\n        /* \"#utility.yul\":1042:1371   */\n      swap3\n      swap2\n      pop\n      pop\n      jump\t// out\n        /* \"#utility.yul\":1377:1476   */\n    tag_58:\n        /* \"#utility.yul\":1429:1435   */\n      0x00\n        /* \"#utility.yul\":1463:1468   */\n      dup2\n        /* \"#utility.yul\":1457:1469   */\n      mload\n        /* \"#utility.yul\":1447:1469   */\n      swap1\n      pop\n        /* \"#utility.yul\":1377:1476   */\n      swap2\n      swap1\n      pop\n      jump\t// out\n        /* \"#utility.yul\":1482:1651   */\n    tag_59:\n        /* \"#utility.yul\":1566:1577   */\n      0x00\n        /* \"#utility.yul\":1600:1606   */\n      dup3\n        /* \"#utility.yul\":1595:1598   */\n      dup3\n        /* \"#utility.yul\":1588:1607   */\n      mstore\n        /* \"#utility.yul\":1640:1644   */\n      0x20\n        /* \"#utility.yul\":1635:1638   */\n      dup3\n        /* \"#utility.yul\":1631:1645   */\n      add\n        /* \"#utility.yul\":1616:1645   */\n      swap1\n      pop\n        /* \"#utility.yul\":1482:1651   */\n      swap3\n      swap2\n      pop\n      pop\n      jump\t// out\n        /* \"#utility.yul\":1657:1796   */\n    tag_60:\n        /* \"#utility.yul\":1746:1752   */\n      dup3\n        /* \"#utility.yul\":1741:1744   */\n      dup2\n        /* \"#utility.yul\":1736:1739   */\n      dup4\n        /* \"#utility.yul\":1730:1753   */\n      mcopy\n        /* \"#utility.yul\":1787:1788   */\n      0x00\n        /* \"#utility.yul\":1778:1784   */\n      dup4\n        /* \"#utility.yul\":1773:1776   */\n      dup4\n        /* \"#utility.yul\":1769:1785   */\n      add\n        /* \"#utility.yul\":1762:1789   */\n      mstore\n        /* \"#utility.yul\":1657:1796   */\n      pop\n      pop\n      pop\n      jump\t// out\n        /* \"#utility.yul\":1802:1904   */\n    tag_61:\n        /* \"#utility.yul\":1843:1849   */\n      0x00\n        /* \"#utility.yul\":1894:1896   */\n      0x1f\n        /* \"#utility.yul\":1890:1897   */\n      not\n        /* \"#utility.yul\":1885:1887   */\n      0x1f\n        /* \"#utility.yul\":1878:1883   */\n      dup4\n        /* \"#utility.yul\":1874:1888   */\n      add\n        /* \"#utility.yul\":1870:1898   */\n      and\n        /* \"#utility.yul\":1860:1898   */\n      swap1\n      pop\n        /* \"#utility.yul\":1802:1904   */\n      swap2\n      swap1\n      pop\n      jump\t// out\n        /* \"#utility.yul\":1910:2287   */\n    tag_62:\n        /* \"#utility.yul\":1998:2001   */\n      0x00\n        /* \"#utility.yul\":2026:2065   */\n      tag_122\n        /* \"#utility.yul\":2059:2064   */\n      dup3\n        /* \"#utility.yul\":2026:2065   */\n      tag_58\n      jump\t// in\n    tag_122:\n        /* \"#utility.yul\":2081:2152   */\n      tag_123\n        /* \"#utility.yul\":2145:2151   */\n      dup2\n        /* \"#utility.yul\":2140:2143   */\n      dup6\n        /* \"#utility.yul\":2081:2152   */\n      tag_59\n      jump\t// in\n    tag_123:\n        /* \"#utility.yul\":2074:2152   */\n      swap4\n      pop\n        /* \"#utility.yul\":2161:2226   */\n      tag_124\n        /* \"#utility.yul\":2219:2225   */\n      dup2\n        /* \"#utility.yul\":2214:2217   */\n      dup6\n        /* \"#utility.yul\":2207:2211   */\n      0x20\n        /* \"#utility.yul\":2200:2205   */\n      dup7\n        /* \"#utility.yul\":2196:2212   */\n      add\n        /* \"#utility.yul\":2161:2226   */\n      tag_60\n      jump\t// in\n    tag_124:\n        /* \"#utility.yul\":2251:2280   */\n      tag_125\n        /* \"#utility.yul\":2273:2279   */\n      dup2\n        /* \"#utility.yul\":2251:2280   */\n      tag_61\n      jump\t// in\n    tag_125:\n        /* \"#utility.yul\":2246:2249   */\n      dup5\n        /* \"#utility.yul\":2242:2281   */\n      add\n        /* \"#utility.yul\":2235:2281   */\n      swap2\n      pop\n        /* \"#utility.yul\":2002:2287   */\n      pop\n        /* \"#utility.yul\":1910:2287   */\n      swap3\n      swap2\n      pop\n      pop\n      jump\t// out\n        /* \"#utility.yul\":2293:2383   */\n    tag_63:\n        /* \"#utility.yul\":2327:2334   */\n      0x00\n        /* \"#utility.yul\":2370:2375   */\n      dup2\n        /* \"#utility.yul\":2363:2376   */\n      iszero\n        /* \"#utility.yul\":2356:2377   */\n      iszero\n        /* \"#utility.yul\":2345:2377   */\n      swap1\n      pop\n        /* \"#utility.yul\":2293:2383   */\n      swap2\n      swap1\n      pop\n      jump\t// out\n        /* \"#utility.yul\":2389:2498   */\n    tag_64:\n        /* \"#utility.yul\":2470:2491   */\n      tag_128\n        /* \"#utility.yul\":2485:2490   */\n      dup2\n        /* \"#utility.yul\":2470:2491   */\n      tag_63\n      jump\t// in\n    tag_128:\n        /* \"#utility.yul\":2465:2468   */\n      dup3\n        /* \"#utility.yul\":2458:2492   */\n      mstore\n        /* \"#utility.yul\":2389:2498   */\n      pop\n      pop\n      jump\t// out\n        /* \"#utility.yul\":2504:3025   */\n    tag_17:\n        /* \"#utility.yul\":2667:2671   */\n      0x00\n        /* \"#utility.yul\":2705:2707   */\n      0x60\n        /* \"#utility.yul\":2694:2703   */\n      dup3\n        /* \"#utility.yul\":2690:2708   */\n      add\n        /* \"#utility.yul\":2682:2708   */\n      swap1\n      pop\n        /* \"#utility.yul\":2718:2789   */\n      tag_130\n        /* \"#utility.yul\":2786:2787   */\n      0x00\n        /* \"#utility.yul\":2775:2784   */\n      dup4\n        /* \"#utility.yul\":2771:2788   */\n      add\n        /* \"#utility.yul\":2762:2768   */\n      dup7\n        /* \"#utility.yul\":2718:2789   */\n      tag_52\n      jump\t// in\n    tag_130:\n        /* \"#utility.yul\":2836:2845   */\n      dup2\n        /* \"#utility.yul\":2830:2834   */\n      dup2\n        /* \"#utility.yul\":2826:2846   */\n      sub\n        /* \"#utility.yul\":2821:2823   */\n      0x20\n        /* \"#utility.yul\":2810:2819   */\n      dup4\n        /* \"#utility.yul\":2806:2824   */\n      add\n        /* \"#utility.yul\":2799:2847   */\n      mstore\n        /* \"#utility.yul\":2864:2942   */\n      tag_131\n        /* \"#utility.yul\":2937:2941   */\n      dup2\n        /* \"#utility.yul\":2928:2934   */\n      dup6\n        /* \"#utility.yul\":2864:2942   */\n      tag_62\n      jump\t// in\n    tag_131:\n        /* \"#utility.yul\":2856:2942   */\n      swap1\n      pop\n        /* \"#utility.yul\":2952:3018   */\n      tag_132\n        /* \"#utility.yul\":3014:3016   */\n      0x40\n        /* \"#utility.yul\":3003:3012   */\n      dup4\n        /* \"#utility.yul\":2999:3017   */\n      add\n        /* \"#utility.yul\":2990:2996   */\n      dup5\n        /* \"#utility.yul\":2952:3018   */\n      tag_64\n      jump\t// in\n    tag_132:\n        /* \"#utility.yul\":2504:3025   */\n      swap5\n      swap4\n      pop\n      pop\n      pop\n      pop\n      jump\t// out\n        /* \"#utility.yul\":3031:3148   */\n    tag_65:\n        /* \"#utility.yul\":3140:3141   */\n      0x00\n        /* \"#utility.yul\":3137:3138   */\n      0x00\n        /* \"#utility.yul\":3130:3142   */\n      revert\n        /* \"#utility.yul\":3154:3271   */\n    tag_66:\n        /* \"#utility.yul\":3263:3264   */\n      0x00\n        /* \"#utility.yul\":3260:3261   */\n      0x00\n        /* \"#utility.yul\":3253:3265   */\n      revert\n        /* \"#utility.yul\":3277:3457   */\n    tag_67:\n        /* \"#utility.yul\":3325:3402   */\n      0x4e487b7100000000000000000000000000000000000000000000000000000000\n        /* \"#utility.yul\":3322:3323   */\n      0x00\n        /* \"#utility.yul\":3315:3403   */\n      mstore\n        /* \"#utility.yul\":3422:3426   */\n      0x41\n        /* \"#utility.yul\":3419:3420   */\n      0x04\n        /* \"#utility.yul\":3412:3427   */\n      mstore\n        /* \"#utility.yul\":3446:3450   */\n      0x24\n        /* \"#utility.yul\":3443:3444   */\n      0x00\n        /* \"#utility.yul\":3436:3451   */\n      revert\n        /* \"#utility.yul\":3463:3744   */\n    tag_68:\n        /* \"#utility.yul\":3546:3573   */\n      tag_137\n        /* \"#utility.yul\":3568:3572   */\n      dup3\n        /* \"#utility.yul\":3546:3573   */\n      tag_61\n      jump\t// in\n    tag_137:\n        /* \"#utility.yul\":3538:3544   */\n      dup2\n        /* \"#utility.yul\":3534:3574   */\n      add\n        /* \"#utility.yul\":3676:3682   */\n      dup2\n        /* \"#utility.yul\":3664:3674   */\n      dup2\n        /* \"#utility.yul\":3661:3683   */\n      lt\n        /* \"#utility.yul\":3640:3658   */\n      0xffffffffffffffff\n        /* \"#utility.yul\":3628:3638   */\n      dup3\n        /* \"#utility.yul\":3625:3659   */\n      gt\n        /* \"#utility.yul\":3622:3684   */\n      or\n        /* \"#utility.yul\":3619:3707   */\n      iszero\n      tag_138\n      jumpi\n        /* \"#utility.yul\":3687:3705   */\n      tag_139\n      tag_67\n      jump\t// in\n    tag_139:\n        /* \"#utility.yul\":3619:3707   */\n    tag_138:\n        /* \"#utility.yul\":3727:3737   */\n      dup1\n        /* \"#utility.yul\":3723:3725   */\n      0x40\n        /* \"#utility.yul\":3716:3738   */\n      mstore\n        /* \"#utility.yul\":3506:3744   */\n      pop\n        /* \"#utility.yul\":3463:3744   */\n      pop\n      pop\n      jump\t// out\n        /* \"#utility.yul\":3750:3879   */\n    tag_69:\n        /* \"#utility.yul\":3784:3790   */\n      0x00\n        /* \"#utility.yul\":3811:3831   */\n      tag_141\n      tag_53\n      jump\t// in\n    tag_141:\n        /* \"#utility.yul\":3801:3831   */\n      swap1\n      pop\n        /* \"#utility.yul\":3840:3873   */\n      tag_142\n        /* \"#utility.yul\":3868:3872   */\n      dup3\n        /* \"#utility.yul\":3860:3866   */\n      dup3\n        /* \"#utility.yul\":3840:3873   */\n      tag_68\n      jump\t// in\n    tag_142:\n        /* \"#utility.yul\":3750:3879   */\n      swap2\n      swap1\n      pop\n      jump\t// out\n        /* \"#utility.yul\":3885:4193   */\n    tag_70:\n        /* \"#utility.yul\":3947:3951   */\n      0x00\n        /* \"#utility.yul\":4037:4055   */\n      0xffffffffffffffff\n        /* \"#utility.yul\":4029:4035   */\n      dup3\n        /* \"#utility.yul\":4026:4056   */\n      gt\n        /* \"#utility.yul\":4023:4079   */\n      iszero\n      tag_144\n      jumpi\n        /* \"#utility.yul\":4059:4077   */\n      tag_145\n      tag_67\n      jump\t// in\n    tag_145:\n        /* \"#utility.yul\":4023:4079   */\n    tag_144:\n        /* \"#utility.yul\":4097:4126   */\n      tag_146\n        /* \"#utility.yul\":4119:4125   */\n      dup3\n        /* \"#utility.yul\":4097:4126   */\n      tag_61\n      jump\t// in\n    tag_146:\n        /* \"#utility.yul\":4089:4126   */\n      swap1\n      pop\n        /* \"#utility.yul\":4181:4185   */\n      0x20\n        /* \"#utility.yul\":4175:4179   */\n      dup2\n        /* \"#utility.yul\":4171:4186   */\n      add\n        /* \"#utility.yul\":4163:4186   */\n      swap1\n      pop\n        /* \"#utility.yul\":3885:4193   */\n      swap2\n      swap1\n      pop\n      jump\t// out\n        /* \"#utility.yul\":4199:4347   */\n    tag_71:\n        /* \"#utility.yul\":4297:4303   */\n      dup3\n        /* \"#utility.yul\":4292:4295   */\n      dup2\n        /* \"#utility.yul\":4287:4290   */\n      dup4\n        /* \"#utility.yul\":4274:4304   */\n      calldatacopy\n        /* \"#utility.yul\":4338:4339   */\n      0x00\n        /* \"#utility.yul\":4329:4335   */\n      dup4\n        /* \"#utility.yul\":4324:4327   */\n      dup4\n        /* \"#utility.yul\":4320:4336   */\n      add\n        /* \"#utility.yul\":4313:4340   */\n      mstore\n        /* \"#utility.yul\":4199:4347   */\n      pop\n      pop\n      pop\n      jump\t// out\n        /* \"#utility.yul\":4353:4778   */\n    tag_72:\n        /* \"#utility.yul\":4431:4436   */\n      0x00\n        /* \"#utility.yul\":4456:4522   */\n      tag_149\n        /* \"#utility.yul\":4472:4521   */\n      tag_150\n        /* \"#utility.yul\":4514:4520   */\n      dup5\n        /* \"#utility.yul\":4472:4521   */\n      tag_70\n      jump\t// in\n    tag_150:\n        /* \"#utility.yul\":4456:4522   */\n      tag_69\n      jump\t// in\n    tag_149:\n        /* \"#utility.yul\":4447:4522   */\n      swap1\n      pop\n        /* \"#utility.yul\":4545:4551   */\n      dup3\n        /* \"#utility.yul\":4538:4543   */\n      dup2\n        /* \"#utility.yul\":4531:4552   */\n      mstore\n        /* \"#utility.yul\":4583:4587   */\n      0x20\n        /* \"#utility.yul\":4576:4581   */\n      dup2\n        /* \"#utility.yul\":4572:4588   */\n      add\n        /* \"#utility.yul\":4621:4624   */\n      dup5\n        /* \"#utility.yul\":4612:4618   */\n      dup5\n        /* \"#utility.yul\":4607:4610   */\n      dup5\n        /* \"#utility.yul\":4603:4619   */\n      add\n        /* \"#utility.yul\":4600:4625   */\n      gt\n        /* \"#utility.yul\":4597:4709   */\n      iszero\n      tag_151\n      jumpi\n        /* \"#utility.yul\":4628:4707   */\n      tag_152\n      tag_66\n      jump\t// in\n    tag_152:\n        /* \"#utility.yul\":4597:4709   */\n    tag_151:\n        /* \"#utility.yul\":4718:4772   */\n      tag_153\n        /* \"#utility.yul\":4765:4771   */\n      dup5\n        /* \"#utility.yul\":4760:4763   */\n      dup3\n        /* \"#utility.yul\":4755:4758   */\n      dup6\n        /* \"#utility.yul\":4718:4772   */\n      tag_71\n      jump\t// in\n    tag_153:\n        /* \"#utility.yul\":4437:4778   */\n      pop\n        /* \"#utility.yul\":4353:4778   */\n      swap4\n      swap3\n      pop\n      pop\n      pop\n      jump\t// out\n        /* \"#utility.yul\":4798:5138   */\n    tag_73:\n        /* \"#utility.yul\":4854:4859   */\n      0x00\n        /* \"#utility.yul\":4903:4906   */\n      dup3\n        /* \"#utility.yul\":4896:4900   */\n      0x1f\n        /* \"#utility.yul\":4888:4894   */\n      dup4\n        /* \"#utility.yul\":4884:4901   */\n      add\n        /* \"#utility.yul\":4880:4907   */\n      slt\n        /* \"#utility.yul\":4870:4992   */\n      tag_155\n      jumpi\n        /* \"#utility.yul\":4911:4990   */\n      tag_156\n      tag_65\n      jump\t// in\n    tag_156:\n        /* \"#utility.yul\":4870:4992   */\n    tag_155:\n        /* \"#utility.yul\":5028:5034   */\n      dup2\n        /* \"#utility.yul\":5015:5035   */\n      calldataload\n        /* \"#utility.yul\":5053:5132   */\n      tag_157\n        /* \"#utility.yul\":5128:5131   */\n      dup5\n        /* \"#utility.yul\":5120:5126   */\n      dup3\n        /* \"#utility.yul\":5113:5117   */\n      0x20\n        /* \"#utility.yul\":5105:5111   */\n      dup7\n        /* \"#utility.yul\":5101:5118   */\n      add\n        /* \"#utility.yul\":5053:5132   */\n      tag_72\n      jump\t// in\n    tag_157:\n        /* \"#utility.yul\":5044:5132   */\n      swap2\n      pop\n        /* \"#utility.yul\":4860:5138   */\n      pop\n        /* \"#utility.yul\":4798:5138   */\n      swap3\n      swap2\n      pop\n      pop\n      jump\t// out\n        /* \"#utility.yul\":5144:5798   */\n    tag_24:\n        /* \"#utility.yul\":5222:5228   */\n      0x00\n        /* \"#utility.yul\":5230:5236   */\n      0x00\n        /* \"#utility.yul\":5279:5281   */\n      0x40\n        /* \"#utility.yul\":5267:5276   */\n      dup4\n        /* \"#utility.yul\":5258:5265   */\n      dup6\n        /* \"#utility.yul\":5254:5277   */\n      sub\n        /* \"#utility.yul\":5250:5282   */\n      slt\n        /* \"#utility.yul\":5247:5366   */\n      iszero\n      tag_159\n      jumpi\n        /* \"#utility.yul\":5285:5364   */\n      tag_160\n      tag_54\n      jump\t// in\n    tag_160:\n        /* \"#utility.yul\":5247:5366   */\n    tag_159:\n        /* \"#utility.yul\":5405:5406   */\n      0x00\n        /* \"#utility.yul\":5430:5483   */\n      tag_161\n        /* \"#utility.yul\":5475:5482   */\n      dup6\n        /* \"#utility.yul\":5466:5472   */\n      dup3\n        /* \"#utility.yul\":5455:5464   */\n      dup7\n        /* \"#utility.yul\":5451:5473   */\n      add\n        /* \"#utility.yul\":5430:5483   */\n      tag_57\n      jump\t// in\n    tag_161:\n        /* \"#utility.yul\":5420:5483   */\n      swap3\n      pop\n        /* \"#utility.yul\":5376:5493   */\n      pop\n        /* \"#utility.yul\":5560:5562   */\n      0x20\n        /* \"#utility.yul\":5549:5558   */\n      dup4\n        /* \"#utility.yul\":5545:5563   */\n      add\n        /* \"#utility.yul\":5532:5564   */\n      calldataload\n        /* \"#utility.yul\":5591:5609   */\n      0xffffffffffffffff\n        /* \"#utility.yul\":5583:5589   */\n      dup2\n        /* \"#utility.yul\":5580:5610   */\n      gt\n        /* \"#utility.yul\":5577:5694   */\n      iszero\n      tag_162\n      jumpi\n        /* \"#utility.yul\":5613:5692   */\n      tag_163\n      tag_55\n      jump\t// in\n    tag_163:\n        /* \"#utility.yul\":5577:5694   */\n    tag_162:\n        /* \"#utility.yul\":5718:5781   */\n      tag_164\n        /* \"#utility.yul\":5773:5780   */\n      dup6\n        /* \"#utility.yul\":5764:5770   */\n      dup3\n        /* \"#utility.yul\":5753:5762   */\n      dup7\n        /* \"#utility.yul\":5749:5771   */\n      add\n        /* \"#utility.yul\":5718:5781   */\n      tag_73\n      jump\t// in\n    tag_164:\n        /* \"#utility.yul\":5708:5781   */\n      swap2\n      pop\n        /* \"#utility.yul\":5503:5791   */\n      pop\n        /* \"#utility.yul\":5144:5798   */\n      swap3\n      pop\n      swap3\n      swap1\n      pop\n      jump\t// out\n        /* \"#utility.yul\":5804:5918   */\n    tag_74:\n        /* \"#utility.yul\":5871:5877   */\n      0x00\n        /* \"#utility.yul\":5905:5910   */\n      dup2\n        /* \"#utility.yul\":5899:5911   */\n      mload\n        /* \"#utility.yul\":5889:5911   */\n      swap1\n      pop\n        /* \"#utility.yul\":5804:5918   */\n      swap2\n      swap1\n      pop\n      jump\t// out\n        /* \"#utility.yul\":5924:6108   */\n    tag_75:\n        /* \"#utility.yul\":6023:6034   */\n      0x00\n        /* \"#utility.yul\":6057:6063   */\n      dup3\n        /* \"#utility.yul\":6052:6055   */\n      dup3\n        /* \"#utility.yul\":6045:6064   */\n      mstore\n        /* \"#utility.yul\":6097:6101   */\n      0x20\n        /* \"#utility.yul\":6092:6095   */\n      dup3\n        /* \"#utility.yul\":6088:6102   */\n      add\n        /* \"#utility.yul\":6073:6102   */\n      swap1\n      pop\n        /* \"#utility.yul\":5924:6108   */\n      swap3\n      swap2\n      pop\n      pop\n      jump\t// out\n        /* \"#utility.yul\":6114:6246   */\n    tag_76:\n        /* \"#utility.yul\":6181:6185   */\n      0x00\n        /* \"#utility.yul\":6204:6207   */\n      dup2\n        /* \"#utility.yul\":6196:6207   */\n      swap1\n      pop\n        /* \"#utility.yul\":6234:6238   */\n      0x20\n        /* \"#utility.yul\":6229:6232   */\n      dup3\n        /* \"#utility.yul\":6225:6239   */\n      add\n        /* \"#utility.yul\":6217:6239   */\n      swap1\n      pop\n        /* \"#utility.yul\":6114:6246   */\n      swap2\n      swap1\n      pop\n      jump\t// out\n        /* \"#utility.yul\":6252:6360   */\n    tag_77:\n        /* \"#utility.yul\":6329:6353   */\n      tag_169\n        /* \"#utility.yul\":6347:6352   */\n      dup2\n        /* \"#utility.yul\":6329:6353   */\n      tag_51\n      jump\t// in\n    tag_169:\n        /* \"#utility.yul\":6324:6327   */\n      dup3\n        /* \"#utility.yul\":6317:6354   */\n      mstore\n        /* \"#utility.yul\":6252:6360   */\n      pop\n      pop\n      jump\t// out\n        /* \"#utility.yul\":6366:6545   */\n    tag_78:\n        /* \"#utility.yul\":6435:6445   */\n      0x00\n        /* \"#utility.yul\":6456:6502   */\n      tag_171\n        /* \"#utility.yul\":6498:6501   */\n      dup4\n        /* \"#utility.yul\":6490:6496   */\n      dup4\n        /* \"#utility.yul\":6456:6502   */\n      tag_77\n      jump\t// in\n    tag_171:\n        /* \"#utility.yul\":6534:6538   */\n      0x20\n        /* \"#utility.yul\":6529:6532   */\n      dup4\n        /* \"#utility.yul\":6525:6539   */\n      add\n        /* \"#utility.yul\":6511:6539   */\n      swap1\n      pop\n        /* \"#utility.yul\":6366:6545   */\n      swap3\n      swap2\n      pop\n      pop\n      jump\t// out\n        /* \"#utility.yul\":6551:6664   */\n    tag_79:\n        /* \"#utility.yul\":6621:6625   */\n      0x00\n        /* \"#utility.yul\":6653:6657   */\n      0x20\n        /* \"#utility.yul\":6648:6651   */\n      dup3\n        /* \"#utility.yul\":6644:6658   */\n      add\n        /* \"#utility.yul\":6636:6658   */\n      swap1\n      pop\n        /* \"#utility.yul\":6551:6664   */\n      swap2\n      swap1\n      pop\n      jump\t// out\n        /* \"#utility.yul\":6700:7432   */\n    tag_80:\n        /* \"#utility.yul\":6819:6822   */\n      0x00\n        /* \"#utility.yul\":6848:6902   */\n      tag_174\n        /* \"#utility.yul\":6896:6901   */\n      dup3\n        /* \"#utility.yul\":6848:6902   */\n      tag_74\n      jump\t// in\n    tag_174:\n        /* \"#utility.yul\":6918:7004   */\n      tag_175\n        /* \"#utility.yul\":6997:7003   */\n      dup2\n        /* \"#utility.yul\":6992:6995   */\n      dup6\n        /* \"#utility.yul\":6918:7004   */\n      tag_75\n      jump\t// in\n    tag_175:\n        /* \"#utility.yul\":6911:7004   */\n      swap4\n      pop\n        /* \"#utility.yul\":7028:7084   */\n      tag_176\n        /* \"#utility.yul\":7078:7083   */\n      dup4\n        /* \"#utility.yul\":7028:7084   */\n      tag_76\n      jump\t// in\n    tag_176:\n        /* \"#utility.yul\":7107:7114   */\n      dup1\n        /* \"#utility.yul\":7138:7139   */\n      0x00\n        /* \"#utility.yul\":7123:7407   */\n    tag_177:\n        /* \"#utility.yul\":7148:7154   */\n      dup4\n        /* \"#utility.yul\":7145:7146   */\n      dup2\n        /* \"#utility.yul\":7142:7155   */\n      lt\n        /* \"#utility.yul\":7123:7407   */\n      iszero\n      tag_179\n      jumpi\n        /* \"#utility.yul\":7224:7230   */\n      dup2\n        /* \"#utility.yul\":7218:7231   */\n      mload\n        /* \"#utility.yul\":7251:7314   */\n      tag_180\n        /* \"#utility.yul\":7310:7313   */\n      dup9\n        /* \"#utility.yul\":7295:7308   */\n      dup3\n        /* \"#utility.yul\":7251:7314   */\n      tag_78\n      jump\t// in\n    tag_180:\n        /* \"#utility.yul\":7244:7314   */\n      swap8\n      pop\n        /* \"#utility.yul\":7337:7397   */\n      tag_181\n        /* \"#utility.yul\":7390:7396   */\n      dup4\n        /* \"#utility.yul\":7337:7397   */\n      tag_79\n      jump\t// in\n    tag_181:\n        /* \"#utility.yul\":7327:7397   */\n      swap3\n      pop\n        /* \"#utility.yul\":7183:7407   */\n      pop\n        /* \"#utility.yul\":7170:7171   */\n      0x01\n        /* \"#utility.yul\":7167:7168   */\n      dup2\n        /* \"#utility.yul\":7163:7172   */\n      add\n        /* \"#utility.yul\":7158:7172   */\n      swap1\n      pop\n        /* \"#utility.yul\":7123:7407   */\n      jump(tag_177)\n    tag_179:\n        /* \"#utility.yul\":7127:7141   */\n      pop\n        /* \"#utility.yul\":7423:7426   */\n      dup6\n        /* \"#utility.yul\":7416:7426   */\n      swap4\n      pop\n        /* \"#utility.yul\":6824:7432   */\n      pop\n      pop\n      pop\n        /* \"#utility.yul\":6700:7432   */\n      swap3\n      swap2\n      pop\n      pop\n      jump\t// out\n        /* \"#utility.yul\":7438:7811   */\n    tag_29:\n        /* \"#utility.yul\":7581:7585   */\n      0x00\n        /* \"#utility.yul\":7619:7621   */\n      0x20\n        /* \"#utility.yul\":7608:7617   */\n      dup3\n        /* \"#utility.yul\":7604:7622   */\n      add\n        /* \"#utility.yul\":7596:7622   */\n      swap1\n      pop\n        /* \"#utility.yul\":7668:7677   */\n      dup2\n        /* \"#utility.yul\":7662:7666   */\n      dup2\n        /* \"#utility.yul\":7658:7678   */\n      sub\n        /* \"#utility.yul\":7654:7655   */\n      0x00\n        /* \"#utility.yul\":7643:7652   */\n      dup4\n        /* \"#utility.yul\":7639:7656   */\n      add\n        /* \"#utility.yul\":7632:7679   */\n      mstore\n        /* \"#utility.yul\":7696:7804   */\n      tag_183\n        /* \"#utility.yul\":7799:7803   */\n      dup2\n        /* \"#utility.yul\":7790:7796   */\n      dup5\n        /* \"#utility.yul\":7696:7804   */\n      tag_80\n      jump\t// in\n    tag_183:\n        /* \"#utility.yul\":7688:7804   */\n      swap1\n      pop\n        /* \"#utility.yul\":7438:7811   */\n      swap3\n      swap2\n      pop\n      pop\n      jump\t// out\n        /* \"#utility.yul\":7817:7997   */\n    tag_81:\n        /* \"#utility.yul\":7865:7942   */\n      0x4e487b7100000000000000000000000000000000000000000000000000000000\n        /* \"#utility.yul\":7862:7863   */\n      0x00\n        /* \"#utility.yul\":7855:7943   */\n      mstore\n        /* \"#utility.yul\":7962:7966   */\n      0x22\n        /* \"#utility.yul\":7959:7960   */\n      0x04\n        /* \"#utility.yul\":7952:7967   */\n      mstore\n        /* \"#utility.yul\":7986:7990   */\n      0x24\n        /* \"#utility.yul\":7983:7984   */\n      0x00\n        /* \"#utility.yul\":7976:7991   */\n      revert\n        /* \"#utility.yul\":8003:8323   */\n    tag_32:\n        /* \"#utility.yul\":8047:8053   */\n      0x00\n        /* \"#utility.yul\":8084:8085   */\n      0x02\n        /* \"#utility.yul\":8078:8082   */\n      dup3\n        /* \"#utility.yul\":8074:8086   */\n      div\n        /* \"#utility.yul\":8064:8086   */\n      swap1\n      pop\n        /* \"#utility.yul\":8131:8132   */\n      0x01\n        /* \"#utility.yul\":8125:8129   */\n      dup3\n        /* \"#utility.yul\":8121:8133   */\n      and\n        /* \"#utility.yul\":8152:8170   */\n      dup1\n        /* \"#utility.yul\":8142:8223   */\n      tag_186\n      jumpi\n        /* \"#utility.yul\":8208:8212   */\n      0x7f\n        /* \"#utility.yul\":8200:8206   */\n      dup3\n        /* \"#utility.yul\":8196:8213   */\n      and\n        /* \"#utility.yul\":8186:8213   */\n      swap2\n      pop\n        /* \"#utility.yul\":8142:8223   */\n    tag_186:\n        /* \"#utility.yul\":8270:8272   */\n      0x20\n        /* \"#utility.yul\":8262:8268   */\n      dup3\n        /* \"#utility.yul\":8259:8273   */\n      lt\n        /* \"#utility.yul\":8239:8257   */\n      dup2\n        /* \"#utility.yul\":8236:8274   */\n      sub\n        /* \"#utility.yul\":8233:8317   */\n      tag_187\n      jumpi\n        /* \"#utility.yul\":8289:8307   */\n      tag_188\n      tag_81\n      jump\t// in\n    tag_188:\n        /* \"#utility.yul\":8233:8317   */\n    tag_187:\n        /* \"#utility.yul\":8054:8323   */\n      pop\n        /* \"#utility.yul\":8003:8323   */\n      swap2\n      swap1\n      pop\n      jump\t// out\n        /* \"#utility.yul\":8329:8497   */\n    tag_82:\n        /* \"#utility.yul\":8469:8489   */\n      0x494420616c726561647920657869737473210000000000000000000000000000\n        /* \"#utility.yul\":8465:8466   */\n      0x00\n        /* \"#utility.yul\":8457:8463   */\n      dup3\n        /* \"#utility.yul\":8453:8467   */\n      add\n        /* \"#utility.yul\":8446:8490   */\n      mstore\n        /* \"#utility.yul\":8329:8497   */\n      pop\n      jump\t// out\n        /* \"#utility.yul\":8503:8869   */\n    tag_83:\n        /* \"#utility.yul\":8645:8648   */\n      0x00\n        /* \"#utility.yul\":8666:8733   */\n      tag_191\n        /* \"#utility.yul\":8730:8732   */\n      0x12\n        /* \"#utility.yul\":8725:8728   */\n      dup4\n        /* \"#utility.yul\":8666:8733   */\n      tag_59\n      jump\t// in\n    tag_191:\n        /* \"#utility.yul\":8659:8733   */\n      swap2\n      pop\n        /* \"#utility.yul\":8742:8835   */\n      tag_192\n        /* \"#utility.yul\":8831:8834   */\n      dup3\n        /* \"#utility.yul\":8742:8835   */\n      tag_82\n      jump\t// in\n    tag_192:\n        /* \"#utility.yul\":8860:8862   */\n      0x20\n        /* \"#utility.yul\":8855:8858   */\n      dup3\n        /* \"#utility.yul\":8851:8863   */\n      add\n        /* \"#utility.yul\":8844:8863   */\n      swap1\n      pop\n        /* \"#utility.yul\":8503:8869   */\n      swap2\n      swap1\n      pop\n      jump\t// out\n        /* \"#utility.yul\":8875:9294   */\n    tag_42:\n        /* \"#utility.yul\":9041:9045   */\n      0x00\n        /* \"#utility.yul\":9079:9081   */\n      0x20\n        /* \"#utility.yul\":9068:9077   */\n      dup3\n        /* \"#utility.yul\":9064:9082   */\n      add\n        /* \"#utility.yul\":9056:9082   */\n      swap1\n      pop\n        /* \"#utility.yul\":9128:9137   */\n      dup2\n        /* \"#utility.yul\":9122:9126   */\n      dup2\n        /* \"#utility.yul\":9118:9138   */\n      sub\n        /* \"#utility.yul\":9114:9115   */\n      0x00\n        /* \"#utility.yul\":9103:9112   */\n      dup4\n        /* \"#utility.yul\":9099:9116   */\n      add\n        /* \"#utility.yul\":9092:9139   */\n      mstore\n        /* \"#utility.yul\":9156:9287   */\n      tag_194\n        /* \"#utility.yul\":9282:9286   */\n      dup2\n        /* \"#utility.yul\":9156:9287   */\n      tag_83\n      jump\t// in\n    tag_194:\n        /* \"#utility.yul\":9148:9287   */\n      swap1\n      pop\n        /* \"#utility.yul\":8875:9294   */\n      swap2\n      swap1\n      pop\n      jump\t// out\n        /* \"#utility.yul\":9300:9441   */\n    tag_84:\n        /* \"#utility.yul\":9349:9353   */\n      0x00\n        /* \"#utility.yul\":9372:9375   */\n      dup2\n        /* \"#utility.yul\":9364:9375   */\n      swap1\n      pop\n        /* \"#utility.yul\":9395:9398   */\n      dup2\n        /* \"#utility.yul\":9392:9393   */\n      0x00\n        /* \"#utility.yul\":9385:9399   */\n      mstore\n        /* \"#utility.yul\":9429:9433   */\n      0x20\n        /* \"#utility.yul\":9426:9427   */\n      0x00\n        /* \"#utility.yul\":9416:9434   */\n      keccak256\n        /* \"#utility.yul\":9408:9434   */\n      swap1\n      pop\n        /* \"#utility.yul\":9300:9441   */\n      swap2\n      swap1\n      pop\n      jump\t// out\n        /* \"#utility.yul\":9447:9540   */\n    tag_85:\n        /* \"#utility.yul\":9484:9490   */\n      0x00\n        /* \"#utility.yul\":9531:9533   */\n      0x20\n        /* \"#utility.yul\":9526:9528   */\n      0x1f\n        /* \"#utility.yul\":9519:9524   */\n      dup4\n        /* \"#utility.yul\":9515:9529   */\n      add\n        /* \"#utility.yul\":9511:9534   */\n      div\n        /* \"#utility.yul\":9501:9534   */\n      swap1\n      pop\n        /* \"#utility.yul\":9447:9540   */\n      swap2\n      swap1\n      pop\n      jump\t// out\n        /* \"#utility.yul\":9546:9653   */\n    tag_86:\n        /* \"#utility.yul\":9590:9598   */\n      0x00\n        /* \"#utility.yul\":9640:9645   */\n      dup3\n        /* \"#utility.yul\":9634:9638   */\n      dup3\n        /* \"#utility.yul\":9630:9646   */\n      shl\n        /* \"#utility.yul\":9609:9646   */\n      swap1\n      pop\n        /* \"#utility.yul\":9546:9653   */\n      swap3\n      swap2\n      pop\n      pop\n      jump\t// out\n        /* \"#utility.yul\":9659:10052   */\n    tag_87:\n        /* \"#utility.yul\":9728:9734   */\n      0x00\n        /* \"#utility.yul\":9778:9779   */\n      0x08\n        /* \"#utility.yul\":9766:9776   */\n      dup4\n        /* \"#utility.yul\":9762:9780   */\n      mul\n        /* \"#utility.yul\":9801:9898   */\n      tag_199\n        /* \"#utility.yul\":9831:9897   */\n      0xffffffffffffffffffffffffffffffffffffffffffffffffffffffffffffffff\n        /* \"#utility.yul\":9820:9829   */\n      dup3\n        /* \"#utility.yul\":9801:9898   */\n      tag_86\n      jump\t// in\n    tag_199:\n        /* \"#utility.yul\":9919:9958   */\n      tag_200\n        /* \"#utility.yul\":9949:9957   */\n      dup7\n        /* \"#utility.yul\":9938:9947   */\n      dup4\n        /* \"#utility.yul\":9919:9958   */\n      tag_86\n      jump\t// in\n    tag_200:\n        /* \"#utility.yul\":9907:9958   */\n      swap6\n      pop\n        /* \"#utility.yul\":9991:9995   */\n      dup1\n        /* \"#utility.yul\":9987:9996   */\n      not\n        /* \"#utility.yul\":9980:9985   */\n      dup5\n        /* \"#utility.yul\":9976:9997   */\n      and\n        /* \"#utility.yul\":9967:9997   */\n      swap4\n      pop\n        /* \"#utility.yul\":10040:10044   */\n      dup1\n        /* \"#utility.yul\":10030:10038   */\n      dup7\n        /* \"#utility.yul\":10026:10045   */\n      and\n        /* \"#utility.yul\":10019:10024   */\n      dup5\n        /* \"#utility.yul\":10016:10046   */\n      or\n        /* \"#utility.yul\":10006:10046   */\n      swap3\n      pop\n        /* \"#utility.yul\":9735:10052   */\n      pop\n      pop\n        /* \"#utility.yul\":9659:10052   */\n      swap4\n      swap3\n      pop\n      pop\n      pop\n      jump\t// out\n        /* \"#utility.yul\":10058:10118   */\n    tag_88:\n        /* \"#utility.yul\":10086:10089   */\n      0x00\n        /* \"#utility.yul\":10107:10112   */\n      dup2\n        /* \"#utility.yul\":10100:10112   */\n      swap1\n      pop\n        /* \"#utility.yul\":10058:10118   */\n      swap2\n      swap1\n      pop\n      jump\t// out\n        /* \"#utility.yul\":10124:10266   */\n    tag_89:\n        /* \"#utility.yul\":10174:10183   */\n      0x00\n        /* \"#utility.yul\":10207:10260   */\n      tag_203\n        /* \"#utility.yul\":10225:10259   */\n      tag_204\n        /* \"#utility.yul\":10234:10258   */\n      tag_205\n        /* \"#utility.yul\":10252:10257   */\n      dup5\n        /* \"#utility.yul\":10234:10258   */\n      tag_51\n      jump\t// in\n    tag_205:\n        /* \"#utility.yul\":10225:10259   */\n      tag_88\n      jump\t// in\n    tag_204:\n        /* \"#utility.yul\":10207:10260   */\n      tag_51\n      jump\t// in\n    tag_203:\n        /* \"#utility.yul\":10194:10260   */\n      swap1\n      pop\n        /* \"#utility.yul\":10124:10266   */\n      swap2\n      swap1\n      pop\n      jump\t// out\n        /* \"#utility.yul\":10272:10347   */\n    tag_90:\n        /* \"#utility.yul\":10315:10318   */\n      0x00\n        /* \"#utility.yul\":10336:10341   */\n      dup2\n        /* \"#utility.yul\":10329:10341   */\n      swap1\n      pop\n        /* \"#utility.yul\":10272:10347   */\n      swap2\n      swap1\n      pop\n      jump\t// out\n        /* \"#utility.yul\":10353:10622   */\n    tag_91:\n        /* \"#utility.yul\":10463:10502   */\n      tag_208\n        /* \"#utility.yul\":10494:10501   */\n      dup4\n        /* \"#utility.yul\":10463:10502   */\n      tag_89\n      jump\t// in\n    tag_208:\n        /* \"#utility.yul\":10524:10615   */\n      tag_209\n        /* \"#utility.yul\":10573:10614   */\n      tag_210\n        /* \"#utility.yul\":10597:10613   */\n      dup3\n        /* \"#utility.yul\":10573:10614   */\n      tag_90\n      jump\t// in\n    tag_210:\n        /* \"#utility.yul\":10565:10571   */\n      dup5\n        /* \"#utility.yul\":10558:10562   */\n      dup5\n        /* \"#utility.yul\":10552:10563   */\n      sload\n        /* \"#utility.yul\":10524:10615   */\n      tag_87\n      jump\t// in\n    tag_209:\n        /* \"#utility.yul\":10518:10522   */\n      dup3\n        /* \"#utility.yul\":10511:10616   */\n      sstore\n        /* \"#utility.yul\":10429:10622   */\n      pop\n        /* \"#utility.yul\":10353:10622   */\n      pop\n      pop\n      pop\n      jump\t// out\n        /* \"#utility.yul\":10628:10701   */\n    tag_92:\n        /* \"#utility.yul\":10673:10676   */\n      0x00\n        /* \"#utility.yul\":10694:10695   */\n      0x00\n        /* \"#utility.yul\":10687:10695   */\n      swap1\n      pop\n        /* \"#utility.yul\":10628:10701   */\n      swap1\n      jump\t// out\n        /* \"#utility.yul\":10707:10896   */\n    tag_93:\n        /* \"#utility.yul\":10784:10816   */\n      tag_213\n      tag_92\n      jump\t// in\n    tag_213:\n        /* \"#utility.yul\":10825:10890   */\n      tag_214\n        /* \"#utility.yul\":10883:10889   */\n      dup2\n        /* \"#utility.yul\":10875:10881   */\n      dup5\n        /* \"#utility.yul\":10869:10873   */\n      dup5\n        /* \"#utility.yul\":10825:10890   */\n      tag_91\n      jump\t// in\n    tag_214:\n        /* \"#utility.yul\":10760:10896   */\n      pop\n        /* \"#utility.yul\":10707:10896   */\n      pop\n      pop\n      jump\t// out\n        /* \"#utility.yul\":10902:11088   */\n    tag_94:\n        /* \"#utility.yul\":10962:11082   */\n    tag_216:\n        /* \"#utility.yul\":10979:10982   */\n      dup2\n        /* \"#utility.yul\":10972:10977   */\n      dup2\n        /* \"#utility.yul\":10969:10983   */\n      lt\n        /* \"#utility.yul\":10962:11082   */\n      iszero\n      tag_218\n      jumpi\n        /* \"#utility.yul\":11033:11072   */\n      tag_219\n        /* \"#utility.yul\":11070:11071   */\n      0x00\n        /* \"#utility.yul\":11063:11068   */\n      dup3\n        /* \"#utility.yul\":11033:11072   */\n      tag_93\n      jump\t// in\n    tag_219:\n        /* \"#utility.yul\":11006:11007   */\n      0x01\n        /* \"#utility.yul\":10999:11004   */\n      dup2\n        /* \"#utility.yul\":10995:11008   */\n      add\n        /* \"#utility.yul\":10986:11008   */\n      swap1\n      pop\n        /* \"#utility.yul\":10962:11082   */\n      jump(tag_216)\n    tag_218:\n        /* \"#utility.yul\":10902:11088   */\n      pop\n      pop\n      jump\t// out\n        /* \"#utility.yul\":11094:11637   */\n    tag_95:\n        /* \"#utility.yul\":11195:11197   */\n      0x1f\n        /* \"#utility.yul\":11190:11193   */\n      dup3\n        /* \"#utility.yul\":11187:11198   */\n      gt\n        /* \"#utility.yul\":11184:11630   */\n      iszero\n      tag_221\n      jumpi\n        /* \"#utility.yul\":11229:11267   */\n      tag_222\n        /* \"#utility.yul\":11261:11266   */\n      dup2\n        /* \"#utility.yul\":11229:11267   */\n      tag_84\n      jump\t// in\n    tag_222:\n        /* \"#utility.yul\":11313:11342   */\n      tag_223\n        /* \"#utility.yul\":11331:11341   */\n      dup5\n        /* \"#utility.yul\":11313:11342   */\n      tag_85\n      jump\t// in\n    tag_223:\n        /* \"#utility.yul\":11303:11311   */\n      dup2\n        /* \"#utility.yul\":11299:11343   */\n      add\n        /* \"#utility.yul\":11496:11498   */\n      0x20\n        /* \"#utility.yul\":11484:11494   */\n      dup6\n        /* \"#utility.yul\":11481:11499   */\n      lt\n        /* \"#utility.yul\":11478:11527   */\n      iszero\n      tag_224\n      jumpi\n        /* \"#utility.yul\":11517:11525   */\n      dup2\n        /* \"#utility.yul\":11502:11525   */\n      swap1\n      pop\n        /* \"#utility.yul\":11478:11527   */\n    tag_224:\n        /* \"#utility.yul\":11540:11620   */\n      tag_225\n        /* \"#utility.yul\":11596:11618   */\n      tag_226\n        /* \"#utility.yul\":11614:11617   */\n      dup6\n        /* \"#utility.yul\":11596:11618   */\n      tag_85\n      jump\t// in\n    tag_226:\n        /* \"#utility.yul\":11586:11594   */\n      dup4\n        /* \"#utility.yul\":11582:11619   */\n      add\n        /* \"#utility.yul\":11569:11580   */\n      dup3\n        /* \"#utility.yul\":11540:11620   */\n      tag_94\n      jump\t// in\n    tag_225:\n        /* \"#utility.yul\":11199:11630   */\n      pop\n      pop\n        /* \"#utility.yul\":11184:11630   */\n    tag_221:\n        /* \"#utility.yul\":11094:11637   */\n      pop\n      pop\n      pop\n      jump\t// out\n        /* \"#utility.yul\":11643:11760   */\n    tag_96:\n        /* \"#utility.yul\":11697:11705   */\n      0x00\n        /* \"#utility.yul\":11747:11752   */\n      dup3\n        /* \"#utility.yul\":11741:11745   */\n      dup3\n        /* \"#utility.yul\":11737:11753   */\n      shr\n        /* \"#utility.yul\":11716:11753   */\n      swap1\n      pop\n        /* \"#utility.yul\":11643:11760   */\n      swap3\n      swap2\n      pop\n      pop\n      jump\t// out\n        /* \"#utility.yul\":11766:11935   */\n    tag_97:\n        /* \"#utility.yul\":11810:11816   */\n      0x00\n        /* \"#utility.yul\":11843:11894   */\n      tag_229\n        /* \"#utility.yul\":11891:11892   */\n      0x00\n        /* \"#utility.yul\":11887:11893   */\n      not\n        /* \"#utility.yul\":11879:11884   */\n      dup5\n        /* \"#utility.yul\":11876:11877   */\n      0x08\n        /* \"#utility.yul\":11872:11885   */\n      mul\n        /* \"#utility.yul\":11843:11894   */\n      tag_96\n      jump\t// in\n    tag_229:\n        /* \"#utility.yul\":11839:11895   */\n      not\n        /* \"#utility.yul\":11924:11928   */\n      dup1\n        /* \"#utility.yul\":11918:11922   */\n      dup4\n        /* \"#utility.yul\":11914:11929   */\n      and\n        /* \"#utility.yul\":11904:11929   */\n      swap2\n      pop\n        /* \"#utility.yul\":11817:11935   */\n      pop\n        /* \"#utility.yul\":11766:11935   */\n      swap3\n      swap2\n      pop\n      pop\n      jump\t// out\n        /* \"#utility.yul\":11940:12235   */\n    tag_98:\n        /* \"#utility.yul\":12016:12020   */\n      0x00\n        /* \"#utility.yul\":12162:12191   */\n      tag_231\n        /* \"#utility.yul\":12187:12190   */\n      dup4\n        /* \"#utility.yul\":12181:12185   */\n      dup4\n        /* \"#utility.yul\":12162:12191   */\n      tag_97\n      jump\t// in\n    tag_231:\n        /* \"#utility.yul\":12154:12191   */\n      swap2\n      pop\n        /* \"#utility.yul\":12224:12227   */\n      dup3\n        /* \"#utility.yul\":12221:12222   */\n      0x02\n        /* \"#utility.yul\":12217:12228   */\n      mul\n        /* \"#utility.yul\":12211:12215   */\n      dup3\n        /* \"#utility.yul\":12208:12229   */\n      or\n        /* \"#utility.yul\":12200:12229   */\n      swap1\n      pop\n        /* \"#utility.yul\":11940:12235   */\n      swap3\n      swap2\n      pop\n      pop\n      jump\t// out\n        /* \"#utility.yul\":12240:13635   */\n    tag_44:\n        /* \"#utility.yul\":12357:12394   */\n      tag_233\n        /* \"#utility.yul\":12390:12393   */\n      dup3\n        /* \"#utility.yul\":12357:12394   */\n      tag_58\n      jump\t// in\n    tag_233:\n        /* \"#utility.yul\":12459:12477   */\n      0xffffffffffffffff\n        /* \"#utility.yul\":12451:12457   */\n      dup2\n        /* \"#utility.yul\":12448:12478   */\n      gt\n        /* \"#utility.yul\":12445:12501   */\n      iszero\n      tag_234\n      jumpi\n        /* \"#utility.yul\":12481:12499   */\n      tag_235\n      tag_67\n      jump\t// in\n    tag_235:\n        /* \"#utility.yul\":12445:12501   */\n    tag_234:\n        /* \"#utility.yul\":12525:12563   */\n      tag_236\n        /* \"#utility.yul\":12557:12561   */\n      dup3\n        /* \"#utility.yul\":12551:12562   */\n      sload\n        /* \"#utility.yul\":12525:12563   */\n      tag_32\n      jump\t// in\n    tag_236:\n        /* \"#utility.yul\":12610:12677   */\n      tag_237\n        /* \"#utility.yul\":12670:12676   */\n      dup3\n        /* \"#utility.yul\":12662:12668   */\n      dup3\n        /* \"#utility.yul\":12656:12660   */\n      dup6\n        /* \"#utility.yul\":12610:12677   */\n      tag_95\n      jump\t// in\n    tag_237:\n        /* \"#utility.yul\":12704:12705   */\n      0x00\n        /* \"#utility.yul\":12728:12732   */\n      0x20\n        /* \"#utility.yul\":12715:12732   */\n      swap1\n      pop\n        /* \"#utility.yul\":12760:12762   */\n      0x1f\n        /* \"#utility.yul\":12752:12758   */\n      dup4\n        /* \"#utility.yul\":12749:12763   */\n      gt\n        /* \"#utility.yul\":12777:12778   */\n      0x01\n        /* \"#utility.yul\":12772:13390   */\n      dup2\n      eq\n      tag_239\n      jumpi\n        /* \"#utility.yul\":13434:13435   */\n      0x00\n        /* \"#utility.yul\":13451:13457   */\n      dup5\n        /* \"#utility.yul\":13448:13525   */\n      iszero\n      tag_240\n      jumpi\n        /* \"#utility.yul\":13500:13509   */\n      dup3\n        /* \"#utility.yul\":13495:13498   */\n      dup8\n        /* \"#utility.yul\":13491:13510   */\n      add\n        /* \"#utility.yul\":13485:13511   */\n      mload\n        /* \"#utility.yul\":13476:13511   */\n      swap1\n      pop\n        /* \"#utility.yul\":13448:13525   */\n    tag_240:\n        /* \"#utility.yul\":13551:13618   */\n      tag_241\n        /* \"#utility.yul\":13611:13617   */\n      dup6\n        /* \"#utility.yul\":13604:13609   */\n      dup3\n        /* \"#utility.yul\":13551:13618   */\n      tag_98\n      jump\t// in\n    tag_241:\n        /* \"#utility.yul\":13545:13549   */\n      dup7\n        /* \"#utility.yul\":13538:13619   */\n      sstore\n        /* \"#utility.yul\":13407:13629   */\n      pop\n        /* \"#utility.yul\":12742:13629   */\n      jump(tag_238)\n        /* \"#utility.yul\":12772:13390   */\n    tag_239:\n        /* \"#utility.yul\":12824:12828   */\n      0x1f\n        /* \"#utility.yul\":12820:12829   */\n      not\n        /* \"#utility.yul\":12812:12818   */\n      dup5\n        /* \"#utility.yul\":12808:12830   */\n      and\n        /* \"#utility.yul\":12858:12895   */\n      tag_242\n        /* \"#utility.yul\":12890:12894   */\n      dup7\n        /* \"#utility.yul\":12858:12895   */\n      tag_84\n      jump\t// in\n    tag_242:\n        /* \"#utility.yul\":12917:12918   */\n      0x00\n        /* \"#utility.yul\":12931:13139   */\n    tag_243:\n        /* \"#utility.yul\":12945:12952   */\n      dup3\n        /* \"#utility.yul\":12942:12943   */\n      dup2\n        /* \"#utility.yul\":12939:12953   */\n      lt\n        /* \"#utility.yul\":12931:13139   */\n      iszero\n      tag_245\n      jumpi\n        /* \"#utility.yul\":13024:13033   */\n      dup5\n        /* \"#utility.yul\":13019:13022   */\n      dup10\n        /* \"#utility.yul\":13015:13034   */\n      add\n        /* \"#utility.yul\":13009:13035   */\n      mload\n        /* \"#utility.yul\":13001:13007   */\n      dup3\n        /* \"#utility.yul\":12994:13036   */\n      sstore\n        /* \"#utility.yul\":13075:13076   */\n      0x01\n        /* \"#utility.yul\":13067:13073   */\n      dup3\n        /* \"#utility.yul\":13063:13077   */\n      add\n        /* \"#utility.yul\":13053:13077   */\n      swap2\n      pop\n        /* \"#utility.yul\":13122:13124   */\n      0x20\n        /* \"#utility.yul\":13111:13120   */\n      dup6\n        /* \"#utility.yul\":13107:13125   */\n      add\n        /* \"#utility.yul\":13094:13125   */\n      swap5\n      pop\n        /* \"#utility.yul\":12968:12972   */\n      0x20\n        /* \"#utility.yul\":12965:12966   */\n      dup2\n        /* \"#utility.yul\":12961:12973   */\n      add\n        /* \"#utility.yul\":12956:12973   */\n      swap1\n      pop\n        /* \"#utility.yul\":12931:13139   */\n      jump(tag_243)\n    tag_245:\n        /* \"#utility.yul\":13167:13173   */\n      dup7\n        /* \"#utility.yul\":13158:13165   */\n      dup4\n        /* \"#utility.yul\":13155:13174   */\n      lt\n        /* \"#utility.yul\":13152:13331   */\n      iszero\n      tag_246\n      jumpi\n        /* \"#utility.yul\":13225:13234   */\n      dup5\n        /* \"#utility.yul\":13220:13223   */\n      dup10\n        /* \"#utility.yul\":13216:13235   */\n      add\n        /* \"#utility.yul\":13210:13236   */\n      mload\n        /* \"#utility.yul\":13268:13316   */\n      tag_247\n        /* \"#utility.yul\":13310:13314   */\n      0x1f\n        /* \"#utility.yul\":13302:13308   */\n      dup10\n        /* \"#utility.yul\":13298:13315   */\n      and\n        /* \"#utility.yul\":13287:13296   */\n      dup3\n        /* \"#utility.yul\":13268:13316   */\n      tag_97\n      jump\t// in\n    tag_247:\n        /* \"#utility.yul\":13260:13266   */\n      dup4\n        /* \"#utility.yul\":13253:13317   */\n      sstore\n        /* \"#utility.yul\":13175:13331   */\n      pop\n        /* \"#utility.yul\":13152:13331   */\n    tag_246:\n        /* \"#utility.yul\":13377:13378   */\n      0x01\n        /* \"#utility.yul\":13373:13374   */\n      0x02\n        /* \"#utility.yul\":13365:13371   */\n      dup9\n        /* \"#utility.yul\":13361:13375   */\n      mul\n        /* \"#utility.yul\":13357:13379   */\n      add\n        /* \"#utility.yul\":13351:13355   */\n      dup9\n        /* \"#utility.yul\":13344:13380   */\n      sstore\n        /* \"#utility.yul\":12779:13390   */\n      pop\n      pop\n      pop\n        /* \"#utility.yul\":12742:13629   */\n    tag_238:\n      pop\n        /* \"#utility.yul\":12332:13635   */\n      pop\n      pop\n      pop\n        /* \"#utility.yul\":12240:13635   */\n      pop\n      pop\n      jump\t// out\n        /* \"#utility.yul\":13641:14064   */\n    tag_47:\n        /* \"#utility.yul\":13782:13786   */\n      0x00\n        /* \"#utility.yul\":13820:13822   */\n      0x40\n        /* \"#utility.yul\":13809:13818   */\n      dup3\n        /* \"#utility.yul\":13805:13823   */\n      add\n        /* \"#utility.yul\":13797:13823   */\n      swap1\n      pop\n        /* \"#utility.yul\":13833:13904   */\n      tag_249\n        /* \"#utility.yul\":13901:13902   */\n      0x00\n        /* \"#utility.yul\":13890:13899   */\n      dup4\n        /* \"#utility.yul\":13886:13903   */\n      add\n        /* \"#utility.yul\":13877:13883   */\n      dup6\n        /* \"#utility.yul\":13833:13904   */\n      tag_52\n      jump\t// in\n    tag_249:\n        /* \"#utility.yul\":13951:13960   */\n      dup2\n        /* \"#utility.yul\":13945:13949   */\n      dup2\n        /* \"#utility.yul\":13941:13961   */\n      sub\n        /* \"#utility.yul\":13936:13938   */\n      0x20\n        /* \"#utility.yul\":13925:13934   */\n      dup4\n        /* \"#utility.yul\":13921:13939   */\n      add\n        /* \"#utility.yul\":13914:13962   */\n      mstore\n        /* \"#utility.yul\":13979:14057   */\n      tag_250\n        /* \"#utility.yul\":14052:14056   */\n      dup2\n        /* \"#utility.yul\":14043:14049   */\n      dup5\n        /* \"#utility.yul\":13979:14057   */\n      tag_62\n      jump\t// in\n    tag_250:\n        /* \"#utility.yul\":13971:14057   */\n      swap1\n      pop\n        /* \"#utility.yul\":13641:14064   */\n      swap4\n      swap3\n      pop\n      pop\n      pop\n      jump\t// out\n\n    auxdata: 0xa264697066735822122069243a6b3176abcdf7e96dde0fbb90ea7cbaae589f4684cf916188cf56a7151e64736f6c634300081f0033\n}\n",
				"bytecode": {
					"linkReferences": {},
					"object": "6080604052348015600e575f5ffd5b50610acf8061001c5f395ff3fe608060405234801561000f575f5ffd5b5060043610610055575f3560e01c80633c51b21f14610059578063412f2e82146100775780636dc65f95146100a9578063b716f57b146100d9578063ede823db146100f5575b5f5ffd5b610061610113565b60405161006e9190610395565b60405180910390f35b610091600480360381019061008c91906103e9565b61011f565b6040516100a09392919061049e565b60405180910390f35b6100c360048036038101906100be91906103e9565b6101d6565b6040516100d09190610395565b60405180910390f35b6100f360048036038101906100ee9190610606565b6101f6565b005b6100fd610327565b60405161010a9190610717565b60405180910390f35b5f600180549050905090565b5f602052805f5260405f205f91509050805f01549080600101805461014390610764565b80601f016020809104026020016040519081016040528092919081815260200182805461016f90610764565b80156101ba5780601f10610191576101008083540402835291602001916101ba565b820191905f5260205f20905b81548152906001019060200180831161019d57829003601f168201915b505050505090806002015f9054906101000a900460ff16905083565b600181815481106101e5575f80fd5b905f5260205f20015f915090505481565b5f5f8381526020019081526020015f206002015f9054906101000a900460ff1615610256576040517f08c379a000000000000000000000000000000000000000000000000000000000815260040161024d906107de565b60405180910390fd5b6040518060600160405280838152602001828152602001600115158152505f5f8481526020019081526020015f205f820151815f015560208201518160010190816102a1919061099c565b506040820151816002015f6101000a81548160ff021916908315150217905550905050600182908060018154018082558091505060019003905f5260205f20015f90919091909150557f7d4038cd43138956f698e4eb6ff9d74bed9a7abec62ba924794620a345e92a5f828260405161031b929190610a6b565b60405180910390a15050565b6060600180548060200260200160405190810160405280929190818152602001828054801561037357602002820191905f5260205f20905b81548152602001906001019080831161035f575b5050505050905090565b5f819050919050565b61038f8161037d565b82525050565b5f6020820190506103a85f830184610386565b92915050565b5f604051905090565b5f5ffd5b5f5ffd5b6103c88161037d565b81146103d2575f5ffd5b50565b5f813590506103e3816103bf565b92915050565b5f602082840312156103fe576103fd6103b7565b5b5f61040b848285016103d5565b91505092915050565b5f81519050919050565b5f82825260208201905092915050565b8281835e5f83830152505050565b5f601f19601f8301169050919050565b5f61045682610414565b610460818561041e565b935061047081856020860161042e565b6104798161043c565b840191505092915050565b5f8115159050919050565b61049881610484565b82525050565b5f6060820190506104b15f830186610386565b81810360208301526104c3818561044c565b90506104d2604083018461048f565b949350505050565b5f5ffd5b5f5ffd5b7f4e487b71000000000000000000000000000000000000000000000000000000005f52604160045260245ffd5b6105188261043c565b810181811067ffffffffffffffff82111715610537576105366104e2565b5b80604052505050565b5f6105496103ae565b9050610555828261050f565b919050565b5f67ffffffffffffffff821115610574576105736104e2565b5b61057d8261043c565b9050602081019050919050565b828183375f83830152505050565b5f6105aa6105a58461055a565b610540565b9050828152602081018484840111156105c6576105c56104de565b5b6105d184828561058a565b509392505050565b5f82601f8301126105ed576105ec6104da565b5b81356105fd848260208601610598565b91505092915050565b5f5f6040838503121561061c5761061b6103b7565b5b5f610629858286016103d5565b925050602083013567ffffffffffffffff81111561064a576106496103bb565b5b610656858286016105d9565b9150509250929050565b5f81519050919050565b5f82825260208201905092915050565b5f819050602082019050919050565b6106928161037d565b82525050565b5f6106a38383610689565b60208301905092915050565b5f602082019050919050565b5f6106c582610660565b6106cf818561066a565b93506106da8361067a565b805f5b8381101561070a5781516106f18882610698565b97506106fc836106af565b9250506001810190506106dd565b5085935050505092915050565b5f6020820190508181035f83015261072f81846106bb565b905092915050565b7f4e487b71000000000000000000000000000000000000000000000000000000005f52602260045260245ffd5b5f600282049050600182168061077b57607f821691505b60208210810361078e5761078d610737565b5b50919050565b7f494420616c7265616479206578697374732100000000000000000000000000005f82015250565b5f6107c860128361041e565b91506107d382610794565b602082019050919050565b5f6020820190508181035f8301526107f5816107bc565b9050919050565b5f819050815f5260205f209050919050565b5f6020601f8301049050919050565b5f82821b905092915050565b5f600883026108587fffffffffffffffffffffffffffffffffffffffffffffffffffffffffffffffff8261081d565b610862868361081d565b95508019841693508086168417925050509392505050565b5f819050919050565b5f61089d6108986108938461037d565b61087a565b61037d565b9050919050565b5f819050919050565b6108b683610883565b6108ca6108c2826108a4565b848454610829565b825550505050565b5f5f905090565b6108e16108d2565b6108ec8184846108ad565b505050565b5b8181101561090f576109045f826108d9565b6001810190506108f2565b5050565b601f82111561095457610925816107fc565b61092e8461080e565b8101602085101561093d578190505b6109516109498561080e565b8301826108f1565b50505b505050565b5f82821c905092915050565b5f6109745f1984600802610959565b1980831691505092915050565b5f61098c8383610965565b9150826002028217905092915050565b6109a582610414565b67ffffffffffffffff8111156109be576109bd6104e2565b5b6109c88254610764565b6109d3828285610913565b5f60209050601f831160018114610a04575f84156109f2578287015190505b6109fc8582610981565b865550610a63565b601f198416610a12866107fc565b5f5b82811015610a3957848901518255600182019150602085019450602081019050610a14565b86831015610a565784890151610a52601f891682610965565b8355505b6001600288020188555050505b505050505050565b5f604082019050610a7e5f830185610386565b8181036020830152610a90818461044c565b9050939250505056fea264697066735822122069243a6b3176abcdf7e96dde0fbb90ea7cbaae589f4684cf916188cf56a7151e64736f6c634300081f0033",
					"opcodes": "PUSH1 0x80 PUSH1 0x40 MSTORE CALLVALUE DUP1 ISZERO PUSH1 0xE JUMPI PUSH0 PUSH0 REVERT JUMPDEST POP PUSH2 0xACF DUP1 PUSH2 0x1C PUSH0 CODECOPY PUSH0 RETURN INVALID PUSH1 0x80 PUSH1 0x40 MSTORE CALLVALUE DUP1 ISZERO PUSH2 0xF JUMPI PUSH0 PUSH0 REVERT JUMPDEST POP PUSH1 0x4 CALLDATASIZE LT PUSH2 0x55 JUMPI PUSH0 CALLDATALOAD PUSH1 0xE0 SHR DUP1 PUSH4 0x3C51B21F EQ PUSH2 0x59 JUMPI DUP1 PUSH4 0x412F2E82 EQ PUSH2 0x77 JUMPI DUP1 PUSH4 0x6DC65F95 EQ PUSH2 0xA9 JUMPI DUP1 PUSH4 0xB716F57B EQ PUSH2 0xD9 JUMPI DUP1 PUSH4 0xEDE823DB EQ PUSH2 0xF5 JUMPI JUMPDEST PUSH0 PUSH0 REVERT JUMPDEST PUSH2 0x61 PUSH2 0x113 JUMP JUMPDEST PUSH1 0x40 MLOAD PUSH2 0x6E SWAP2 SWAP1 PUSH2 0x395 JUMP JUMPDEST PUSH1 0x40 MLOAD DUP1 SWAP2 SUB SWAP1 RETURN JUMPDEST PUSH2 0x91 PUSH1 0x4 DUP1 CALLDATASIZE SUB DUP2 ADD SWAP1 PUSH2 0x8C SWAP2 SWAP1 PUSH2 0x3E9 JUMP JUMPDEST PUSH2 0x11F JUMP JUMPDEST PUSH1 0x40 MLOAD PUSH2 0xA0 SWAP4 SWAP3 SWAP2 SWAP1 PUSH2 0x49E JUMP JUMPDEST PUSH1 0x40 MLOAD DUP1 SWAP2 SUB SWAP1 RETURN JUMPDEST PUSH2 0xC3 PUSH1 0x4 DUP1 CALLDATASIZE SUB DUP2 ADD SWAP1 PUSH2 0xBE SWAP2 SWAP1 PUSH2 0x3E9 JUMP JUMPDEST PUSH2 0x1D6 JUMP JUMPDEST PUSH1 0x40 MLOAD PUSH2 0xD0 SWAP2 SWAP1 PUSH2 0x395 JUMP JUMPDEST PUSH1 0x40 MLOAD DUP1 SWAP2 SUB SWAP1 RETURN JUMPDEST PUSH2 0xF3 PUSH1 0x4 DUP1 CALLDATASIZE SUB DUP2 ADD SWAP1 PUSH2 0xEE SWAP2 SWAP1 PUSH2 0x606 JUMP JUMPDEST PUSH2 0x1F6 JUMP JUMPDEST STOP JUMPDEST PUSH2 0xFD PUSH2 0x327 JUMP JUMPDEST PUSH1 0x40 MLOAD PUSH2 0x10A SWAP2 SWAP1 PUSH2 0x717 JUMP JUMPDEST PUSH1 0x40 MLOAD DUP1 SWAP2 SUB SWAP1 RETURN JUMPDEST PUSH0 PUSH1 0x1 DUP1 SLOAD SWAP1 POP SWAP1 POP SWAP1 JUMP JUMPDEST PUSH0 PUSH1 0x20 MSTORE DUP1 PUSH0 MSTORE PUSH1 0x40 PUSH0 KECCAK256 PUSH0 SWAP2 POP SWAP1 POP DUP1 PUSH0 ADD SLOAD SWAP1 DUP1 PUSH1 0x1 ADD DUP1 SLOAD PUSH2 0x143 SWAP1 PUSH2 0x764 JUMP JUMPDEST DUP1 PUSH1 0x1F ADD PUSH1 0x20 DUP1 SWAP2 DIV MUL PUSH1 0x20 ADD PUSH1 0x40 MLOAD SWAP1 DUP2 ADD PUSH1 0x40 MSTORE DUP1 SWAP3 SWAP2 SWAP1 DUP2 DUP2 MSTORE PUSH1 0x20 ADD DUP3 DUP1 SLOAD PUSH2 0x16F SWAP1 PUSH2 0x764 JUMP JUMPDEST DUP1 ISZERO PUSH2 0x1BA JUMPI DUP1 PUSH1 0x1F LT PUSH2 0x191 JUMPI PUSH2 0x100 DUP1 DUP4 SLOAD DIV MUL DUP4 MSTORE SWAP2 PUSH1 0x20 ADD SWAP2 PUSH2 0x1BA JUMP JUMPDEST DUP3 ADD SWAP2 SWAP1 PUSH0 MSTORE PUSH1 0x20 PUSH0 KECCAK256 SWAP1 JUMPDEST DUP2 SLOAD DUP2 MSTORE SWAP1 PUSH1 0x1 ADD SWAP1 PUSH1 0x20 ADD DUP1 DUP4 GT PUSH2 0x19D JUMPI DUP3 SWAP1 SUB PUSH1 0x1F AND DUP3 ADD SWAP2 JUMPDEST POP POP POP POP POP SWAP1 DUP1 PUSH1 0x2 ADD PUSH0 SWAP1 SLOAD SWAP1 PUSH2 0x100 EXP SWAP1 DIV PUSH1 0xFF AND SWAP1 POP DUP4 JUMP JUMPDEST PUSH1 0x1 DUP2 DUP2 SLOAD DUP2 LT PUSH2 0x1E5 JUMPI PUSH0 DUP1 REVERT JUMPDEST SWAP1 PUSH0 MSTORE PUSH1 0x20 PUSH0 KECCAK256 ADD PUSH0 SWAP2 POP SWAP1 POP SLOAD DUP2 JUMP JUMPDEST PUSH0 PUSH0 DUP4 DUP2 MSTORE PUSH1 0x20 ADD SWAP1 DUP2 MSTORE PUSH1 0x20 ADD PUSH0 KECCAK256 PUSH1 0x2 ADD PUSH0 SWAP1 SLOAD SWAP1 PUSH2 0x100 EXP SWAP1 DIV PUSH1 0xFF AND ISZERO PUSH2 0x256 JUMPI PUSH1 0x40 MLOAD PUSH32 0x8C379A000000000000000000000000000000000000000000000000000000000 DUP2 MSTORE PUSH1 0x4 ADD PUSH2 0x24D SWAP1 PUSH2 0x7DE JUMP JUMPDEST PUSH1 0x40 MLOAD DUP1 SWAP2 SUB SWAP1 REVERT JUMPDEST PUSH1 0x40 MLOAD DUP1 PUSH1 0x60 ADD PUSH1 0x40 MSTORE DUP1 DUP4 DUP2 MSTORE PUSH1 0x20 ADD DUP3 DUP2 MSTORE PUSH1 0x20 ADD PUSH1 0x1 ISZERO ISZERO DUP2 MSTORE POP PUSH0 PUSH0 DUP5 DUP2 MSTORE PUSH1 0x20 ADD SWAP1 DUP2 MSTORE PUSH1 0x20 ADD PUSH0 KECCAK256 PUSH0 DUP3 ADD MLOAD DUP2 PUSH0 ADD SSTORE PUSH1 0x20 DUP3 ADD MLOAD DUP2 PUSH1 0x1 ADD SWAP1 DUP2 PUSH2 0x2A1 SWAP2 SWAP1 PUSH2 0x99C JUMP JUMPDEST POP PUSH1 0x40 DUP3 ADD MLOAD DUP2 PUSH1 0x2 ADD PUSH0 PUSH2 0x100 EXP DUP2 SLOAD DUP2 PUSH1 0xFF MUL NOT AND SWAP1 DUP4 ISZERO ISZERO MUL OR SWAP1 SSTORE POP SWAP1 POP POP PUSH1 0x1 DUP3 SWAP1 DUP1 PUSH1 0x1 DUP2 SLOAD ADD DUP1 DUP3 SSTORE DUP1 SWAP2 POP POP PUSH1 0x1 SWAP1 SUB SWAP1 PUSH0 MSTORE PUSH1 0x20 PUSH0 KECCAK256 ADD PUSH0 SWAP1 SWAP2 SWAP1 SWAP2 SWAP1 SWAP2 POP SSTORE PUSH32 0x7D4038CD43138956F698E4EB6FF9D74BED9A7ABEC62BA924794620A345E92A5F DUP3 DUP3 PUSH1 0x40 MLOAD PUSH2 0x31B SWAP3 SWAP2 SWAP1 PUSH2 0xA6B JUMP JUMPDEST PUSH1 0x40 MLOAD DUP1 SWAP2 SUB SWAP1 LOG1 POP POP JUMP JUMPDEST PUSH1 0x60 PUSH1 0x1 DUP1 SLOAD DUP1 PUSH1 0x20 MUL PUSH1 0x20 ADD PUSH1 0x40 MLOAD SWAP1 DUP2 ADD PUSH1 0x40 MSTORE DUP1 SWAP3 SWAP2 SWAP1 DUP2 DUP2 MSTORE PUSH1 0x20 ADD DUP3 DUP1 SLOAD DUP1 ISZERO PUSH2 0x373 JUMPI PUSH1 0x20 MUL DUP3 ADD SWAP2 SWAP1 PUSH0 MSTORE PUSH1 0x20 PUSH0 KECCAK256 SWAP1 JUMPDEST DUP2 SLOAD DUP2 MSTORE PUSH1 0x20 ADD SWAP1 PUSH1 0x1 ADD SWAP1 DUP1 DUP4 GT PUSH2 0x35F JUMPI JUMPDEST POP POP POP POP POP SWAP1 POP SWAP1 JUMP JUMPDEST PUSH0 DUP2 SWAP1 POP SWAP2 SWAP1 POP JUMP JUMPDEST PUSH2 0x38F DUP2 PUSH2 0x37D JUMP JUMPDEST DUP3 MSTORE POP POP JUMP JUMPDEST PUSH0 PUSH1 0x20 DUP3 ADD SWAP1 POP PUSH2 0x3A8 PUSH0 DUP4 ADD DUP5 PUSH2 0x386 JUMP JUMPDEST SWAP3 SWAP2 POP POP JUMP JUMPDEST PUSH0 PUSH1 0x40 MLOAD SWAP1 POP SWAP1 JUMP JUMPDEST PUSH0 PUSH0 REVERT JUMPDEST PUSH0 PUSH0 REVERT JUMPDEST PUSH2 0x3C8 DUP2 PUSH2 0x37D JUMP JUMPDEST DUP2 EQ PUSH2 0x3D2 JUMPI PUSH0 PUSH0 REVERT JUMPDEST POP JUMP JUMPDEST PUSH0 DUP2 CALLDATALOAD SWAP1 POP PUSH2 0x3E3 DUP2 PUSH2 0x3BF JUMP JUMPDEST SWAP3 SWAP2 POP POP JUMP JUMPDEST PUSH0 PUSH1 0x20 DUP3 DUP5 SUB SLT ISZERO PUSH2 0x3FE JUMPI PUSH2 0x3FD PUSH2 0x3B7 JUMP JUMPDEST JUMPDEST PUSH0 PUSH2 0x40B DUP5 DUP3 DUP6 ADD PUSH2 0x3D5 JUMP JUMPDEST SWAP2 POP POP SWAP3 SWAP2 POP POP JUMP JUMPDEST PUSH0 DUP2 MLOAD SWAP1 POP SWAP2 SWAP1 POP JUMP JUMPDEST PUSH0 DUP3 DUP3 MSTORE PUSH1 0x20 DUP3 ADD SWAP1 POP SWAP3 SWAP2 POP POP JUMP JUMPDEST DUP3 DUP2 DUP4 MCOPY PUSH0 DUP4 DUP4 ADD MSTORE POP POP POP JUMP JUMPDEST PUSH0 PUSH1 0x1F NOT PUSH1 0x1F DUP4 ADD AND SWAP1 POP SWAP2 SWAP1 POP JUMP JUMPDEST PUSH0 PUSH2 0x456 DUP3 PUSH2 0x414 JUMP JUMPDEST PUSH2 0x460 DUP2 DUP6 PUSH2 0x41E JUMP JUMPDEST SWAP4 POP PUSH2 0x470 DUP2 DUP6 PUSH1 0x20 DUP7 ADD PUSH2 0x42E JUMP JUMPDEST PUSH2 0x479 DUP2 PUSH2 0x43C JUMP JUMPDEST DUP5 ADD SWAP2 POP POP SWAP3 SWAP2 POP POP JUMP JUMPDEST PUSH0 DUP2 ISZERO ISZERO SWAP1 POP SWAP2 SWAP1 POP JUMP JUMPDEST PUSH2 0x498 DUP2 PUSH2 0x484 JUMP JUMPDEST DUP3 MSTORE POP POP JUMP JUMPDEST PUSH0 PUSH1 0x60 DUP3 ADD SWAP1 POP PUSH2 0x4B1 PUSH0 DUP4 ADD DUP7 PUSH2 0x386 JUMP JUMPDEST DUP2 DUP2 SUB PUSH1 0x20 DUP4 ADD MSTORE PUSH2 0x4C3 DUP2 DUP6 PUSH2 0x44C JUMP JUMPDEST SWAP1 POP PUSH2 0x4D2 PUSH1 0x40 DUP4 ADD DUP5 PUSH2 0x48F JUMP JUMPDEST SWAP5 SWAP4 POP POP POP POP JUMP JUMPDEST PUSH0 PUSH0 REVERT JUMPDEST PUSH0 PUSH0 REVERT JUMPDEST PUSH32 0x4E487B7100000000000000000000000000000000000000000000000000000000 PUSH0 MSTORE PUSH1 0x41 PUSH1 0x4 MSTORE PUSH1 0x24 PUSH0 REVERT JUMPDEST PUSH2 0x518 DUP3 PUSH2 0x43C JUMP JUMPDEST DUP2 ADD DUP2 DUP2 LT PUSH8 0xFFFFFFFFFFFFFFFF DUP3 GT OR ISZERO PUSH2 0x537 JUMPI PUSH2 0x536 PUSH2 0x4E2 JUMP JUMPDEST JUMPDEST DUP1 PUSH1 0x40 MSTORE POP POP POP JUMP JUMPDEST PUSH0 PUSH2 0x549 PUSH2 0x3AE JUMP JUMPDEST SWAP1 POP PUSH2 0x555 DUP3 DUP3 PUSH2 0x50F JUMP JUMPDEST SWAP2 SWAP1 POP JUMP JUMPDEST PUSH0 PUSH8 0xFFFFFFFFFFFFFFFF DUP3 GT ISZERO PUSH2 0x574 JUMPI PUSH2 0x573 PUSH2 0x4E2 JUMP JUMPDEST JUMPDEST PUSH2 0x57D DUP3 PUSH2 0x43C JUMP JUMPDEST SWAP1 POP PUSH1 0x20 DUP2 ADD SWAP1 POP SWAP2 SWAP1 POP JUMP JUMPDEST DUP3 DUP2 DUP4 CALLDATACOPY PUSH0 DUP4 DUP4 ADD MSTORE POP POP POP JUMP JUMPDEST PUSH0 PUSH2 0x5AA PUSH2 0x5A5 DUP5 PUSH2 0x55A JUMP JUMPDEST PUSH2 0x540 JUMP JUMPDEST SWAP1 POP DUP3 DUP2 MSTORE PUSH1 0x20 DUP2 ADD DUP5 DUP5 DUP5 ADD GT ISZERO PUSH2 0x5C6 JUMPI PUSH2 0x5C5 PUSH2 0x4DE JUMP JUMPDEST JUMPDEST PUSH2 0x5D1 DUP5 DUP3 DUP6 PUSH2 0x58A JUMP JUMPDEST POP SWAP4 SWAP3 POP POP POP JUMP JUMPDEST PUSH0 DUP3 PUSH1 0x1F DUP4 ADD SLT PUSH2 0x5ED JUMPI PUSH2 0x5EC PUSH2 0x4DA JUMP JUMPDEST JUMPDEST DUP2 CALLDATALOAD PUSH2 0x5FD DUP5 DUP3 PUSH1 0x20 DUP7 ADD PUSH2 0x598 JUMP JUMPDEST SWAP2 POP POP SWAP3 SWAP2 POP POP JUMP JUMPDEST PUSH0 PUSH0 PUSH1 0x40 DUP4 DUP6 SUB SLT ISZERO PUSH2 0x61C JUMPI PUSH2 0x61B PUSH2 0x3B7 JUMP JUMPDEST JUMPDEST PUSH0 PUSH2 0x629 DUP6 DUP3 DUP7 ADD PUSH2 0x3D5 JUMP JUMPDEST SWAP3 POP POP PUSH1 0x20 DUP4 ADD CALLDATALOAD PUSH8 0xFFFFFFFFFFFFFFFF DUP2 GT ISZERO PUSH2 0x64A JUMPI PUSH2 0x649 PUSH2 0x3BB JUMP JUMPDEST JUMPDEST PUSH2 0x656 DUP6 DUP3 DUP7 ADD PUSH2 0x5D9 JUMP JUMPDEST SWAP2 POP POP SWAP3 POP SWAP3 SWAP1 POP JUMP JUMPDEST PUSH0 DUP2 MLOAD SWAP1 POP SWAP2 SWAP1 POP JUMP JUMPDEST PUSH0 DUP3 DUP3 MSTORE PUSH1 0x20 DUP3 ADD SWAP1 POP SWAP3 SWAP2 POP POP JUMP JUMPDEST PUSH0 DUP2 SWAP1 POP PUSH1 0x20 DUP3 ADD SWAP1 POP SWAP2 SWAP1 POP JUMP JUMPDEST PUSH2 0x692 DUP2 PUSH2 0x37D JUMP JUMPDEST DUP3 MSTORE POP POP JUMP JUMPDEST PUSH0 PUSH2 0x6A3 DUP4 DUP4 PUSH2 0x689 JUMP JUMPDEST PUSH1 0x20 DUP4 ADD SWAP1 POP SWAP3 SWAP2 POP POP JUMP JUMPDEST PUSH0 PUSH1 0x20 DUP3 ADD SWAP1 POP SWAP2 SWAP1 POP JUMP JUMPDEST PUSH0 PUSH2 0x6C5 DUP3 PUSH2 0x660 JUMP JUMPDEST PUSH2 0x6CF DUP2 DUP6 PUSH2 0x66A JUMP JUMPDEST SWAP4 POP PUSH2 0x6DA DUP4 PUSH2 0x67A JUMP JUMPDEST DUP1 PUSH0 JUMPDEST DUP4 DUP2 LT ISZERO PUSH2 0x70A JUMPI DUP2 MLOAD PUSH2 0x6F1 DUP9 DUP3 PUSH2 0x698 JUMP JUMPDEST SWAP8 POP PUSH2 0x6FC DUP4 PUSH2 0x6AF JUMP JUMPDEST SWAP3 POP POP PUSH1 0x1 DUP2 ADD SWAP1 POP PUSH2 0x6DD JUMP JUMPDEST POP DUP6 SWAP4 POP POP POP POP SWAP3 SWAP2 POP POP JUMP JUMPDEST PUSH0 PUSH1 0x20 DUP3 ADD SWAP1 POP DUP2 DUP2 SUB PUSH0 DUP4 ADD MSTORE PUSH2 0x72F DUP2 DUP5 PUSH2 0x6BB JUMP JUMPDEST SWAP1 POP SWAP3 SWAP2 POP POP JUMP JUMPDEST PUSH32 0x4E487B7100000000000000000000000000000000000000000000000000000000 PUSH0 MSTORE PUSH1 0x22 PUSH1 0x4 MSTORE PUSH1 0x24 PUSH0 REVERT JUMPDEST PUSH0 PUSH1 0x2 DUP3 DIV SWAP1 POP PUSH1 0x1 DUP3 AND DUP1 PUSH2 0x77B JUMPI PUSH1 0x7F DUP3 AND SWAP2 POP JUMPDEST PUSH1 0x20 DUP3 LT DUP2 SUB PUSH2 0x78E JUMPI PUSH2 0x78D PUSH2 0x737 JUMP JUMPDEST JUMPDEST POP SWAP2 SWAP1 POP JUMP JUMPDEST PUSH32 0x494420616C726561647920657869737473210000000000000000000000000000 PUSH0 DUP3 ADD MSTORE POP JUMP JUMPDEST PUSH0 PUSH2 0x7C8 PUSH1 0x12 DUP4 PUSH2 0x41E JUMP JUMPDEST SWAP2 POP PUSH2 0x7D3 DUP3 PUSH2 0x794 JUMP JUMPDEST PUSH1 0x20 DUP3 ADD SWAP1 POP SWAP2 SWAP1 POP JUMP JUMPDEST PUSH0 PUSH1 0x20 DUP3 ADD SWAP1 POP DUP2 DUP2 SUB PUSH0 DUP4 ADD MSTORE PUSH2 0x7F5 DUP2 PUSH2 0x7BC JUMP JUMPDEST SWAP1 POP SWAP2 SWAP1 POP JUMP JUMPDEST PUSH0 DUP2 SWAP1 POP DUP2 PUSH0 MSTORE PUSH1 0x20 PUSH0 KECCAK256 SWAP1 POP SWAP2 SWAP1 POP JUMP JUMPDEST PUSH0 PUSH1 0x20 PUSH1 0x1F DUP4 ADD DIV SWAP1 POP SWAP2 SWAP1 POP JUMP JUMPDEST PUSH0 DUP3 DUP3 SHL SWAP1 POP SWAP3 SWAP2 POP POP JUMP JUMPDEST PUSH0 PUSH1 0x8 DUP4 MUL PUSH2 0x858 PUSH32 0xFFFFFFFFFFFFFFFFFFFFFFFFFFFFFFFFFFFFFFFFFFFFFFFFFFFFFFFFFFFFFFFF DUP3 PUSH2 0x81D JUMP JUMPDEST PUSH2 0x862 DUP7 DUP4 PUSH2 0x81D JUMP JUMPDEST SWAP6 POP DUP1 NOT DUP5 AND SWAP4 POP DUP1 DUP7 AND DUP5 OR SWAP3 POP POP POP SWAP4 SWAP3 POP POP POP JUMP JUMPDEST PUSH0 DUP2 SWAP1 POP SWAP2 SWAP1 POP JUMP JUMPDEST PUSH0 PUSH2 0x89D PUSH2 0x898 PUSH2 0x893 DUP5 PUSH2 0x37D JUMP JUMPDEST PUSH2 0x87A JUMP JUMPDEST PUSH2 0x37D JUMP JUMPDEST SWAP1 POP SWAP2 SWAP1 POP JUMP JUMPDEST PUSH0 DUP2 SWAP1 POP SWAP2 SWAP1 POP JUMP JUMPDEST PUSH2 0x8B6 DUP4 PUSH2 0x883 JUMP JUMPDEST PUSH2 0x8CA PUSH2 0x8C2 DUP3 PUSH2 0x8A4 JUMP JUMPDEST DUP5 DUP5 SLOAD PUSH2 0x829 JUMP JUMPDEST DUP3 SSTORE POP POP POP POP JUMP JUMPDEST PUSH0 PUSH0 SWAP1 POP SWAP1 JUMP JUMPDEST PUSH2 0x8E1 PUSH2 0x8D2 JUMP JUMPDEST PUSH2 0x8EC DUP2 DUP5 DUP5 PUSH2 0x8AD JUMP JUMPDEST POP POP POP JUMP JUMPDEST JUMPDEST DUP2 DUP2 LT ISZERO PUSH2 0x90F JUMPI PUSH2 0x904 PUSH0 DUP3 PUSH2 0x8D9 JUMP JUMPDEST PUSH1 0x1 DUP2 ADD SWAP1 POP PUSH2 0x8F2 JUMP JUMPDEST POP POP JUMP JUMPDEST PUSH1 0x1F DUP3 GT ISZERO PUSH2 0x954 JUMPI PUSH2 0x925 DUP2 PUSH2 0x7FC JUMP JUMPDEST PUSH2 0x92E DUP5 PUSH2 0x80E JUMP JUMPDEST DUP2 ADD PUSH1 0x20 DUP6 LT ISZERO PUSH2 0x93D JUMPI DUP2 SWAP1 POP JUMPDEST PUSH2 0x951 PUSH2 0x949 DUP6 PUSH2 0x80E JUMP JUMPDEST DUP4 ADD DUP3 PUSH2 0x8F1 JUMP JUMPDEST POP POP JUMPDEST POP POP POP JUMP JUMPDEST PUSH0 DUP3 DUP3 SHR SWAP1 POP SWAP3 SWAP2 POP POP JUMP JUMPDEST PUSH0 PUSH2 0x974 PUSH0 NOT DUP5 PUSH1 0x8 MUL PUSH2 0x959 JUMP JUMPDEST NOT DUP1 DUP4 AND SWAP2 POP POP SWAP3 SWAP2 POP POP JUMP JUMPDEST PUSH0 PUSH2 0x98C DUP4 DUP4 PUSH2 0x965 JUMP JUMPDEST SWAP2 POP DUP3 PUSH1 0x2 MUL DUP3 OR SWAP1 POP SWAP3 SWAP2 POP POP JUMP JUMPDEST PUSH2 0x9A5 DUP3 PUSH2 0x414 JUMP JUMPDEST PUSH8 0xFFFFFFFFFFFFFFFF DUP2 GT ISZERO PUSH2 0x9BE JUMPI PUSH2 0x9BD PUSH2 0x4E2 JUMP JUMPDEST JUMPDEST PUSH2 0x9C8 DUP3 SLOAD PUSH2 0x764 JUMP JUMPDEST PUSH2 0x9D3 DUP3 DUP3 DUP6 PUSH2 0x913 JUMP JUMPDEST PUSH0 PUSH1 0x20 SWAP1 POP PUSH1 0x1F DUP4 GT PUSH1 0x1 DUP2 EQ PUSH2 0xA04 JUMPI PUSH0 DUP5 ISZERO PUSH2 0x9F2 JUMPI DUP3 DUP8 ADD MLOAD SWAP1 POP JUMPDEST PUSH2 0x9FC DUP6 DUP3 PUSH2 0x981 JUMP JUMPDEST DUP7 SSTORE POP PUSH2 0xA63 JUMP JUMPDEST PUSH1 0x1F NOT DUP5 AND PUSH2 0xA12 DUP7 PUSH2 0x7FC JUMP JUMPDEST PUSH0 JUMPDEST DUP3 DUP2 LT ISZERO PUSH2 0xA39 JUMPI DUP5 DUP10 ADD MLOAD DUP3 SSTORE PUSH1 0x1 DUP3 ADD SWAP2 POP PUSH1 0x20 DUP6 ADD SWAP5 POP PUSH1 0x20 DUP2 ADD SWAP1 POP PUSH2 0xA14 JUMP JUMPDEST DUP7 DUP4 LT ISZERO PUSH2 0xA56 JUMPI DUP5 DUP10 ADD MLOAD PUSH2 0xA52 PUSH1 0x1F DUP10 AND DUP3 PUSH2 0x965 JUMP JUMPDEST DUP4 SSTORE POP JUMPDEST PUSH1 0x1 PUSH1 0x2 DUP9 MUL ADD DUP9 SSTORE POP POP POP JUMPDEST POP POP POP POP POP POP JUMP JUMPDEST PUSH0 PUSH1 0x40 DUP3 ADD SWAP1 POP PUSH2 0xA7E PUSH0 DUP4 ADD DUP6 PUSH2 0x386 JUMP JUMPDEST DUP2 DUP2 SUB PUSH1 0x20 DUP4 ADD MSTORE PUSH2 0xA90 DUP2 DUP5 PUSH2 0x44C JUMP JUMPDEST SWAP1 POP SWAP4 SWAP3 POP POP POP JUMP INVALID LOG2 PUSH5 0x6970667358 0x22 SLT KECCAK256 PUSH10 0x243A6B3176ABCDF7E96D 0xDE 0xF 0xBB SWAP1 0xEA PUSH29 0xBAAE589F4684CF916188CF56A7151E64736F6C634300081F0033000000 "
				},
				"gasEstimates": {
					"creation": {
						"codeDepositCost": "553400",
						"executionCost": "585",
						"totalCost": "553985"
					},
					"external": {
						"getAllSensorIds()": "infinite",
						"getSensorCount()": "2418",
						"registerSensor(uint256,string)": "infinite",
						"sensorIds(uint256)": "infinite",
						"sensors(uint256)": "infinite"
					}
				},
				"methodIdentifiers": {
					"getAllSensorIds()": "ede823db",
					"getSensorCount()": "3c51b21f",
					"registerSensor(uint256,string)": "b716f57b",
					"sensorIds(uint256)": "6dc65f95",
					"sensors(uint256)": "412f2e82"
				}
			},
			"storageLayout": {
				"storage": [
					{
						"astId": 13,
						"contract": "Day6_IterableMapping.sol:SensorRegistry",
						"label": "sensors",
						"offset": 0,
						"slot": "0",
						"type": "t_mapping(t_uint256,t_struct(SensorInfo)8_storage)"
					},
					{
						"astId": 16,
						"contract": "Day6_IterableMapping.sol:SensorRegistry",
						"label": "sensorIds",
						"offset": 0,
						"slot": "1",
						"type": "t_array(t_uint256)dyn_storage"
					}
				],
				"types": {
					"t_array(t_uint256)dyn_storage": {
						"base": "t_uint256",
						"encoding": "dynamic_array",
						"label": "uint256[]",
						"numberOfBytes": "32"
					},
					"t_bool": {
						"encoding": "inplace",
						"label": "bool",
						"numberOfBytes": "1"
					},
					"t_mapping(t_uint256,t_struct(SensorInfo)8_storage)": {
						"encoding": "mapping",
						"key": "t_uint256",
						"label": "mapping(uint256 => struct SensorRegistry.SensorInfo)",
						"numberOfBytes": "32",
						"value": "t_struct(SensorInfo)8_storage"
					},
					"t_string_storage": {
						"encoding": "bytes",
						"label": "string",
						"numberOfBytes": "32"
					},
					"t_struct(SensorInfo)8_storage": {
						"encoding": "inplace",
						"label": "struct SensorRegistry.SensorInfo",
						"members": [
							{
								"astId": 3,
								"contract": "Day6_IterableMapping.sol:SensorRegistry",
								"label": "id",
								"offset": 0,
								"slot": "0",
								"type": "t_uint256"
							},
							{
								"astId": 5,
								"contract": "Day6_IterableMapping.sol:SensorRegistry",
								"label": "location",
								"offset": 0,
								"slot": "1",
								"type": "t_string_storage"
							},
							{
								"astId": 7,
								"contract": "Day6_IterableMapping.sol:SensorRegistry",
								"label": "isRegistered",
								"offset": 0,
								"slot": "2",
								"type": "t_bool"
							}
						],
						"numberOfBytes": "96"
					},
					"t_uint256": {
						"encoding": "inplace",
						"label": "uint256",
						"numberOfBytes": "32"
					}
				}
			},
			"userdoc": {
				"kind": "user",
				"methods": {},
				"version": 1
			}
		}
	}
}